
TC-RTC.elf:     file format elf32-littlearm

Sections:
Idx Name          Size      VMA       LMA       File off  Algn
  0 .text         00003e70  00400000  00400000  00010000  2**2
                  CONTENTS, ALLOC, LOAD, READONLY, CODE
  1 .relocate     0000084c  20400000  00403e70  00020000  2**3
                  CONTENTS, ALLOC, LOAD, DATA
  2 .bss          00000108  2040084c  004046bc  0002084c  2**2
                  ALLOC
  3 .stack        00002004  20400954  004047c4  0002084c  2**0
                  ALLOC
  4 .heap         00000200  20402958  004067c8  0002084c  2**0
                  ALLOC
  5 .ARM.attributes 0000002e  00000000  00000000  0002084c  2**0
                  CONTENTS, READONLY
  6 .comment      00000059  00000000  00000000  0002087a  2**0
                  CONTENTS, READONLY
  7 .debug_info   00017d6e  00000000  00000000  000208d3  2**0
                  CONTENTS, READONLY, DEBUGGING
  8 .debug_abbrev 00002c2e  00000000  00000000  00038641  2**0
                  CONTENTS, READONLY, DEBUGGING
  9 .debug_loc    00008014  00000000  00000000  0003b26f  2**0
                  CONTENTS, READONLY, DEBUGGING
 10 .debug_aranges 00000d98  00000000  00000000  00043283  2**0
                  CONTENTS, READONLY, DEBUGGING
 11 .debug_ranges 00000cf0  00000000  00000000  0004401b  2**0
                  CONTENTS, READONLY, DEBUGGING
 12 .debug_macro  0001fb54  00000000  00000000  00044d0b  2**0
                  CONTENTS, READONLY, DEBUGGING
 13 .debug_line   0000d4cb  00000000  00000000  0006485f  2**0
                  CONTENTS, READONLY, DEBUGGING
 14 .debug_str    0008bd51  00000000  00000000  00071d2a  2**0
                  CONTENTS, READONLY, DEBUGGING
 15 .debug_frame  00004228  00000000  00000000  000fda7c  2**2
                  CONTENTS, READONLY, DEBUGGING

Disassembly of section .text:

00400000 <exception_table>:
  400000:	58 29 40 20 1d 20 40 00 cd 20 40 00 cd 20 40 00     X)@ . @.. @.. @.
  400010:	cd 20 40 00 cd 20 40 00 cd 20 40 00 00 00 00 00     . @.. @.. @.....
	...
  40002c:	cd 20 40 00 cd 20 40 00 00 00 00 00 cd 20 40 00     . @.. @...... @.
  40003c:	cd 20 40 00 cd 20 40 00 cd 20 40 00 09 2a 40 00     . @.. @.. @..*@.
  40004c:	cd 20 40 00 cd 20 40 00 cd 20 40 00 cd 20 40 00     . @.. @.. @.. @.
  40005c:	cd 20 40 00 cd 20 40 00 00 00 00 00 25 0d 40 00     . @.. @.....%.@.
  40006c:	3d 0d 40 00 55 0d 40 00 cd 20 40 00 79 29 40 00     =.@.U.@.. @.y)@.
  40007c:	cd 20 40 00 6d 0d 40 00 85 0d 40 00 cd 20 40 00     . @.m.@...@.. @.
  40008c:	cd 20 40 00 cd 20 40 00 cd 20 40 00 cd 20 40 00     . @.. @.. @.. @.
  40009c:	cd 20 40 00 c1 29 40 00 cd 20 40 00 cd 20 40 00     . @..)@.. @.. @.
  4000ac:	cd 20 40 00 cd 20 40 00 cd 20 40 00 cd 20 40 00     . @.. @.. @.. @.
  4000bc:	cd 20 40 00 cd 20 40 00 cd 20 40 00 cd 20 40 00     . @.. @.. @.. @.
  4000cc:	cd 20 40 00 00 00 00 00 cd 20 40 00 00 00 00 00     . @...... @.....
  4000dc:	cd 20 40 00 cd 20 40 00 cd 20 40 00 cd 20 40 00     . @.. @.. @.. @.
  4000ec:	cd 20 40 00 cd 20 40 00 cd 20 40 00 cd 20 40 00     . @.. @.. @.. @.
  4000fc:	cd 20 40 00 cd 20 40 00 cd 20 40 00 cd 20 40 00     . @.. @.. @.. @.
  40010c:	cd 20 40 00 cd 20 40 00 00 00 00 00 00 00 00 00     . @.. @.........
  40011c:	00 00 00 00 cd 20 40 00 cd 20 40 00 cd 20 40 00     ..... @.. @.. @.
  40012c:	cd 20 40 00 cd 20 40 00 00 00 00 00 cd 20 40 00     . @.. @...... @.
  40013c:	cd 20 40 00                                         . @.

00400140 <__do_global_dtors_aux>:
  400140:	b510      	push	{r4, lr}
  400142:	4c05      	ldr	r4, [pc, #20]	; (400158 <__do_global_dtors_aux+0x18>)
  400144:	7823      	ldrb	r3, [r4, #0]
  400146:	b933      	cbnz	r3, 400156 <__do_global_dtors_aux+0x16>
  400148:	4b04      	ldr	r3, [pc, #16]	; (40015c <__do_global_dtors_aux+0x1c>)
  40014a:	b113      	cbz	r3, 400152 <__do_global_dtors_aux+0x12>
  40014c:	4804      	ldr	r0, [pc, #16]	; (400160 <__do_global_dtors_aux+0x20>)
  40014e:	f3af 8000 	nop.w
  400152:	2301      	movs	r3, #1
  400154:	7023      	strb	r3, [r4, #0]
  400156:	bd10      	pop	{r4, pc}
  400158:	2040084c 	.word	0x2040084c
  40015c:	00000000 	.word	0x00000000
  400160:	00403e70 	.word	0x00403e70

00400164 <frame_dummy>:
  400164:	4b0c      	ldr	r3, [pc, #48]	; (400198 <frame_dummy+0x34>)
  400166:	b143      	cbz	r3, 40017a <frame_dummy+0x16>
  400168:	480c      	ldr	r0, [pc, #48]	; (40019c <frame_dummy+0x38>)
  40016a:	490d      	ldr	r1, [pc, #52]	; (4001a0 <frame_dummy+0x3c>)
  40016c:	b510      	push	{r4, lr}
  40016e:	f3af 8000 	nop.w
  400172:	480c      	ldr	r0, [pc, #48]	; (4001a4 <frame_dummy+0x40>)
  400174:	6803      	ldr	r3, [r0, #0]
  400176:	b923      	cbnz	r3, 400182 <frame_dummy+0x1e>
  400178:	bd10      	pop	{r4, pc}
  40017a:	480a      	ldr	r0, [pc, #40]	; (4001a4 <frame_dummy+0x40>)
  40017c:	6803      	ldr	r3, [r0, #0]
  40017e:	b933      	cbnz	r3, 40018e <frame_dummy+0x2a>
  400180:	4770      	bx	lr
  400182:	4b09      	ldr	r3, [pc, #36]	; (4001a8 <frame_dummy+0x44>)
  400184:	2b00      	cmp	r3, #0
  400186:	d0f7      	beq.n	400178 <frame_dummy+0x14>
  400188:	e8bd 4010 	ldmia.w	sp!, {r4, lr}
  40018c:	4718      	bx	r3
  40018e:	4b06      	ldr	r3, [pc, #24]	; (4001a8 <frame_dummy+0x44>)
  400190:	2b00      	cmp	r3, #0
  400192:	d0f5      	beq.n	400180 <frame_dummy+0x1c>
  400194:	4718      	bx	r3
  400196:	bf00      	nop
  400198:	00000000 	.word	0x00000000
  40019c:	00403e70 	.word	0x00403e70
  4001a0:	20400850 	.word	0x20400850
  4001a4:	00403e70 	.word	0x00403e70
  4001a8:	00000000 	.word	0x00000000

004001ac <osc_enable>:
#define OSC_MAINCK_XTAL_HZ      BOARD_FREQ_MAINCK_XTAL    //!< External crystal oscillator.
#define OSC_MAINCK_BYPASS_HZ    BOARD_FREQ_MAINCK_BYPASS  //!< External bypass oscillator.
//@}

static inline void osc_enable(uint32_t ul_id)
{
  4001ac:	b580      	push	{r7, lr}
  4001ae:	b082      	sub	sp, #8
  4001b0:	af00      	add	r7, sp, #0
  4001b2:	6078      	str	r0, [r7, #4]
	switch (ul_id) {
  4001b4:	687b      	ldr	r3, [r7, #4]
  4001b6:	2b07      	cmp	r3, #7
  4001b8:	d831      	bhi.n	40021e <osc_enable+0x72>
  4001ba:	a201      	add	r2, pc, #4	; (adr r2, 4001c0 <osc_enable+0x14>)
  4001bc:	f852 f023 	ldr.w	pc, [r2, r3, lsl #2]
  4001c0:	0040021d 	.word	0x0040021d
  4001c4:	004001e1 	.word	0x004001e1
  4001c8:	004001e9 	.word	0x004001e9
  4001cc:	004001f1 	.word	0x004001f1
  4001d0:	004001f9 	.word	0x004001f9
  4001d4:	00400201 	.word	0x00400201
  4001d8:	00400209 	.word	0x00400209
  4001dc:	00400213 	.word	0x00400213
	case OSC_SLCK_32K_RC:
		break;

	case OSC_SLCK_32K_XTAL:
		pmc_switch_sclk_to_32kxtal(PMC_OSC_XTAL);
  4001e0:	2000      	movs	r0, #0
  4001e2:	4b11      	ldr	r3, [pc, #68]	; (400228 <osc_enable+0x7c>)
  4001e4:	4798      	blx	r3
		break;
  4001e6:	e01a      	b.n	40021e <osc_enable+0x72>

	case OSC_SLCK_32K_BYPASS:
		pmc_switch_sclk_to_32kxtal(PMC_OSC_BYPASS);
  4001e8:	2001      	movs	r0, #1
  4001ea:	4b0f      	ldr	r3, [pc, #60]	; (400228 <osc_enable+0x7c>)
  4001ec:	4798      	blx	r3
		break;
  4001ee:	e016      	b.n	40021e <osc_enable+0x72>


	case OSC_MAINCK_4M_RC:
		pmc_switch_mainck_to_fastrc(CKGR_MOR_MOSCRCF_4_MHz);
  4001f0:	2000      	movs	r0, #0
  4001f2:	4b0e      	ldr	r3, [pc, #56]	; (40022c <osc_enable+0x80>)
  4001f4:	4798      	blx	r3
		break;
  4001f6:	e012      	b.n	40021e <osc_enable+0x72>

	case OSC_MAINCK_8M_RC:
		pmc_switch_mainck_to_fastrc(CKGR_MOR_MOSCRCF_8_MHz);
  4001f8:	2010      	movs	r0, #16
  4001fa:	4b0c      	ldr	r3, [pc, #48]	; (40022c <osc_enable+0x80>)
  4001fc:	4798      	blx	r3
		break;
  4001fe:	e00e      	b.n	40021e <osc_enable+0x72>

	case OSC_MAINCK_12M_RC:
		pmc_switch_mainck_to_fastrc(CKGR_MOR_MOSCRCF_12_MHz);
  400200:	2020      	movs	r0, #32
  400202:	4b0a      	ldr	r3, [pc, #40]	; (40022c <osc_enable+0x80>)
  400204:	4798      	blx	r3
		break;
  400206:	e00a      	b.n	40021e <osc_enable+0x72>


	case OSC_MAINCK_XTAL:
		pmc_switch_mainck_to_xtal(PMC_OSC_XTAL,
  400208:	213e      	movs	r1, #62	; 0x3e
  40020a:	2000      	movs	r0, #0
  40020c:	4b08      	ldr	r3, [pc, #32]	; (400230 <osc_enable+0x84>)
  40020e:	4798      	blx	r3
			pmc_us_to_moscxtst(BOARD_OSC_STARTUP_US,
				OSC_SLCK_32K_RC_HZ));
		break;
  400210:	e005      	b.n	40021e <osc_enable+0x72>

	case OSC_MAINCK_BYPASS:
		pmc_switch_mainck_to_xtal(PMC_OSC_BYPASS,
  400212:	213e      	movs	r1, #62	; 0x3e
  400214:	2001      	movs	r0, #1
  400216:	4b06      	ldr	r3, [pc, #24]	; (400230 <osc_enable+0x84>)
  400218:	4798      	blx	r3
			pmc_us_to_moscxtst(BOARD_OSC_STARTUP_US,
				OSC_SLCK_32K_RC_HZ));
		break;
  40021a:	e000      	b.n	40021e <osc_enable+0x72>
		break;
  40021c:	bf00      	nop
	}
}
  40021e:	bf00      	nop
  400220:	3708      	adds	r7, #8
  400222:	46bd      	mov	sp, r7
  400224:	bd80      	pop	{r7, pc}
  400226:	bf00      	nop
  400228:	00400e9d 	.word	0x00400e9d
  40022c:	00400f09 	.word	0x00400f09
  400230:	00400f79 	.word	0x00400f79

00400234 <osc_is_ready>:
		break;
	}
}

static inline bool osc_is_ready(uint32_t ul_id)
{
  400234:	b580      	push	{r7, lr}
  400236:	b082      	sub	sp, #8
  400238:	af00      	add	r7, sp, #0
  40023a:	6078      	str	r0, [r7, #4]
	switch (ul_id) {
  40023c:	687b      	ldr	r3, [r7, #4]
  40023e:	2b07      	cmp	r3, #7
  400240:	d826      	bhi.n	400290 <osc_is_ready+0x5c>
  400242:	a201      	add	r2, pc, #4	; (adr r2, 400248 <osc_is_ready+0x14>)
  400244:	f852 f023 	ldr.w	pc, [r2, r3, lsl #2]
  400248:	00400269 	.word	0x00400269
  40024c:	0040026d 	.word	0x0040026d
  400250:	0040026d 	.word	0x0040026d
  400254:	0040027f 	.word	0x0040027f
  400258:	0040027f 	.word	0x0040027f
  40025c:	0040027f 	.word	0x0040027f
  400260:	0040027f 	.word	0x0040027f
  400264:	0040027f 	.word	0x0040027f
	case OSC_SLCK_32K_RC:
		return 1;
  400268:	2301      	movs	r3, #1
  40026a:	e012      	b.n	400292 <osc_is_ready+0x5e>

	case OSC_SLCK_32K_XTAL:
	case OSC_SLCK_32K_BYPASS:
		return pmc_osc_is_ready_32kxtal();
  40026c:	4b0b      	ldr	r3, [pc, #44]	; (40029c <osc_is_ready+0x68>)
  40026e:	4798      	blx	r3
  400270:	4603      	mov	r3, r0
  400272:	2b00      	cmp	r3, #0
  400274:	bf14      	ite	ne
  400276:	2301      	movne	r3, #1
  400278:	2300      	moveq	r3, #0
  40027a:	b2db      	uxtb	r3, r3
  40027c:	e009      	b.n	400292 <osc_is_ready+0x5e>
	case OSC_MAINCK_4M_RC:
	case OSC_MAINCK_8M_RC:
	case OSC_MAINCK_12M_RC:
	case OSC_MAINCK_XTAL:
	case OSC_MAINCK_BYPASS:
		return pmc_osc_is_ready_mainck();
  40027e:	4b08      	ldr	r3, [pc, #32]	; (4002a0 <osc_is_ready+0x6c>)
  400280:	4798      	blx	r3
  400282:	4603      	mov	r3, r0
  400284:	2b00      	cmp	r3, #0
  400286:	bf14      	ite	ne
  400288:	2301      	movne	r3, #1
  40028a:	2300      	moveq	r3, #0
  40028c:	b2db      	uxtb	r3, r3
  40028e:	e000      	b.n	400292 <osc_is_ready+0x5e>
	}

	return 0;
  400290:	2300      	movs	r3, #0
}
  400292:	4618      	mov	r0, r3
  400294:	3708      	adds	r7, #8
  400296:	46bd      	mov	sp, r7
  400298:	bd80      	pop	{r7, pc}
  40029a:	bf00      	nop
  40029c:	00400ed5 	.word	0x00400ed5
  4002a0:	00400ff1 	.word	0x00400ff1

004002a4 <osc_get_rate>:

static inline uint32_t osc_get_rate(uint32_t ul_id)
{
  4002a4:	b480      	push	{r7}
  4002a6:	b083      	sub	sp, #12
  4002a8:	af00      	add	r7, sp, #0
  4002aa:	6078      	str	r0, [r7, #4]
	switch (ul_id) {
  4002ac:	687b      	ldr	r3, [r7, #4]
  4002ae:	2b07      	cmp	r3, #7
  4002b0:	d825      	bhi.n	4002fe <osc_get_rate+0x5a>
  4002b2:	a201      	add	r2, pc, #4	; (adr r2, 4002b8 <osc_get_rate+0x14>)
  4002b4:	f852 f023 	ldr.w	pc, [r2, r3, lsl #2]
  4002b8:	004002d9 	.word	0x004002d9
  4002bc:	004002df 	.word	0x004002df
  4002c0:	004002e5 	.word	0x004002e5
  4002c4:	004002eb 	.word	0x004002eb
  4002c8:	004002ef 	.word	0x004002ef
  4002cc:	004002f3 	.word	0x004002f3
  4002d0:	004002f7 	.word	0x004002f7
  4002d4:	004002fb 	.word	0x004002fb
	case OSC_SLCK_32K_RC:
		return OSC_SLCK_32K_RC_HZ;
  4002d8:	f44f 43fa 	mov.w	r3, #32000	; 0x7d00
  4002dc:	e010      	b.n	400300 <osc_get_rate+0x5c>

	case OSC_SLCK_32K_XTAL:
		return BOARD_FREQ_SLCK_XTAL;
  4002de:	f44f 4300 	mov.w	r3, #32768	; 0x8000
  4002e2:	e00d      	b.n	400300 <osc_get_rate+0x5c>

	case OSC_SLCK_32K_BYPASS:
		return BOARD_FREQ_SLCK_BYPASS;
  4002e4:	f44f 4300 	mov.w	r3, #32768	; 0x8000
  4002e8:	e00a      	b.n	400300 <osc_get_rate+0x5c>

	case OSC_MAINCK_4M_RC:
		return OSC_MAINCK_4M_RC_HZ;
  4002ea:	4b08      	ldr	r3, [pc, #32]	; (40030c <osc_get_rate+0x68>)
  4002ec:	e008      	b.n	400300 <osc_get_rate+0x5c>

	case OSC_MAINCK_8M_RC:
		return OSC_MAINCK_8M_RC_HZ;
  4002ee:	4b08      	ldr	r3, [pc, #32]	; (400310 <osc_get_rate+0x6c>)
  4002f0:	e006      	b.n	400300 <osc_get_rate+0x5c>

	case OSC_MAINCK_12M_RC:
		return OSC_MAINCK_12M_RC_HZ;
  4002f2:	4b08      	ldr	r3, [pc, #32]	; (400314 <osc_get_rate+0x70>)
  4002f4:	e004      	b.n	400300 <osc_get_rate+0x5c>

	case OSC_MAINCK_XTAL:
		return BOARD_FREQ_MAINCK_XTAL;
  4002f6:	4b07      	ldr	r3, [pc, #28]	; (400314 <osc_get_rate+0x70>)
  4002f8:	e002      	b.n	400300 <osc_get_rate+0x5c>

	case OSC_MAINCK_BYPASS:
		return BOARD_FREQ_MAINCK_BYPASS;
  4002fa:	4b06      	ldr	r3, [pc, #24]	; (400314 <osc_get_rate+0x70>)
  4002fc:	e000      	b.n	400300 <osc_get_rate+0x5c>
	}

	return 0;
  4002fe:	2300      	movs	r3, #0
}
  400300:	4618      	mov	r0, r3
  400302:	370c      	adds	r7, #12
  400304:	46bd      	mov	sp, r7
  400306:	f85d 7b04 	ldr.w	r7, [sp], #4
  40030a:	4770      	bx	lr
  40030c:	003d0900 	.word	0x003d0900
  400310:	007a1200 	.word	0x007a1200
  400314:	00b71b00 	.word	0x00b71b00

00400318 <osc_wait_ready>:
 * to become stable and ready to use as a clock source.
 *
 * \param id A number identifying the oscillator to wait for.
 */
static inline void osc_wait_ready(uint8_t id)
{
  400318:	b580      	push	{r7, lr}
  40031a:	b082      	sub	sp, #8
  40031c:	af00      	add	r7, sp, #0
  40031e:	4603      	mov	r3, r0
  400320:	71fb      	strb	r3, [r7, #7]
	while (!osc_is_ready(id)) {
  400322:	bf00      	nop
  400324:	79fb      	ldrb	r3, [r7, #7]
  400326:	4618      	mov	r0, r3
  400328:	4b05      	ldr	r3, [pc, #20]	; (400340 <osc_wait_ready+0x28>)
  40032a:	4798      	blx	r3
  40032c:	4603      	mov	r3, r0
  40032e:	f083 0301 	eor.w	r3, r3, #1
  400332:	b2db      	uxtb	r3, r3
  400334:	2b00      	cmp	r3, #0
  400336:	d1f5      	bne.n	400324 <osc_wait_ready+0xc>
		/* Do nothing */
	}
}
  400338:	bf00      	nop
  40033a:	3708      	adds	r7, #8
  40033c:	46bd      	mov	sp, r7
  40033e:	bd80      	pop	{r7, pc}
  400340:	00400235 	.word	0x00400235

00400344 <pll_config_init>:
 * hardware mul+1 is hidden in this implementation. Use mul as mul effective
 * value.
 */
static inline void pll_config_init(struct pll_config *p_cfg,
		enum pll_source e_src, uint32_t ul_div, uint32_t ul_mul)
{
  400344:	b580      	push	{r7, lr}
  400346:	b086      	sub	sp, #24
  400348:	af00      	add	r7, sp, #0
  40034a:	60f8      	str	r0, [r7, #12]
  40034c:	607a      	str	r2, [r7, #4]
  40034e:	603b      	str	r3, [r7, #0]
  400350:	460b      	mov	r3, r1
  400352:	72fb      	strb	r3, [r7, #11]
	uint32_t vco_hz;

	Assert(e_src < PLL_NR_SOURCES);

	if (ul_div == 0 && ul_mul == 0) { /* Must only be true for UTMI PLL */
  400354:	687b      	ldr	r3, [r7, #4]
  400356:	2b00      	cmp	r3, #0
  400358:	d107      	bne.n	40036a <pll_config_init+0x26>
  40035a:	683b      	ldr	r3, [r7, #0]
  40035c:	2b00      	cmp	r3, #0
  40035e:	d104      	bne.n	40036a <pll_config_init+0x26>
		p_cfg->ctrl = CKGR_UCKR_UPLLCOUNT(PLL_COUNT);
  400360:	68fb      	ldr	r3, [r7, #12]
  400362:	f44f 0270 	mov.w	r2, #15728640	; 0xf00000
  400366:	601a      	str	r2, [r3, #0]
  400368:	e019      	b.n	40039e <pll_config_init+0x5a>
	} else { /* PLLA */
	/* Calculate internal VCO frequency */
	vco_hz = osc_get_rate(e_src) / ul_div;
  40036a:	7afb      	ldrb	r3, [r7, #11]
  40036c:	4618      	mov	r0, r3
  40036e:	4b0e      	ldr	r3, [pc, #56]	; (4003a8 <pll_config_init+0x64>)
  400370:	4798      	blx	r3
  400372:	4602      	mov	r2, r0
  400374:	687b      	ldr	r3, [r7, #4]
  400376:	fbb2 f3f3 	udiv	r3, r2, r3
  40037a:	617b      	str	r3, [r7, #20]
	Assert(vco_hz >= PLL_INPUT_MIN_HZ);
	Assert(vco_hz <= PLL_INPUT_MAX_HZ);

	vco_hz *= ul_mul;
  40037c:	697b      	ldr	r3, [r7, #20]
  40037e:	683a      	ldr	r2, [r7, #0]
  400380:	fb02 f303 	mul.w	r3, r2, r3
  400384:	617b      	str	r3, [r7, #20]
	Assert(vco_hz >= PLL_OUTPUT_MIN_HZ);
	Assert(vco_hz <= PLL_OUTPUT_MAX_HZ);

	/* PMC hardware will automatically make it mul+1 */
		p_cfg->ctrl = CKGR_PLLAR_MULA(ul_mul - 1) | CKGR_PLLAR_DIVA(ul_div)  \
  400386:	683b      	ldr	r3, [r7, #0]
  400388:	3b01      	subs	r3, #1
  40038a:	041a      	lsls	r2, r3, #16
  40038c:	4b07      	ldr	r3, [pc, #28]	; (4003ac <pll_config_init+0x68>)
  40038e:	4013      	ands	r3, r2
  400390:	687a      	ldr	r2, [r7, #4]
  400392:	b2d2      	uxtb	r2, r2
  400394:	4313      	orrs	r3, r2
		| CKGR_PLLAR_PLLACOUNT(PLL_COUNT);
  400396:	f443 527c 	orr.w	r2, r3, #16128	; 0x3f00
		p_cfg->ctrl = CKGR_PLLAR_MULA(ul_mul - 1) | CKGR_PLLAR_DIVA(ul_div)  \
  40039a:	68fb      	ldr	r3, [r7, #12]
  40039c:	601a      	str	r2, [r3, #0]
	}
}
  40039e:	bf00      	nop
  4003a0:	3718      	adds	r7, #24
  4003a2:	46bd      	mov	sp, r7
  4003a4:	bd80      	pop	{r7, pc}
  4003a6:	bf00      	nop
  4003a8:	004002a5 	.word	0x004002a5
  4003ac:	07ff0000 	.word	0x07ff0000

004003b0 <pll_enable>:
		PMC->CKGR_UCKR = p_cfg->ctrl;
	}
}

static inline void pll_enable(const struct pll_config *p_cfg, uint32_t ul_pll_id)
{
  4003b0:	b580      	push	{r7, lr}
  4003b2:	b082      	sub	sp, #8
  4003b4:	af00      	add	r7, sp, #0
  4003b6:	6078      	str	r0, [r7, #4]
  4003b8:	6039      	str	r1, [r7, #0]
	Assert(ul_pll_id < NR_PLLS);

	if (ul_pll_id == PLLA_ID) {
  4003ba:	683b      	ldr	r3, [r7, #0]
  4003bc:	2b00      	cmp	r3, #0
  4003be:	d108      	bne.n	4003d2 <pll_enable+0x22>
		pmc_disable_pllack(); // Always stop PLL first!
  4003c0:	4b09      	ldr	r3, [pc, #36]	; (4003e8 <pll_enable+0x38>)
  4003c2:	4798      	blx	r3
		PMC->CKGR_PLLAR = CKGR_PLLAR_ONE | p_cfg->ctrl;
  4003c4:	4a09      	ldr	r2, [pc, #36]	; (4003ec <pll_enable+0x3c>)
  4003c6:	687b      	ldr	r3, [r7, #4]
  4003c8:	681b      	ldr	r3, [r3, #0]
  4003ca:	f043 5300 	orr.w	r3, r3, #536870912	; 0x20000000
  4003ce:	6293      	str	r3, [r2, #40]	; 0x28
	} else {
		PMC->CKGR_UCKR = p_cfg->ctrl | CKGR_UCKR_UPLLEN;
	}
}
  4003d0:	e005      	b.n	4003de <pll_enable+0x2e>
		PMC->CKGR_UCKR = p_cfg->ctrl | CKGR_UCKR_UPLLEN;
  4003d2:	4a06      	ldr	r2, [pc, #24]	; (4003ec <pll_enable+0x3c>)
  4003d4:	687b      	ldr	r3, [r7, #4]
  4003d6:	681b      	ldr	r3, [r3, #0]
  4003d8:	f443 3380 	orr.w	r3, r3, #65536	; 0x10000
  4003dc:	61d3      	str	r3, [r2, #28]
}
  4003de:	bf00      	nop
  4003e0:	3708      	adds	r7, #8
  4003e2:	46bd      	mov	sp, r7
  4003e4:	bd80      	pop	{r7, pc}
  4003e6:	bf00      	nop
  4003e8:	0040100d 	.word	0x0040100d
  4003ec:	400e0600 	.word	0x400e0600

004003f0 <pll_is_locked>:
		PMC->CKGR_UCKR &= ~CKGR_UCKR_UPLLEN;
	}
}

static inline uint32_t pll_is_locked(uint32_t ul_pll_id)
{
  4003f0:	b580      	push	{r7, lr}
  4003f2:	b082      	sub	sp, #8
  4003f4:	af00      	add	r7, sp, #0
  4003f6:	6078      	str	r0, [r7, #4]
	Assert(ul_pll_id < NR_PLLS);

	if (ul_pll_id == PLLA_ID) {
  4003f8:	687b      	ldr	r3, [r7, #4]
  4003fa:	2b00      	cmp	r3, #0
  4003fc:	d103      	bne.n	400406 <pll_is_locked+0x16>
	return pmc_is_locked_pllack();
  4003fe:	4b05      	ldr	r3, [pc, #20]	; (400414 <pll_is_locked+0x24>)
  400400:	4798      	blx	r3
  400402:	4603      	mov	r3, r0
  400404:	e002      	b.n	40040c <pll_is_locked+0x1c>
	} else {
		return pmc_is_locked_upll();
  400406:	4b04      	ldr	r3, [pc, #16]	; (400418 <pll_is_locked+0x28>)
  400408:	4798      	blx	r3
  40040a:	4603      	mov	r3, r0
	}
}
  40040c:	4618      	mov	r0, r3
  40040e:	3708      	adds	r7, #8
  400410:	46bd      	mov	sp, r7
  400412:	bd80      	pop	{r7, pc}
  400414:	00401029 	.word	0x00401029
  400418:	00401045 	.word	0x00401045

0040041c <pll_enable_source>:

static inline void pll_enable_source(enum pll_source e_src)
{
  40041c:	b580      	push	{r7, lr}
  40041e:	b082      	sub	sp, #8
  400420:	af00      	add	r7, sp, #0
  400422:	4603      	mov	r3, r0
  400424:	71fb      	strb	r3, [r7, #7]
	switch (e_src) {
  400426:	79fb      	ldrb	r3, [r7, #7]
  400428:	3b03      	subs	r3, #3
  40042a:	2b04      	cmp	r3, #4
  40042c:	d808      	bhi.n	400440 <pll_enable_source+0x24>
	case PLL_SRC_MAINCK_4M_RC:
	case PLL_SRC_MAINCK_8M_RC:
	case PLL_SRC_MAINCK_12M_RC:
	case PLL_SRC_MAINCK_XTAL:
	case PLL_SRC_MAINCK_BYPASS:
		osc_enable(e_src);
  40042e:	79fb      	ldrb	r3, [r7, #7]
  400430:	4618      	mov	r0, r3
  400432:	4b06      	ldr	r3, [pc, #24]	; (40044c <pll_enable_source+0x30>)
  400434:	4798      	blx	r3
		osc_wait_ready(e_src);
  400436:	79fb      	ldrb	r3, [r7, #7]
  400438:	4618      	mov	r0, r3
  40043a:	4b05      	ldr	r3, [pc, #20]	; (400450 <pll_enable_source+0x34>)
  40043c:	4798      	blx	r3
		break;
  40043e:	e000      	b.n	400442 <pll_enable_source+0x26>

	default:
		Assert(false);
		break;
  400440:	bf00      	nop
	}
}
  400442:	bf00      	nop
  400444:	3708      	adds	r7, #8
  400446:	46bd      	mov	sp, r7
  400448:	bd80      	pop	{r7, pc}
  40044a:	bf00      	nop
  40044c:	004001ad 	.word	0x004001ad
  400450:	00400319 	.word	0x00400319

00400454 <pll_wait_for_lock>:
 *
 * \retval STATUS_OK The PLL is now locked.
 * \retval ERR_TIMEOUT Timed out waiting for PLL to become locked.
 */
static inline int pll_wait_for_lock(unsigned int pll_id)
{
  400454:	b580      	push	{r7, lr}
  400456:	b082      	sub	sp, #8
  400458:	af00      	add	r7, sp, #0
  40045a:	6078      	str	r0, [r7, #4]
	Assert(pll_id < NR_PLLS);

	while (!pll_is_locked(pll_id)) {
  40045c:	bf00      	nop
  40045e:	6878      	ldr	r0, [r7, #4]
  400460:	4b04      	ldr	r3, [pc, #16]	; (400474 <pll_wait_for_lock+0x20>)
  400462:	4798      	blx	r3
  400464:	4603      	mov	r3, r0
  400466:	2b00      	cmp	r3, #0
  400468:	d0f9      	beq.n	40045e <pll_wait_for_lock+0xa>
		/* Do nothing */
	}

	return 0;
  40046a:	2300      	movs	r3, #0
}
  40046c:	4618      	mov	r0, r3
  40046e:	3708      	adds	r7, #8
  400470:	46bd      	mov	sp, r7
  400472:	bd80      	pop	{r7, pc}
  400474:	004003f1 	.word	0x004003f1

00400478 <sysclk_get_main_hz>:
 */
#if (defined CONFIG_SYSCLK_DEFAULT_RETURNS_SLOW_OSC)
extern uint32_t sysclk_initialized;
#endif
static inline uint32_t sysclk_get_main_hz(void)
{
  400478:	b580      	push	{r7, lr}
  40047a:	af00      	add	r7, sp, #0
	} else if (CONFIG_SYSCLK_SOURCE == SYSCLK_SRC_MAINCK_BYPASS) {
		return OSC_MAINCK_BYPASS_HZ;
	}
#ifdef CONFIG_PLL0_SOURCE
	else if (CONFIG_SYSCLK_SOURCE == SYSCLK_SRC_PLLACK) {
		return pll_get_default_rate(0);
  40047c:	2006      	movs	r0, #6
  40047e:	4b05      	ldr	r3, [pc, #20]	; (400494 <sysclk_get_main_hz+0x1c>)
  400480:	4798      	blx	r3
  400482:	4602      	mov	r2, r0
  400484:	4613      	mov	r3, r2
  400486:	009b      	lsls	r3, r3, #2
  400488:	4413      	add	r3, r2
  40048a:	009a      	lsls	r2, r3, #2
  40048c:	4413      	add	r3, r2
#endif
	else {
		/* unhandled_case(CONFIG_SYSCLK_SOURCE); */
		return 0;
	}
}
  40048e:	4618      	mov	r0, r3
  400490:	bd80      	pop	{r7, pc}
  400492:	bf00      	nop
  400494:	004002a5 	.word	0x004002a5

00400498 <sysclk_get_cpu_hz>:
 * clocks.
 *
 * \return Frequency of the CPU clock, in Hz.
 */
static inline uint32_t sysclk_get_cpu_hz(void)
{
  400498:	b580      	push	{r7, lr}
  40049a:	af00      	add	r7, sp, #0
	/* CONFIG_SYSCLK_PRES is the register value for setting the expected */
	/* prescaler, not an immediate value. */
	return sysclk_get_main_hz() /
  40049c:	4b02      	ldr	r3, [pc, #8]	; (4004a8 <sysclk_get_cpu_hz+0x10>)
  40049e:	4798      	blx	r3
  4004a0:	4603      	mov	r3, r0
  4004a2:	099b      	lsrs	r3, r3, #6
		((CONFIG_SYSCLK_PRES == SYSCLK_PRES_3) ? 3 :
			(1 << (CONFIG_SYSCLK_PRES >> PMC_MCKR_PRES_Pos)));
}
  4004a4:	4618      	mov	r0, r3
  4004a6:	bd80      	pop	{r7, pc}
  4004a8:	00400479 	.word	0x00400479

004004ac <sysclk_init>:
	pmc_disable_udpck();
}
#endif // CONFIG_USBCLK_SOURCE

void sysclk_init(void)
{
  4004ac:	b590      	push	{r4, r7, lr}
  4004ae:	b083      	sub	sp, #12
  4004b0:	af00      	add	r7, sp, #0
	struct pll_config pllcfg;

	/* Set flash wait state to max in case the below clock switching. */
	system_init_flash(CHIP_FREQ_CPU_MAX);
  4004b2:	4813      	ldr	r0, [pc, #76]	; (400500 <sysclk_init+0x54>)
  4004b4:	4b13      	ldr	r3, [pc, #76]	; (400504 <sysclk_init+0x58>)
  4004b6:	4798      	blx	r3
		pmc_switch_mck_to_mainck(CONFIG_SYSCLK_PRES);
	}

#ifdef CONFIG_PLL0_SOURCE
	else if (CONFIG_SYSCLK_SOURCE == SYSCLK_SRC_PLLACK) {
		pll_enable_source(CONFIG_PLL0_SOURCE);
  4004b8:	2006      	movs	r0, #6
  4004ba:	4b13      	ldr	r3, [pc, #76]	; (400508 <sysclk_init+0x5c>)
  4004bc:	4798      	blx	r3
		pll_config_defaults(&pllcfg, 0);
  4004be:	1d38      	adds	r0, r7, #4
  4004c0:	2319      	movs	r3, #25
  4004c2:	2201      	movs	r2, #1
  4004c4:	2106      	movs	r1, #6
  4004c6:	4c11      	ldr	r4, [pc, #68]	; (40050c <sysclk_init+0x60>)
  4004c8:	47a0      	blx	r4
		pll_enable(&pllcfg, 0);
  4004ca:	1d3b      	adds	r3, r7, #4
  4004cc:	2100      	movs	r1, #0
  4004ce:	4618      	mov	r0, r3
  4004d0:	4b0f      	ldr	r3, [pc, #60]	; (400510 <sysclk_init+0x64>)
  4004d2:	4798      	blx	r3
		pll_wait_for_lock(0);
  4004d4:	2000      	movs	r0, #0
  4004d6:	4b0f      	ldr	r3, [pc, #60]	; (400514 <sysclk_init+0x68>)
  4004d8:	4798      	blx	r3
		pmc_mck_set_division(CONFIG_SYSCLK_DIV);
  4004da:	f44f 7096 	mov.w	r0, #300	; 0x12c
  4004de:	4b0e      	ldr	r3, [pc, #56]	; (400518 <sysclk_init+0x6c>)
  4004e0:	4798      	blx	r3
		pmc_switch_mck_to_pllack(CONFIG_SYSCLK_PRES);
  4004e2:	2060      	movs	r0, #96	; 0x60
  4004e4:	4b0d      	ldr	r3, [pc, #52]	; (40051c <sysclk_init+0x70>)
  4004e6:	4798      	blx	r3
		pll_wait_for_lock(1);
		pmc_mck_set_division(CONFIG_SYSCLK_DIV);
		pmc_switch_mck_to_upllck(CONFIG_SYSCLK_PRES);
	}
	/* Update the SystemFrequency variable */
	SystemCoreClockUpdate();
  4004e8:	4b0d      	ldr	r3, [pc, #52]	; (400520 <sysclk_init+0x74>)
  4004ea:	4798      	blx	r3

	/* Set a flash wait state depending on the new cpu frequency */
	system_init_flash(sysclk_get_cpu_hz());
  4004ec:	4b0d      	ldr	r3, [pc, #52]	; (400524 <sysclk_init+0x78>)
  4004ee:	4798      	blx	r3
  4004f0:	4603      	mov	r3, r0
  4004f2:	4618      	mov	r0, r3
  4004f4:	4b03      	ldr	r3, [pc, #12]	; (400504 <sysclk_init+0x58>)
  4004f6:	4798      	blx	r3

#if (defined CONFIG_SYSCLK_DEFAULT_RETURNS_SLOW_OSC)
	/* Signal that the internal frequencies are setup */
	sysclk_initialized = 1;
#endif
}
  4004f8:	bf00      	nop
  4004fa:	370c      	adds	r7, #12
  4004fc:	46bd      	mov	sp, r7
  4004fe:	bd90      	pop	{r4, r7, pc}
  400500:	11e1a300 	.word	0x11e1a300
  400504:	0040223d 	.word	0x0040223d
  400508:	0040041d 	.word	0x0040041d
  40050c:	00400345 	.word	0x00400345
  400510:	004003b1 	.word	0x004003b1
  400514:	00400455 	.word	0x00400455
  400518:	00400d9d 	.word	0x00400d9d
  40051c:	00400e19 	.word	0x00400e19
  400520:	004020d5 	.word	0x004020d5
  400524:	00400499 	.word	0x00400499

00400528 <_read>:
int __attribute__((weak))
_read (int file, char * ptr, int len); // Remove GCC compiler warning

int __attribute__((weak))
_read (int file, char * ptr, int len)
{
  400528:	b580      	push	{r7, lr}
  40052a:	b086      	sub	sp, #24
  40052c:	af00      	add	r7, sp, #0
  40052e:	60f8      	str	r0, [r7, #12]
  400530:	60b9      	str	r1, [r7, #8]
  400532:	607a      	str	r2, [r7, #4]
	int nChars = 0;
  400534:	2300      	movs	r3, #0
  400536:	617b      	str	r3, [r7, #20]

	if (file != 0) {
  400538:	68fb      	ldr	r3, [r7, #12]
  40053a:	2b00      	cmp	r3, #0
  40053c:	d012      	beq.n	400564 <_read+0x3c>
		return -1;
  40053e:	f04f 33ff 	mov.w	r3, #4294967295
  400542:	e013      	b.n	40056c <_read+0x44>
	}

	for (; len > 0; --len) {
		ptr_get(stdio_base, ptr);
  400544:	4b0b      	ldr	r3, [pc, #44]	; (400574 <_read+0x4c>)
  400546:	681b      	ldr	r3, [r3, #0]
  400548:	4a0b      	ldr	r2, [pc, #44]	; (400578 <_read+0x50>)
  40054a:	6812      	ldr	r2, [r2, #0]
  40054c:	68b9      	ldr	r1, [r7, #8]
  40054e:	4610      	mov	r0, r2
  400550:	4798      	blx	r3
		ptr++;
  400552:	68bb      	ldr	r3, [r7, #8]
  400554:	3301      	adds	r3, #1
  400556:	60bb      	str	r3, [r7, #8]
		nChars++;
  400558:	697b      	ldr	r3, [r7, #20]
  40055a:	3301      	adds	r3, #1
  40055c:	617b      	str	r3, [r7, #20]
	for (; len > 0; --len) {
  40055e:	687b      	ldr	r3, [r7, #4]
  400560:	3b01      	subs	r3, #1
  400562:	607b      	str	r3, [r7, #4]
  400564:	687b      	ldr	r3, [r7, #4]
  400566:	2b00      	cmp	r3, #0
  400568:	dcec      	bgt.n	400544 <_read+0x1c>
	}
	return nChars;
  40056a:	697b      	ldr	r3, [r7, #20]
}
  40056c:	4618      	mov	r0, r3
  40056e:	3718      	adds	r7, #24
  400570:	46bd      	mov	sp, r7
  400572:	bd80      	pop	{r7, pc}
  400574:	20400920 	.word	0x20400920
  400578:	20400928 	.word	0x20400928

0040057c <_write>:
int __attribute__((weak))
_write (int file, const char *ptr, int len);

int __attribute__((weak))
_write (int file, const char *ptr, int len)
{
  40057c:	b580      	push	{r7, lr}
  40057e:	b086      	sub	sp, #24
  400580:	af00      	add	r7, sp, #0
  400582:	60f8      	str	r0, [r7, #12]
  400584:	60b9      	str	r1, [r7, #8]
  400586:	607a      	str	r2, [r7, #4]
	int nChars = 0;
  400588:	2300      	movs	r3, #0
  40058a:	617b      	str	r3, [r7, #20]

	if ((file != 1) && (file != 2) && (file!=3)) {
  40058c:	68fb      	ldr	r3, [r7, #12]
  40058e:	2b01      	cmp	r3, #1
  400590:	d01e      	beq.n	4005d0 <_write+0x54>
  400592:	68fb      	ldr	r3, [r7, #12]
  400594:	2b02      	cmp	r3, #2
  400596:	d01b      	beq.n	4005d0 <_write+0x54>
  400598:	68fb      	ldr	r3, [r7, #12]
  40059a:	2b03      	cmp	r3, #3
  40059c:	d018      	beq.n	4005d0 <_write+0x54>
		return -1;
  40059e:	f04f 33ff 	mov.w	r3, #4294967295
  4005a2:	e019      	b.n	4005d8 <_write+0x5c>
	}

	for (; len != 0; --len) {
		if (ptr_put(stdio_base, *ptr++) < 0) {
  4005a4:	4b0e      	ldr	r3, [pc, #56]	; (4005e0 <_write+0x64>)
  4005a6:	681a      	ldr	r2, [r3, #0]
  4005a8:	4b0e      	ldr	r3, [pc, #56]	; (4005e4 <_write+0x68>)
  4005aa:	6818      	ldr	r0, [r3, #0]
  4005ac:	68bb      	ldr	r3, [r7, #8]
  4005ae:	1c59      	adds	r1, r3, #1
  4005b0:	60b9      	str	r1, [r7, #8]
  4005b2:	781b      	ldrb	r3, [r3, #0]
  4005b4:	4619      	mov	r1, r3
  4005b6:	4790      	blx	r2
  4005b8:	4603      	mov	r3, r0
  4005ba:	2b00      	cmp	r3, #0
  4005bc:	da02      	bge.n	4005c4 <_write+0x48>
			return -1;
  4005be:	f04f 33ff 	mov.w	r3, #4294967295
  4005c2:	e009      	b.n	4005d8 <_write+0x5c>
		}
		++nChars;
  4005c4:	697b      	ldr	r3, [r7, #20]
  4005c6:	3301      	adds	r3, #1
  4005c8:	617b      	str	r3, [r7, #20]
	for (; len != 0; --len) {
  4005ca:	687b      	ldr	r3, [r7, #4]
  4005cc:	3b01      	subs	r3, #1
  4005ce:	607b      	str	r3, [r7, #4]
  4005d0:	687b      	ldr	r3, [r7, #4]
  4005d2:	2b00      	cmp	r3, #0
  4005d4:	d1e6      	bne.n	4005a4 <_write+0x28>
	}
	return nChars;
  4005d6:	697b      	ldr	r3, [r7, #20]
}
  4005d8:	4618      	mov	r0, r3
  4005da:	3718      	adds	r7, #24
  4005dc:	46bd      	mov	sp, r7
  4005de:	bd80      	pop	{r7, pc}
  4005e0:	20400924 	.word	0x20400924
  4005e4:	20400928 	.word	0x20400928

004005e8 <SCB_EnableICache>:
/** \brief Enable I-Cache

    The function turns on I-Cache
  */
__STATIC_INLINE void SCB_EnableICache(void)
{
  4005e8:	b480      	push	{r7}
  4005ea:	af00      	add	r7, sp, #0
    This function acts as a special kind of Data Memory Barrier.
    It completes when all explicit memory accesses before this instruction complete.
 */
__attribute__( ( always_inline ) ) __STATIC_INLINE void __DSB(void)
{
  __ASM volatile ("dsb");
  4005ec:	f3bf 8f4f 	dsb	sy
  __ASM volatile ("isb");
  4005f0:	f3bf 8f6f 	isb	sy
  #if (__ICACHE_PRESENT == 1)
    __DSB();
    __ISB();
    SCB->ICIALLU = 0;                       // invalidate I-Cache
  4005f4:	4b09      	ldr	r3, [pc, #36]	; (40061c <SCB_EnableICache+0x34>)
  4005f6:	2200      	movs	r2, #0
  4005f8:	f8c3 2250 	str.w	r2, [r3, #592]	; 0x250
    SCB->CCR |=  SCB_CCR_IC_Msk;            // enable I-Cache
  4005fc:	4a07      	ldr	r2, [pc, #28]	; (40061c <SCB_EnableICache+0x34>)
  4005fe:	4b07      	ldr	r3, [pc, #28]	; (40061c <SCB_EnableICache+0x34>)
  400600:	695b      	ldr	r3, [r3, #20]
  400602:	f443 3300 	orr.w	r3, r3, #131072	; 0x20000
  400606:	6153      	str	r3, [r2, #20]
  __ASM volatile ("dsb");
  400608:	f3bf 8f4f 	dsb	sy
  __ASM volatile ("isb");
  40060c:	f3bf 8f6f 	isb	sy
    __DSB();
    __ISB();
  #endif
}
  400610:	bf00      	nop
  400612:	46bd      	mov	sp, r7
  400614:	f85d 7b04 	ldr.w	r7, [sp], #4
  400618:	4770      	bx	lr
  40061a:	bf00      	nop
  40061c:	e000ed00 	.word	0xe000ed00

00400620 <SCB_EnableDCache>:
/** \brief Enable D-Cache

    The function turns on D-Cache
  */
__STATIC_INLINE void SCB_EnableDCache(void)
{
  400620:	b480      	push	{r7}
  400622:	b08b      	sub	sp, #44	; 0x2c
  400624:	af00      	add	r7, sp, #0
  #if (__DCACHE_PRESENT == 1)
    uint32_t ccsidr, sshift, wshift, sw;
    uint32_t sets, ways;

    ccsidr  = SCB->CCSIDR;
  400626:	4b26      	ldr	r3, [pc, #152]	; (4006c0 <SCB_EnableDCache+0xa0>)
  400628:	f8d3 3080 	ldr.w	r3, [r3, #128]	; 0x80
  40062c:	61fb      	str	r3, [r7, #28]
    sets    = CCSIDR_SETS(ccsidr);
  40062e:	69fb      	ldr	r3, [r7, #28]
  400630:	0b5b      	lsrs	r3, r3, #13
  400632:	f3c3 030e 	ubfx	r3, r3, #0, #15
  400636:	627b      	str	r3, [r7, #36]	; 0x24
    sshift  = CCSIDR_LSSHIFT(ccsidr) + 4;
  400638:	69fb      	ldr	r3, [r7, #28]
  40063a:	f003 0307 	and.w	r3, r3, #7
  40063e:	3304      	adds	r3, #4
  400640:	61bb      	str	r3, [r7, #24]
    ways    = CCSIDR_WAYS(ccsidr);
  400642:	69fb      	ldr	r3, [r7, #28]
  400644:	08db      	lsrs	r3, r3, #3
  400646:	f3c3 0309 	ubfx	r3, r3, #0, #10
  40064a:	617b      	str	r3, [r7, #20]
  40064c:	697b      	ldr	r3, [r7, #20]
  40064e:	60bb      	str	r3, [r7, #8]
 */
__attribute__( ( always_inline ) ) __STATIC_INLINE uint8_t __CLZ(uint32_t value)
{
  uint32_t result;

  __ASM volatile ("clz %0, %1" : "=r" (result) : "r" (value) );
  400650:	68bb      	ldr	r3, [r7, #8]
  400652:	fab3 f383 	clz	r3, r3
  400656:	607b      	str	r3, [r7, #4]
   return ((uint8_t) result);    /* Add explicit type cast here */
  400658:	687b      	ldr	r3, [r7, #4]
  40065a:	b2db      	uxtb	r3, r3
    wshift  = __CLZ(ways) & 0x1f;
  40065c:	f003 031f 	and.w	r3, r3, #31
  400660:	613b      	str	r3, [r7, #16]
  __ASM volatile ("dsb");
  400662:	f3bf 8f4f 	dsb	sy

    __DSB();

    do {                                    // invalidate D-Cache
         int32_t tmpways = ways;
  400666:	697b      	ldr	r3, [r7, #20]
  400668:	623b      	str	r3, [r7, #32]
         do {
              sw = ((tmpways << wshift) | (sets << sshift));
  40066a:	6a3a      	ldr	r2, [r7, #32]
  40066c:	693b      	ldr	r3, [r7, #16]
  40066e:	fa02 f303 	lsl.w	r3, r2, r3
  400672:	4619      	mov	r1, r3
  400674:	6a7a      	ldr	r2, [r7, #36]	; 0x24
  400676:	69bb      	ldr	r3, [r7, #24]
  400678:	fa02 f303 	lsl.w	r3, r2, r3
  40067c:	430b      	orrs	r3, r1
  40067e:	60fb      	str	r3, [r7, #12]
              SCB->DCISW = sw;
  400680:	4a0f      	ldr	r2, [pc, #60]	; (4006c0 <SCB_EnableDCache+0xa0>)
  400682:	68fb      	ldr	r3, [r7, #12]
  400684:	f8c2 3260 	str.w	r3, [r2, #608]	; 0x260
            } while(tmpways--);
  400688:	6a3b      	ldr	r3, [r7, #32]
  40068a:	1e5a      	subs	r2, r3, #1
  40068c:	623a      	str	r2, [r7, #32]
  40068e:	2b00      	cmp	r3, #0
  400690:	d1eb      	bne.n	40066a <SCB_EnableDCache+0x4a>
        } while(sets--);
  400692:	6a7b      	ldr	r3, [r7, #36]	; 0x24
  400694:	1e5a      	subs	r2, r3, #1
  400696:	627a      	str	r2, [r7, #36]	; 0x24
  400698:	2b00      	cmp	r3, #0
  40069a:	d1e4      	bne.n	400666 <SCB_EnableDCache+0x46>
  40069c:	f3bf 8f4f 	dsb	sy
    __DSB();

    SCB->CCR |=  SCB_CCR_DC_Msk;            // enable D-Cache
  4006a0:	4a07      	ldr	r2, [pc, #28]	; (4006c0 <SCB_EnableDCache+0xa0>)
  4006a2:	4b07      	ldr	r3, [pc, #28]	; (4006c0 <SCB_EnableDCache+0xa0>)
  4006a4:	695b      	ldr	r3, [r3, #20]
  4006a6:	f443 3380 	orr.w	r3, r3, #65536	; 0x10000
  4006aa:	6153      	str	r3, [r2, #20]
  4006ac:	f3bf 8f4f 	dsb	sy
  __ASM volatile ("isb");
  4006b0:	f3bf 8f6f 	isb	sy

    __DSB();
    __ISB();
  #endif
}
  4006b4:	bf00      	nop
  4006b6:	372c      	adds	r7, #44	; 0x2c
  4006b8:	46bd      	mov	sp, r7
  4006ba:	f85d 7b04 	ldr.w	r7, [sp], #4
  4006be:	4770      	bx	lr
  4006c0:	e000ed00 	.word	0xe000ed00

004006c4 <sysclk_enable_peripheral_clock>:
 * \brief Enable a peripheral's clock.
 *
 * \param ul_id Id (number) of the peripheral clock.
 */
static inline void sysclk_enable_peripheral_clock(uint32_t ul_id)
{
  4006c4:	b580      	push	{r7, lr}
  4006c6:	b082      	sub	sp, #8
  4006c8:	af00      	add	r7, sp, #0
  4006ca:	6078      	str	r0, [r7, #4]
	pmc_enable_periph_clk(ul_id);
  4006cc:	6878      	ldr	r0, [r7, #4]
  4006ce:	4b03      	ldr	r3, [pc, #12]	; (4006dc <sysclk_enable_peripheral_clock+0x18>)
  4006d0:	4798      	blx	r3
}
  4006d2:	bf00      	nop
  4006d4:	3708      	adds	r7, #8
  4006d6:	46bd      	mov	sp, r7
  4006d8:	bd80      	pop	{r7, pc}
  4006da:	bf00      	nop
  4006dc:	00401061 	.word	0x00401061

004006e0 <ioport_init>:
 *
 * This function must be called before using any other functions in the IOPORT
 * service.
 */
static inline void ioport_init(void)
{
  4006e0:	b580      	push	{r7, lr}
  4006e2:	af00      	add	r7, sp, #0
}

__always_inline static void arch_ioport_init(void)
{
#ifdef ID_PIOA
	sysclk_enable_peripheral_clock(ID_PIOA);
  4006e4:	200a      	movs	r0, #10
  4006e6:	4b08      	ldr	r3, [pc, #32]	; (400708 <ioport_init+0x28>)
  4006e8:	4798      	blx	r3
#endif
#ifdef ID_PIOB
	sysclk_enable_peripheral_clock(ID_PIOB);
  4006ea:	200b      	movs	r0, #11
  4006ec:	4b06      	ldr	r3, [pc, #24]	; (400708 <ioport_init+0x28>)
  4006ee:	4798      	blx	r3
#endif
#ifdef ID_PIOC
	sysclk_enable_peripheral_clock(ID_PIOC);
  4006f0:	200c      	movs	r0, #12
  4006f2:	4b05      	ldr	r3, [pc, #20]	; (400708 <ioport_init+0x28>)
  4006f4:	4798      	blx	r3
#endif
#ifdef ID_PIOD
	sysclk_enable_peripheral_clock(ID_PIOD);
  4006f6:	2010      	movs	r0, #16
  4006f8:	4b03      	ldr	r3, [pc, #12]	; (400708 <ioport_init+0x28>)
  4006fa:	4798      	blx	r3
#endif
#ifdef ID_PIOE
	sysclk_enable_peripheral_clock(ID_PIOE);
  4006fc:	2011      	movs	r0, #17
  4006fe:	4b02      	ldr	r3, [pc, #8]	; (400708 <ioport_init+0x28>)
  400700:	4798      	blx	r3
	arch_ioport_init();
}
  400702:	bf00      	nop
  400704:	bd80      	pop	{r7, pc}
  400706:	bf00      	nop
  400708:	004006c5 	.word	0x004006c5

0040070c <ioport_disable_pin>:
 *        IOPORT_CREATE_PIN().
 *
 * \param pin IOPORT pin to disable
 */
static inline void ioport_disable_pin(ioport_pin_t pin)
{
  40070c:	b480      	push	{r7}
  40070e:	b089      	sub	sp, #36	; 0x24
  400710:	af00      	add	r7, sp, #0
  400712:	6078      	str	r0, [r7, #4]
  400714:	687b      	ldr	r3, [r7, #4]
  400716:	61fb      	str	r3, [r7, #28]
  400718:	69fb      	ldr	r3, [r7, #28]
  40071a:	61bb      	str	r3, [r7, #24]
	return pin >> 5;
  40071c:	69bb      	ldr	r3, [r7, #24]
  40071e:	095a      	lsrs	r2, r3, #5
  400720:	69fb      	ldr	r3, [r7, #28]
  400722:	617b      	str	r3, [r7, #20]
	return 1U << (pin & 0x1F);
  400724:	697b      	ldr	r3, [r7, #20]
  400726:	f003 031f 	and.w	r3, r3, #31
  40072a:	2101      	movs	r1, #1
  40072c:	fa01 f303 	lsl.w	r3, r1, r3
  400730:	613a      	str	r2, [r7, #16]
  400732:	60fb      	str	r3, [r7, #12]
  400734:	693b      	ldr	r3, [r7, #16]
  400736:	60bb      	str	r3, [r7, #8]
	return (Pio *)((uintptr_t)IOPORT_BASE_ADDRESS +
  400738:	68ba      	ldr	r2, [r7, #8]
  40073a:	4b06      	ldr	r3, [pc, #24]	; (400754 <ioport_disable_pin+0x48>)
  40073c:	4413      	add	r3, r2
  40073e:	025b      	lsls	r3, r3, #9
  400740:	461a      	mov	r2, r3
}

__always_inline static void arch_ioport_disable_port(ioport_port_t port,
		ioport_port_mask_t mask)
{
	arch_ioport_port_to_base(port)->PIO_PDR = mask;
  400742:	68fb      	ldr	r3, [r7, #12]
  400744:	6053      	str	r3, [r2, #4]
	arch_ioport_disable_pin(pin);
}
  400746:	bf00      	nop
  400748:	3724      	adds	r7, #36	; 0x24
  40074a:	46bd      	mov	sp, r7
  40074c:	f85d 7b04 	ldr.w	r7, [sp], #4
  400750:	4770      	bx	lr
  400752:	bf00      	nop
  400754:	00200707 	.word	0x00200707

00400758 <ioport_set_pin_mode>:
 *
 * \param pin IOPORT pin to configure
 * \param mode Mode masks to configure for the specified pin (\ref ioport_modes)
 */
static inline void ioport_set_pin_mode(ioport_pin_t pin, ioport_mode_t mode)
{
  400758:	b480      	push	{r7}
  40075a:	b08d      	sub	sp, #52	; 0x34
  40075c:	af00      	add	r7, sp, #0
  40075e:	6078      	str	r0, [r7, #4]
  400760:	6039      	str	r1, [r7, #0]
  400762:	687b      	ldr	r3, [r7, #4]
  400764:	62fb      	str	r3, [r7, #44]	; 0x2c
  400766:	683b      	ldr	r3, [r7, #0]
  400768:	62bb      	str	r3, [r7, #40]	; 0x28
  40076a:	6afb      	ldr	r3, [r7, #44]	; 0x2c
  40076c:	627b      	str	r3, [r7, #36]	; 0x24
	return pin >> 5;
  40076e:	6a7b      	ldr	r3, [r7, #36]	; 0x24
  400770:	095a      	lsrs	r2, r3, #5
  400772:	6afb      	ldr	r3, [r7, #44]	; 0x2c
  400774:	623b      	str	r3, [r7, #32]
	return 1U << (pin & 0x1F);
  400776:	6a3b      	ldr	r3, [r7, #32]
  400778:	f003 031f 	and.w	r3, r3, #31
  40077c:	2101      	movs	r1, #1
  40077e:	fa01 f303 	lsl.w	r3, r1, r3
  400782:	61fa      	str	r2, [r7, #28]
  400784:	61bb      	str	r3, [r7, #24]
  400786:	6abb      	ldr	r3, [r7, #40]	; 0x28
  400788:	617b      	str	r3, [r7, #20]
  40078a:	69fb      	ldr	r3, [r7, #28]
  40078c:	613b      	str	r3, [r7, #16]
	return (Pio *)((uintptr_t)IOPORT_BASE_ADDRESS +
  40078e:	693a      	ldr	r2, [r7, #16]
  400790:	4b37      	ldr	r3, [pc, #220]	; (400870 <ioport_set_pin_mode+0x118>)
  400792:	4413      	add	r3, r2
  400794:	025b      	lsls	r3, r3, #9
}

__always_inline static void arch_ioport_set_port_mode(ioport_port_t port,
		ioport_port_mask_t mask, ioport_mode_t mode)
{
	Pio *base = arch_ioport_port_to_base(port);
  400796:	60fb      	str	r3, [r7, #12]

	if (mode & IOPORT_MODE_PULLUP) {
  400798:	697b      	ldr	r3, [r7, #20]
  40079a:	f003 0308 	and.w	r3, r3, #8
  40079e:	2b00      	cmp	r3, #0
  4007a0:	d003      	beq.n	4007aa <ioport_set_pin_mode+0x52>
		base->PIO_PUER = mask;
  4007a2:	68fb      	ldr	r3, [r7, #12]
  4007a4:	69ba      	ldr	r2, [r7, #24]
  4007a6:	665a      	str	r2, [r3, #100]	; 0x64
  4007a8:	e002      	b.n	4007b0 <ioport_set_pin_mode+0x58>
	} else {
		base->PIO_PUDR = mask;
  4007aa:	68fb      	ldr	r3, [r7, #12]
  4007ac:	69ba      	ldr	r2, [r7, #24]
  4007ae:	661a      	str	r2, [r3, #96]	; 0x60
	}

#if defined(IOPORT_MODE_PULLDOWN)
	if (mode & IOPORT_MODE_PULLDOWN) {
  4007b0:	697b      	ldr	r3, [r7, #20]
  4007b2:	f003 0310 	and.w	r3, r3, #16
  4007b6:	2b00      	cmp	r3, #0
  4007b8:	d004      	beq.n	4007c4 <ioport_set_pin_mode+0x6c>
		base->PIO_PPDER = mask;
  4007ba:	68fb      	ldr	r3, [r7, #12]
  4007bc:	69ba      	ldr	r2, [r7, #24]
  4007be:	f8c3 2094 	str.w	r2, [r3, #148]	; 0x94
  4007c2:	e003      	b.n	4007cc <ioport_set_pin_mode+0x74>
	} else {
		base->PIO_PPDDR = mask;
  4007c4:	68fb      	ldr	r3, [r7, #12]
  4007c6:	69ba      	ldr	r2, [r7, #24]
  4007c8:	f8c3 2090 	str.w	r2, [r3, #144]	; 0x90
	}
#endif

	if (mode & IOPORT_MODE_OPEN_DRAIN) {
  4007cc:	697b      	ldr	r3, [r7, #20]
  4007ce:	f003 0320 	and.w	r3, r3, #32
  4007d2:	2b00      	cmp	r3, #0
  4007d4:	d003      	beq.n	4007de <ioport_set_pin_mode+0x86>
		base->PIO_MDER = mask;
  4007d6:	68fb      	ldr	r3, [r7, #12]
  4007d8:	69ba      	ldr	r2, [r7, #24]
  4007da:	651a      	str	r2, [r3, #80]	; 0x50
  4007dc:	e002      	b.n	4007e4 <ioport_set_pin_mode+0x8c>
	} else {
		base->PIO_MDDR = mask;
  4007de:	68fb      	ldr	r3, [r7, #12]
  4007e0:	69ba      	ldr	r2, [r7, #24]
  4007e2:	655a      	str	r2, [r3, #84]	; 0x54
	}

	if (mode & (IOPORT_MODE_GLITCH_FILTER | IOPORT_MODE_DEBOUNCE)) {
  4007e4:	697b      	ldr	r3, [r7, #20]
  4007e6:	f003 03c0 	and.w	r3, r3, #192	; 0xc0
  4007ea:	2b00      	cmp	r3, #0
  4007ec:	d003      	beq.n	4007f6 <ioport_set_pin_mode+0x9e>
		base->PIO_IFER = mask;
  4007ee:	68fb      	ldr	r3, [r7, #12]
  4007f0:	69ba      	ldr	r2, [r7, #24]
  4007f2:	621a      	str	r2, [r3, #32]
  4007f4:	e002      	b.n	4007fc <ioport_set_pin_mode+0xa4>
	} else {
		base->PIO_IFDR = mask;
  4007f6:	68fb      	ldr	r3, [r7, #12]
  4007f8:	69ba      	ldr	r2, [r7, #24]
  4007fa:	625a      	str	r2, [r3, #36]	; 0x24
	}

	if (mode & IOPORT_MODE_DEBOUNCE) {
  4007fc:	697b      	ldr	r3, [r7, #20]
  4007fe:	f003 0380 	and.w	r3, r3, #128	; 0x80
  400802:	2b00      	cmp	r3, #0
  400804:	d004      	beq.n	400810 <ioport_set_pin_mode+0xb8>
#if SAM3U || SAM3XA
		base->PIO_DIFSR = mask;
#else
		base->PIO_IFSCER = mask;
  400806:	68fb      	ldr	r3, [r7, #12]
  400808:	69ba      	ldr	r2, [r7, #24]
  40080a:	f8c3 2084 	str.w	r2, [r3, #132]	; 0x84
  40080e:	e003      	b.n	400818 <ioport_set_pin_mode+0xc0>
#endif
	} else {
#if SAM3U || SAM3XA
		base->PIO_SCIFSR = mask;
#else
		base->PIO_IFSCDR = mask;
  400810:	68fb      	ldr	r3, [r7, #12]
  400812:	69ba      	ldr	r2, [r7, #24]
  400814:	f8c3 2080 	str.w	r2, [r3, #128]	; 0x80
		base->PIO_ABSR |= mask;
	} else {
		base->PIO_ABSR &= ~mask;
	}
#else
	if (mode & IOPORT_MODE_MUX_BIT0) {
  400818:	697b      	ldr	r3, [r7, #20]
  40081a:	f003 0301 	and.w	r3, r3, #1
  40081e:	2b00      	cmp	r3, #0
  400820:	d006      	beq.n	400830 <ioport_set_pin_mode+0xd8>
		base->PIO_ABCDSR[0] |= mask;
  400822:	68fb      	ldr	r3, [r7, #12]
  400824:	6f1a      	ldr	r2, [r3, #112]	; 0x70
  400826:	69bb      	ldr	r3, [r7, #24]
  400828:	431a      	orrs	r2, r3
  40082a:	68fb      	ldr	r3, [r7, #12]
  40082c:	671a      	str	r2, [r3, #112]	; 0x70
  40082e:	e006      	b.n	40083e <ioport_set_pin_mode+0xe6>
	} else {
		base->PIO_ABCDSR[0] &= ~mask;
  400830:	68fb      	ldr	r3, [r7, #12]
  400832:	6f1a      	ldr	r2, [r3, #112]	; 0x70
  400834:	69bb      	ldr	r3, [r7, #24]
  400836:	43db      	mvns	r3, r3
  400838:	401a      	ands	r2, r3
  40083a:	68fb      	ldr	r3, [r7, #12]
  40083c:	671a      	str	r2, [r3, #112]	; 0x70
	}

	if (mode & IOPORT_MODE_MUX_BIT1) {
  40083e:	697b      	ldr	r3, [r7, #20]
  400840:	f003 0302 	and.w	r3, r3, #2
  400844:	2b00      	cmp	r3, #0
  400846:	d006      	beq.n	400856 <ioport_set_pin_mode+0xfe>
		base->PIO_ABCDSR[1] |= mask;
  400848:	68fb      	ldr	r3, [r7, #12]
  40084a:	6f5a      	ldr	r2, [r3, #116]	; 0x74
  40084c:	69bb      	ldr	r3, [r7, #24]
  40084e:	431a      	orrs	r2, r3
  400850:	68fb      	ldr	r3, [r7, #12]
  400852:	675a      	str	r2, [r3, #116]	; 0x74
	arch_ioport_set_pin_mode(pin, mode);
}
  400854:	e006      	b.n	400864 <ioport_set_pin_mode+0x10c>
	} else {
		base->PIO_ABCDSR[1] &= ~mask;
  400856:	68fb      	ldr	r3, [r7, #12]
  400858:	6f5a      	ldr	r2, [r3, #116]	; 0x74
  40085a:	69bb      	ldr	r3, [r7, #24]
  40085c:	43db      	mvns	r3, r3
  40085e:	401a      	ands	r2, r3
  400860:	68fb      	ldr	r3, [r7, #12]
  400862:	675a      	str	r2, [r3, #116]	; 0x74
  400864:	bf00      	nop
  400866:	3734      	adds	r7, #52	; 0x34
  400868:	46bd      	mov	sp, r7
  40086a:	f85d 7b04 	ldr.w	r7, [sp], #4
  40086e:	4770      	bx	lr
  400870:	00200707 	.word	0x00200707

00400874 <ioport_set_pin_dir>:
 * \param pin IOPORT pin to configure
 * \param dir Direction to set for the specified pin (\ref ioport_direction)
 */
static inline void ioport_set_pin_dir(ioport_pin_t pin,
		enum ioport_direction dir)
{
  400874:	b480      	push	{r7}
  400876:	b08d      	sub	sp, #52	; 0x34
  400878:	af00      	add	r7, sp, #0
  40087a:	6078      	str	r0, [r7, #4]
  40087c:	460b      	mov	r3, r1
  40087e:	70fb      	strb	r3, [r7, #3]
  400880:	687b      	ldr	r3, [r7, #4]
  400882:	62fb      	str	r3, [r7, #44]	; 0x2c
  400884:	78fb      	ldrb	r3, [r7, #3]
  400886:	f887 302b 	strb.w	r3, [r7, #43]	; 0x2b
  40088a:	6afb      	ldr	r3, [r7, #44]	; 0x2c
  40088c:	627b      	str	r3, [r7, #36]	; 0x24
  40088e:	6a7b      	ldr	r3, [r7, #36]	; 0x24
  400890:	623b      	str	r3, [r7, #32]
	return pin >> 5;
  400892:	6a3b      	ldr	r3, [r7, #32]
  400894:	095b      	lsrs	r3, r3, #5
  400896:	61fb      	str	r3, [r7, #28]
	return (Pio *)((uintptr_t)IOPORT_BASE_ADDRESS +
  400898:	69fa      	ldr	r2, [r7, #28]
  40089a:	4b17      	ldr	r3, [pc, #92]	; (4008f8 <ioport_set_pin_dir+0x84>)
  40089c:	4413      	add	r3, r2
  40089e:	025b      	lsls	r3, r3, #9
}

__always_inline static void arch_ioport_set_pin_dir(ioport_pin_t pin,
		enum ioport_direction dir)
{
	Pio *base = arch_ioport_pin_to_base(pin);
  4008a0:	61bb      	str	r3, [r7, #24]

	if (dir == IOPORT_DIR_OUTPUT) {
  4008a2:	f897 302b 	ldrb.w	r3, [r7, #43]	; 0x2b
  4008a6:	2b01      	cmp	r3, #1
  4008a8:	d109      	bne.n	4008be <ioport_set_pin_dir+0x4a>
  4008aa:	6afb      	ldr	r3, [r7, #44]	; 0x2c
  4008ac:	617b      	str	r3, [r7, #20]
	return 1U << (pin & 0x1F);
  4008ae:	697b      	ldr	r3, [r7, #20]
  4008b0:	f003 031f 	and.w	r3, r3, #31
  4008b4:	2201      	movs	r2, #1
  4008b6:	409a      	lsls	r2, r3
		base->PIO_OER = arch_ioport_pin_to_mask(pin);
  4008b8:	69bb      	ldr	r3, [r7, #24]
  4008ba:	611a      	str	r2, [r3, #16]
  4008bc:	e00c      	b.n	4008d8 <ioport_set_pin_dir+0x64>
	} else if (dir == IOPORT_DIR_INPUT) {
  4008be:	f897 302b 	ldrb.w	r3, [r7, #43]	; 0x2b
  4008c2:	2b00      	cmp	r3, #0
  4008c4:	d108      	bne.n	4008d8 <ioport_set_pin_dir+0x64>
  4008c6:	6afb      	ldr	r3, [r7, #44]	; 0x2c
  4008c8:	613b      	str	r3, [r7, #16]
	return 1U << (pin & 0x1F);
  4008ca:	693b      	ldr	r3, [r7, #16]
  4008cc:	f003 031f 	and.w	r3, r3, #31
  4008d0:	2201      	movs	r2, #1
  4008d2:	409a      	lsls	r2, r3
		base->PIO_ODR = arch_ioport_pin_to_mask(pin);
  4008d4:	69bb      	ldr	r3, [r7, #24]
  4008d6:	615a      	str	r2, [r3, #20]
  4008d8:	6afb      	ldr	r3, [r7, #44]	; 0x2c
  4008da:	60fb      	str	r3, [r7, #12]
	return 1U << (pin & 0x1F);
  4008dc:	68fb      	ldr	r3, [r7, #12]
  4008de:	f003 031f 	and.w	r3, r3, #31
  4008e2:	2201      	movs	r2, #1
  4008e4:	409a      	lsls	r2, r3
	}

	base->PIO_OWER = arch_ioport_pin_to_mask(pin);
  4008e6:	69bb      	ldr	r3, [r7, #24]
  4008e8:	f8c3 20a0 	str.w	r2, [r3, #160]	; 0xa0
	arch_ioport_set_pin_dir(pin, dir);
}
  4008ec:	bf00      	nop
  4008ee:	3734      	adds	r7, #52	; 0x34
  4008f0:	46bd      	mov	sp, r7
  4008f2:	f85d 7b04 	ldr.w	r7, [sp], #4
  4008f6:	4770      	bx	lr
  4008f8:	00200707 	.word	0x00200707

004008fc <ioport_set_pin_level>:
 *
 * \param pin IOPORT pin to configure
 * \param level Logical value of the pin
 */
static inline void ioport_set_pin_level(ioport_pin_t pin, bool level)
{
  4008fc:	b480      	push	{r7}
  4008fe:	b08b      	sub	sp, #44	; 0x2c
  400900:	af00      	add	r7, sp, #0
  400902:	6078      	str	r0, [r7, #4]
  400904:	460b      	mov	r3, r1
  400906:	70fb      	strb	r3, [r7, #3]
  400908:	687b      	ldr	r3, [r7, #4]
  40090a:	627b      	str	r3, [r7, #36]	; 0x24
  40090c:	78fb      	ldrb	r3, [r7, #3]
  40090e:	f887 3023 	strb.w	r3, [r7, #35]	; 0x23
  400912:	6a7b      	ldr	r3, [r7, #36]	; 0x24
  400914:	61fb      	str	r3, [r7, #28]
  400916:	69fb      	ldr	r3, [r7, #28]
  400918:	61bb      	str	r3, [r7, #24]
	return pin >> 5;
  40091a:	69bb      	ldr	r3, [r7, #24]
  40091c:	095b      	lsrs	r3, r3, #5
  40091e:	617b      	str	r3, [r7, #20]
	return (Pio *)((uintptr_t)IOPORT_BASE_ADDRESS +
  400920:	697a      	ldr	r2, [r7, #20]
  400922:	4b10      	ldr	r3, [pc, #64]	; (400964 <ioport_set_pin_level+0x68>)
  400924:	4413      	add	r3, r2
  400926:	025b      	lsls	r3, r3, #9
}

__always_inline static void arch_ioport_set_pin_level(ioport_pin_t pin,
		bool level)
{
	Pio *base = arch_ioport_pin_to_base(pin);
  400928:	613b      	str	r3, [r7, #16]

	if (level) {
  40092a:	f897 3023 	ldrb.w	r3, [r7, #35]	; 0x23
  40092e:	2b00      	cmp	r3, #0
  400930:	d009      	beq.n	400946 <ioport_set_pin_level+0x4a>
  400932:	6a7b      	ldr	r3, [r7, #36]	; 0x24
  400934:	60fb      	str	r3, [r7, #12]
	return 1U << (pin & 0x1F);
  400936:	68fb      	ldr	r3, [r7, #12]
  400938:	f003 031f 	and.w	r3, r3, #31
  40093c:	2201      	movs	r2, #1
  40093e:	409a      	lsls	r2, r3
		base->PIO_SODR = arch_ioport_pin_to_mask(pin);
  400940:	693b      	ldr	r3, [r7, #16]
  400942:	631a      	str	r2, [r3, #48]	; 0x30
	arch_ioport_set_pin_level(pin, level);
}
  400944:	e008      	b.n	400958 <ioport_set_pin_level+0x5c>
  400946:	6a7b      	ldr	r3, [r7, #36]	; 0x24
  400948:	60bb      	str	r3, [r7, #8]
	return 1U << (pin & 0x1F);
  40094a:	68bb      	ldr	r3, [r7, #8]
  40094c:	f003 031f 	and.w	r3, r3, #31
  400950:	2201      	movs	r2, #1
  400952:	409a      	lsls	r2, r3
	} else {
		base->PIO_CODR = arch_ioport_pin_to_mask(pin);
  400954:	693b      	ldr	r3, [r7, #16]
  400956:	635a      	str	r2, [r3, #52]	; 0x34
  400958:	bf00      	nop
  40095a:	372c      	adds	r7, #44	; 0x2c
  40095c:	46bd      	mov	sp, r7
  40095e:	f85d 7b04 	ldr.w	r7, [sp], #4
  400962:	4770      	bx	lr
  400964:	00200707 	.word	0x00200707

00400968 <ioport_set_pin_sense_mode>:
 * \param pin IOPORT pin to configure
 * \param pin_sense Edge to sense for the pin (\ref ioport_sense)
 */
static inline void ioport_set_pin_sense_mode(ioport_pin_t pin,
		enum ioport_sense pin_sense)
{
  400968:	b480      	push	{r7}
  40096a:	b08d      	sub	sp, #52	; 0x34
  40096c:	af00      	add	r7, sp, #0
  40096e:	6078      	str	r0, [r7, #4]
  400970:	460b      	mov	r3, r1
  400972:	70fb      	strb	r3, [r7, #3]
  400974:	687b      	ldr	r3, [r7, #4]
  400976:	62fb      	str	r3, [r7, #44]	; 0x2c
  400978:	78fb      	ldrb	r3, [r7, #3]
  40097a:	f887 302b 	strb.w	r3, [r7, #43]	; 0x2b
  40097e:	6afb      	ldr	r3, [r7, #44]	; 0x2c
  400980:	627b      	str	r3, [r7, #36]	; 0x24
	return pin >> 5;
  400982:	6a7b      	ldr	r3, [r7, #36]	; 0x24
  400984:	095a      	lsrs	r2, r3, #5
  400986:	6afb      	ldr	r3, [r7, #44]	; 0x2c
  400988:	623b      	str	r3, [r7, #32]
	return 1U << (pin & 0x1F);
  40098a:	6a3b      	ldr	r3, [r7, #32]
  40098c:	f003 031f 	and.w	r3, r3, #31
  400990:	2101      	movs	r1, #1
  400992:	fa01 f303 	lsl.w	r3, r1, r3
  400996:	61fa      	str	r2, [r7, #28]
  400998:	61bb      	str	r3, [r7, #24]
  40099a:	f897 302b 	ldrb.w	r3, [r7, #43]	; 0x2b
  40099e:	75fb      	strb	r3, [r7, #23]
  4009a0:	69fb      	ldr	r3, [r7, #28]
  4009a2:	613b      	str	r3, [r7, #16]
	return (Pio *)((uintptr_t)IOPORT_BASE_ADDRESS +
  4009a4:	693a      	ldr	r2, [r7, #16]
  4009a6:	4b23      	ldr	r3, [pc, #140]	; (400a34 <ioport_set_pin_sense_mode+0xcc>)
  4009a8:	4413      	add	r3, r2
  4009aa:	025b      	lsls	r3, r3, #9
}

__always_inline static void arch_ioport_set_port_sense_mode(ioport_port_t port,
		ioport_port_mask_t mask, enum ioport_sense pin_sense)
{
	Pio *base = arch_ioport_port_to_base(port);
  4009ac:	60fb      	str	r3, [r7, #12]
	 *       1       0         0    IOPORT_SENSE_FALLING
	 *       1       0         1    IOPORT_SENSE_RISING
	 *       1       1         0    IOPORT_SENSE_LEVEL_LOW
	 *       1       1         1    IOPORT_SENSE_LEVEL_HIGH
	 */
	switch(pin_sense) {
  4009ae:	7dfb      	ldrb	r3, [r7, #23]
  4009b0:	3b01      	subs	r3, #1
  4009b2:	2b03      	cmp	r3, #3
  4009b4:	d82e      	bhi.n	400a14 <ioport_set_pin_sense_mode+0xac>
  4009b6:	a201      	add	r2, pc, #4	; (adr r2, 4009bc <ioport_set_pin_sense_mode+0x54>)
  4009b8:	f852 f023 	ldr.w	pc, [r2, r3, lsl #2]
  4009bc:	004009f1 	.word	0x004009f1
  4009c0:	00400a03 	.word	0x00400a03
  4009c4:	004009cd 	.word	0x004009cd
  4009c8:	004009df 	.word	0x004009df
	case IOPORT_SENSE_LEVEL_LOW:
		base->PIO_LSR = mask;
  4009cc:	68fb      	ldr	r3, [r7, #12]
  4009ce:	69ba      	ldr	r2, [r7, #24]
  4009d0:	f8c3 20c4 	str.w	r2, [r3, #196]	; 0xc4
		base->PIO_FELLSR = mask;
  4009d4:	68fb      	ldr	r3, [r7, #12]
  4009d6:	69ba      	ldr	r2, [r7, #24]
  4009d8:	f8c3 20d0 	str.w	r2, [r3, #208]	; 0xd0
  4009dc:	e01f      	b.n	400a1e <ioport_set_pin_sense_mode+0xb6>
		break;
	case IOPORT_SENSE_LEVEL_HIGH:
		base->PIO_LSR = mask;
  4009de:	68fb      	ldr	r3, [r7, #12]
  4009e0:	69ba      	ldr	r2, [r7, #24]
  4009e2:	f8c3 20c4 	str.w	r2, [r3, #196]	; 0xc4
		base->PIO_REHLSR = mask;
  4009e6:	68fb      	ldr	r3, [r7, #12]
  4009e8:	69ba      	ldr	r2, [r7, #24]
  4009ea:	f8c3 20d4 	str.w	r2, [r3, #212]	; 0xd4
  4009ee:	e016      	b.n	400a1e <ioport_set_pin_sense_mode+0xb6>
		break;
	case IOPORT_SENSE_FALLING:
		base->PIO_ESR = mask;
  4009f0:	68fb      	ldr	r3, [r7, #12]
  4009f2:	69ba      	ldr	r2, [r7, #24]
  4009f4:	f8c3 20c0 	str.w	r2, [r3, #192]	; 0xc0
		base->PIO_FELLSR = mask;
  4009f8:	68fb      	ldr	r3, [r7, #12]
  4009fa:	69ba      	ldr	r2, [r7, #24]
  4009fc:	f8c3 20d0 	str.w	r2, [r3, #208]	; 0xd0
  400a00:	e00d      	b.n	400a1e <ioport_set_pin_sense_mode+0xb6>
		break;
	case IOPORT_SENSE_RISING:
		base->PIO_ESR = mask;
  400a02:	68fb      	ldr	r3, [r7, #12]
  400a04:	69ba      	ldr	r2, [r7, #24]
  400a06:	f8c3 20c0 	str.w	r2, [r3, #192]	; 0xc0
		base->PIO_REHLSR = mask;
  400a0a:	68fb      	ldr	r3, [r7, #12]
  400a0c:	69ba      	ldr	r2, [r7, #24]
  400a0e:	f8c3 20d4 	str.w	r2, [r3, #212]	; 0xd4
  400a12:	e004      	b.n	400a1e <ioport_set_pin_sense_mode+0xb6>
		break;
	default:
		base->PIO_AIMDR = mask;
  400a14:	68fb      	ldr	r3, [r7, #12]
  400a16:	69ba      	ldr	r2, [r7, #24]
  400a18:	f8c3 20b4 	str.w	r2, [r3, #180]	; 0xb4
	arch_ioport_set_pin_sense_mode(pin, pin_sense);
}
  400a1c:	e003      	b.n	400a26 <ioport_set_pin_sense_mode+0xbe>
		return;
	}
	base->PIO_AIMER = mask;
  400a1e:	68fb      	ldr	r3, [r7, #12]
  400a20:	69ba      	ldr	r2, [r7, #24]
  400a22:	f8c3 20b0 	str.w	r2, [r3, #176]	; 0xb0
  400a26:	bf00      	nop
  400a28:	3734      	adds	r7, #52	; 0x34
  400a2a:	46bd      	mov	sp, r7
  400a2c:	f85d 7b04 	ldr.w	r7, [sp], #4
  400a30:	4770      	bx	lr
  400a32:	bf00      	nop
  400a34:	00200707 	.word	0x00200707

00400a38 <tcm_disable>:
/** \brief  TCM memory Disable

	The function enables TCM memories
 */
static inline void tcm_disable(void) 
{
  400a38:	b480      	push	{r7}
  400a3a:	af00      	add	r7, sp, #0
  __ASM volatile ("dsb");
  400a3c:	f3bf 8f4f 	dsb	sy
  __ASM volatile ("isb");
  400a40:	f3bf 8f6f 	isb	sy

	__DSB();
	__ISB();
	SCB->ITCMCR &= ~(uint32_t)(1UL);
  400a44:	4a0c      	ldr	r2, [pc, #48]	; (400a78 <tcm_disable+0x40>)
  400a46:	4b0c      	ldr	r3, [pc, #48]	; (400a78 <tcm_disable+0x40>)
  400a48:	f8d3 3290 	ldr.w	r3, [r3, #656]	; 0x290
  400a4c:	f023 0301 	bic.w	r3, r3, #1
  400a50:	f8c2 3290 	str.w	r3, [r2, #656]	; 0x290
	SCB->DTCMCR &= ~(uint32_t)SCB_DTCMCR_EN_Msk;
  400a54:	4a08      	ldr	r2, [pc, #32]	; (400a78 <tcm_disable+0x40>)
  400a56:	4b08      	ldr	r3, [pc, #32]	; (400a78 <tcm_disable+0x40>)
  400a58:	f8d3 3294 	ldr.w	r3, [r3, #660]	; 0x294
  400a5c:	f023 0301 	bic.w	r3, r3, #1
  400a60:	f8c2 3294 	str.w	r3, [r2, #660]	; 0x294
  __ASM volatile ("dsb");
  400a64:	f3bf 8f4f 	dsb	sy
  __ASM volatile ("isb");
  400a68:	f3bf 8f6f 	isb	sy
	__DSB();
	__ISB();
}
  400a6c:	bf00      	nop
  400a6e:	46bd      	mov	sp, r7
  400a70:	f85d 7b04 	ldr.w	r7, [sp], #4
  400a74:	4770      	bx	lr
  400a76:	bf00      	nop
  400a78:	e000ed00 	.word	0xe000ed00

00400a7c <board_init>:
#endif

void board_init(void)
{
  400a7c:	b580      	push	{r7, lr}
  400a7e:	af00      	add	r7, sp, #0
#ifndef CONF_BOARD_KEEP_WATCHDOG_AT_INIT
	/* Disable the watchdog */
	WDT->WDT_MR = WDT_MR_WDDIS;
  400a80:	4b1e      	ldr	r3, [pc, #120]	; (400afc <board_init+0x80>)
  400a82:	f44f 4200 	mov.w	r2, #32768	; 0x8000
  400a86:	605a      	str	r2, [r3, #4]
	_setup_memory_region();
#endif

#ifdef CONF_BOARD_ENABLE_CACHE
	/* Enabling the Cache */
	SCB_EnableICache(); 
  400a88:	4b1d      	ldr	r3, [pc, #116]	; (400b00 <board_init+0x84>)
  400a8a:	4798      	blx	r3
	SCB_EnableDCache();
  400a8c:	4b1d      	ldr	r3, [pc, #116]	; (400b04 <board_init+0x88>)
  400a8e:	4798      	blx	r3
		*dst++ = *src++;
	}
#endif
#else
	/* TCM Configuration */
	EFC->EEFC_FCR = (EEFC_FCR_FKEY_PASSWD | EEFC_FCR_FCMD_CGPB 
  400a90:	4b1d      	ldr	r3, [pc, #116]	; (400b08 <board_init+0x8c>)
  400a92:	4a1e      	ldr	r2, [pc, #120]	; (400b0c <board_init+0x90>)
  400a94:	605a      	str	r2, [r3, #4]
					| EEFC_FCR_FARG(8));
	EFC->EEFC_FCR = (EEFC_FCR_FKEY_PASSWD | EEFC_FCR_FCMD_CGPB 
  400a96:	4b1c      	ldr	r3, [pc, #112]	; (400b08 <board_init+0x8c>)
  400a98:	4a1d      	ldr	r2, [pc, #116]	; (400b10 <board_init+0x94>)
  400a9a:	605a      	str	r2, [r3, #4]
					| EEFC_FCR_FARG(7));
	
	tcm_disable();
  400a9c:	4b1d      	ldr	r3, [pc, #116]	; (400b14 <board_init+0x98>)
  400a9e:	4798      	blx	r3
#endif

	/* Initialize IOPORTs */
	ioport_init();
  400aa0:	4b1d      	ldr	r3, [pc, #116]	; (400b18 <board_init+0x9c>)
  400aa2:	4798      	blx	r3

	/* Configure the pins connected to LED as output and set their
	 * default initial state to high (LED off).
	 */
	ioport_set_pin_dir(LED0_GPIO, IOPORT_DIR_OUTPUT);
  400aa4:	2101      	movs	r1, #1
  400aa6:	2048      	movs	r0, #72	; 0x48
  400aa8:	4b1c      	ldr	r3, [pc, #112]	; (400b1c <board_init+0xa0>)
  400aaa:	4798      	blx	r3
	ioport_set_pin_level(LED0_GPIO, LED0_INACTIVE_LEVEL);
  400aac:	2101      	movs	r1, #1
  400aae:	2048      	movs	r0, #72	; 0x48
  400ab0:	4b1b      	ldr	r3, [pc, #108]	; (400b20 <board_init+0xa4>)
  400ab2:	4798      	blx	r3

	/* Configure Push Button pins */
	ioport_set_pin_input_mode(GPIO_PUSH_BUTTON_1, GPIO_PUSH_BUTTON_1_FLAGS,
  400ab4:	2100      	movs	r1, #0
  400ab6:	200b      	movs	r0, #11
  400ab8:	4b18      	ldr	r3, [pc, #96]	; (400b1c <board_init+0xa0>)
  400aba:	4798      	blx	r3
  400abc:	2188      	movs	r1, #136	; 0x88
  400abe:	200b      	movs	r0, #11
  400ac0:	4b18      	ldr	r3, [pc, #96]	; (400b24 <board_init+0xa8>)
  400ac2:	4798      	blx	r3
  400ac4:	2102      	movs	r1, #2
  400ac6:	200b      	movs	r0, #11
  400ac8:	4b17      	ldr	r3, [pc, #92]	; (400b28 <board_init+0xac>)
  400aca:	4798      	blx	r3
			GPIO_PUSH_BUTTON_1_SENSE);

#ifdef CONF_BOARD_UART_CONSOLE
	/* Configure UART pins */
	ioport_set_pin_peripheral_mode(USART1_RXD_GPIO, USART1_RXD_FLAGS);
  400acc:	2100      	movs	r1, #0
  400ace:	2015      	movs	r0, #21
  400ad0:	4b14      	ldr	r3, [pc, #80]	; (400b24 <board_init+0xa8>)
  400ad2:	4798      	blx	r3
  400ad4:	2015      	movs	r0, #21
  400ad6:	4b15      	ldr	r3, [pc, #84]	; (400b2c <board_init+0xb0>)
  400ad8:	4798      	blx	r3
	MATRIX->CCFG_SYSIO |= CCFG_SYSIO_SYSIO4;
  400ada:	4a15      	ldr	r2, [pc, #84]	; (400b30 <board_init+0xb4>)
  400adc:	4b14      	ldr	r3, [pc, #80]	; (400b30 <board_init+0xb4>)
  400ade:	f8d3 3114 	ldr.w	r3, [r3, #276]	; 0x114
  400ae2:	f043 0310 	orr.w	r3, r3, #16
  400ae6:	f8c2 3114 	str.w	r3, [r2, #276]	; 0x114
	ioport_set_pin_peripheral_mode(USART1_TXD_GPIO, USART1_TXD_FLAGS);
  400aea:	2103      	movs	r1, #3
  400aec:	2024      	movs	r0, #36	; 0x24
  400aee:	4b0d      	ldr	r3, [pc, #52]	; (400b24 <board_init+0xa8>)
  400af0:	4798      	blx	r3
  400af2:	2024      	movs	r0, #36	; 0x24
  400af4:	4b0d      	ldr	r3, [pc, #52]	; (400b2c <board_init+0xb0>)
  400af6:	4798      	blx	r3
	pio_configure_pin(LCD_SPI_CDS_PIO, LCD_SPI_CDS_FLAGS);
	pio_configure_pin(LCD_SPI_BACKLIGHT_PIO, LCD_SPI_BACKLIGHT_FLAGS);
	pio_set_pin_high(LCD_SPI_BACKLIGHT_PIO);

#endif
}
  400af8:	bf00      	nop
  400afa:	bd80      	pop	{r7, pc}
  400afc:	400e1850 	.word	0x400e1850
  400b00:	004005e9 	.word	0x004005e9
  400b04:	00400621 	.word	0x00400621
  400b08:	400e0c00 	.word	0x400e0c00
  400b0c:	5a00080c 	.word	0x5a00080c
  400b10:	5a00070c 	.word	0x5a00070c
  400b14:	00400a39 	.word	0x00400a39
  400b18:	004006e1 	.word	0x004006e1
  400b1c:	00400875 	.word	0x00400875
  400b20:	004008fd 	.word	0x004008fd
  400b24:	00400759 	.word	0x00400759
  400b28:	00400969 	.word	0x00400969
  400b2c:	0040070d 	.word	0x0040070d
  400b30:	40088000 	.word	0x40088000

00400b34 <pio_pull_up>:
 * \param ul_pull_up_enable Indicates if the pin(s) internal pull-up shall be
 * configured.
 */
void pio_pull_up(Pio *p_pio, const uint32_t ul_mask,
		const uint32_t ul_pull_up_enable)
{
  400b34:	b480      	push	{r7}
  400b36:	b085      	sub	sp, #20
  400b38:	af00      	add	r7, sp, #0
  400b3a:	60f8      	str	r0, [r7, #12]
  400b3c:	60b9      	str	r1, [r7, #8]
  400b3e:	607a      	str	r2, [r7, #4]
	/* Enable the pull-up(s) if necessary */
	if (ul_pull_up_enable) {
  400b40:	687b      	ldr	r3, [r7, #4]
  400b42:	2b00      	cmp	r3, #0
  400b44:	d003      	beq.n	400b4e <pio_pull_up+0x1a>
		p_pio->PIO_PUER = ul_mask;
  400b46:	68fb      	ldr	r3, [r7, #12]
  400b48:	68ba      	ldr	r2, [r7, #8]
  400b4a:	665a      	str	r2, [r3, #100]	; 0x64
	} else {
		p_pio->PIO_PUDR = ul_mask;
	}
}
  400b4c:	e002      	b.n	400b54 <pio_pull_up+0x20>
		p_pio->PIO_PUDR = ul_mask;
  400b4e:	68fb      	ldr	r3, [r7, #12]
  400b50:	68ba      	ldr	r2, [r7, #8]
  400b52:	661a      	str	r2, [r3, #96]	; 0x60
}
  400b54:	bf00      	nop
  400b56:	3714      	adds	r7, #20
  400b58:	46bd      	mov	sp, r7
  400b5a:	f85d 7b04 	ldr.w	r7, [sp], #4
  400b5e:	4770      	bx	lr

00400b60 <pio_set>:
 *
 * \param p_pio Pointer to a PIO instance.
 * \param ul_mask Bitmask of one or more pin(s) to configure.
 */
void pio_set(Pio *p_pio, const uint32_t ul_mask)
{
  400b60:	b480      	push	{r7}
  400b62:	b083      	sub	sp, #12
  400b64:	af00      	add	r7, sp, #0
  400b66:	6078      	str	r0, [r7, #4]
  400b68:	6039      	str	r1, [r7, #0]
	p_pio->PIO_SODR = ul_mask;
  400b6a:	687b      	ldr	r3, [r7, #4]
  400b6c:	683a      	ldr	r2, [r7, #0]
  400b6e:	631a      	str	r2, [r3, #48]	; 0x30
}
  400b70:	bf00      	nop
  400b72:	370c      	adds	r7, #12
  400b74:	46bd      	mov	sp, r7
  400b76:	f85d 7b04 	ldr.w	r7, [sp], #4
  400b7a:	4770      	bx	lr

00400b7c <pio_clear>:
 *
 * \param p_pio Pointer to a PIO instance.
 * \param ul_mask Bitmask of one or more pin(s) to configure.
 */
void pio_clear(Pio *p_pio, const uint32_t ul_mask)
{
  400b7c:	b480      	push	{r7}
  400b7e:	b083      	sub	sp, #12
  400b80:	af00      	add	r7, sp, #0
  400b82:	6078      	str	r0, [r7, #4]
  400b84:	6039      	str	r1, [r7, #0]
	p_pio->PIO_CODR = ul_mask;
  400b86:	687b      	ldr	r3, [r7, #4]
  400b88:	683a      	ldr	r2, [r7, #0]
  400b8a:	635a      	str	r2, [r3, #52]	; 0x34
}
  400b8c:	bf00      	nop
  400b8e:	370c      	adds	r7, #12
  400b90:	46bd      	mov	sp, r7
  400b92:	f85d 7b04 	ldr.w	r7, [sp], #4
  400b96:	4770      	bx	lr

00400b98 <pio_set_output>:
 */
void pio_set_output(Pio *p_pio, const uint32_t ul_mask,
		const uint32_t ul_default_level,
		const uint32_t ul_multidrive_enable,
		const uint32_t ul_pull_up_enable)
{
  400b98:	b580      	push	{r7, lr}
  400b9a:	b084      	sub	sp, #16
  400b9c:	af00      	add	r7, sp, #0
  400b9e:	60f8      	str	r0, [r7, #12]
  400ba0:	60b9      	str	r1, [r7, #8]
  400ba2:	607a      	str	r2, [r7, #4]
  400ba4:	603b      	str	r3, [r7, #0]
	pio_disable_interrupt(p_pio, ul_mask);
  400ba6:	68b9      	ldr	r1, [r7, #8]
  400ba8:	68f8      	ldr	r0, [r7, #12]
  400baa:	4b12      	ldr	r3, [pc, #72]	; (400bf4 <pio_set_output+0x5c>)
  400bac:	4798      	blx	r3
	pio_pull_up(p_pio, ul_mask, ul_pull_up_enable);
  400bae:	69ba      	ldr	r2, [r7, #24]
  400bb0:	68b9      	ldr	r1, [r7, #8]
  400bb2:	68f8      	ldr	r0, [r7, #12]
  400bb4:	4b10      	ldr	r3, [pc, #64]	; (400bf8 <pio_set_output+0x60>)
  400bb6:	4798      	blx	r3

	/* Enable multi-drive if necessary */
	if (ul_multidrive_enable) {
  400bb8:	683b      	ldr	r3, [r7, #0]
  400bba:	2b00      	cmp	r3, #0
  400bbc:	d003      	beq.n	400bc6 <pio_set_output+0x2e>
		p_pio->PIO_MDER = ul_mask;
  400bbe:	68fb      	ldr	r3, [r7, #12]
  400bc0:	68ba      	ldr	r2, [r7, #8]
  400bc2:	651a      	str	r2, [r3, #80]	; 0x50
  400bc4:	e002      	b.n	400bcc <pio_set_output+0x34>
	} else {
		p_pio->PIO_MDDR = ul_mask;
  400bc6:	68fb      	ldr	r3, [r7, #12]
  400bc8:	68ba      	ldr	r2, [r7, #8]
  400bca:	655a      	str	r2, [r3, #84]	; 0x54
	}

	/* Set default value */
	if (ul_default_level) {
  400bcc:	687b      	ldr	r3, [r7, #4]
  400bce:	2b00      	cmp	r3, #0
  400bd0:	d003      	beq.n	400bda <pio_set_output+0x42>
		p_pio->PIO_SODR = ul_mask;
  400bd2:	68fb      	ldr	r3, [r7, #12]
  400bd4:	68ba      	ldr	r2, [r7, #8]
  400bd6:	631a      	str	r2, [r3, #48]	; 0x30
  400bd8:	e002      	b.n	400be0 <pio_set_output+0x48>
	} else {
		p_pio->PIO_CODR = ul_mask;
  400bda:	68fb      	ldr	r3, [r7, #12]
  400bdc:	68ba      	ldr	r2, [r7, #8]
  400bde:	635a      	str	r2, [r3, #52]	; 0x34
	}

	/* Configure pin(s) as output(s) */
	p_pio->PIO_OER = ul_mask;
  400be0:	68fb      	ldr	r3, [r7, #12]
  400be2:	68ba      	ldr	r2, [r7, #8]
  400be4:	611a      	str	r2, [r3, #16]
	p_pio->PIO_PER = ul_mask;
  400be6:	68fb      	ldr	r3, [r7, #12]
  400be8:	68ba      	ldr	r2, [r7, #8]
  400bea:	601a      	str	r2, [r3, #0]
}
  400bec:	bf00      	nop
  400bee:	3710      	adds	r7, #16
  400bf0:	46bd      	mov	sp, r7
  400bf2:	bd80      	pop	{r7, pc}
  400bf4:	00400c25 	.word	0x00400c25
  400bf8:	00400b35 	.word	0x00400b35

00400bfc <pio_get_output_data_status>:
 * \retval 1 At least one PIO is configured to output a high level.
 * \retval 0 All PIOs are configured to output a low level.
 */
uint32_t pio_get_output_data_status(const Pio *p_pio,
		const uint32_t ul_mask)
{
  400bfc:	b480      	push	{r7}
  400bfe:	b083      	sub	sp, #12
  400c00:	af00      	add	r7, sp, #0
  400c02:	6078      	str	r0, [r7, #4]
  400c04:	6039      	str	r1, [r7, #0]
	if ((p_pio->PIO_ODSR & ul_mask) == 0) {
  400c06:	687b      	ldr	r3, [r7, #4]
  400c08:	6b9a      	ldr	r2, [r3, #56]	; 0x38
  400c0a:	683b      	ldr	r3, [r7, #0]
  400c0c:	4013      	ands	r3, r2
  400c0e:	2b00      	cmp	r3, #0
  400c10:	d101      	bne.n	400c16 <pio_get_output_data_status+0x1a>
		return 0;
  400c12:	2300      	movs	r3, #0
  400c14:	e000      	b.n	400c18 <pio_get_output_data_status+0x1c>
	} else {
		return 1;
  400c16:	2301      	movs	r3, #1
	}
}
  400c18:	4618      	mov	r0, r3
  400c1a:	370c      	adds	r7, #12
  400c1c:	46bd      	mov	sp, r7
  400c1e:	f85d 7b04 	ldr.w	r7, [sp], #4
  400c22:	4770      	bx	lr

00400c24 <pio_disable_interrupt>:
 *
 * \param p_pio Pointer to a PIO instance.
 * \param ul_mask Interrupt sources bit map.
 */
void pio_disable_interrupt(Pio *p_pio, const uint32_t ul_mask)
{
  400c24:	b480      	push	{r7}
  400c26:	b083      	sub	sp, #12
  400c28:	af00      	add	r7, sp, #0
  400c2a:	6078      	str	r0, [r7, #4]
  400c2c:	6039      	str	r1, [r7, #0]
	p_pio->PIO_IDR = ul_mask;
  400c2e:	687b      	ldr	r3, [r7, #4]
  400c30:	683a      	ldr	r2, [r7, #0]
  400c32:	645a      	str	r2, [r3, #68]	; 0x44
}
  400c34:	bf00      	nop
  400c36:	370c      	adds	r7, #12
  400c38:	46bd      	mov	sp, r7
  400c3a:	f85d 7b04 	ldr.w	r7, [sp], #4
  400c3e:	4770      	bx	lr

00400c40 <pio_get_interrupt_status>:
 * \param p_pio Pointer to a PIO instance.
 *
 * \return The interrupt status value.
 */
uint32_t pio_get_interrupt_status(const Pio *p_pio)
{
  400c40:	b480      	push	{r7}
  400c42:	b083      	sub	sp, #12
  400c44:	af00      	add	r7, sp, #0
  400c46:	6078      	str	r0, [r7, #4]
	return p_pio->PIO_ISR;
  400c48:	687b      	ldr	r3, [r7, #4]
  400c4a:	6cdb      	ldr	r3, [r3, #76]	; 0x4c
}
  400c4c:	4618      	mov	r0, r3
  400c4e:	370c      	adds	r7, #12
  400c50:	46bd      	mov	sp, r7
  400c52:	f85d 7b04 	ldr.w	r7, [sp], #4
  400c56:	4770      	bx	lr

00400c58 <pio_get_interrupt_mask>:
 * \param p_pio Pointer to a PIO instance.
 *
 * \return The interrupt mask value.
 */
uint32_t pio_get_interrupt_mask(const Pio *p_pio)
{
  400c58:	b480      	push	{r7}
  400c5a:	b083      	sub	sp, #12
  400c5c:	af00      	add	r7, sp, #0
  400c5e:	6078      	str	r0, [r7, #4]
	return p_pio->PIO_IMR;
  400c60:	687b      	ldr	r3, [r7, #4]
  400c62:	6c9b      	ldr	r3, [r3, #72]	; 0x48
}
  400c64:	4618      	mov	r0, r3
  400c66:	370c      	adds	r7, #12
  400c68:	46bd      	mov	sp, r7
  400c6a:	f85d 7b04 	ldr.w	r7, [sp], #4
  400c6e:	4770      	bx	lr

00400c70 <pio_handler_process>:
 *
 * \param p_pio PIO controller base address.
 * \param ul_id PIO controller ID.
 */
void pio_handler_process(Pio *p_pio, uint32_t ul_id)
{
  400c70:	b580      	push	{r7, lr}
  400c72:	b084      	sub	sp, #16
  400c74:	af00      	add	r7, sp, #0
  400c76:	6078      	str	r0, [r7, #4]
  400c78:	6039      	str	r1, [r7, #0]
	uint32_t status;
	uint32_t i;

	/* Read PIO controller status */
	status = pio_get_interrupt_status(p_pio);
  400c7a:	6878      	ldr	r0, [r7, #4]
  400c7c:	4b26      	ldr	r3, [pc, #152]	; (400d18 <pio_handler_process+0xa8>)
  400c7e:	4798      	blx	r3
  400c80:	60f8      	str	r0, [r7, #12]
	status &= pio_get_interrupt_mask(p_pio);
  400c82:	6878      	ldr	r0, [r7, #4]
  400c84:	4b25      	ldr	r3, [pc, #148]	; (400d1c <pio_handler_process+0xac>)
  400c86:	4798      	blx	r3
  400c88:	4602      	mov	r2, r0
  400c8a:	68fb      	ldr	r3, [r7, #12]
  400c8c:	4013      	ands	r3, r2
  400c8e:	60fb      	str	r3, [r7, #12]

	/* Check pending events */
	if (status != 0) {
  400c90:	68fb      	ldr	r3, [r7, #12]
  400c92:	2b00      	cmp	r3, #0
  400c94:	d03c      	beq.n	400d10 <pio_handler_process+0xa0>
		/* Find triggering source */
		i = 0;
  400c96:	2300      	movs	r3, #0
  400c98:	60bb      	str	r3, [r7, #8]
		while (status != 0) {
  400c9a:	e034      	b.n	400d06 <pio_handler_process+0x96>
			/* Source is configured on the same controller */
			if (gs_interrupt_sources[i].id == ul_id) {
  400c9c:	4a20      	ldr	r2, [pc, #128]	; (400d20 <pio_handler_process+0xb0>)
  400c9e:	68bb      	ldr	r3, [r7, #8]
  400ca0:	011b      	lsls	r3, r3, #4
  400ca2:	4413      	add	r3, r2
  400ca4:	681a      	ldr	r2, [r3, #0]
  400ca6:	683b      	ldr	r3, [r7, #0]
  400ca8:	429a      	cmp	r2, r3
  400caa:	d126      	bne.n	400cfa <pio_handler_process+0x8a>
				/* Source has PIOs whose statuses have changed */
				if ((status & gs_interrupt_sources[i].mask) != 0) {
  400cac:	4a1c      	ldr	r2, [pc, #112]	; (400d20 <pio_handler_process+0xb0>)
  400cae:	68bb      	ldr	r3, [r7, #8]
  400cb0:	011b      	lsls	r3, r3, #4
  400cb2:	4413      	add	r3, r2
  400cb4:	3304      	adds	r3, #4
  400cb6:	681a      	ldr	r2, [r3, #0]
  400cb8:	68fb      	ldr	r3, [r7, #12]
  400cba:	4013      	ands	r3, r2
  400cbc:	2b00      	cmp	r3, #0
  400cbe:	d01c      	beq.n	400cfa <pio_handler_process+0x8a>
					gs_interrupt_sources[i].handler(gs_interrupt_sources[i].id,
  400cc0:	4a17      	ldr	r2, [pc, #92]	; (400d20 <pio_handler_process+0xb0>)
  400cc2:	68bb      	ldr	r3, [r7, #8]
  400cc4:	011b      	lsls	r3, r3, #4
  400cc6:	4413      	add	r3, r2
  400cc8:	330c      	adds	r3, #12
  400cca:	681b      	ldr	r3, [r3, #0]
  400ccc:	4914      	ldr	r1, [pc, #80]	; (400d20 <pio_handler_process+0xb0>)
  400cce:	68ba      	ldr	r2, [r7, #8]
  400cd0:	0112      	lsls	r2, r2, #4
  400cd2:	440a      	add	r2, r1
  400cd4:	6810      	ldr	r0, [r2, #0]
  400cd6:	4912      	ldr	r1, [pc, #72]	; (400d20 <pio_handler_process+0xb0>)
  400cd8:	68ba      	ldr	r2, [r7, #8]
  400cda:	0112      	lsls	r2, r2, #4
  400cdc:	440a      	add	r2, r1
  400cde:	3204      	adds	r2, #4
  400ce0:	6812      	ldr	r2, [r2, #0]
  400ce2:	4611      	mov	r1, r2
  400ce4:	4798      	blx	r3
							gs_interrupt_sources[i].mask);
					status &= ~(gs_interrupt_sources[i].mask);
  400ce6:	4a0e      	ldr	r2, [pc, #56]	; (400d20 <pio_handler_process+0xb0>)
  400ce8:	68bb      	ldr	r3, [r7, #8]
  400cea:	011b      	lsls	r3, r3, #4
  400cec:	4413      	add	r3, r2
  400cee:	3304      	adds	r3, #4
  400cf0:	681b      	ldr	r3, [r3, #0]
  400cf2:	43db      	mvns	r3, r3
  400cf4:	68fa      	ldr	r2, [r7, #12]
  400cf6:	4013      	ands	r3, r2
  400cf8:	60fb      	str	r3, [r7, #12]
				}
			}
			i++;
  400cfa:	68bb      	ldr	r3, [r7, #8]
  400cfc:	3301      	adds	r3, #1
  400cfe:	60bb      	str	r3, [r7, #8]
			if (i >= MAX_INTERRUPT_SOURCES) {
  400d00:	68bb      	ldr	r3, [r7, #8]
  400d02:	2b06      	cmp	r3, #6
  400d04:	d803      	bhi.n	400d0e <pio_handler_process+0x9e>
		while (status != 0) {
  400d06:	68fb      	ldr	r3, [r7, #12]
  400d08:	2b00      	cmp	r3, #0
  400d0a:	d1c7      	bne.n	400c9c <pio_handler_process+0x2c>
		if (pio_capture_handler) {
			pio_capture_handler(p_pio);
		}
	}
#endif
}
  400d0c:	e000      	b.n	400d10 <pio_handler_process+0xa0>
				break;
  400d0e:	bf00      	nop
}
  400d10:	bf00      	nop
  400d12:	3710      	adds	r7, #16
  400d14:	46bd      	mov	sp, r7
  400d16:	bd80      	pop	{r7, pc}
  400d18:	00400c41 	.word	0x00400c41
  400d1c:	00400c59 	.word	0x00400c59
  400d20:	20400868 	.word	0x20400868

00400d24 <PIOA_Handler>:
/**
 * \brief Parallel IO Controller A interrupt handler.
 * Redefined PIOA interrupt handler for NVIC interrupt table.
 */
void PIOA_Handler(void)
{
  400d24:	b580      	push	{r7, lr}
  400d26:	af00      	add	r7, sp, #0
	pio_handler_process(PIOA, ID_PIOA);
  400d28:	210a      	movs	r1, #10
  400d2a:	4802      	ldr	r0, [pc, #8]	; (400d34 <PIOA_Handler+0x10>)
  400d2c:	4b02      	ldr	r3, [pc, #8]	; (400d38 <PIOA_Handler+0x14>)
  400d2e:	4798      	blx	r3
}
  400d30:	bf00      	nop
  400d32:	bd80      	pop	{r7, pc}
  400d34:	400e0e00 	.word	0x400e0e00
  400d38:	00400c71 	.word	0x00400c71

00400d3c <PIOB_Handler>:
/**
 * \brief Parallel IO Controller B interrupt handler
 * Redefined PIOB interrupt handler for NVIC interrupt table.
 */
void PIOB_Handler(void)
{
  400d3c:	b580      	push	{r7, lr}
  400d3e:	af00      	add	r7, sp, #0
    pio_handler_process(PIOB, ID_PIOB);
  400d40:	210b      	movs	r1, #11
  400d42:	4802      	ldr	r0, [pc, #8]	; (400d4c <PIOB_Handler+0x10>)
  400d44:	4b02      	ldr	r3, [pc, #8]	; (400d50 <PIOB_Handler+0x14>)
  400d46:	4798      	blx	r3
}
  400d48:	bf00      	nop
  400d4a:	bd80      	pop	{r7, pc}
  400d4c:	400e1000 	.word	0x400e1000
  400d50:	00400c71 	.word	0x00400c71

00400d54 <PIOC_Handler>:
/**
 * \brief Parallel IO Controller C interrupt handler.
 * Redefined PIOC interrupt handler for NVIC interrupt table.
 */
void PIOC_Handler(void)
{
  400d54:	b580      	push	{r7, lr}
  400d56:	af00      	add	r7, sp, #0
	pio_handler_process(PIOC, ID_PIOC);
  400d58:	210c      	movs	r1, #12
  400d5a:	4802      	ldr	r0, [pc, #8]	; (400d64 <PIOC_Handler+0x10>)
  400d5c:	4b02      	ldr	r3, [pc, #8]	; (400d68 <PIOC_Handler+0x14>)
  400d5e:	4798      	blx	r3
}
  400d60:	bf00      	nop
  400d62:	bd80      	pop	{r7, pc}
  400d64:	400e1200 	.word	0x400e1200
  400d68:	00400c71 	.word	0x00400c71

00400d6c <PIOD_Handler>:
/**
 * \brief Parallel IO Controller D interrupt handler.
 * Redefined PIOD interrupt handler for NVIC interrupt table.
 */
void PIOD_Handler(void)
{
  400d6c:	b580      	push	{r7, lr}
  400d6e:	af00      	add	r7, sp, #0
	pio_handler_process(PIOD, ID_PIOD);
  400d70:	2110      	movs	r1, #16
  400d72:	4802      	ldr	r0, [pc, #8]	; (400d7c <PIOD_Handler+0x10>)
  400d74:	4b02      	ldr	r3, [pc, #8]	; (400d80 <PIOD_Handler+0x14>)
  400d76:	4798      	blx	r3
}
  400d78:	bf00      	nop
  400d7a:	bd80      	pop	{r7, pc}
  400d7c:	400e1400 	.word	0x400e1400
  400d80:	00400c71 	.word	0x00400c71

00400d84 <PIOE_Handler>:
/**
 * \brief Parallel IO Controller E interrupt handler.
 * Redefined PIOE interrupt handler for NVIC interrupt table.
 */
void PIOE_Handler(void)
{
  400d84:	b580      	push	{r7, lr}
  400d86:	af00      	add	r7, sp, #0
	pio_handler_process(PIOE, ID_PIOE);
  400d88:	2111      	movs	r1, #17
  400d8a:	4802      	ldr	r0, [pc, #8]	; (400d94 <PIOE_Handler+0x10>)
  400d8c:	4b02      	ldr	r3, [pc, #8]	; (400d98 <PIOE_Handler+0x14>)
  400d8e:	4798      	blx	r3
}
  400d90:	bf00      	nop
  400d92:	bd80      	pop	{r7, pc}
  400d94:	400e1600 	.word	0x400e1600
  400d98:	00400c71 	.word	0x00400c71

00400d9c <pmc_mck_set_division>:
 * \brief Set the division of the MCK.
 *
 * \param ul_div Division value.
 */
void pmc_mck_set_division(uint32_t ul_div)
{
  400d9c:	b480      	push	{r7}
  400d9e:	b083      	sub	sp, #12
  400da0:	af00      	add	r7, sp, #0
  400da2:	6078      	str	r0, [r7, #4]
	switch (ul_div) {
  400da4:	687b      	ldr	r3, [r7, #4]
  400da6:	3b01      	subs	r3, #1
  400da8:	2b03      	cmp	r3, #3
  400daa:	d81a      	bhi.n	400de2 <pmc_mck_set_division+0x46>
  400dac:	a201      	add	r2, pc, #4	; (adr r2, 400db4 <pmc_mck_set_division+0x18>)
  400dae:	f852 f023 	ldr.w	pc, [r2, r3, lsl #2]
  400db2:	bf00      	nop
  400db4:	00400dc5 	.word	0x00400dc5
  400db8:	00400dcb 	.word	0x00400dcb
  400dbc:	00400dd3 	.word	0x00400dd3
  400dc0:	00400ddb 	.word	0x00400ddb
		case 1:
			ul_div = PMC_MCKR_MDIV_EQ_PCK;
  400dc4:	2300      	movs	r3, #0
  400dc6:	607b      	str	r3, [r7, #4]
			break;
  400dc8:	e00e      	b.n	400de8 <pmc_mck_set_division+0x4c>
		case 2:
			ul_div = PMC_MCKR_MDIV_PCK_DIV2;
  400dca:	f44f 7380 	mov.w	r3, #256	; 0x100
  400dce:	607b      	str	r3, [r7, #4]
			break;
  400dd0:	e00a      	b.n	400de8 <pmc_mck_set_division+0x4c>
		case 3:
			ul_div = PMC_MCKR_MDIV_PCK_DIV3;
  400dd2:	f44f 7340 	mov.w	r3, #768	; 0x300
  400dd6:	607b      	str	r3, [r7, #4]
			break;
  400dd8:	e006      	b.n	400de8 <pmc_mck_set_division+0x4c>
		case 4:
			ul_div = PMC_MCKR_MDIV_PCK_DIV4;
  400dda:	f44f 7300 	mov.w	r3, #512	; 0x200
  400dde:	607b      	str	r3, [r7, #4]
			break;
  400de0:	e002      	b.n	400de8 <pmc_mck_set_division+0x4c>
		default:
			ul_div = PMC_MCKR_MDIV_EQ_PCK;
  400de2:	2300      	movs	r3, #0
  400de4:	607b      	str	r3, [r7, #4]
			break;
  400de6:	bf00      	nop
	}
	PMC->PMC_MCKR =
  400de8:	490a      	ldr	r1, [pc, #40]	; (400e14 <pmc_mck_set_division+0x78>)
			(PMC->PMC_MCKR & (~PMC_MCKR_MDIV_Msk)) | ul_div;
  400dea:	4b0a      	ldr	r3, [pc, #40]	; (400e14 <pmc_mck_set_division+0x78>)
  400dec:	6b1b      	ldr	r3, [r3, #48]	; 0x30
  400dee:	f423 7240 	bic.w	r2, r3, #768	; 0x300
  400df2:	687b      	ldr	r3, [r7, #4]
  400df4:	4313      	orrs	r3, r2
	PMC->PMC_MCKR =
  400df6:	630b      	str	r3, [r1, #48]	; 0x30
	while (!(PMC->PMC_SR & PMC_SR_MCKRDY));
  400df8:	bf00      	nop
  400dfa:	4b06      	ldr	r3, [pc, #24]	; (400e14 <pmc_mck_set_division+0x78>)
  400dfc:	6e9b      	ldr	r3, [r3, #104]	; 0x68
  400dfe:	f003 0308 	and.w	r3, r3, #8
  400e02:	2b00      	cmp	r3, #0
  400e04:	d0f9      	beq.n	400dfa <pmc_mck_set_division+0x5e>
}
  400e06:	bf00      	nop
  400e08:	370c      	adds	r7, #12
  400e0a:	46bd      	mov	sp, r7
  400e0c:	f85d 7b04 	ldr.w	r7, [sp], #4
  400e10:	4770      	bx	lr
  400e12:	bf00      	nop
  400e14:	400e0600 	.word	0x400e0600

00400e18 <pmc_switch_mck_to_pllack>:
 *
 * \retval 0 Success.
 * \retval 1 Timeout error.
 */
uint32_t pmc_switch_mck_to_pllack(uint32_t ul_pres)
{
  400e18:	b480      	push	{r7}
  400e1a:	b085      	sub	sp, #20
  400e1c:	af00      	add	r7, sp, #0
  400e1e:	6078      	str	r0, [r7, #4]
	uint32_t ul_timeout;

	PMC->PMC_MCKR = (PMC->PMC_MCKR & (~PMC_MCKR_PRES_Msk)) | ul_pres;
  400e20:	491d      	ldr	r1, [pc, #116]	; (400e98 <pmc_switch_mck_to_pllack+0x80>)
  400e22:	4b1d      	ldr	r3, [pc, #116]	; (400e98 <pmc_switch_mck_to_pllack+0x80>)
  400e24:	6b1b      	ldr	r3, [r3, #48]	; 0x30
  400e26:	f023 0270 	bic.w	r2, r3, #112	; 0x70
  400e2a:	687b      	ldr	r3, [r7, #4]
  400e2c:	4313      	orrs	r3, r2
  400e2e:	630b      	str	r3, [r1, #48]	; 0x30
	for (ul_timeout = PMC_TIMEOUT; !(PMC->PMC_SR & PMC_SR_MCKRDY);
  400e30:	f44f 5380 	mov.w	r3, #4096	; 0x1000
  400e34:	60fb      	str	r3, [r7, #12]
  400e36:	e007      	b.n	400e48 <pmc_switch_mck_to_pllack+0x30>
			--ul_timeout) {
		if (ul_timeout == 0) {
  400e38:	68fb      	ldr	r3, [r7, #12]
  400e3a:	2b00      	cmp	r3, #0
  400e3c:	d101      	bne.n	400e42 <pmc_switch_mck_to_pllack+0x2a>
			return 1;
  400e3e:	2301      	movs	r3, #1
  400e40:	e023      	b.n	400e8a <pmc_switch_mck_to_pllack+0x72>
			--ul_timeout) {
  400e42:	68fb      	ldr	r3, [r7, #12]
  400e44:	3b01      	subs	r3, #1
  400e46:	60fb      	str	r3, [r7, #12]
	for (ul_timeout = PMC_TIMEOUT; !(PMC->PMC_SR & PMC_SR_MCKRDY);
  400e48:	4b13      	ldr	r3, [pc, #76]	; (400e98 <pmc_switch_mck_to_pllack+0x80>)
  400e4a:	6e9b      	ldr	r3, [r3, #104]	; 0x68
  400e4c:	f003 0308 	and.w	r3, r3, #8
  400e50:	2b00      	cmp	r3, #0
  400e52:	d0f1      	beq.n	400e38 <pmc_switch_mck_to_pllack+0x20>
		}
	}

	PMC->PMC_MCKR = (PMC->PMC_MCKR & (~PMC_MCKR_CSS_Msk)) |
  400e54:	4a10      	ldr	r2, [pc, #64]	; (400e98 <pmc_switch_mck_to_pllack+0x80>)
  400e56:	4b10      	ldr	r3, [pc, #64]	; (400e98 <pmc_switch_mck_to_pllack+0x80>)
  400e58:	6b1b      	ldr	r3, [r3, #48]	; 0x30
  400e5a:	f023 0303 	bic.w	r3, r3, #3
  400e5e:	f043 0302 	orr.w	r3, r3, #2
  400e62:	6313      	str	r3, [r2, #48]	; 0x30
			PMC_MCKR_CSS_PLLA_CLK;

	for (ul_timeout = PMC_TIMEOUT; !(PMC->PMC_SR & PMC_SR_MCKRDY);
  400e64:	f44f 5380 	mov.w	r3, #4096	; 0x1000
  400e68:	60fb      	str	r3, [r7, #12]
  400e6a:	e007      	b.n	400e7c <pmc_switch_mck_to_pllack+0x64>
			--ul_timeout) {
		if (ul_timeout == 0) {
  400e6c:	68fb      	ldr	r3, [r7, #12]
  400e6e:	2b00      	cmp	r3, #0
  400e70:	d101      	bne.n	400e76 <pmc_switch_mck_to_pllack+0x5e>
			return 1;
  400e72:	2301      	movs	r3, #1
  400e74:	e009      	b.n	400e8a <pmc_switch_mck_to_pllack+0x72>
			--ul_timeout) {
  400e76:	68fb      	ldr	r3, [r7, #12]
  400e78:	3b01      	subs	r3, #1
  400e7a:	60fb      	str	r3, [r7, #12]
	for (ul_timeout = PMC_TIMEOUT; !(PMC->PMC_SR & PMC_SR_MCKRDY);
  400e7c:	4b06      	ldr	r3, [pc, #24]	; (400e98 <pmc_switch_mck_to_pllack+0x80>)
  400e7e:	6e9b      	ldr	r3, [r3, #104]	; 0x68
  400e80:	f003 0308 	and.w	r3, r3, #8
  400e84:	2b00      	cmp	r3, #0
  400e86:	d0f1      	beq.n	400e6c <pmc_switch_mck_to_pllack+0x54>
		}
	}

	return 0;
  400e88:	2300      	movs	r3, #0
}
  400e8a:	4618      	mov	r0, r3
  400e8c:	3714      	adds	r7, #20
  400e8e:	46bd      	mov	sp, r7
  400e90:	f85d 7b04 	ldr.w	r7, [sp], #4
  400e94:	4770      	bx	lr
  400e96:	bf00      	nop
  400e98:	400e0600 	.word	0x400e0600

00400e9c <pmc_switch_sclk_to_32kxtal>:
 *       VDDIO power supply.
 *
 * \param ul_bypass 0 for Xtal, 1 for bypass.
 */
void pmc_switch_sclk_to_32kxtal(uint32_t ul_bypass)
{
  400e9c:	b480      	push	{r7}
  400e9e:	b083      	sub	sp, #12
  400ea0:	af00      	add	r7, sp, #0
  400ea2:	6078      	str	r0, [r7, #4]
	/* Set Bypass mode if required */
	if (ul_bypass == 1) {
  400ea4:	687b      	ldr	r3, [r7, #4]
  400ea6:	2b01      	cmp	r3, #1
  400ea8:	d105      	bne.n	400eb6 <pmc_switch_sclk_to_32kxtal+0x1a>
		SUPC->SUPC_MR |= SUPC_MR_KEY_PASSWD |
  400eaa:	4907      	ldr	r1, [pc, #28]	; (400ec8 <pmc_switch_sclk_to_32kxtal+0x2c>)
  400eac:	4b06      	ldr	r3, [pc, #24]	; (400ec8 <pmc_switch_sclk_to_32kxtal+0x2c>)
  400eae:	689a      	ldr	r2, [r3, #8]
  400eb0:	4b06      	ldr	r3, [pc, #24]	; (400ecc <pmc_switch_sclk_to_32kxtal+0x30>)
  400eb2:	4313      	orrs	r3, r2
  400eb4:	608b      	str	r3, [r1, #8]
			SUPC_MR_OSCBYPASS;
	}

	SUPC->SUPC_CR = SUPC_CR_KEY_PASSWD | SUPC_CR_XTALSEL;
  400eb6:	4b04      	ldr	r3, [pc, #16]	; (400ec8 <pmc_switch_sclk_to_32kxtal+0x2c>)
  400eb8:	4a05      	ldr	r2, [pc, #20]	; (400ed0 <pmc_switch_sclk_to_32kxtal+0x34>)
  400eba:	601a      	str	r2, [r3, #0]
}
  400ebc:	bf00      	nop
  400ebe:	370c      	adds	r7, #12
  400ec0:	46bd      	mov	sp, r7
  400ec2:	f85d 7b04 	ldr.w	r7, [sp], #4
  400ec6:	4770      	bx	lr
  400ec8:	400e1810 	.word	0x400e1810
  400ecc:	a5100000 	.word	0xa5100000
  400ed0:	a5000008 	.word	0xa5000008

00400ed4 <pmc_osc_is_ready_32kxtal>:
 *
 * \retval 1 External 32k Xtal is ready.
 * \retval 0 External 32k Xtal is not ready.
 */
uint32_t pmc_osc_is_ready_32kxtal(void)
{
  400ed4:	b480      	push	{r7}
  400ed6:	af00      	add	r7, sp, #0
	return ((SUPC->SUPC_SR & SUPC_SR_OSCSEL)
  400ed8:	4b09      	ldr	r3, [pc, #36]	; (400f00 <pmc_osc_is_ready_32kxtal+0x2c>)
  400eda:	695b      	ldr	r3, [r3, #20]
  400edc:	f003 0380 	and.w	r3, r3, #128	; 0x80
			&& (PMC->PMC_SR & PMC_SR_OSCSELS));
  400ee0:	2b00      	cmp	r3, #0
  400ee2:	d007      	beq.n	400ef4 <pmc_osc_is_ready_32kxtal+0x20>
  400ee4:	4b07      	ldr	r3, [pc, #28]	; (400f04 <pmc_osc_is_ready_32kxtal+0x30>)
  400ee6:	6e9b      	ldr	r3, [r3, #104]	; 0x68
  400ee8:	f003 0380 	and.w	r3, r3, #128	; 0x80
  400eec:	2b00      	cmp	r3, #0
  400eee:	d001      	beq.n	400ef4 <pmc_osc_is_ready_32kxtal+0x20>
  400ef0:	2301      	movs	r3, #1
  400ef2:	e000      	b.n	400ef6 <pmc_osc_is_ready_32kxtal+0x22>
  400ef4:	2300      	movs	r3, #0
}
  400ef6:	4618      	mov	r0, r3
  400ef8:	46bd      	mov	sp, r7
  400efa:	f85d 7b04 	ldr.w	r7, [sp], #4
  400efe:	4770      	bx	lr
  400f00:	400e1810 	.word	0x400e1810
  400f04:	400e0600 	.word	0x400e0600

00400f08 <pmc_switch_mainck_to_fastrc>:
 * \retval 0 Success.
 * \retval 1 Timeout error.
 * \retval 2 Invalid frequency.
 */
void pmc_switch_mainck_to_fastrc(uint32_t ul_moscrcf)
{
  400f08:	b480      	push	{r7}
  400f0a:	b083      	sub	sp, #12
  400f0c:	af00      	add	r7, sp, #0
  400f0e:	6078      	str	r0, [r7, #4]
	/* Enable Fast RC oscillator but DO NOT switch to RC now */
	PMC->CKGR_MOR |= (CKGR_MOR_KEY_PASSWD | CKGR_MOR_MOSCRCEN);
  400f10:	4915      	ldr	r1, [pc, #84]	; (400f68 <pmc_switch_mainck_to_fastrc+0x60>)
  400f12:	4b15      	ldr	r3, [pc, #84]	; (400f68 <pmc_switch_mainck_to_fastrc+0x60>)
  400f14:	6a1a      	ldr	r2, [r3, #32]
  400f16:	4b15      	ldr	r3, [pc, #84]	; (400f6c <pmc_switch_mainck_to_fastrc+0x64>)
  400f18:	4313      	orrs	r3, r2
  400f1a:	620b      	str	r3, [r1, #32]

	/* Wait the Fast RC to stabilize */
	while (!(PMC->PMC_SR & PMC_SR_MOSCRCS));
  400f1c:	bf00      	nop
  400f1e:	4b12      	ldr	r3, [pc, #72]	; (400f68 <pmc_switch_mainck_to_fastrc+0x60>)
  400f20:	6e9b      	ldr	r3, [r3, #104]	; 0x68
  400f22:	f403 3300 	and.w	r3, r3, #131072	; 0x20000
  400f26:	2b00      	cmp	r3, #0
  400f28:	d0f9      	beq.n	400f1e <pmc_switch_mainck_to_fastrc+0x16>

	/* Change Fast RC oscillator frequency */
	PMC->CKGR_MOR = (PMC->CKGR_MOR & ~CKGR_MOR_MOSCRCF_Msk) |
  400f2a:	490f      	ldr	r1, [pc, #60]	; (400f68 <pmc_switch_mainck_to_fastrc+0x60>)
  400f2c:	4b0e      	ldr	r3, [pc, #56]	; (400f68 <pmc_switch_mainck_to_fastrc+0x60>)
  400f2e:	6a1a      	ldr	r2, [r3, #32]
  400f30:	4b0f      	ldr	r3, [pc, #60]	; (400f70 <pmc_switch_mainck_to_fastrc+0x68>)
  400f32:	4013      	ands	r3, r2
			CKGR_MOR_KEY_PASSWD | ul_moscrcf;
  400f34:	687a      	ldr	r2, [r7, #4]
  400f36:	4313      	orrs	r3, r2
  400f38:	f443 135c 	orr.w	r3, r3, #3604480	; 0x370000
	PMC->CKGR_MOR = (PMC->CKGR_MOR & ~CKGR_MOR_MOSCRCF_Msk) |
  400f3c:	620b      	str	r3, [r1, #32]

	/* Wait the Fast RC to stabilize */
	while (!(PMC->PMC_SR & PMC_SR_MOSCRCS));
  400f3e:	bf00      	nop
  400f40:	4b09      	ldr	r3, [pc, #36]	; (400f68 <pmc_switch_mainck_to_fastrc+0x60>)
  400f42:	6e9b      	ldr	r3, [r3, #104]	; 0x68
  400f44:	f403 3300 	and.w	r3, r3, #131072	; 0x20000
  400f48:	2b00      	cmp	r3, #0
  400f4a:	d0f9      	beq.n	400f40 <pmc_switch_mainck_to_fastrc+0x38>

	/* Switch to Fast RC */
	PMC->CKGR_MOR = (PMC->CKGR_MOR & ~CKGR_MOR_MOSCSEL) |
  400f4c:	4906      	ldr	r1, [pc, #24]	; (400f68 <pmc_switch_mainck_to_fastrc+0x60>)
  400f4e:	4b06      	ldr	r3, [pc, #24]	; (400f68 <pmc_switch_mainck_to_fastrc+0x60>)
  400f50:	6a1a      	ldr	r2, [r3, #32]
  400f52:	4b08      	ldr	r3, [pc, #32]	; (400f74 <pmc_switch_mainck_to_fastrc+0x6c>)
  400f54:	4013      	ands	r3, r2
  400f56:	f443 135c 	orr.w	r3, r3, #3604480	; 0x370000
  400f5a:	620b      	str	r3, [r1, #32]
			CKGR_MOR_KEY_PASSWD;
}
  400f5c:	bf00      	nop
  400f5e:	370c      	adds	r7, #12
  400f60:	46bd      	mov	sp, r7
  400f62:	f85d 7b04 	ldr.w	r7, [sp], #4
  400f66:	4770      	bx	lr
  400f68:	400e0600 	.word	0x400e0600
  400f6c:	00370008 	.word	0x00370008
  400f70:	ffc8ff8f 	.word	0xffc8ff8f
  400f74:	fec8ffff 	.word	0xfec8ffff

00400f78 <pmc_switch_mainck_to_xtal>:
 * \retval 0 Success.
 * \retval 1 Timeout error.
 */
void pmc_switch_mainck_to_xtal(uint32_t ul_bypass,
		uint32_t ul_xtal_startup_time)
{
  400f78:	b480      	push	{r7}
  400f7a:	b083      	sub	sp, #12
  400f7c:	af00      	add	r7, sp, #0
  400f7e:	6078      	str	r0, [r7, #4]
  400f80:	6039      	str	r1, [r7, #0]
	/* Enable Main Xtal oscillator */
	if (ul_bypass) {
  400f82:	687b      	ldr	r3, [r7, #4]
  400f84:	2b00      	cmp	r3, #0
  400f86:	d008      	beq.n	400f9a <pmc_switch_mainck_to_xtal+0x22>
		PMC->CKGR_MOR = (PMC->CKGR_MOR & ~CKGR_MOR_MOSCXTEN) |
  400f88:	4913      	ldr	r1, [pc, #76]	; (400fd8 <pmc_switch_mainck_to_xtal+0x60>)
  400f8a:	4b13      	ldr	r3, [pc, #76]	; (400fd8 <pmc_switch_mainck_to_xtal+0x60>)
  400f8c:	6a1b      	ldr	r3, [r3, #32]
				CKGR_MOR_KEY_PASSWD | CKGR_MOR_MOSCXTBY |
  400f8e:	4a13      	ldr	r2, [pc, #76]	; (400fdc <pmc_switch_mainck_to_xtal+0x64>)
  400f90:	401a      	ands	r2, r3
  400f92:	4b13      	ldr	r3, [pc, #76]	; (400fe0 <pmc_switch_mainck_to_xtal+0x68>)
  400f94:	4313      	orrs	r3, r2
		PMC->CKGR_MOR = (PMC->CKGR_MOR & ~CKGR_MOR_MOSCXTEN) |
  400f96:	620b      	str	r3, [r1, #32]
		/* Wait the Xtal to stabilize */
		while (!(PMC->PMC_SR & PMC_SR_MOSCXTS));

		PMC->CKGR_MOR |= CKGR_MOR_KEY_PASSWD | CKGR_MOR_MOSCSEL;
	}
}
  400f98:	e018      	b.n	400fcc <pmc_switch_mainck_to_xtal+0x54>
		PMC->CKGR_MOR = (PMC->CKGR_MOR & ~CKGR_MOR_MOSCXTBY) |
  400f9a:	490f      	ldr	r1, [pc, #60]	; (400fd8 <pmc_switch_mainck_to_xtal+0x60>)
  400f9c:	4b0e      	ldr	r3, [pc, #56]	; (400fd8 <pmc_switch_mainck_to_xtal+0x60>)
  400f9e:	6a1a      	ldr	r2, [r3, #32]
				CKGR_MOR_KEY_PASSWD | CKGR_MOR_MOSCXTEN |
  400fa0:	4b10      	ldr	r3, [pc, #64]	; (400fe4 <pmc_switch_mainck_to_xtal+0x6c>)
  400fa2:	4013      	ands	r3, r2
				CKGR_MOR_MOSCXTST(ul_xtal_startup_time);
  400fa4:	683a      	ldr	r2, [r7, #0]
  400fa6:	0212      	lsls	r2, r2, #8
  400fa8:	b292      	uxth	r2, r2
				CKGR_MOR_KEY_PASSWD | CKGR_MOR_MOSCXTEN |
  400faa:	431a      	orrs	r2, r3
  400fac:	4b0e      	ldr	r3, [pc, #56]	; (400fe8 <pmc_switch_mainck_to_xtal+0x70>)
  400fae:	4313      	orrs	r3, r2
		PMC->CKGR_MOR = (PMC->CKGR_MOR & ~CKGR_MOR_MOSCXTBY) |
  400fb0:	620b      	str	r3, [r1, #32]
		while (!(PMC->PMC_SR & PMC_SR_MOSCXTS));
  400fb2:	bf00      	nop
  400fb4:	4b08      	ldr	r3, [pc, #32]	; (400fd8 <pmc_switch_mainck_to_xtal+0x60>)
  400fb6:	6e9b      	ldr	r3, [r3, #104]	; 0x68
  400fb8:	f003 0301 	and.w	r3, r3, #1
  400fbc:	2b00      	cmp	r3, #0
  400fbe:	d0f9      	beq.n	400fb4 <pmc_switch_mainck_to_xtal+0x3c>
		PMC->CKGR_MOR |= CKGR_MOR_KEY_PASSWD | CKGR_MOR_MOSCSEL;
  400fc0:	4905      	ldr	r1, [pc, #20]	; (400fd8 <pmc_switch_mainck_to_xtal+0x60>)
  400fc2:	4b05      	ldr	r3, [pc, #20]	; (400fd8 <pmc_switch_mainck_to_xtal+0x60>)
  400fc4:	6a1a      	ldr	r2, [r3, #32]
  400fc6:	4b09      	ldr	r3, [pc, #36]	; (400fec <pmc_switch_mainck_to_xtal+0x74>)
  400fc8:	4313      	orrs	r3, r2
  400fca:	620b      	str	r3, [r1, #32]
}
  400fcc:	bf00      	nop
  400fce:	370c      	adds	r7, #12
  400fd0:	46bd      	mov	sp, r7
  400fd2:	f85d 7b04 	ldr.w	r7, [sp], #4
  400fd6:	4770      	bx	lr
  400fd8:	400e0600 	.word	0x400e0600
  400fdc:	fec8fffc 	.word	0xfec8fffc
  400fe0:	01370002 	.word	0x01370002
  400fe4:	ffc8fffc 	.word	0xffc8fffc
  400fe8:	00370001 	.word	0x00370001
  400fec:	01370000 	.word	0x01370000

00400ff0 <pmc_osc_is_ready_mainck>:
 *
 * \retval 1 Xtal is ready.
 * \retval 0 Xtal is not ready.
 */
uint32_t pmc_osc_is_ready_mainck(void)
{
  400ff0:	b480      	push	{r7}
  400ff2:	af00      	add	r7, sp, #0
	return PMC->PMC_SR & PMC_SR_MOSCSELS;
  400ff4:	4b04      	ldr	r3, [pc, #16]	; (401008 <pmc_osc_is_ready_mainck+0x18>)
  400ff6:	6e9b      	ldr	r3, [r3, #104]	; 0x68
  400ff8:	f403 3380 	and.w	r3, r3, #65536	; 0x10000
}
  400ffc:	4618      	mov	r0, r3
  400ffe:	46bd      	mov	sp, r7
  401000:	f85d 7b04 	ldr.w	r7, [sp], #4
  401004:	4770      	bx	lr
  401006:	bf00      	nop
  401008:	400e0600 	.word	0x400e0600

0040100c <pmc_disable_pllack>:

/**
 * \brief Disable PLLA clock.
 */
void pmc_disable_pllack(void)
{
  40100c:	b480      	push	{r7}
  40100e:	af00      	add	r7, sp, #0
#if (SAM4C || SAM4CM || SAM4CP || SAMG)
	PMC->CKGR_PLLAR = CKGR_PLLAR_MULA(0);
#else
	PMC->CKGR_PLLAR = CKGR_PLLAR_ONE | CKGR_PLLAR_MULA(0);
  401010:	4b04      	ldr	r3, [pc, #16]	; (401024 <pmc_disable_pllack+0x18>)
  401012:	f04f 5200 	mov.w	r2, #536870912	; 0x20000000
  401016:	629a      	str	r2, [r3, #40]	; 0x28
#endif
}
  401018:	bf00      	nop
  40101a:	46bd      	mov	sp, r7
  40101c:	f85d 7b04 	ldr.w	r7, [sp], #4
  401020:	4770      	bx	lr
  401022:	bf00      	nop
  401024:	400e0600 	.word	0x400e0600

00401028 <pmc_is_locked_pllack>:
 *
 * \retval 0 Not locked.
 * \retval 1 Locked.
 */
uint32_t pmc_is_locked_pllack(void)
{
  401028:	b480      	push	{r7}
  40102a:	af00      	add	r7, sp, #0
	return (PMC->PMC_SR & PMC_SR_LOCKA);
  40102c:	4b04      	ldr	r3, [pc, #16]	; (401040 <pmc_is_locked_pllack+0x18>)
  40102e:	6e9b      	ldr	r3, [r3, #104]	; 0x68
  401030:	f003 0302 	and.w	r3, r3, #2
}
  401034:	4618      	mov	r0, r3
  401036:	46bd      	mov	sp, r7
  401038:	f85d 7b04 	ldr.w	r7, [sp], #4
  40103c:	4770      	bx	lr
  40103e:	bf00      	nop
  401040:	400e0600 	.word	0x400e0600

00401044 <pmc_is_locked_upll>:
 *
 * \retval 0 Not locked.
 * \retval 1 Locked.
 */
uint32_t pmc_is_locked_upll(void)
{
  401044:	b480      	push	{r7}
  401046:	af00      	add	r7, sp, #0
	return (PMC->PMC_SR & PMC_SR_LOCKU);
  401048:	4b04      	ldr	r3, [pc, #16]	; (40105c <pmc_is_locked_upll+0x18>)
  40104a:	6e9b      	ldr	r3, [r3, #104]	; 0x68
  40104c:	f003 0340 	and.w	r3, r3, #64	; 0x40
}
  401050:	4618      	mov	r0, r3
  401052:	46bd      	mov	sp, r7
  401054:	f85d 7b04 	ldr.w	r7, [sp], #4
  401058:	4770      	bx	lr
  40105a:	bf00      	nop
  40105c:	400e0600 	.word	0x400e0600

00401060 <pmc_enable_periph_clk>:
 *
 * \retval 0 Success.
 * \retval 1 Invalid parameter.
 */
uint32_t pmc_enable_periph_clk(uint32_t ul_id)
{
  401060:	b480      	push	{r7}
  401062:	b083      	sub	sp, #12
  401064:	af00      	add	r7, sp, #0
  401066:	6078      	str	r0, [r7, #4]
	if (ul_id > MAX_PERIPH_ID) {
  401068:	687b      	ldr	r3, [r7, #4]
  40106a:	2b3f      	cmp	r3, #63	; 0x3f
  40106c:	d901      	bls.n	401072 <pmc_enable_periph_clk+0x12>
		return 1;
  40106e:	2301      	movs	r3, #1
  401070:	e02f      	b.n	4010d2 <pmc_enable_periph_clk+0x72>
	}

	if (ul_id < 32) {
  401072:	687b      	ldr	r3, [r7, #4]
  401074:	2b1f      	cmp	r3, #31
  401076:	d813      	bhi.n	4010a0 <pmc_enable_periph_clk+0x40>
		if ((PMC->PMC_PCSR0 & (1u << ul_id)) != (1u << ul_id)) {
  401078:	4b19      	ldr	r3, [pc, #100]	; (4010e0 <pmc_enable_periph_clk+0x80>)
  40107a:	699a      	ldr	r2, [r3, #24]
  40107c:	2101      	movs	r1, #1
  40107e:	687b      	ldr	r3, [r7, #4]
  401080:	fa01 f303 	lsl.w	r3, r1, r3
  401084:	401a      	ands	r2, r3
  401086:	2101      	movs	r1, #1
  401088:	687b      	ldr	r3, [r7, #4]
  40108a:	fa01 f303 	lsl.w	r3, r1, r3
  40108e:	429a      	cmp	r2, r3
  401090:	d01e      	beq.n	4010d0 <pmc_enable_periph_clk+0x70>
			PMC->PMC_PCER0 = 1 << ul_id;
  401092:	4a13      	ldr	r2, [pc, #76]	; (4010e0 <pmc_enable_periph_clk+0x80>)
  401094:	2101      	movs	r1, #1
  401096:	687b      	ldr	r3, [r7, #4]
  401098:	fa01 f303 	lsl.w	r3, r1, r3
  40109c:	6113      	str	r3, [r2, #16]
  40109e:	e017      	b.n	4010d0 <pmc_enable_periph_clk+0x70>
		}
#if (SAM3S || SAM3XA || SAM4S || SAM4E || SAM4C || SAM4CM || SAM4CP || SAMG55 || SAMV71 || SAMV70 || SAME70 || SAMS70)
	} else {
		ul_id -= 32;
  4010a0:	687b      	ldr	r3, [r7, #4]
  4010a2:	3b20      	subs	r3, #32
  4010a4:	607b      	str	r3, [r7, #4]
		if ((PMC->PMC_PCSR1 & (1u << ul_id)) != (1u << ul_id)) {
  4010a6:	4b0e      	ldr	r3, [pc, #56]	; (4010e0 <pmc_enable_periph_clk+0x80>)
  4010a8:	f8d3 2108 	ldr.w	r2, [r3, #264]	; 0x108
  4010ac:	2101      	movs	r1, #1
  4010ae:	687b      	ldr	r3, [r7, #4]
  4010b0:	fa01 f303 	lsl.w	r3, r1, r3
  4010b4:	401a      	ands	r2, r3
  4010b6:	2101      	movs	r1, #1
  4010b8:	687b      	ldr	r3, [r7, #4]
  4010ba:	fa01 f303 	lsl.w	r3, r1, r3
  4010be:	429a      	cmp	r2, r3
  4010c0:	d006      	beq.n	4010d0 <pmc_enable_periph_clk+0x70>
			PMC->PMC_PCER1 = 1 << ul_id;
  4010c2:	4a07      	ldr	r2, [pc, #28]	; (4010e0 <pmc_enable_periph_clk+0x80>)
  4010c4:	2101      	movs	r1, #1
  4010c6:	687b      	ldr	r3, [r7, #4]
  4010c8:	fa01 f303 	lsl.w	r3, r1, r3
  4010cc:	f8c2 3100 	str.w	r3, [r2, #256]	; 0x100
		}
#endif
	}

	return 0;
  4010d0:	2300      	movs	r3, #0
}
  4010d2:	4618      	mov	r0, r3
  4010d4:	370c      	adds	r7, #12
  4010d6:	46bd      	mov	sp, r7
  4010d8:	f85d 7b04 	ldr.w	r7, [sp], #4
  4010dc:	4770      	bx	lr
  4010de:	bf00      	nop
  4010e0:	400e0600 	.word	0x400e0600

004010e4 <pmc_disable_periph_clk>:
 *
 * \retval 0 Success.
 * \retval 1 Invalid parameter.
 */
uint32_t pmc_disable_periph_clk(uint32_t ul_id)
{
  4010e4:	b480      	push	{r7}
  4010e6:	b083      	sub	sp, #12
  4010e8:	af00      	add	r7, sp, #0
  4010ea:	6078      	str	r0, [r7, #4]
	if (ul_id > MAX_PERIPH_ID) {
  4010ec:	687b      	ldr	r3, [r7, #4]
  4010ee:	2b3f      	cmp	r3, #63	; 0x3f
  4010f0:	d901      	bls.n	4010f6 <pmc_disable_periph_clk+0x12>
		return 1;
  4010f2:	2301      	movs	r3, #1
  4010f4:	e02f      	b.n	401156 <pmc_disable_periph_clk+0x72>
	}

	if (ul_id < 32) {
  4010f6:	687b      	ldr	r3, [r7, #4]
  4010f8:	2b1f      	cmp	r3, #31
  4010fa:	d813      	bhi.n	401124 <pmc_disable_periph_clk+0x40>
		if ((PMC->PMC_PCSR0 & (1u << ul_id)) == (1u << ul_id)) {
  4010fc:	4b19      	ldr	r3, [pc, #100]	; (401164 <pmc_disable_periph_clk+0x80>)
  4010fe:	699a      	ldr	r2, [r3, #24]
  401100:	2101      	movs	r1, #1
  401102:	687b      	ldr	r3, [r7, #4]
  401104:	fa01 f303 	lsl.w	r3, r1, r3
  401108:	401a      	ands	r2, r3
  40110a:	2101      	movs	r1, #1
  40110c:	687b      	ldr	r3, [r7, #4]
  40110e:	fa01 f303 	lsl.w	r3, r1, r3
  401112:	429a      	cmp	r2, r3
  401114:	d11e      	bne.n	401154 <pmc_disable_periph_clk+0x70>
			PMC->PMC_PCDR0 = 1 << ul_id;
  401116:	4a13      	ldr	r2, [pc, #76]	; (401164 <pmc_disable_periph_clk+0x80>)
  401118:	2101      	movs	r1, #1
  40111a:	687b      	ldr	r3, [r7, #4]
  40111c:	fa01 f303 	lsl.w	r3, r1, r3
  401120:	6153      	str	r3, [r2, #20]
  401122:	e017      	b.n	401154 <pmc_disable_periph_clk+0x70>
		}
#if (SAM3S || SAM3XA || SAM4S || SAM4E || SAM4C || SAM4CM || SAM4CP || SAMG55 || SAMV71 \
		|| SAMV70 || SAME70 || SAMS70)
	} else {
		ul_id -= 32;
  401124:	687b      	ldr	r3, [r7, #4]
  401126:	3b20      	subs	r3, #32
  401128:	607b      	str	r3, [r7, #4]
		if ((PMC->PMC_PCSR1 & (1u << ul_id)) == (1u << ul_id)) {
  40112a:	4b0e      	ldr	r3, [pc, #56]	; (401164 <pmc_disable_periph_clk+0x80>)
  40112c:	f8d3 2108 	ldr.w	r2, [r3, #264]	; 0x108
  401130:	2101      	movs	r1, #1
  401132:	687b      	ldr	r3, [r7, #4]
  401134:	fa01 f303 	lsl.w	r3, r1, r3
  401138:	401a      	ands	r2, r3
  40113a:	2101      	movs	r1, #1
  40113c:	687b      	ldr	r3, [r7, #4]
  40113e:	fa01 f303 	lsl.w	r3, r1, r3
  401142:	429a      	cmp	r2, r3
  401144:	d106      	bne.n	401154 <pmc_disable_periph_clk+0x70>
			PMC->PMC_PCDR1 = 1 << ul_id;
  401146:	4a07      	ldr	r2, [pc, #28]	; (401164 <pmc_disable_periph_clk+0x80>)
  401148:	2101      	movs	r1, #1
  40114a:	687b      	ldr	r3, [r7, #4]
  40114c:	fa01 f303 	lsl.w	r3, r1, r3
  401150:	f8c2 3104 	str.w	r3, [r2, #260]	; 0x104
		}
#endif
	}
	return 0;
  401154:	2300      	movs	r3, #0
}
  401156:	4618      	mov	r0, r3
  401158:	370c      	adds	r7, #12
  40115a:	46bd      	mov	sp, r7
  40115c:	f85d 7b04 	ldr.w	r7, [sp], #4
  401160:	4770      	bx	lr
  401162:	bf00      	nop
  401164:	400e0600 	.word	0x400e0600

00401168 <pmc_disable_all_periph_clk>:

/**
 * \brief Disable all peripheral clocks.
 */
void pmc_disable_all_periph_clk(void)
{
  401168:	b480      	push	{r7}
  40116a:	af00      	add	r7, sp, #0
	PMC->PMC_PCDR0 = PMC_MASK_STATUS0;
  40116c:	4b0d      	ldr	r3, [pc, #52]	; (4011a4 <pmc_disable_all_periph_clk+0x3c>)
  40116e:	f06f 0203 	mvn.w	r2, #3
  401172:	615a      	str	r2, [r3, #20]
	while ((PMC->PMC_PCSR0 & PMC_MASK_STATUS0) != 0);
  401174:	bf00      	nop
  401176:	4b0b      	ldr	r3, [pc, #44]	; (4011a4 <pmc_disable_all_periph_clk+0x3c>)
  401178:	699b      	ldr	r3, [r3, #24]
  40117a:	f023 0303 	bic.w	r3, r3, #3
  40117e:	2b00      	cmp	r3, #0
  401180:	d1f9      	bne.n	401176 <pmc_disable_all_periph_clk+0xe>

#if (SAM3S || SAM3XA || SAM4S || SAM4E || SAM4C || SAM4CM || SAM4CP || SAMV71 \
		|| SAMV70 || SAME70 || SAMS70)
	PMC->PMC_PCDR1 = PMC_MASK_STATUS1;
  401182:	4b08      	ldr	r3, [pc, #32]	; (4011a4 <pmc_disable_all_periph_clk+0x3c>)
  401184:	f04f 32ff 	mov.w	r2, #4294967295
  401188:	f8c3 2104 	str.w	r2, [r3, #260]	; 0x104
	while ((PMC->PMC_PCSR1 & PMC_MASK_STATUS1) != 0);
  40118c:	bf00      	nop
  40118e:	4b05      	ldr	r3, [pc, #20]	; (4011a4 <pmc_disable_all_periph_clk+0x3c>)
  401190:	f8d3 3108 	ldr.w	r3, [r3, #264]	; 0x108
  401194:	2b00      	cmp	r3, #0
  401196:	d1fa      	bne.n	40118e <pmc_disable_all_periph_clk+0x26>
#endif
}
  401198:	bf00      	nop
  40119a:	46bd      	mov	sp, r7
  40119c:	f85d 7b04 	ldr.w	r7, [sp], #4
  4011a0:	4770      	bx	lr
  4011a2:	bf00      	nop
  4011a4:	400e0600 	.word	0x400e0600

004011a8 <pmc_set_fast_startup_input>:
 *        (event generation).
 *
 * \param ul_inputs Wake up inputs to enable.
 */
void pmc_set_fast_startup_input(uint32_t ul_inputs)
{
  4011a8:	b480      	push	{r7}
  4011aa:	b083      	sub	sp, #12
  4011ac:	af00      	add	r7, sp, #0
  4011ae:	6078      	str	r0, [r7, #4]
	ul_inputs &= PMC_FAST_STARTUP_Msk;
  4011b0:	687b      	ldr	r3, [r7, #4]
  4011b2:	f3c3 0312 	ubfx	r3, r3, #0, #19
  4011b6:	607b      	str	r3, [r7, #4]
	PMC->PMC_FSMR |= ul_inputs;
  4011b8:	4905      	ldr	r1, [pc, #20]	; (4011d0 <pmc_set_fast_startup_input+0x28>)
  4011ba:	4b05      	ldr	r3, [pc, #20]	; (4011d0 <pmc_set_fast_startup_input+0x28>)
  4011bc:	6f1a      	ldr	r2, [r3, #112]	; 0x70
  4011be:	687b      	ldr	r3, [r7, #4]
  4011c0:	4313      	orrs	r3, r2
  4011c2:	670b      	str	r3, [r1, #112]	; 0x70
}
  4011c4:	bf00      	nop
  4011c6:	370c      	adds	r7, #12
  4011c8:	46bd      	mov	sp, r7
  4011ca:	f85d 7b04 	ldr.w	r7, [sp], #4
  4011ce:	4770      	bx	lr
  4011d0:	400e0600 	.word	0x400e0600

004011d4 <pmc_set_flash_in_wait_mode>:
 *
 * \param ul_flash_state PMC_WAIT_MODE_FLASH_STANDBY flash in standby mode,
 * PMC_WAIT_MODE_FLASH_DEEP_POWERDOWN flash in deep power down mode.
 */
void pmc_set_flash_in_wait_mode(uint32_t ul_flash_state)
{
  4011d4:	b480      	push	{r7}
  4011d6:	b083      	sub	sp, #12
  4011d8:	af00      	add	r7, sp, #0
  4011da:	6078      	str	r0, [r7, #4]
	ul_flash_in_wait_mode = ul_flash_state;
  4011dc:	4a04      	ldr	r2, [pc, #16]	; (4011f0 <pmc_set_flash_in_wait_mode+0x1c>)
  4011de:	687b      	ldr	r3, [r7, #4]
  4011e0:	6013      	str	r3, [r2, #0]
}
  4011e2:	bf00      	nop
  4011e4:	370c      	adds	r7, #12
  4011e6:	46bd      	mov	sp, r7
  4011e8:	f85d 7b04 	ldr.w	r7, [sp], #4
  4011ec:	4770      	bx	lr
  4011ee:	bf00      	nop
  4011f0:	20400004 	.word	0x20400004

004011f4 <pmc_enable_waitmode>:
 * Generally, this function will be called by pmc_sleep() in order to
 * complete all sequence entering wait mode.
 * See \ref pmc_sleep() for entering different sleep modes.
 */
void pmc_enable_waitmode(void)
{
  4011f4:	b480      	push	{r7}
  4011f6:	b083      	sub	sp, #12
  4011f8:	af00      	add	r7, sp, #0
	uint32_t i;

	/* Flash in wait mode */
	i = PMC->PMC_FSMR;
  4011fa:	4b20      	ldr	r3, [pc, #128]	; (40127c <pmc_enable_waitmode+0x88>)
  4011fc:	6f1b      	ldr	r3, [r3, #112]	; 0x70
  4011fe:	607b      	str	r3, [r7, #4]
	i &= ~PMC_FSMR_FLPM_Msk;
  401200:	687b      	ldr	r3, [r7, #4]
  401202:	f423 03c0 	bic.w	r3, r3, #6291456	; 0x600000
  401206:	607b      	str	r3, [r7, #4]
#if !(SAMV71 || SAMV70 || SAME70 || SAMS70)
	i |= ul_flash_in_wait_mode;
#else
	i |= PMC_WAIT_MODE_FLASH_IDLE;
  401208:	687b      	ldr	r3, [r7, #4]
  40120a:	f443 0380 	orr.w	r3, r3, #4194304	; 0x400000
  40120e:	607b      	str	r3, [r7, #4]
#endif
	PMC->PMC_FSMR = i;
  401210:	4a1a      	ldr	r2, [pc, #104]	; (40127c <pmc_enable_waitmode+0x88>)
  401212:	687b      	ldr	r3, [r7, #4]
  401214:	6713      	str	r3, [r2, #112]	; 0x70

	/* Set the WAITMODE bit = 1 */
	PMC->CKGR_MOR |= CKGR_MOR_KEY_PASSWD | CKGR_MOR_WAITMODE;
  401216:	4919      	ldr	r1, [pc, #100]	; (40127c <pmc_enable_waitmode+0x88>)
  401218:	4b18      	ldr	r3, [pc, #96]	; (40127c <pmc_enable_waitmode+0x88>)
  40121a:	6a1a      	ldr	r2, [r3, #32]
  40121c:	4b18      	ldr	r3, [pc, #96]	; (401280 <pmc_enable_waitmode+0x8c>)
  40121e:	4313      	orrs	r3, r2
  401220:	620b      	str	r3, [r1, #32]

	/* Waiting for Master Clock Ready MCKRDY = 1 */
	while (!(PMC->PMC_SR & PMC_SR_MCKRDY));
  401222:	bf00      	nop
  401224:	4b15      	ldr	r3, [pc, #84]	; (40127c <pmc_enable_waitmode+0x88>)
  401226:	6e9b      	ldr	r3, [r3, #104]	; 0x68
  401228:	f003 0308 	and.w	r3, r3, #8
  40122c:	2b00      	cmp	r3, #0
  40122e:	d0f9      	beq.n	401224 <pmc_enable_waitmode+0x30>

	/* Waiting for MOSCRCEN bit cleared is strongly recommended
	 * to ensure that the core will not execute undesired instructions
	 */
	for (i = 0; i < 500; i++) {
  401230:	2300      	movs	r3, #0
  401232:	607b      	str	r3, [r7, #4]
  401234:	e003      	b.n	40123e <pmc_enable_waitmode+0x4a>

    No Operation does nothing. This instruction can be used for code alignment purposes.
 */
__attribute__( ( always_inline ) ) __STATIC_INLINE void __NOP(void)
{
  __ASM volatile ("nop");
  401236:	bf00      	nop
  401238:	687b      	ldr	r3, [r7, #4]
  40123a:	3301      	adds	r3, #1
  40123c:	607b      	str	r3, [r7, #4]
  40123e:	687b      	ldr	r3, [r7, #4]
  401240:	f5b3 7ffa 	cmp.w	r3, #500	; 0x1f4
  401244:	d3f7      	bcc.n	401236 <pmc_enable_waitmode+0x42>
		__NOP();
	}
	while (!(PMC->CKGR_MOR & CKGR_MOR_MOSCRCEN));
  401246:	bf00      	nop
  401248:	4b0c      	ldr	r3, [pc, #48]	; (40127c <pmc_enable_waitmode+0x88>)
  40124a:	6a1b      	ldr	r3, [r3, #32]
  40124c:	f003 0308 	and.w	r3, r3, #8
  401250:	2b00      	cmp	r3, #0
  401252:	d0f9      	beq.n	401248 <pmc_enable_waitmode+0x54>

#if (!SAMG)
	/* Restore Flash in idle mode */
	i = PMC->PMC_FSMR;
  401254:	4b09      	ldr	r3, [pc, #36]	; (40127c <pmc_enable_waitmode+0x88>)
  401256:	6f1b      	ldr	r3, [r3, #112]	; 0x70
  401258:	607b      	str	r3, [r7, #4]
	i &= ~PMC_FSMR_FLPM_Msk;
  40125a:	687b      	ldr	r3, [r7, #4]
  40125c:	f423 03c0 	bic.w	r3, r3, #6291456	; 0x600000
  401260:	607b      	str	r3, [r7, #4]
	i |= PMC_WAIT_MODE_FLASH_IDLE;
  401262:	687b      	ldr	r3, [r7, #4]
  401264:	f443 0380 	orr.w	r3, r3, #4194304	; 0x400000
  401268:	607b      	str	r3, [r7, #4]
	PMC->PMC_FSMR = i;
  40126a:	4a04      	ldr	r2, [pc, #16]	; (40127c <pmc_enable_waitmode+0x88>)
  40126c:	687b      	ldr	r3, [r7, #4]
  40126e:	6713      	str	r3, [r2, #112]	; 0x70
#endif
}
  401270:	bf00      	nop
  401272:	370c      	adds	r7, #12
  401274:	46bd      	mov	sp, r7
  401276:	f85d 7b04 	ldr.w	r7, [sp], #4
  40127a:	4770      	bx	lr
  40127c:	400e0600 	.word	0x400e0600
  401280:	00370004 	.word	0x00370004

00401284 <pmc_sleep>:
static volatile bool b_is_sleep_clock_used = false;
/** Callback invoked once when clocks are restored */
static pmc_callback_wakeup_clocks_restored_t callback_clocks_restored = NULL;

void pmc_sleep(int sleep_mode)
{
  401284:	b590      	push	{r4, r7, lr}
  401286:	b099      	sub	sp, #100	; 0x64
  401288:	af00      	add	r7, sp, #0
  40128a:	6078      	str	r0, [r7, #4]
	switch (sleep_mode) {
  40128c:	687b      	ldr	r3, [r7, #4]
  40128e:	3b01      	subs	r3, #1
  401290:	2b04      	cmp	r3, #4
  401292:	f200 81a3 	bhi.w	4015dc <pmc_sleep+0x358>
  401296:	a201      	add	r2, pc, #4	; (adr r2, 40129c <pmc_sleep+0x18>)
  401298:	f852 f023 	ldr.w	pc, [r2, r3, lsl #2]
  40129c:	004012b1 	.word	0x004012b1
  4012a0:	004012b1 	.word	0x004012b1
  4012a4:	004012cd 	.word	0x004012cd
  4012a8:	004012cd 	.word	0x004012cd
  4012ac:	004015bb 	.word	0x004015bb
	case SAM_PM_SMODE_SLEEP_WFI:
	case SAM_PM_SMODE_SLEEP_WFE:
#if (SAM4S || SAM4E || SAM4N || SAM4C || SAM4CM || SAM4CP || SAMG || SAMV71 || SAMV70 || SAMS70 || SAME70)
		SCB->SCR &= (uint32_t)~SCR_SLEEPDEEP;
  4012b0:	4a71      	ldr	r2, [pc, #452]	; (401478 <pmc_sleep+0x1f4>)
  4012b2:	4b71      	ldr	r3, [pc, #452]	; (401478 <pmc_sleep+0x1f4>)
  4012b4:	691b      	ldr	r3, [r3, #16]
  4012b6:	f023 0304 	bic.w	r3, r3, #4
  4012ba:	6113      	str	r3, [r2, #16]
		cpu_irq_enable();
  4012bc:	4b6f      	ldr	r3, [pc, #444]	; (40147c <pmc_sleep+0x1f8>)
  4012be:	2201      	movs	r2, #1
  4012c0:	701a      	strb	r2, [r3, #0]
    This function ensures the apparent order of the explicit memory operations before
    and after the instruction, without ensuring their completion.
 */
__attribute__( ( always_inline ) ) __STATIC_INLINE void __DMB(void)
{
  __ASM volatile ("dmb");
  4012c2:	f3bf 8f5f 	dmb	sy
  This function enables IRQ interrupts by clearing the I-bit in the CPSR.
  Can only be executed in Privileged modes.
 */
__attribute__( ( always_inline ) ) __STATIC_INLINE void __enable_irq(void)
{
  __ASM volatile ("cpsie i" : : : "memory");
  4012c6:	b662      	cpsie	i
  __ASM volatile ("wfi");
  4012c8:	bf30      	wfi
		__WFI();
		break;
  4012ca:	e187      	b.n	4015dc <pmc_sleep+0x358>
#if defined(EFC1)
		uint32_t fmr1;
#endif
#if (SAM4S || SAM4E || SAM4N || SAM4C || SAM4CM || SAM4CP || SAMG || SAMV71 || SAMV70 || SAMS70 || SAME70)
		(sleep_mode == SAM_PM_SMODE_WAIT_FAST) ?
				pmc_set_flash_in_wait_mode(PMC_FSMR_FLPM_FLASH_STANDBY) :
  4012cc:	687b      	ldr	r3, [r7, #4]
  4012ce:	2b03      	cmp	r3, #3
  4012d0:	d103      	bne.n	4012da <pmc_sleep+0x56>
  4012d2:	2000      	movs	r0, #0
  4012d4:	4b6a      	ldr	r3, [pc, #424]	; (401480 <pmc_sleep+0x1fc>)
  4012d6:	4798      	blx	r3
  4012d8:	e003      	b.n	4012e2 <pmc_sleep+0x5e>
				pmc_set_flash_in_wait_mode(PMC_FSMR_FLPM_FLASH_DEEP_POWERDOWN);
  4012da:	f44f 1000 	mov.w	r0, #2097152	; 0x200000
  4012de:	4b68      	ldr	r3, [pc, #416]	; (401480 <pmc_sleep+0x1fc>)
  4012e0:	4798      	blx	r3
  This function disables IRQ interrupts by setting the I-bit in the CPSR.
  Can only be executed in Privileged modes.
 */
__attribute__( ( always_inline ) ) __STATIC_INLINE void __disable_irq(void)
{
  __ASM volatile ("cpsid i" : : : "memory");
  4012e2:	b672      	cpsid	i
  __ASM volatile ("dmb");
  4012e4:	f3bf 8f5f 	dmb	sy
#endif
		cpu_irq_disable();
  4012e8:	4b64      	ldr	r3, [pc, #400]	; (40147c <pmc_sleep+0x1f8>)
  4012ea:	2200      	movs	r2, #0
  4012ec:	701a      	strb	r2, [r3, #0]
		b_is_sleep_clock_used = true;
  4012ee:	4b65      	ldr	r3, [pc, #404]	; (401484 <pmc_sleep+0x200>)
  4012f0:	2201      	movs	r2, #1
  4012f2:	701a      	strb	r2, [r3, #0]
		/* Backup the sub-system 1 status and stop sub-system 1 */
		uint32_t cpclk_backup = PMC->PMC_SCSR &
				(PMC_SCSR_CPCK | PMC_SCSR_CPBMCK);
		PMC->PMC_SCDR = cpclk_backup | PMC_SCDR_CPKEY_PASSWD;
#endif
		pmc_save_clock_settings(&mor, &pllr0, &pllr1, &mckr, &fmr,
  4012f4:	687b      	ldr	r3, [r7, #4]
  4012f6:	2b04      	cmp	r3, #4
  4012f8:	bf0c      	ite	eq
  4012fa:	2301      	moveq	r3, #1
  4012fc:	2300      	movne	r3, #0
  4012fe:	b2da      	uxtb	r2, r3
  401300:	f107 031c 	add.w	r3, r7, #28
  401304:	643b      	str	r3, [r7, #64]	; 0x40
  401306:	f107 0318 	add.w	r3, r7, #24
  40130a:	63fb      	str	r3, [r7, #60]	; 0x3c
  40130c:	f107 0314 	add.w	r3, r7, #20
  401310:	63bb      	str	r3, [r7, #56]	; 0x38
  401312:	f107 0310 	add.w	r3, r7, #16
  401316:	637b      	str	r3, [r7, #52]	; 0x34
  401318:	f107 030c 	add.w	r3, r7, #12
  40131c:	633b      	str	r3, [r7, #48]	; 0x30
  40131e:	4613      	mov	r3, r2
  401320:	f887 302f 	strb.w	r3, [r7, #47]	; 0x2f
	uint32_t mor  = PMC->CKGR_MOR;
  401324:	4b58      	ldr	r3, [pc, #352]	; (401488 <pmc_sleep+0x204>)
  401326:	6a1b      	ldr	r3, [r3, #32]
  401328:	62bb      	str	r3, [r7, #40]	; 0x28
	uint32_t mckr = PMC->PMC_MCKR;
  40132a:	4b57      	ldr	r3, [pc, #348]	; (401488 <pmc_sleep+0x204>)
  40132c:	6b1b      	ldr	r3, [r3, #48]	; 0x30
  40132e:	627b      	str	r3, [r7, #36]	; 0x24
	uint32_t fmr  = EFC0->EEFC_FMR;
  401330:	4b56      	ldr	r3, [pc, #344]	; (40148c <pmc_sleep+0x208>)
  401332:	681b      	ldr	r3, [r3, #0]
  401334:	623b      	str	r3, [r7, #32]
	if (p_osc_setting) {
  401336:	6c3b      	ldr	r3, [r7, #64]	; 0x40
  401338:	2b00      	cmp	r3, #0
  40133a:	d002      	beq.n	401342 <pmc_sleep+0xbe>
		*p_osc_setting = mor;
  40133c:	6c3b      	ldr	r3, [r7, #64]	; 0x40
  40133e:	6aba      	ldr	r2, [r7, #40]	; 0x28
  401340:	601a      	str	r2, [r3, #0]
	if (p_pll0_setting) {
  401342:	6bfb      	ldr	r3, [r7, #60]	; 0x3c
  401344:	2b00      	cmp	r3, #0
  401346:	d003      	beq.n	401350 <pmc_sleep+0xcc>
		*p_pll0_setting = PMC->CKGR_PLLAR;
  401348:	4b4f      	ldr	r3, [pc, #316]	; (401488 <pmc_sleep+0x204>)
  40134a:	6a9a      	ldr	r2, [r3, #40]	; 0x28
  40134c:	6bfb      	ldr	r3, [r7, #60]	; 0x3c
  40134e:	601a      	str	r2, [r3, #0]
	if (p_pll1_setting) {
  401350:	6bbb      	ldr	r3, [r7, #56]	; 0x38
  401352:	2b00      	cmp	r3, #0
  401354:	d002      	beq.n	40135c <pmc_sleep+0xd8>
		*p_pll1_setting = 0;
  401356:	6bbb      	ldr	r3, [r7, #56]	; 0x38
  401358:	2200      	movs	r2, #0
  40135a:	601a      	str	r2, [r3, #0]
	if (p_mck_setting) {
  40135c:	6b7b      	ldr	r3, [r7, #52]	; 0x34
  40135e:	2b00      	cmp	r3, #0
  401360:	d002      	beq.n	401368 <pmc_sleep+0xe4>
		*p_mck_setting  = mckr;
  401362:	6b7b      	ldr	r3, [r7, #52]	; 0x34
  401364:	6a7a      	ldr	r2, [r7, #36]	; 0x24
  401366:	601a      	str	r2, [r3, #0]
	if (p_fmr_setting) {
  401368:	6b3b      	ldr	r3, [r7, #48]	; 0x30
  40136a:	2b00      	cmp	r3, #0
  40136c:	d002      	beq.n	401374 <pmc_sleep+0xf0>
		*p_fmr_setting  = fmr;
  40136e:	6b3b      	ldr	r3, [r7, #48]	; 0x30
  401370:	6a3a      	ldr	r2, [r7, #32]
  401372:	601a      	str	r2, [r3, #0]
	PMC->CKGR_MOR = CKGR_MOR_KEY_PASSWD | mor | CKGR_MOR_MOSCRCEN;
  401374:	4944      	ldr	r1, [pc, #272]	; (401488 <pmc_sleep+0x204>)
  401376:	6aba      	ldr	r2, [r7, #40]	; 0x28
  401378:	4b45      	ldr	r3, [pc, #276]	; (401490 <pmc_sleep+0x20c>)
  40137a:	4313      	orrs	r3, r2
  40137c:	620b      	str	r3, [r1, #32]
	if ((mckr & PMC_MCKR_CSS_Msk) > PMC_MCKR_CSS_MAIN_CLK) {
  40137e:	6a7b      	ldr	r3, [r7, #36]	; 0x24
  401380:	f003 0303 	and.w	r3, r3, #3
  401384:	2b01      	cmp	r3, #1
  401386:	d90e      	bls.n	4013a6 <pmc_sleep+0x122>
		mckr = (mckr & (~PMC_MCKR_CSS_Msk)) | PMC_MCKR_CSS_MAIN_CLK;
  401388:	6a7b      	ldr	r3, [r7, #36]	; 0x24
  40138a:	f023 0303 	bic.w	r3, r3, #3
  40138e:	f043 0301 	orr.w	r3, r3, #1
  401392:	627b      	str	r3, [r7, #36]	; 0x24
		PMC->PMC_MCKR = mckr;
  401394:	4a3c      	ldr	r2, [pc, #240]	; (401488 <pmc_sleep+0x204>)
  401396:	6a7b      	ldr	r3, [r7, #36]	; 0x24
  401398:	6313      	str	r3, [r2, #48]	; 0x30
		while(!(PMC->PMC_SR & PMC_SR_MCKRDY));
  40139a:	4b3b      	ldr	r3, [pc, #236]	; (401488 <pmc_sleep+0x204>)
  40139c:	6e9b      	ldr	r3, [r3, #104]	; 0x68
  40139e:	f003 0308 	and.w	r3, r3, #8
  4013a2:	2b00      	cmp	r3, #0
  4013a4:	d0f9      	beq.n	40139a <pmc_sleep+0x116>
	if (mckr & PMC_MCKR_PRES_Msk) {
  4013a6:	6a7b      	ldr	r3, [r7, #36]	; 0x24
  4013a8:	f003 0370 	and.w	r3, r3, #112	; 0x70
  4013ac:	2b00      	cmp	r3, #0
  4013ae:	d00c      	beq.n	4013ca <pmc_sleep+0x146>
		mckr = (mckr & (~PMC_MCKR_PRES_Msk));
  4013b0:	6a7b      	ldr	r3, [r7, #36]	; 0x24
  4013b2:	f023 0370 	bic.w	r3, r3, #112	; 0x70
  4013b6:	627b      	str	r3, [r7, #36]	; 0x24
		PMC->PMC_MCKR = mckr;
  4013b8:	4a33      	ldr	r2, [pc, #204]	; (401488 <pmc_sleep+0x204>)
  4013ba:	6a7b      	ldr	r3, [r7, #36]	; 0x24
  4013bc:	6313      	str	r3, [r2, #48]	; 0x30
		while(!(PMC->PMC_SR & PMC_SR_MCKRDY));
  4013be:	4b32      	ldr	r3, [pc, #200]	; (401488 <pmc_sleep+0x204>)
  4013c0:	6e9b      	ldr	r3, [r3, #104]	; 0x68
  4013c2:	f003 0308 	and.w	r3, r3, #8
  4013c6:	2b00      	cmp	r3, #0
  4013c8:	d0f9      	beq.n	4013be <pmc_sleep+0x13a>
	pmc_disable_pllack();
  4013ca:	4b32      	ldr	r3, [pc, #200]	; (401494 <pmc_sleep+0x210>)
  4013cc:	4798      	blx	r3
	while (!(PMC->PMC_SR & PMC_SR_MOSCRCS));
  4013ce:	4b2e      	ldr	r3, [pc, #184]	; (401488 <pmc_sleep+0x204>)
  4013d0:	6e9b      	ldr	r3, [r3, #104]	; 0x68
  4013d2:	f403 3300 	and.w	r3, r3, #131072	; 0x20000
  4013d6:	2b00      	cmp	r3, #0
  4013d8:	d0f9      	beq.n	4013ce <pmc_sleep+0x14a>
	PMC->CKGR_MOR = (PMC->CKGR_MOR & ~CKGR_MOR_MOSCSEL) |
  4013da:	492b      	ldr	r1, [pc, #172]	; (401488 <pmc_sleep+0x204>)
  4013dc:	4b2a      	ldr	r3, [pc, #168]	; (401488 <pmc_sleep+0x204>)
  4013de:	6a1a      	ldr	r2, [r3, #32]
  4013e0:	4b2d      	ldr	r3, [pc, #180]	; (401498 <pmc_sleep+0x214>)
  4013e2:	4013      	ands	r3, r2
  4013e4:	f443 135c 	orr.w	r3, r3, #3604480	; 0x370000
  4013e8:	620b      	str	r3, [r1, #32]
	while (!(PMC->PMC_SR & PMC_SR_MOSCSELS));
  4013ea:	4b27      	ldr	r3, [pc, #156]	; (401488 <pmc_sleep+0x204>)
  4013ec:	6e9b      	ldr	r3, [r3, #104]	; 0x68
  4013ee:	f403 3380 	and.w	r3, r3, #65536	; 0x10000
  4013f2:	2b00      	cmp	r3, #0
  4013f4:	d0f9      	beq.n	4013ea <pmc_sleep+0x166>
	EFC0->EEFC_FMR = fmr & (~EEFC_FMR_FWS_Msk);
  4013f6:	4a25      	ldr	r2, [pc, #148]	; (40148c <pmc_sleep+0x208>)
  4013f8:	6a3b      	ldr	r3, [r7, #32]
  4013fa:	f423 6370 	bic.w	r3, r3, #3840	; 0xf00
  4013fe:	6013      	str	r3, [r2, #0]
	if (disable_xtal) {
  401400:	f897 302f 	ldrb.w	r3, [r7, #47]	; 0x2f
  401404:	2b00      	cmp	r3, #0
  401406:	d007      	beq.n	401418 <pmc_sleep+0x194>
		PMC->CKGR_MOR = (PMC->CKGR_MOR & ~CKGR_MOR_MOSCXTEN) |
  401408:	491f      	ldr	r1, [pc, #124]	; (401488 <pmc_sleep+0x204>)
  40140a:	4b1f      	ldr	r3, [pc, #124]	; (401488 <pmc_sleep+0x204>)
  40140c:	6a1a      	ldr	r2, [r3, #32]
  40140e:	4b23      	ldr	r3, [pc, #140]	; (40149c <pmc_sleep+0x218>)
  401410:	4013      	ands	r3, r2
  401412:	f443 135c 	orr.w	r3, r3, #3604480	; 0x370000
  401416:	620b      	str	r3, [r1, #32]
				&fmr1,
#endif
				(sleep_mode == SAM_PM_SMODE_WAIT));

		/* Enter wait mode */
		cpu_irq_enable();
  401418:	4b18      	ldr	r3, [pc, #96]	; (40147c <pmc_sleep+0x1f8>)
  40141a:	2201      	movs	r2, #1
  40141c:	701a      	strb	r2, [r3, #0]
  40141e:	f3bf 8f5f 	dmb	sy
  __ASM volatile ("cpsie i" : : : "memory");
  401422:	b662      	cpsie	i

		pmc_enable_waitmode();
  401424:	4b1e      	ldr	r3, [pc, #120]	; (4014a0 <pmc_sleep+0x21c>)
  401426:	4798      	blx	r3
  __ASM volatile ("cpsid i" : : : "memory");
  401428:	b672      	cpsid	i
  40142a:	f3bf 8f5f 	dmb	sy

		cpu_irq_disable();
  40142e:	4b13      	ldr	r3, [pc, #76]	; (40147c <pmc_sleep+0x1f8>)
  401430:	2200      	movs	r2, #0
  401432:	701a      	strb	r2, [r3, #0]
		pmc_restore_clock_setting(mor, pllr0, pllr1, mckr, fmr
  401434:	69fc      	ldr	r4, [r7, #28]
  401436:	69b8      	ldr	r0, [r7, #24]
  401438:	6979      	ldr	r1, [r7, #20]
  40143a:	693a      	ldr	r2, [r7, #16]
  40143c:	68fb      	ldr	r3, [r7, #12]
  40143e:	65fc      	str	r4, [r7, #92]	; 0x5c
  401440:	65b8      	str	r0, [r7, #88]	; 0x58
  401442:	6579      	str	r1, [r7, #84]	; 0x54
  401444:	653a      	str	r2, [r7, #80]	; 0x50
  401446:	64fb      	str	r3, [r7, #76]	; 0x4c
	uint32_t pll_sr = 0;
  401448:	2300      	movs	r3, #0
  40144a:	64bb      	str	r3, [r7, #72]	; 0x48
	if (CKGR_MOR_MOSCXTBY == (osc_setting & CKGR_MOR_MOSCXTBY)) {
  40144c:	6dfb      	ldr	r3, [r7, #92]	; 0x5c
  40144e:	f003 0302 	and.w	r3, r3, #2
  401452:	2b00      	cmp	r3, #0
  401454:	d02c      	beq.n	4014b0 <pmc_sleep+0x22c>
		PMC->CKGR_MOR = (PMC->CKGR_MOR & ~CKGR_MOR_MOSCXTEN) |
  401456:	490c      	ldr	r1, [pc, #48]	; (401488 <pmc_sleep+0x204>)
  401458:	4b0b      	ldr	r3, [pc, #44]	; (401488 <pmc_sleep+0x204>)
  40145a:	6a1b      	ldr	r3, [r3, #32]
				CKGR_MOR_KEY_PASSWD | CKGR_MOR_MOSCXTBY |
  40145c:	4a11      	ldr	r2, [pc, #68]	; (4014a4 <pmc_sleep+0x220>)
  40145e:	401a      	ands	r2, r3
  401460:	4b11      	ldr	r3, [pc, #68]	; (4014a8 <pmc_sleep+0x224>)
  401462:	4313      	orrs	r3, r2
		PMC->CKGR_MOR = (PMC->CKGR_MOR & ~CKGR_MOR_MOSCXTEN) |
  401464:	620b      	str	r3, [r1, #32]
		PMC->CKGR_MOR = (PMC->CKGR_MOR & ~CKGR_MOR_MOSCRCEN &
  401466:	4908      	ldr	r1, [pc, #32]	; (401488 <pmc_sleep+0x204>)
  401468:	4b07      	ldr	r3, [pc, #28]	; (401488 <pmc_sleep+0x204>)
  40146a:	6a1a      	ldr	r2, [r3, #32]
				| CKGR_MOR_KEY_PASSWD;
  40146c:	4b0f      	ldr	r3, [pc, #60]	; (4014ac <pmc_sleep+0x228>)
  40146e:	4013      	ands	r3, r2
  401470:	f443 135c 	orr.w	r3, r3, #3604480	; 0x370000
		PMC->CKGR_MOR = (PMC->CKGR_MOR & ~CKGR_MOR_MOSCRCEN &
  401474:	620b      	str	r3, [r1, #32]
  401476:	e04e      	b.n	401516 <pmc_sleep+0x292>
  401478:	e000ed00 	.word	0xe000ed00
  40147c:	20400000 	.word	0x20400000
  401480:	004011d5 	.word	0x004011d5
  401484:	204008d8 	.word	0x204008d8
  401488:	400e0600 	.word	0x400e0600
  40148c:	400e0c00 	.word	0x400e0c00
  401490:	00370008 	.word	0x00370008
  401494:	0040100d 	.word	0x0040100d
  401498:	fec8ffff 	.word	0xfec8ffff
  40149c:	ffc8fffe 	.word	0xffc8fffe
  4014a0:	004011f5 	.word	0x004011f5
  4014a4:	fec8fffc 	.word	0xfec8fffc
  4014a8:	01370002 	.word	0x01370002
  4014ac:	ffc8ff87 	.word	0xffc8ff87
	} else if (CKGR_MOR_MOSCXTEN == (osc_setting & CKGR_MOR_MOSCXTEN)) {
  4014b0:	6dfb      	ldr	r3, [r7, #92]	; 0x5c
  4014b2:	f003 0301 	and.w	r3, r3, #1
  4014b6:	2b00      	cmp	r3, #0
  4014b8:	d02d      	beq.n	401516 <pmc_sleep+0x292>
		if (!(PMC->CKGR_MOR & CKGR_MOR_MOSCXTEN)) {
  4014ba:	4b4a      	ldr	r3, [pc, #296]	; (4015e4 <pmc_sleep+0x360>)
  4014bc:	6a1b      	ldr	r3, [r3, #32]
  4014be:	f003 0301 	and.w	r3, r3, #1
  4014c2:	2b00      	cmp	r3, #0
  4014c4:	d10d      	bne.n	4014e2 <pmc_sleep+0x25e>
			PMC->CKGR_MOR = (PMC->CKGR_MOR & ~CKGR_MOR_MOSCXTBY) |
  4014c6:	4947      	ldr	r1, [pc, #284]	; (4015e4 <pmc_sleep+0x360>)
  4014c8:	4b46      	ldr	r3, [pc, #280]	; (4015e4 <pmc_sleep+0x360>)
  4014ca:	6a1b      	ldr	r3, [r3, #32]
					CKGR_MOR_KEY_PASSWD | CKGR_MOR_MOSCXTEN;
  4014cc:	4a46      	ldr	r2, [pc, #280]	; (4015e8 <pmc_sleep+0x364>)
  4014ce:	401a      	ands	r2, r3
  4014d0:	4b46      	ldr	r3, [pc, #280]	; (4015ec <pmc_sleep+0x368>)
  4014d2:	4313      	orrs	r3, r2
			PMC->CKGR_MOR = (PMC->CKGR_MOR & ~CKGR_MOR_MOSCXTBY) |
  4014d4:	620b      	str	r3, [r1, #32]
			while (!(PMC->PMC_SR & PMC_SR_MOSCXTS));
  4014d6:	4b43      	ldr	r3, [pc, #268]	; (4015e4 <pmc_sleep+0x360>)
  4014d8:	6e9b      	ldr	r3, [r3, #104]	; 0x68
  4014da:	f003 0301 	and.w	r3, r3, #1
  4014de:	2b00      	cmp	r3, #0
  4014e0:	d0f9      	beq.n	4014d6 <pmc_sleep+0x252>
		if (!(PMC->CKGR_MOR & CKGR_MOR_MOSCSEL)) {
  4014e2:	4b40      	ldr	r3, [pc, #256]	; (4015e4 <pmc_sleep+0x360>)
  4014e4:	6a1b      	ldr	r3, [r3, #32]
  4014e6:	f003 7380 	and.w	r3, r3, #16777216	; 0x1000000
  4014ea:	2b00      	cmp	r3, #0
  4014ec:	d10b      	bne.n	401506 <pmc_sleep+0x282>
			PMC->CKGR_MOR |= CKGR_MOR_KEY_PASSWD | CKGR_MOR_MOSCSEL;
  4014ee:	493d      	ldr	r1, [pc, #244]	; (4015e4 <pmc_sleep+0x360>)
  4014f0:	4b3c      	ldr	r3, [pc, #240]	; (4015e4 <pmc_sleep+0x360>)
  4014f2:	6a1a      	ldr	r2, [r3, #32]
  4014f4:	4b3e      	ldr	r3, [pc, #248]	; (4015f0 <pmc_sleep+0x36c>)
  4014f6:	4313      	orrs	r3, r2
  4014f8:	620b      	str	r3, [r1, #32]
			while (!(PMC->PMC_SR & PMC_SR_MOSCSELS));
  4014fa:	4b3a      	ldr	r3, [pc, #232]	; (4015e4 <pmc_sleep+0x360>)
  4014fc:	6e9b      	ldr	r3, [r3, #104]	; 0x68
  4014fe:	f403 3380 	and.w	r3, r3, #65536	; 0x10000
  401502:	2b00      	cmp	r3, #0
  401504:	d0f9      	beq.n	4014fa <pmc_sleep+0x276>
		PMC->CKGR_MOR = (PMC->CKGR_MOR & ~CKGR_MOR_MOSCRCEN &
  401506:	4937      	ldr	r1, [pc, #220]	; (4015e4 <pmc_sleep+0x360>)
  401508:	4b36      	ldr	r3, [pc, #216]	; (4015e4 <pmc_sleep+0x360>)
  40150a:	6a1a      	ldr	r2, [r3, #32]
					| CKGR_MOR_KEY_PASSWD;
  40150c:	4b39      	ldr	r3, [pc, #228]	; (4015f4 <pmc_sleep+0x370>)
  40150e:	4013      	ands	r3, r2
  401510:	f443 135c 	orr.w	r3, r3, #3604480	; 0x370000
		PMC->CKGR_MOR = (PMC->CKGR_MOR & ~CKGR_MOR_MOSCRCEN &
  401514:	620b      	str	r3, [r1, #32]
	if (pll0_setting & CKGR_PLLAR_MULA_Msk) {
  401516:	6dba      	ldr	r2, [r7, #88]	; 0x58
  401518:	4b37      	ldr	r3, [pc, #220]	; (4015f8 <pmc_sleep+0x374>)
  40151a:	4013      	ands	r3, r2
  40151c:	2b00      	cmp	r3, #0
  40151e:	d008      	beq.n	401532 <pmc_sleep+0x2ae>
		PMC->CKGR_PLLAR = CKGR_PLLAR_ONE | pll0_setting;
  401520:	4a30      	ldr	r2, [pc, #192]	; (4015e4 <pmc_sleep+0x360>)
  401522:	6dbb      	ldr	r3, [r7, #88]	; 0x58
  401524:	f043 5300 	orr.w	r3, r3, #536870912	; 0x20000000
  401528:	6293      	str	r3, [r2, #40]	; 0x28
		pll_sr |= PMC_SR_LOCKA;
  40152a:	6cbb      	ldr	r3, [r7, #72]	; 0x48
  40152c:	f043 0302 	orr.w	r3, r3, #2
  401530:	64bb      	str	r3, [r7, #72]	; 0x48
	switch(mck_setting & PMC_MCKR_CSS_Msk) {
  401532:	6d3b      	ldr	r3, [r7, #80]	; 0x50
  401534:	f003 0303 	and.w	r3, r3, #3
  401538:	2b02      	cmp	r3, #2
  40153a:	d105      	bne.n	401548 <pmc_sleep+0x2c4>
		while (!(PMC->PMC_SR & PMC_SR_LOCKA));
  40153c:	4b29      	ldr	r3, [pc, #164]	; (4015e4 <pmc_sleep+0x360>)
  40153e:	6e9b      	ldr	r3, [r3, #104]	; 0x68
  401540:	f003 0302 	and.w	r3, r3, #2
  401544:	2b00      	cmp	r3, #0
  401546:	d0f9      	beq.n	40153c <pmc_sleep+0x2b8>
	mckr = PMC->PMC_MCKR;
  401548:	4b26      	ldr	r3, [pc, #152]	; (4015e4 <pmc_sleep+0x360>)
  40154a:	6b1b      	ldr	r3, [r3, #48]	; 0x30
  40154c:	647b      	str	r3, [r7, #68]	; 0x44
	PMC->PMC_MCKR = (mckr & ~PMC_MCKR_PRES_Msk)
  40154e:	4925      	ldr	r1, [pc, #148]	; (4015e4 <pmc_sleep+0x360>)
  401550:	6c7b      	ldr	r3, [r7, #68]	; 0x44
  401552:	f023 0270 	bic.w	r2, r3, #112	; 0x70
		| (mck_setting & PMC_MCKR_PRES_Msk);
  401556:	6d3b      	ldr	r3, [r7, #80]	; 0x50
  401558:	f003 0370 	and.w	r3, r3, #112	; 0x70
  40155c:	4313      	orrs	r3, r2
	PMC->PMC_MCKR = (mckr & ~PMC_MCKR_PRES_Msk)
  40155e:	630b      	str	r3, [r1, #48]	; 0x30
	while (!(PMC->PMC_SR & PMC_SR_MCKRDY));
  401560:	4b20      	ldr	r3, [pc, #128]	; (4015e4 <pmc_sleep+0x360>)
  401562:	6e9b      	ldr	r3, [r3, #104]	; 0x68
  401564:	f003 0308 	and.w	r3, r3, #8
  401568:	2b00      	cmp	r3, #0
  40156a:	d0f9      	beq.n	401560 <pmc_sleep+0x2dc>
	EFC0->EEFC_FMR = fmr_setting;
  40156c:	4a23      	ldr	r2, [pc, #140]	; (4015fc <pmc_sleep+0x378>)
  40156e:	6cfb      	ldr	r3, [r7, #76]	; 0x4c
  401570:	6013      	str	r3, [r2, #0]
	PMC->PMC_MCKR = mck_setting;
  401572:	4a1c      	ldr	r2, [pc, #112]	; (4015e4 <pmc_sleep+0x360>)
  401574:	6d3b      	ldr	r3, [r7, #80]	; 0x50
  401576:	6313      	str	r3, [r2, #48]	; 0x30
	while (!(PMC->PMC_SR & PMC_SR_MCKRDY));
  401578:	4b1a      	ldr	r3, [pc, #104]	; (4015e4 <pmc_sleep+0x360>)
  40157a:	6e9b      	ldr	r3, [r3, #104]	; 0x68
  40157c:	f003 0308 	and.w	r3, r3, #8
  401580:	2b00      	cmp	r3, #0
  401582:	d0f9      	beq.n	401578 <pmc_sleep+0x2f4>
	while (!(PMC->PMC_SR & pll_sr));
  401584:	4b17      	ldr	r3, [pc, #92]	; (4015e4 <pmc_sleep+0x360>)
  401586:	6e9a      	ldr	r2, [r3, #104]	; 0x68
  401588:	6cbb      	ldr	r3, [r7, #72]	; 0x48
  40158a:	4013      	ands	r3, r2
  40158c:	2b00      	cmp	r3, #0
  40158e:	d0f9      	beq.n	401584 <pmc_sleep+0x300>

#if (SAM4C || SAM4CM || SAM4CP)
		/* Restore the sub-system 1 */
		PMC->PMC_SCER = cpclk_backup | PMC_SCER_CPKEY_PASSWD;
#endif
		b_is_sleep_clock_used = false;
  401590:	4b1b      	ldr	r3, [pc, #108]	; (401600 <pmc_sleep+0x37c>)
  401592:	2200      	movs	r2, #0
  401594:	701a      	strb	r2, [r3, #0]
		if (callback_clocks_restored) {
  401596:	4b1b      	ldr	r3, [pc, #108]	; (401604 <pmc_sleep+0x380>)
  401598:	681b      	ldr	r3, [r3, #0]
  40159a:	2b00      	cmp	r3, #0
  40159c:	d005      	beq.n	4015aa <pmc_sleep+0x326>
			callback_clocks_restored();
  40159e:	4b19      	ldr	r3, [pc, #100]	; (401604 <pmc_sleep+0x380>)
  4015a0:	681b      	ldr	r3, [r3, #0]
  4015a2:	4798      	blx	r3
			callback_clocks_restored = NULL;
  4015a4:	4b17      	ldr	r3, [pc, #92]	; (401604 <pmc_sleep+0x380>)
  4015a6:	2200      	movs	r2, #0
  4015a8:	601a      	str	r2, [r3, #0]
		}
		cpu_irq_enable();
  4015aa:	4b17      	ldr	r3, [pc, #92]	; (401608 <pmc_sleep+0x384>)
  4015ac:	2201      	movs	r2, #1
  4015ae:	701a      	strb	r2, [r3, #0]
  4015b0:	f3bf 8f5f 	dmb	sy
  __ASM volatile ("cpsie i" : : : "memory");
  4015b4:	b662      	cpsie	i

		break;
  4015b6:	bf00      	nop
  4015b8:	e010      	b.n	4015dc <pmc_sleep+0x358>
	}
#if (!(SAMG51 || SAMG53 || SAMG54))
	case SAM_PM_SMODE_BACKUP:
		SCB->SCR |= SCR_SLEEPDEEP;
  4015ba:	4a14      	ldr	r2, [pc, #80]	; (40160c <pmc_sleep+0x388>)
  4015bc:	4b13      	ldr	r3, [pc, #76]	; (40160c <pmc_sleep+0x388>)
  4015be:	691b      	ldr	r3, [r3, #16]
  4015c0:	f043 0304 	orr.w	r3, r3, #4
  4015c4:	6113      	str	r3, [r2, #16]
#if (SAM4S || SAM4E || SAM4N || SAM4C || SAM4CM || SAM4CP || SAMG55 || SAMV71 || SAMV70 || SAMS70 || SAME70)
		SUPC->SUPC_CR = SUPC_CR_KEY_PASSWD | SUPC_CR_VROFF_STOP_VREG;
  4015c6:	4b12      	ldr	r3, [pc, #72]	; (401610 <pmc_sleep+0x38c>)
  4015c8:	4a12      	ldr	r2, [pc, #72]	; (401614 <pmc_sleep+0x390>)
  4015ca:	601a      	str	r2, [r3, #0]
		cpu_irq_enable();
  4015cc:	4b0e      	ldr	r3, [pc, #56]	; (401608 <pmc_sleep+0x384>)
  4015ce:	2201      	movs	r2, #1
  4015d0:	701a      	strb	r2, [r3, #0]
  4015d2:	f3bf 8f5f 	dmb	sy
  4015d6:	b662      	cpsie	i
  __ASM volatile ("wfi");
  4015d8:	bf30      	wfi
		__WFI() ;
#else
		cpu_irq_enable();
		__WFE() ;
#endif
		break;
  4015da:	bf00      	nop
#endif
	}
}
  4015dc:	bf00      	nop
  4015de:	3764      	adds	r7, #100	; 0x64
  4015e0:	46bd      	mov	sp, r7
  4015e2:	bd90      	pop	{r4, r7, pc}
  4015e4:	400e0600 	.word	0x400e0600
  4015e8:	ffc8fffc 	.word	0xffc8fffc
  4015ec:	00370001 	.word	0x00370001
  4015f0:	01370000 	.word	0x01370000
  4015f4:	ffc8ff87 	.word	0xffc8ff87
  4015f8:	07ff0000 	.word	0x07ff0000
  4015fc:	400e0c00 	.word	0x400e0c00
  401600:	204008d8 	.word	0x204008d8
  401604:	204008dc 	.word	0x204008dc
  401608:	20400000 	.word	0x20400000
  40160c:	e000ed00 	.word	0xe000ed00
  401610:	400e1810 	.word	0x400e1810
  401614:	a5000004 	.word	0xa5000004

00401618 <rtc_set_hour_mode>:
 *
 * \param p_rtc Pointer to an RTC instance.
 * \param ul_mode 1 for 12-hour mode, 0 for 24-hour mode.
 */
void rtc_set_hour_mode(Rtc *p_rtc, uint32_t ul_mode)
{
  401618:	b480      	push	{r7}
  40161a:	b083      	sub	sp, #12
  40161c:	af00      	add	r7, sp, #0
  40161e:	6078      	str	r0, [r7, #4]
  401620:	6039      	str	r1, [r7, #0]
	if (ul_mode) {
  401622:	683b      	ldr	r3, [r7, #0]
  401624:	2b00      	cmp	r3, #0
  401626:	d006      	beq.n	401636 <rtc_set_hour_mode+0x1e>
		p_rtc->RTC_MR |= RTC_MR_HRMOD;
  401628:	687b      	ldr	r3, [r7, #4]
  40162a:	685b      	ldr	r3, [r3, #4]
  40162c:	f043 0201 	orr.w	r2, r3, #1
  401630:	687b      	ldr	r3, [r7, #4]
  401632:	605a      	str	r2, [r3, #4]
	} else {
		p_rtc->RTC_MR &= (~RTC_MR_HRMOD);
	}
}
  401634:	e005      	b.n	401642 <rtc_set_hour_mode+0x2a>
		p_rtc->RTC_MR &= (~RTC_MR_HRMOD);
  401636:	687b      	ldr	r3, [r7, #4]
  401638:	685b      	ldr	r3, [r3, #4]
  40163a:	f023 0201 	bic.w	r2, r3, #1
  40163e:	687b      	ldr	r3, [r7, #4]
  401640:	605a      	str	r2, [r3, #4]
}
  401642:	bf00      	nop
  401644:	370c      	adds	r7, #12
  401646:	46bd      	mov	sp, r7
  401648:	f85d 7b04 	ldr.w	r7, [sp], #4
  40164c:	4770      	bx	lr

0040164e <rtc_enable_interrupt>:
 *
 * \param p_rtc Pointer to an RTC instance.
 * \param ul_sources Interrupts to be enabled.
 */
void rtc_enable_interrupt(Rtc *p_rtc, uint32_t ul_sources)
{
  40164e:	b480      	push	{r7}
  401650:	b083      	sub	sp, #12
  401652:	af00      	add	r7, sp, #0
  401654:	6078      	str	r0, [r7, #4]
  401656:	6039      	str	r1, [r7, #0]
	p_rtc->RTC_IER = ul_sources;
  401658:	687b      	ldr	r3, [r7, #4]
  40165a:	683a      	ldr	r2, [r7, #0]
  40165c:	621a      	str	r2, [r3, #32]
}
  40165e:	bf00      	nop
  401660:	370c      	adds	r7, #12
  401662:	46bd      	mov	sp, r7
  401664:	f85d 7b04 	ldr.w	r7, [sp], #4
  401668:	4770      	bx	lr

0040166a <rtc_get_time>:
 * \param pul_minute Current minute.
 * \param pul_second Current second.
 */
void rtc_get_time(Rtc *p_rtc, uint32_t *pul_hour, uint32_t *pul_minute,
		uint32_t *pul_second)
{
  40166a:	b480      	push	{r7}
  40166c:	b087      	sub	sp, #28
  40166e:	af00      	add	r7, sp, #0
  401670:	60f8      	str	r0, [r7, #12]
  401672:	60b9      	str	r1, [r7, #8]
  401674:	607a      	str	r2, [r7, #4]
  401676:	603b      	str	r3, [r7, #0]
	uint32_t ul_time;
	uint32_t ul_temp;

	/* Get the current RTC time (multiple reads are necessary to insure a stable value). */
	ul_time = p_rtc->RTC_TIMR;
  401678:	68fb      	ldr	r3, [r7, #12]
  40167a:	689b      	ldr	r3, [r3, #8]
  40167c:	617b      	str	r3, [r7, #20]
	while (ul_time != p_rtc->RTC_TIMR) {
  40167e:	e002      	b.n	401686 <rtc_get_time+0x1c>
		ul_time = p_rtc->RTC_TIMR;
  401680:	68fb      	ldr	r3, [r7, #12]
  401682:	689b      	ldr	r3, [r3, #8]
  401684:	617b      	str	r3, [r7, #20]
	while (ul_time != p_rtc->RTC_TIMR) {
  401686:	68fb      	ldr	r3, [r7, #12]
  401688:	689a      	ldr	r2, [r3, #8]
  40168a:	697b      	ldr	r3, [r7, #20]
  40168c:	429a      	cmp	r2, r3
  40168e:	d1f7      	bne.n	401680 <rtc_get_time+0x16>
	}

	/* Hour */
	if (pul_hour) {
  401690:	68bb      	ldr	r3, [r7, #8]
  401692:	2b00      	cmp	r3, #0
  401694:	d01c      	beq.n	4016d0 <rtc_get_time+0x66>
		ul_temp = (ul_time & RTC_TIMR_HOUR_Msk) >> RTC_TIMR_HOUR_Pos;
  401696:	697b      	ldr	r3, [r7, #20]
  401698:	0c1b      	lsrs	r3, r3, #16
  40169a:	f003 033f 	and.w	r3, r3, #63	; 0x3f
  40169e:	613b      	str	r3, [r7, #16]
		*pul_hour = (ul_temp >> BCD_SHIFT) * BCD_FACTOR + (ul_temp & BCD_MASK);
  4016a0:	693b      	ldr	r3, [r7, #16]
  4016a2:	091a      	lsrs	r2, r3, #4
  4016a4:	4613      	mov	r3, r2
  4016a6:	009b      	lsls	r3, r3, #2
  4016a8:	4413      	add	r3, r2
  4016aa:	005b      	lsls	r3, r3, #1
  4016ac:	461a      	mov	r2, r3
  4016ae:	693b      	ldr	r3, [r7, #16]
  4016b0:	f003 030f 	and.w	r3, r3, #15
  4016b4:	441a      	add	r2, r3
  4016b6:	68bb      	ldr	r3, [r7, #8]
  4016b8:	601a      	str	r2, [r3, #0]

		if ((ul_time & RTC_TIMR_AMPM) == RTC_TIMR_AMPM) {
  4016ba:	697b      	ldr	r3, [r7, #20]
  4016bc:	f403 0380 	and.w	r3, r3, #4194304	; 0x400000
  4016c0:	2b00      	cmp	r3, #0
  4016c2:	d005      	beq.n	4016d0 <rtc_get_time+0x66>
			*pul_hour += 12;
  4016c4:	68bb      	ldr	r3, [r7, #8]
  4016c6:	681b      	ldr	r3, [r3, #0]
  4016c8:	f103 020c 	add.w	r2, r3, #12
  4016cc:	68bb      	ldr	r3, [r7, #8]
  4016ce:	601a      	str	r2, [r3, #0]
		}
	}

	/* Minute */
	if (pul_minute) {
  4016d0:	687b      	ldr	r3, [r7, #4]
  4016d2:	2b00      	cmp	r3, #0
  4016d4:	d011      	beq.n	4016fa <rtc_get_time+0x90>
		ul_temp = (ul_time & RTC_TIMR_MIN_Msk) >> RTC_TIMR_MIN_Pos;
  4016d6:	697b      	ldr	r3, [r7, #20]
  4016d8:	0a1b      	lsrs	r3, r3, #8
  4016da:	f003 037f 	and.w	r3, r3, #127	; 0x7f
  4016de:	613b      	str	r3, [r7, #16]
		*pul_minute = (ul_temp >> BCD_SHIFT) * BCD_FACTOR +  (ul_temp & BCD_MASK);
  4016e0:	693b      	ldr	r3, [r7, #16]
  4016e2:	091a      	lsrs	r2, r3, #4
  4016e4:	4613      	mov	r3, r2
  4016e6:	009b      	lsls	r3, r3, #2
  4016e8:	4413      	add	r3, r2
  4016ea:	005b      	lsls	r3, r3, #1
  4016ec:	461a      	mov	r2, r3
  4016ee:	693b      	ldr	r3, [r7, #16]
  4016f0:	f003 030f 	and.w	r3, r3, #15
  4016f4:	441a      	add	r2, r3
  4016f6:	687b      	ldr	r3, [r7, #4]
  4016f8:	601a      	str	r2, [r3, #0]
	}

	/* Second */
	if (pul_second) {
  4016fa:	683b      	ldr	r3, [r7, #0]
  4016fc:	2b00      	cmp	r3, #0
  4016fe:	d010      	beq.n	401722 <rtc_get_time+0xb8>
		ul_temp = (ul_time & RTC_TIMR_SEC_Msk) >> RTC_TIMR_SEC_Pos;
  401700:	697b      	ldr	r3, [r7, #20]
  401702:	f003 037f 	and.w	r3, r3, #127	; 0x7f
  401706:	613b      	str	r3, [r7, #16]
		*pul_second = (ul_temp >> BCD_SHIFT) * BCD_FACTOR + (ul_temp & BCD_MASK);
  401708:	693b      	ldr	r3, [r7, #16]
  40170a:	091a      	lsrs	r2, r3, #4
  40170c:	4613      	mov	r3, r2
  40170e:	009b      	lsls	r3, r3, #2
  401710:	4413      	add	r3, r2
  401712:	005b      	lsls	r3, r3, #1
  401714:	461a      	mov	r2, r3
  401716:	693b      	ldr	r3, [r7, #16]
  401718:	f003 030f 	and.w	r3, r3, #15
  40171c:	441a      	add	r2, r3
  40171e:	683b      	ldr	r3, [r7, #0]
  401720:	601a      	str	r2, [r3, #0]
	}
}
  401722:	bf00      	nop
  401724:	371c      	adds	r7, #28
  401726:	46bd      	mov	sp, r7
  401728:	f85d 7b04 	ldr.w	r7, [sp], #4
  40172c:	4770      	bx	lr
	...

00401730 <rtc_set_time>:
 *
 * \return 0 for OK, else invalid setting.
 */
uint32_t rtc_set_time(Rtc *p_rtc, uint32_t ul_hour, uint32_t ul_minute,
		uint32_t ul_second)
{
  401730:	b480      	push	{r7}
  401732:	b087      	sub	sp, #28
  401734:	af00      	add	r7, sp, #0
  401736:	60f8      	str	r0, [r7, #12]
  401738:	60b9      	str	r1, [r7, #8]
  40173a:	607a      	str	r2, [r7, #4]
  40173c:	603b      	str	r3, [r7, #0]
	uint32_t ul_time = 0;
  40173e:	2300      	movs	r3, #0
  401740:	617b      	str	r3, [r7, #20]

	/* If 12-hour mode, set AMPM bit */
	if ((p_rtc->RTC_MR & RTC_MR_HRMOD) == RTC_MR_HRMOD) {
  401742:	68fb      	ldr	r3, [r7, #12]
  401744:	685b      	ldr	r3, [r3, #4]
  401746:	f003 0301 	and.w	r3, r3, #1
  40174a:	2b01      	cmp	r3, #1
  40174c:	d109      	bne.n	401762 <rtc_set_time+0x32>
		if (ul_hour > 12) {
  40174e:	68bb      	ldr	r3, [r7, #8]
  401750:	2b0c      	cmp	r3, #12
  401752:	d906      	bls.n	401762 <rtc_set_time+0x32>
			ul_hour -= 12;
  401754:	68bb      	ldr	r3, [r7, #8]
  401756:	3b0c      	subs	r3, #12
  401758:	60bb      	str	r3, [r7, #8]
			ul_time |= RTC_TIMR_AMPM;
  40175a:	697b      	ldr	r3, [r7, #20]
  40175c:	f443 0380 	orr.w	r3, r3, #4194304	; 0x400000
  401760:	617b      	str	r3, [r7, #20]
		}
	}

	/* Hour */
	ul_time |= ((ul_hour / BCD_FACTOR) << (RTC_TIMR_HOUR_Pos + BCD_SHIFT)) |
  401762:	68bb      	ldr	r3, [r7, #8]
  401764:	4a33      	ldr	r2, [pc, #204]	; (401834 <rtc_set_time+0x104>)
  401766:	fba2 2303 	umull	r2, r3, r2, r3
  40176a:	08db      	lsrs	r3, r3, #3
  40176c:	0518      	lsls	r0, r3, #20
			((ul_hour % BCD_FACTOR) << RTC_TIMR_HOUR_Pos);
  40176e:	68b9      	ldr	r1, [r7, #8]
  401770:	4b30      	ldr	r3, [pc, #192]	; (401834 <rtc_set_time+0x104>)
  401772:	fba3 2301 	umull	r2, r3, r3, r1
  401776:	08da      	lsrs	r2, r3, #3
  401778:	4613      	mov	r3, r2
  40177a:	009b      	lsls	r3, r3, #2
  40177c:	4413      	add	r3, r2
  40177e:	005b      	lsls	r3, r3, #1
  401780:	1aca      	subs	r2, r1, r3
  401782:	0413      	lsls	r3, r2, #16
	ul_time |= ((ul_hour / BCD_FACTOR) << (RTC_TIMR_HOUR_Pos + BCD_SHIFT)) |
  401784:	4303      	orrs	r3, r0
  401786:	697a      	ldr	r2, [r7, #20]
  401788:	4313      	orrs	r3, r2
  40178a:	617b      	str	r3, [r7, #20]

	/* Minute */
	ul_time |= ((ul_minute / BCD_FACTOR) << (RTC_TIMR_MIN_Pos + BCD_SHIFT)) |
  40178c:	687b      	ldr	r3, [r7, #4]
  40178e:	4a29      	ldr	r2, [pc, #164]	; (401834 <rtc_set_time+0x104>)
  401790:	fba2 2303 	umull	r2, r3, r2, r3
  401794:	08db      	lsrs	r3, r3, #3
  401796:	0318      	lsls	r0, r3, #12
			((ul_minute % BCD_FACTOR) << RTC_TIMR_MIN_Pos);
  401798:	6879      	ldr	r1, [r7, #4]
  40179a:	4b26      	ldr	r3, [pc, #152]	; (401834 <rtc_set_time+0x104>)
  40179c:	fba3 2301 	umull	r2, r3, r3, r1
  4017a0:	08da      	lsrs	r2, r3, #3
  4017a2:	4613      	mov	r3, r2
  4017a4:	009b      	lsls	r3, r3, #2
  4017a6:	4413      	add	r3, r2
  4017a8:	005b      	lsls	r3, r3, #1
  4017aa:	1aca      	subs	r2, r1, r3
  4017ac:	0213      	lsls	r3, r2, #8
	ul_time |= ((ul_minute / BCD_FACTOR) << (RTC_TIMR_MIN_Pos + BCD_SHIFT)) |
  4017ae:	4303      	orrs	r3, r0
  4017b0:	697a      	ldr	r2, [r7, #20]
  4017b2:	4313      	orrs	r3, r2
  4017b4:	617b      	str	r3, [r7, #20]

	/* Second */
	ul_time |= ((ul_second / BCD_FACTOR) << (RTC_TIMR_SEC_Pos + BCD_SHIFT)) |
  4017b6:	683b      	ldr	r3, [r7, #0]
  4017b8:	4a1e      	ldr	r2, [pc, #120]	; (401834 <rtc_set_time+0x104>)
  4017ba:	fba2 2303 	umull	r2, r3, r2, r3
  4017be:	08db      	lsrs	r3, r3, #3
  4017c0:	0118      	lsls	r0, r3, #4
			((ul_second % BCD_FACTOR) << RTC_TIMR_SEC_Pos);
  4017c2:	6839      	ldr	r1, [r7, #0]
  4017c4:	4b1b      	ldr	r3, [pc, #108]	; (401834 <rtc_set_time+0x104>)
  4017c6:	fba3 2301 	umull	r2, r3, r3, r1
  4017ca:	08da      	lsrs	r2, r3, #3
  4017cc:	4613      	mov	r3, r2
  4017ce:	009b      	lsls	r3, r3, #2
  4017d0:	4413      	add	r3, r2
  4017d2:	005b      	lsls	r3, r3, #1
  4017d4:	1aca      	subs	r2, r1, r3
	ul_time |= ((ul_second / BCD_FACTOR) << (RTC_TIMR_SEC_Pos + BCD_SHIFT)) |
  4017d6:	ea40 0302 	orr.w	r3, r0, r2
  4017da:	697a      	ldr	r2, [r7, #20]
  4017dc:	4313      	orrs	r3, r2
  4017de:	617b      	str	r3, [r7, #20]

	/* Update time register. Check the spec for the flow. */
	p_rtc->RTC_CR |= RTC_CR_UPDTIM;
  4017e0:	68fb      	ldr	r3, [r7, #12]
  4017e2:	681b      	ldr	r3, [r3, #0]
  4017e4:	f043 0201 	orr.w	r2, r3, #1
  4017e8:	68fb      	ldr	r3, [r7, #12]
  4017ea:	601a      	str	r2, [r3, #0]
	while ((p_rtc->RTC_SR & RTC_SR_ACKUPD) != RTC_SR_ACKUPD);
  4017ec:	bf00      	nop
  4017ee:	68fb      	ldr	r3, [r7, #12]
  4017f0:	699b      	ldr	r3, [r3, #24]
  4017f2:	f003 0301 	and.w	r3, r3, #1
  4017f6:	2b01      	cmp	r3, #1
  4017f8:	d1f9      	bne.n	4017ee <rtc_set_time+0xbe>
	p_rtc->RTC_SCCR = RTC_SCCR_ACKCLR;
  4017fa:	68fb      	ldr	r3, [r7, #12]
  4017fc:	2201      	movs	r2, #1
  4017fe:	61da      	str	r2, [r3, #28]
	p_rtc->RTC_TIMR = ul_time;
  401800:	68fb      	ldr	r3, [r7, #12]
  401802:	697a      	ldr	r2, [r7, #20]
  401804:	609a      	str	r2, [r3, #8]
	p_rtc->RTC_CR &= (~RTC_CR_UPDTIM);
  401806:	68fb      	ldr	r3, [r7, #12]
  401808:	681b      	ldr	r3, [r3, #0]
  40180a:	f023 0201 	bic.w	r2, r3, #1
  40180e:	68fb      	ldr	r3, [r7, #12]
  401810:	601a      	str	r2, [r3, #0]
	p_rtc->RTC_SCCR |= RTC_SCCR_SECCLR;
  401812:	68fb      	ldr	r3, [r7, #12]
  401814:	69db      	ldr	r3, [r3, #28]
  401816:	f043 0204 	orr.w	r2, r3, #4
  40181a:	68fb      	ldr	r3, [r7, #12]
  40181c:	61da      	str	r2, [r3, #28]

	return (p_rtc->RTC_VER & RTC_VER_NVTIM);
  40181e:	68fb      	ldr	r3, [r7, #12]
  401820:	6adb      	ldr	r3, [r3, #44]	; 0x2c
  401822:	f003 0301 	and.w	r3, r3, #1
}
  401826:	4618      	mov	r0, r3
  401828:	371c      	adds	r7, #28
  40182a:	46bd      	mov	sp, r7
  40182c:	f85d 7b04 	ldr.w	r7, [sp], #4
  401830:	4770      	bx	lr
  401832:	bf00      	nop
  401834:	cccccccd 	.word	0xcccccccd

00401838 <rtc_set_time_alarm>:
 */
uint32_t rtc_set_time_alarm(Rtc *p_rtc,
		uint32_t ul_hour_flag, uint32_t ul_hour,
		uint32_t ul_minute_flag, uint32_t ul_minute,
		uint32_t ul_second_flag, uint32_t ul_second)
{
  401838:	b480      	push	{r7}
  40183a:	b087      	sub	sp, #28
  40183c:	af00      	add	r7, sp, #0
  40183e:	60f8      	str	r0, [r7, #12]
  401840:	60b9      	str	r1, [r7, #8]
  401842:	607a      	str	r2, [r7, #4]
  401844:	603b      	str	r3, [r7, #0]
	uint32_t ul_alarm = 0;
  401846:	2300      	movs	r3, #0
  401848:	617b      	str	r3, [r7, #20]

	/* Hour alarm setting */
	if (ul_hour_flag) {
  40184a:	68bb      	ldr	r3, [r7, #8]
  40184c:	2b00      	cmp	r3, #0
  40184e:	d024      	beq.n	40189a <rtc_set_time_alarm+0x62>
		/* If 12-hour mode, set AMPM bit */
		if ((p_rtc->RTC_MR & RTC_MR_HRMOD) == RTC_MR_HRMOD) {
  401850:	68fb      	ldr	r3, [r7, #12]
  401852:	685b      	ldr	r3, [r3, #4]
  401854:	f003 0301 	and.w	r3, r3, #1
  401858:	2b01      	cmp	r3, #1
  40185a:	d109      	bne.n	401870 <rtc_set_time_alarm+0x38>
			if (ul_hour > 12) {
  40185c:	687b      	ldr	r3, [r7, #4]
  40185e:	2b0c      	cmp	r3, #12
  401860:	d906      	bls.n	401870 <rtc_set_time_alarm+0x38>
				ul_hour -= 12;
  401862:	687b      	ldr	r3, [r7, #4]
  401864:	3b0c      	subs	r3, #12
  401866:	607b      	str	r3, [r7, #4]
				ul_alarm |= RTC_TIMR_AMPM;
  401868:	697b      	ldr	r3, [r7, #20]
  40186a:	f443 0380 	orr.w	r3, r3, #4194304	; 0x400000
  40186e:	617b      	str	r3, [r7, #20]
			}
		}

		ul_alarm |= ((ul_hour / BCD_FACTOR) << (RTC_TIMR_HOUR_Pos + BCD_SHIFT)) |
  401870:	687b      	ldr	r3, [r7, #4]
  401872:	4a2e      	ldr	r2, [pc, #184]	; (40192c <rtc_set_time_alarm+0xf4>)
  401874:	fba2 2303 	umull	r2, r3, r2, r3
  401878:	08db      	lsrs	r3, r3, #3
  40187a:	0518      	lsls	r0, r3, #20
				((ul_hour % BCD_FACTOR) << RTC_TIMR_HOUR_Pos);
  40187c:	6879      	ldr	r1, [r7, #4]
  40187e:	4b2b      	ldr	r3, [pc, #172]	; (40192c <rtc_set_time_alarm+0xf4>)
  401880:	fba3 2301 	umull	r2, r3, r3, r1
  401884:	08da      	lsrs	r2, r3, #3
  401886:	4613      	mov	r3, r2
  401888:	009b      	lsls	r3, r3, #2
  40188a:	4413      	add	r3, r2
  40188c:	005b      	lsls	r3, r3, #1
  40188e:	1aca      	subs	r2, r1, r3
  401890:	0413      	lsls	r3, r2, #16
		ul_alarm |= ((ul_hour / BCD_FACTOR) << (RTC_TIMR_HOUR_Pos + BCD_SHIFT)) |
  401892:	4303      	orrs	r3, r0
  401894:	697a      	ldr	r2, [r7, #20]
  401896:	4313      	orrs	r3, r2
  401898:	617b      	str	r3, [r7, #20]
	}

	/* Minute alarm setting */
	if (ul_minute_flag) {
  40189a:	683b      	ldr	r3, [r7, #0]
  40189c:	2b00      	cmp	r3, #0
  40189e:	d014      	beq.n	4018ca <rtc_set_time_alarm+0x92>
		ul_alarm |= ((ul_minute / BCD_FACTOR) << (RTC_TIMR_MIN_Pos + BCD_SHIFT)) |
  4018a0:	6a3b      	ldr	r3, [r7, #32]
  4018a2:	4a22      	ldr	r2, [pc, #136]	; (40192c <rtc_set_time_alarm+0xf4>)
  4018a4:	fba2 2303 	umull	r2, r3, r2, r3
  4018a8:	08db      	lsrs	r3, r3, #3
  4018aa:	0318      	lsls	r0, r3, #12
				((ul_minute % BCD_FACTOR) << RTC_TIMR_MIN_Pos);
  4018ac:	6a39      	ldr	r1, [r7, #32]
  4018ae:	4b1f      	ldr	r3, [pc, #124]	; (40192c <rtc_set_time_alarm+0xf4>)
  4018b0:	fba3 2301 	umull	r2, r3, r3, r1
  4018b4:	08da      	lsrs	r2, r3, #3
  4018b6:	4613      	mov	r3, r2
  4018b8:	009b      	lsls	r3, r3, #2
  4018ba:	4413      	add	r3, r2
  4018bc:	005b      	lsls	r3, r3, #1
  4018be:	1aca      	subs	r2, r1, r3
  4018c0:	0213      	lsls	r3, r2, #8
		ul_alarm |= ((ul_minute / BCD_FACTOR) << (RTC_TIMR_MIN_Pos + BCD_SHIFT)) |
  4018c2:	4303      	orrs	r3, r0
  4018c4:	697a      	ldr	r2, [r7, #20]
  4018c6:	4313      	orrs	r3, r2
  4018c8:	617b      	str	r3, [r7, #20]
	}

	/* Second alarm setting */
	if (ul_second_flag) {
  4018ca:	6a7b      	ldr	r3, [r7, #36]	; 0x24
  4018cc:	2b00      	cmp	r3, #0
  4018ce:	d014      	beq.n	4018fa <rtc_set_time_alarm+0xc2>
		ul_alarm |= ((ul_second / BCD_FACTOR) << (RTC_TIMR_SEC_Pos + BCD_SHIFT)) |
  4018d0:	6abb      	ldr	r3, [r7, #40]	; 0x28
  4018d2:	4a16      	ldr	r2, [pc, #88]	; (40192c <rtc_set_time_alarm+0xf4>)
  4018d4:	fba2 2303 	umull	r2, r3, r2, r3
  4018d8:	08db      	lsrs	r3, r3, #3
  4018da:	0118      	lsls	r0, r3, #4
				((ul_second % BCD_FACTOR) << RTC_TIMR_SEC_Pos);
  4018dc:	6ab9      	ldr	r1, [r7, #40]	; 0x28
  4018de:	4b13      	ldr	r3, [pc, #76]	; (40192c <rtc_set_time_alarm+0xf4>)
  4018e0:	fba3 2301 	umull	r2, r3, r3, r1
  4018e4:	08da      	lsrs	r2, r3, #3
  4018e6:	4613      	mov	r3, r2
  4018e8:	009b      	lsls	r3, r3, #2
  4018ea:	4413      	add	r3, r2
  4018ec:	005b      	lsls	r3, r3, #1
  4018ee:	1aca      	subs	r2, r1, r3
		ul_alarm |= ((ul_second / BCD_FACTOR) << (RTC_TIMR_SEC_Pos + BCD_SHIFT)) |
  4018f0:	ea40 0302 	orr.w	r3, r0, r2
  4018f4:	697a      	ldr	r2, [r7, #20]
  4018f6:	4313      	orrs	r3, r2
  4018f8:	617b      	str	r3, [r7, #20]
	}

	p_rtc->RTC_TIMALR &= ~(RTC_TIMALR_SECEN | RTC_TIMALR_MINEN | RTC_TIMALR_HOUREN);
  4018fa:	68fb      	ldr	r3, [r7, #12]
  4018fc:	691a      	ldr	r2, [r3, #16]
  4018fe:	4b0c      	ldr	r3, [pc, #48]	; (401930 <rtc_set_time_alarm+0xf8>)
  401900:	4013      	ands	r3, r2
  401902:	68fa      	ldr	r2, [r7, #12]
  401904:	6113      	str	r3, [r2, #16]
	p_rtc->RTC_TIMALR = ul_alarm;
  401906:	68fb      	ldr	r3, [r7, #12]
  401908:	697a      	ldr	r2, [r7, #20]
  40190a:	611a      	str	r2, [r3, #16]
	p_rtc->RTC_TIMALR |= (RTC_TIMALR_SECEN | RTC_TIMALR_MINEN | RTC_TIMALR_HOUREN);
  40190c:	68fb      	ldr	r3, [r7, #12]
  40190e:	691a      	ldr	r2, [r3, #16]
  401910:	4b08      	ldr	r3, [pc, #32]	; (401934 <rtc_set_time_alarm+0xfc>)
  401912:	4313      	orrs	r3, r2
  401914:	68fa      	ldr	r2, [r7, #12]
  401916:	6113      	str	r3, [r2, #16]

	return (p_rtc->RTC_VER & RTC_VER_NVTIMALR);
  401918:	68fb      	ldr	r3, [r7, #12]
  40191a:	6adb      	ldr	r3, [r3, #44]	; 0x2c
  40191c:	f003 0304 	and.w	r3, r3, #4
}
  401920:	4618      	mov	r0, r3
  401922:	371c      	adds	r7, #28
  401924:	46bd      	mov	sp, r7
  401926:	f85d 7b04 	ldr.w	r7, [sp], #4
  40192a:	4770      	bx	lr
  40192c:	cccccccd 	.word	0xcccccccd
  401930:	ff7f7f7f 	.word	0xff7f7f7f
  401934:	00808080 	.word	0x00808080

00401938 <rtc_set_date>:
 *
 * \return 0 for OK, else invalid setting.
 */
uint32_t rtc_set_date(Rtc *p_rtc, uint32_t ul_year, uint32_t ul_month,
		uint32_t ul_day, uint32_t ul_week)
{
  401938:	b480      	push	{r7}
  40193a:	b087      	sub	sp, #28
  40193c:	af00      	add	r7, sp, #0
  40193e:	60f8      	str	r0, [r7, #12]
  401940:	60b9      	str	r1, [r7, #8]
  401942:	607a      	str	r2, [r7, #4]
  401944:	603b      	str	r3, [r7, #0]
	uint32_t ul_date = 0;
  401946:	2300      	movs	r3, #0
  401948:	617b      	str	r3, [r7, #20]

	/* Cent */
	ul_date |= ((ul_year / BCD_FACTOR / BCD_FACTOR / BCD_FACTOR) <<
  40194a:	68bb      	ldr	r3, [r7, #8]
  40194c:	4a46      	ldr	r2, [pc, #280]	; (401a68 <rtc_set_date+0x130>)
  40194e:	fba2 2303 	umull	r2, r3, r2, r3
  401952:	099b      	lsrs	r3, r3, #6
  401954:	0118      	lsls	r0, r3, #4
			(RTC_CALR_CENT_Pos + BCD_SHIFT) |
			((ul_year / BCD_FACTOR / BCD_FACTOR) % BCD_FACTOR) <<  RTC_CALR_CENT_Pos);
  401956:	68bb      	ldr	r3, [r7, #8]
  401958:	4a44      	ldr	r2, [pc, #272]	; (401a6c <rtc_set_date+0x134>)
  40195a:	fba2 2303 	umull	r2, r3, r2, r3
  40195e:	0959      	lsrs	r1, r3, #5
  401960:	4b43      	ldr	r3, [pc, #268]	; (401a70 <rtc_set_date+0x138>)
  401962:	fba3 2301 	umull	r2, r3, r3, r1
  401966:	08da      	lsrs	r2, r3, #3
  401968:	4613      	mov	r3, r2
  40196a:	009b      	lsls	r3, r3, #2
  40196c:	4413      	add	r3, r2
  40196e:	005b      	lsls	r3, r3, #1
  401970:	1aca      	subs	r2, r1, r3
			(RTC_CALR_CENT_Pos + BCD_SHIFT) |
  401972:	ea40 0302 	orr.w	r3, r0, r2
	ul_date |= ((ul_year / BCD_FACTOR / BCD_FACTOR / BCD_FACTOR) <<
  401976:	697a      	ldr	r2, [r7, #20]
  401978:	4313      	orrs	r3, r2
  40197a:	617b      	str	r3, [r7, #20]

	/* Year */
	ul_date |= (((ul_year / BCD_FACTOR) % BCD_FACTOR) <<
  40197c:	68bb      	ldr	r3, [r7, #8]
  40197e:	4a3c      	ldr	r2, [pc, #240]	; (401a70 <rtc_set_date+0x138>)
  401980:	fba2 2303 	umull	r2, r3, r2, r3
  401984:	08d9      	lsrs	r1, r3, #3
  401986:	4b3a      	ldr	r3, [pc, #232]	; (401a70 <rtc_set_date+0x138>)
  401988:	fba3 2301 	umull	r2, r3, r3, r1
  40198c:	08da      	lsrs	r2, r3, #3
  40198e:	4613      	mov	r3, r2
  401990:	009b      	lsls	r3, r3, #2
  401992:	4413      	add	r3, r2
  401994:	005b      	lsls	r3, r3, #1
  401996:	1aca      	subs	r2, r1, r3
  401998:	0310      	lsls	r0, r2, #12
			(RTC_CALR_YEAR_Pos + BCD_SHIFT)) |
			((ul_year % BCD_FACTOR) << RTC_CALR_YEAR_Pos);
  40199a:	68b9      	ldr	r1, [r7, #8]
  40199c:	4b34      	ldr	r3, [pc, #208]	; (401a70 <rtc_set_date+0x138>)
  40199e:	fba3 2301 	umull	r2, r3, r3, r1
  4019a2:	08da      	lsrs	r2, r3, #3
  4019a4:	4613      	mov	r3, r2
  4019a6:	009b      	lsls	r3, r3, #2
  4019a8:	4413      	add	r3, r2
  4019aa:	005b      	lsls	r3, r3, #1
  4019ac:	1aca      	subs	r2, r1, r3
  4019ae:	0213      	lsls	r3, r2, #8
			(RTC_CALR_YEAR_Pos + BCD_SHIFT)) |
  4019b0:	4303      	orrs	r3, r0
	ul_date |= (((ul_year / BCD_FACTOR) % BCD_FACTOR) <<
  4019b2:	697a      	ldr	r2, [r7, #20]
  4019b4:	4313      	orrs	r3, r2
  4019b6:	617b      	str	r3, [r7, #20]

	/* Month */
	ul_date |= ((ul_month / BCD_FACTOR) << (RTC_CALR_MONTH_Pos + BCD_SHIFT)) |
  4019b8:	687b      	ldr	r3, [r7, #4]
  4019ba:	4a2d      	ldr	r2, [pc, #180]	; (401a70 <rtc_set_date+0x138>)
  4019bc:	fba2 2303 	umull	r2, r3, r2, r3
  4019c0:	08db      	lsrs	r3, r3, #3
  4019c2:	0518      	lsls	r0, r3, #20
			((ul_month % BCD_FACTOR) << RTC_CALR_MONTH_Pos);
  4019c4:	6879      	ldr	r1, [r7, #4]
  4019c6:	4b2a      	ldr	r3, [pc, #168]	; (401a70 <rtc_set_date+0x138>)
  4019c8:	fba3 2301 	umull	r2, r3, r3, r1
  4019cc:	08da      	lsrs	r2, r3, #3
  4019ce:	4613      	mov	r3, r2
  4019d0:	009b      	lsls	r3, r3, #2
  4019d2:	4413      	add	r3, r2
  4019d4:	005b      	lsls	r3, r3, #1
  4019d6:	1aca      	subs	r2, r1, r3
  4019d8:	0413      	lsls	r3, r2, #16
	ul_date |= ((ul_month / BCD_FACTOR) << (RTC_CALR_MONTH_Pos + BCD_SHIFT)) |
  4019da:	4303      	orrs	r3, r0
  4019dc:	697a      	ldr	r2, [r7, #20]
  4019de:	4313      	orrs	r3, r2
  4019e0:	617b      	str	r3, [r7, #20]

	/* Week */
	ul_date |= (ul_week << RTC_CALR_DAY_Pos);
  4019e2:	6a3b      	ldr	r3, [r7, #32]
  4019e4:	055b      	lsls	r3, r3, #21
  4019e6:	697a      	ldr	r2, [r7, #20]
  4019e8:	4313      	orrs	r3, r2
  4019ea:	617b      	str	r3, [r7, #20]

	/* Day */
	ul_date |= ((ul_day / BCD_FACTOR) << (RTC_CALR_DATE_Pos + BCD_SHIFT)) |
  4019ec:	683b      	ldr	r3, [r7, #0]
  4019ee:	4a20      	ldr	r2, [pc, #128]	; (401a70 <rtc_set_date+0x138>)
  4019f0:	fba2 2303 	umull	r2, r3, r2, r3
  4019f4:	08db      	lsrs	r3, r3, #3
  4019f6:	0718      	lsls	r0, r3, #28
			((ul_day % BCD_FACTOR) << RTC_CALR_DATE_Pos);
  4019f8:	6839      	ldr	r1, [r7, #0]
  4019fa:	4b1d      	ldr	r3, [pc, #116]	; (401a70 <rtc_set_date+0x138>)
  4019fc:	fba3 2301 	umull	r2, r3, r3, r1
  401a00:	08da      	lsrs	r2, r3, #3
  401a02:	4613      	mov	r3, r2
  401a04:	009b      	lsls	r3, r3, #2
  401a06:	4413      	add	r3, r2
  401a08:	005b      	lsls	r3, r3, #1
  401a0a:	1aca      	subs	r2, r1, r3
  401a0c:	0613      	lsls	r3, r2, #24
	ul_date |= ((ul_day / BCD_FACTOR) << (RTC_CALR_DATE_Pos + BCD_SHIFT)) |
  401a0e:	4303      	orrs	r3, r0
  401a10:	697a      	ldr	r2, [r7, #20]
  401a12:	4313      	orrs	r3, r2
  401a14:	617b      	str	r3, [r7, #20]

	/* Update calendar register. Check the spec for the flow. */
	p_rtc->RTC_CR |= RTC_CR_UPDCAL;
  401a16:	68fb      	ldr	r3, [r7, #12]
  401a18:	681b      	ldr	r3, [r3, #0]
  401a1a:	f043 0202 	orr.w	r2, r3, #2
  401a1e:	68fb      	ldr	r3, [r7, #12]
  401a20:	601a      	str	r2, [r3, #0]
	while ((p_rtc->RTC_SR & RTC_SR_ACKUPD) != RTC_SR_ACKUPD);
  401a22:	bf00      	nop
  401a24:	68fb      	ldr	r3, [r7, #12]
  401a26:	699b      	ldr	r3, [r3, #24]
  401a28:	f003 0301 	and.w	r3, r3, #1
  401a2c:	2b01      	cmp	r3, #1
  401a2e:	d1f9      	bne.n	401a24 <rtc_set_date+0xec>

	p_rtc->RTC_SCCR = RTC_SCCR_ACKCLR;
  401a30:	68fb      	ldr	r3, [r7, #12]
  401a32:	2201      	movs	r2, #1
  401a34:	61da      	str	r2, [r3, #28]
	p_rtc->RTC_CALR = ul_date;
  401a36:	68fb      	ldr	r3, [r7, #12]
  401a38:	697a      	ldr	r2, [r7, #20]
  401a3a:	60da      	str	r2, [r3, #12]
	p_rtc->RTC_CR &= (~RTC_CR_UPDCAL);
  401a3c:	68fb      	ldr	r3, [r7, #12]
  401a3e:	681b      	ldr	r3, [r3, #0]
  401a40:	f023 0202 	bic.w	r2, r3, #2
  401a44:	68fb      	ldr	r3, [r7, #12]
  401a46:	601a      	str	r2, [r3, #0]
	/* Clear SECENV in SCCR */
	p_rtc->RTC_SCCR |= RTC_SCCR_SECCLR;
  401a48:	68fb      	ldr	r3, [r7, #12]
  401a4a:	69db      	ldr	r3, [r3, #28]
  401a4c:	f043 0204 	orr.w	r2, r3, #4
  401a50:	68fb      	ldr	r3, [r7, #12]
  401a52:	61da      	str	r2, [r3, #28]

	return (p_rtc->RTC_VER & RTC_VER_NVCAL);
  401a54:	68fb      	ldr	r3, [r7, #12]
  401a56:	6adb      	ldr	r3, [r3, #44]	; 0x2c
  401a58:	f003 0302 	and.w	r3, r3, #2
}
  401a5c:	4618      	mov	r0, r3
  401a5e:	371c      	adds	r7, #28
  401a60:	46bd      	mov	sp, r7
  401a62:	f85d 7b04 	ldr.w	r7, [sp], #4
  401a66:	4770      	bx	lr
  401a68:	10624dd3 	.word	0x10624dd3
  401a6c:	51eb851f 	.word	0x51eb851f
  401a70:	cccccccd 	.word	0xcccccccd

00401a74 <rtc_get_status>:
 * \param p_rtc Pointer to an RTC instance.
 *
 * \return Status of the RTC.
 */
uint32_t rtc_get_status(Rtc *p_rtc)
{
  401a74:	b480      	push	{r7}
  401a76:	b083      	sub	sp, #12
  401a78:	af00      	add	r7, sp, #0
  401a7a:	6078      	str	r0, [r7, #4]
	return (p_rtc->RTC_SR);
  401a7c:	687b      	ldr	r3, [r7, #4]
  401a7e:	699b      	ldr	r3, [r3, #24]
}
  401a80:	4618      	mov	r0, r3
  401a82:	370c      	adds	r7, #12
  401a84:	46bd      	mov	sp, r7
  401a86:	f85d 7b04 	ldr.w	r7, [sp], #4
  401a8a:	4770      	bx	lr

00401a8c <rtc_clear_status>:
 *
 * \param p_rtc Pointer to an RTC instance.
 * \param ul_clear Some flag bits which will be cleared.
 */
void rtc_clear_status(Rtc *p_rtc, uint32_t ul_clear)
{
  401a8c:	b480      	push	{r7}
  401a8e:	b083      	sub	sp, #12
  401a90:	af00      	add	r7, sp, #0
  401a92:	6078      	str	r0, [r7, #4]
  401a94:	6039      	str	r1, [r7, #0]
	p_rtc->RTC_SCCR = ul_clear;
  401a96:	687b      	ldr	r3, [r7, #4]
  401a98:	683a      	ldr	r2, [r7, #0]
  401a9a:	61da      	str	r2, [r3, #28]
}
  401a9c:	bf00      	nop
  401a9e:	370c      	adds	r7, #12
  401aa0:	46bd      	mov	sp, r7
  401aa2:	f85d 7b04 	ldr.w	r7, [sp], #4
  401aa6:	4770      	bx	lr

00401aa8 <supc_set_wakeup_mode>:
 *
 * \param p_supc Pointer to a SUPC instance.
 * \param ul_mode Bitmask of wake up mode (please refer to datasheet for more details).
 */
void supc_set_wakeup_mode(Supc *p_supc, uint32_t ul_mode)
{
  401aa8:	b480      	push	{r7}
  401aaa:	b083      	sub	sp, #12
  401aac:	af00      	add	r7, sp, #0
  401aae:	6078      	str	r0, [r7, #4]
  401ab0:	6039      	str	r1, [r7, #0]
	p_supc->SUPC_WUMR = ul_mode;
  401ab2:	687b      	ldr	r3, [r7, #4]
  401ab4:	683a      	ldr	r2, [r7, #0]
  401ab6:	60da      	str	r2, [r3, #12]
}
  401ab8:	bf00      	nop
  401aba:	370c      	adds	r7, #12
  401abc:	46bd      	mov	sp, r7
  401abe:	f85d 7b04 	ldr.w	r7, [sp], #4
  401ac2:	4770      	bx	lr

00401ac4 <tc_init>:
 */
void tc_init(
		Tc *p_tc,
		uint32_t ul_channel,
		uint32_t ul_mode)
{
  401ac4:	b480      	push	{r7}
  401ac6:	b087      	sub	sp, #28
  401ac8:	af00      	add	r7, sp, #0
  401aca:	60f8      	str	r0, [r7, #12]
  401acc:	60b9      	str	r1, [r7, #8]
  401ace:	607a      	str	r2, [r7, #4]

	/* Validate inputs. */
	Assert(p_tc);
	Assert(ul_channel <
			(sizeof(p_tc->TC_CHANNEL) / sizeof(p_tc->TC_CHANNEL[0])));
	tc_channel = p_tc->TC_CHANNEL + ul_channel;
  401ad0:	68fa      	ldr	r2, [r7, #12]
  401ad2:	68bb      	ldr	r3, [r7, #8]
  401ad4:	019b      	lsls	r3, r3, #6
  401ad6:	4413      	add	r3, r2
  401ad8:	617b      	str	r3, [r7, #20]

	/*  Disable TC clock. */
	tc_channel->TC_CCR = TC_CCR_CLKDIS;
  401ada:	697b      	ldr	r3, [r7, #20]
  401adc:	2202      	movs	r2, #2
  401ade:	601a      	str	r2, [r3, #0]

	/*  Disable interrupts. */
	tc_channel->TC_IDR = 0xFFFFFFFF;
  401ae0:	697b      	ldr	r3, [r7, #20]
  401ae2:	f04f 32ff 	mov.w	r2, #4294967295
  401ae6:	629a      	str	r2, [r3, #40]	; 0x28

	/*  Clear status register. */
	tc_channel->TC_SR;
  401ae8:	697b      	ldr	r3, [r7, #20]
  401aea:	6a1b      	ldr	r3, [r3, #32]

	/*  Set mode. */
	tc_channel->TC_CMR = ul_mode;
  401aec:	697b      	ldr	r3, [r7, #20]
  401aee:	687a      	ldr	r2, [r7, #4]
  401af0:	605a      	str	r2, [r3, #4]
}
  401af2:	bf00      	nop
  401af4:	371c      	adds	r7, #28
  401af6:	46bd      	mov	sp, r7
  401af8:	f85d 7b04 	ldr.w	r7, [sp], #4
  401afc:	4770      	bx	lr

00401afe <tc_start>:
 * \param[in] ul_channel Channel to configure
 */
void tc_start(
		Tc *p_tc,
		uint32_t ul_channel)
{
  401afe:	b480      	push	{r7}
  401b00:	b083      	sub	sp, #12
  401b02:	af00      	add	r7, sp, #0
  401b04:	6078      	str	r0, [r7, #4]
  401b06:	6039      	str	r1, [r7, #0]
	/* Validate inputs. */
	Assert(p_tc);
	Assert(ul_channel <
			(sizeof(p_tc->TC_CHANNEL) / sizeof(p_tc->TC_CHANNEL[0])));

	p_tc->TC_CHANNEL[ul_channel].TC_CCR = TC_CCR_CLKEN | TC_CCR_SWTRG;
  401b08:	687a      	ldr	r2, [r7, #4]
  401b0a:	683b      	ldr	r3, [r7, #0]
  401b0c:	019b      	lsls	r3, r3, #6
  401b0e:	4413      	add	r3, r2
  401b10:	2205      	movs	r2, #5
  401b12:	601a      	str	r2, [r3, #0]
}
  401b14:	bf00      	nop
  401b16:	370c      	adds	r7, #12
  401b18:	46bd      	mov	sp, r7
  401b1a:	f85d 7b04 	ldr.w	r7, [sp], #4
  401b1e:	4770      	bx	lr

00401b20 <tc_write_rc>:
 */
void tc_write_rc(
		Tc *p_tc,
		uint32_t ul_channel,
		uint32_t ul_value)
{
  401b20:	b480      	push	{r7}
  401b22:	b085      	sub	sp, #20
  401b24:	af00      	add	r7, sp, #0
  401b26:	60f8      	str	r0, [r7, #12]
  401b28:	60b9      	str	r1, [r7, #8]
  401b2a:	607a      	str	r2, [r7, #4]
	/* Validate inputs. */
	Assert(p_tc);
	Assert(ul_channel <
			(sizeof(p_tc->TC_CHANNEL) / sizeof(p_tc->TC_CHANNEL[0])));

	p_tc->TC_CHANNEL[ul_channel].TC_RC = ul_value;
  401b2c:	68fa      	ldr	r2, [r7, #12]
  401b2e:	68bb      	ldr	r3, [r7, #8]
  401b30:	019b      	lsls	r3, r3, #6
  401b32:	4413      	add	r3, r2
  401b34:	331c      	adds	r3, #28
  401b36:	687a      	ldr	r2, [r7, #4]
  401b38:	601a      	str	r2, [r3, #0]
}
  401b3a:	bf00      	nop
  401b3c:	3714      	adds	r7, #20
  401b3e:	46bd      	mov	sp, r7
  401b40:	f85d 7b04 	ldr.w	r7, [sp], #4
  401b44:	4770      	bx	lr

00401b46 <tc_enable_interrupt>:
 */
void tc_enable_interrupt(
		Tc *p_tc,
		uint32_t ul_channel,
		uint32_t ul_sources)
{
  401b46:	b480      	push	{r7}
  401b48:	b087      	sub	sp, #28
  401b4a:	af00      	add	r7, sp, #0
  401b4c:	60f8      	str	r0, [r7, #12]
  401b4e:	60b9      	str	r1, [r7, #8]
  401b50:	607a      	str	r2, [r7, #4]

	/* Validate inputs. */
	Assert(p_tc);
	Assert(ul_channel <
			(sizeof(p_tc->TC_CHANNEL) / sizeof(p_tc->TC_CHANNEL[0])));
	tc_channel = p_tc->TC_CHANNEL + ul_channel;
  401b52:	68fa      	ldr	r2, [r7, #12]
  401b54:	68bb      	ldr	r3, [r7, #8]
  401b56:	019b      	lsls	r3, r3, #6
  401b58:	4413      	add	r3, r2
  401b5a:	617b      	str	r3, [r7, #20]
	tc_channel->TC_IER = ul_sources;
  401b5c:	697b      	ldr	r3, [r7, #20]
  401b5e:	687a      	ldr	r2, [r7, #4]
  401b60:	625a      	str	r2, [r3, #36]	; 0x24
}
  401b62:	bf00      	nop
  401b64:	371c      	adds	r7, #28
  401b66:	46bd      	mov	sp, r7
  401b68:	f85d 7b04 	ldr.w	r7, [sp], #4
  401b6c:	4770      	bx	lr

00401b6e <tc_get_status>:
 * \return The current TC status.
 */
uint32_t tc_get_status(
		Tc *p_tc,
		uint32_t ul_channel)
{
  401b6e:	b480      	push	{r7}
  401b70:	b085      	sub	sp, #20
  401b72:	af00      	add	r7, sp, #0
  401b74:	6078      	str	r0, [r7, #4]
  401b76:	6039      	str	r1, [r7, #0]
	/* Validate inputs. */
	Assert(p_tc);
	Assert(ul_channel <
			(sizeof(p_tc->TC_CHANNEL) / sizeof(p_tc->TC_CHANNEL[0])));
			
	tc_channel = p_tc->TC_CHANNEL + ul_channel;
  401b78:	687a      	ldr	r2, [r7, #4]
  401b7a:	683b      	ldr	r3, [r7, #0]
  401b7c:	019b      	lsls	r3, r3, #6
  401b7e:	4413      	add	r3, r2
  401b80:	60fb      	str	r3, [r7, #12]
	return tc_channel->TC_SR;
  401b82:	68fb      	ldr	r3, [r7, #12]
  401b84:	6a1b      	ldr	r3, [r3, #32]
}
  401b86:	4618      	mov	r0, r3
  401b88:	3714      	adds	r7, #20
  401b8a:	46bd      	mov	sp, r7
  401b8c:	f85d 7b04 	ldr.w	r7, [sp], #4
  401b90:	4770      	bx	lr

00401b92 <tc_find_mck_divisor>:
		uint32_t ul_freq,
		uint32_t ul_mck,
		uint32_t *p_uldiv,
		uint32_t *p_ultcclks,
		uint32_t ul_boardmck)
{
  401b92:	b480      	push	{r7}
  401b94:	b08d      	sub	sp, #52	; 0x34
  401b96:	af00      	add	r7, sp, #0
  401b98:	60f8      	str	r0, [r7, #12]
  401b9a:	60b9      	str	r1, [r7, #8]
  401b9c:	607a      	str	r2, [r7, #4]
  401b9e:	603b      	str	r3, [r7, #0]
	const uint32_t divisors[5] = { 2, 8, 32, 128,
  401ba0:	2302      	movs	r3, #2
  401ba2:	613b      	str	r3, [r7, #16]
  401ba4:	2308      	movs	r3, #8
  401ba6:	617b      	str	r3, [r7, #20]
  401ba8:	2320      	movs	r3, #32
  401baa:	61bb      	str	r3, [r7, #24]
  401bac:	2380      	movs	r3, #128	; 0x80
  401bae:	61fb      	str	r3, [r7, #28]
			ul_boardmck / FREQ_SLOW_CLOCK_EXT };
  401bb0:	6bbb      	ldr	r3, [r7, #56]	; 0x38
  401bb2:	0bdb      	lsrs	r3, r3, #15
	const uint32_t divisors[5] = { 2, 8, 32, 128,
  401bb4:	623b      	str	r3, [r7, #32]
	uint32_t ul_index;
	uint32_t ul_high, ul_low;

	/*  Satisfy frequency bound. */
	for (ul_index = 0;
  401bb6:	2300      	movs	r3, #0
  401bb8:	62fb      	str	r3, [r7, #44]	; 0x2c
  401bba:	e01a      	b.n	401bf2 <tc_find_mck_divisor+0x60>
			ul_index < (sizeof(divisors) / sizeof(divisors[0]));
			ul_index++) {
		ul_high = ul_mck / divisors[ul_index];
  401bbc:	6afb      	ldr	r3, [r7, #44]	; 0x2c
  401bbe:	009b      	lsls	r3, r3, #2
  401bc0:	f107 0230 	add.w	r2, r7, #48	; 0x30
  401bc4:	4413      	add	r3, r2
  401bc6:	f853 3c20 	ldr.w	r3, [r3, #-32]
  401bca:	68ba      	ldr	r2, [r7, #8]
  401bcc:	fbb2 f3f3 	udiv	r3, r2, r3
  401bd0:	62bb      	str	r3, [r7, #40]	; 0x28
		ul_low  = ul_high / TC_DIV_FACTOR;
  401bd2:	6abb      	ldr	r3, [r7, #40]	; 0x28
  401bd4:	0c1b      	lsrs	r3, r3, #16
  401bd6:	627b      	str	r3, [r7, #36]	; 0x24
		if (ul_freq > ul_high) {
  401bd8:	68fa      	ldr	r2, [r7, #12]
  401bda:	6abb      	ldr	r3, [r7, #40]	; 0x28
  401bdc:	429a      	cmp	r2, r3
  401bde:	d901      	bls.n	401be4 <tc_find_mck_divisor+0x52>
			return 0;
  401be0:	2300      	movs	r3, #0
  401be2:	e023      	b.n	401c2c <tc_find_mck_divisor+0x9a>
		} else if (ul_freq >= ul_low) {
  401be4:	68fa      	ldr	r2, [r7, #12]
  401be6:	6a7b      	ldr	r3, [r7, #36]	; 0x24
  401be8:	429a      	cmp	r2, r3
  401bea:	d206      	bcs.n	401bfa <tc_find_mck_divisor+0x68>
			ul_index++) {
  401bec:	6afb      	ldr	r3, [r7, #44]	; 0x2c
  401bee:	3301      	adds	r3, #1
  401bf0:	62fb      	str	r3, [r7, #44]	; 0x2c
	for (ul_index = 0;
  401bf2:	6afb      	ldr	r3, [r7, #44]	; 0x2c
  401bf4:	2b04      	cmp	r3, #4
  401bf6:	d9e1      	bls.n	401bbc <tc_find_mck_divisor+0x2a>
  401bf8:	e000      	b.n	401bfc <tc_find_mck_divisor+0x6a>
			break;
  401bfa:	bf00      	nop
		}
	}
	if (ul_index >= (sizeof(divisors) / sizeof(divisors[0]))) {
  401bfc:	6afb      	ldr	r3, [r7, #44]	; 0x2c
  401bfe:	2b04      	cmp	r3, #4
  401c00:	d901      	bls.n	401c06 <tc_find_mck_divisor+0x74>
		return 0;
  401c02:	2300      	movs	r3, #0
  401c04:	e012      	b.n	401c2c <tc_find_mck_divisor+0x9a>
	}

	/*  Store results. */
	if (p_uldiv) {
  401c06:	687b      	ldr	r3, [r7, #4]
  401c08:	2b00      	cmp	r3, #0
  401c0a:	d008      	beq.n	401c1e <tc_find_mck_divisor+0x8c>
		*p_uldiv = divisors[ul_index];
  401c0c:	6afb      	ldr	r3, [r7, #44]	; 0x2c
  401c0e:	009b      	lsls	r3, r3, #2
  401c10:	f107 0230 	add.w	r2, r7, #48	; 0x30
  401c14:	4413      	add	r3, r2
  401c16:	f853 2c20 	ldr.w	r2, [r3, #-32]
  401c1a:	687b      	ldr	r3, [r7, #4]
  401c1c:	601a      	str	r2, [r3, #0]
	}

	if (p_ultcclks) {
  401c1e:	683b      	ldr	r3, [r7, #0]
  401c20:	2b00      	cmp	r3, #0
  401c22:	d002      	beq.n	401c2a <tc_find_mck_divisor+0x98>
		*p_ultcclks = ul_index;
  401c24:	683b      	ldr	r3, [r7, #0]
  401c26:	6afa      	ldr	r2, [r7, #44]	; 0x2c
  401c28:	601a      	str	r2, [r3, #0]
	}

	return 1;
  401c2a:	2301      	movs	r3, #1
}
  401c2c:	4618      	mov	r0, r3
  401c2e:	3734      	adds	r7, #52	; 0x34
  401c30:	46bd      	mov	sp, r7
  401c32:	f85d 7b04 	ldr.w	r7, [sp], #4
  401c36:	4770      	bx	lr

00401c38 <uart_init>:
 *
 * \retval 0 Success.
 * \retval 1 Bad baud rate generator value.
 */
uint32_t uart_init(Uart *p_uart, const sam_uart_opt_t *p_uart_opt)
{
  401c38:	b480      	push	{r7}
  401c3a:	b085      	sub	sp, #20
  401c3c:	af00      	add	r7, sp, #0
  401c3e:	6078      	str	r0, [r7, #4]
  401c40:	6039      	str	r1, [r7, #0]
	uint32_t cd = 0;
  401c42:	2300      	movs	r3, #0
  401c44:	60fb      	str	r3, [r7, #12]

	/* Reset and disable receiver & transmitter */
	p_uart->UART_CR = UART_CR_RSTRX | UART_CR_RSTTX
  401c46:	687b      	ldr	r3, [r7, #4]
  401c48:	22ac      	movs	r2, #172	; 0xac
  401c4a:	601a      	str	r2, [r3, #0]
			| UART_CR_RXDIS | UART_CR_TXDIS;

	/* Check and configure baudrate */
	/* Asynchronous, no oversampling */
	cd = (p_uart_opt->ul_mck / p_uart_opt->ul_baudrate) / UART_MCK_DIV;
  401c4c:	683b      	ldr	r3, [r7, #0]
  401c4e:	681a      	ldr	r2, [r3, #0]
  401c50:	683b      	ldr	r3, [r7, #0]
  401c52:	685b      	ldr	r3, [r3, #4]
  401c54:	fbb2 f3f3 	udiv	r3, r2, r3
  401c58:	091b      	lsrs	r3, r3, #4
  401c5a:	60fb      	str	r3, [r7, #12]
	if (cd < UART_MCK_DIV_MIN_FACTOR || cd > UART_MCK_DIV_MAX_FACTOR)
  401c5c:	68fb      	ldr	r3, [r7, #12]
  401c5e:	2b00      	cmp	r3, #0
  401c60:	d003      	beq.n	401c6a <uart_init+0x32>
  401c62:	68fb      	ldr	r3, [r7, #12]
  401c64:	f5b3 3f80 	cmp.w	r3, #65536	; 0x10000
  401c68:	d301      	bcc.n	401c6e <uart_init+0x36>
		return 1;
  401c6a:	2301      	movs	r3, #1
  401c6c:	e00a      	b.n	401c84 <uart_init+0x4c>

	p_uart->UART_BRGR = cd;
  401c6e:	687b      	ldr	r3, [r7, #4]
  401c70:	68fa      	ldr	r2, [r7, #12]
  401c72:	621a      	str	r2, [r3, #32]
	/* Configure mode */
	p_uart->UART_MR = p_uart_opt->ul_mode;
  401c74:	683b      	ldr	r3, [r7, #0]
  401c76:	689a      	ldr	r2, [r3, #8]
  401c78:	687b      	ldr	r3, [r7, #4]
  401c7a:	605a      	str	r2, [r3, #4]
	/* Disable PDC channel */
	p_uart->UART_PTCR = UART_PTCR_RXTDIS | UART_PTCR_TXTDIS;
#endif

	/* Enable receiver and transmitter */
	p_uart->UART_CR = UART_CR_RXEN | UART_CR_TXEN;
  401c7c:	687b      	ldr	r3, [r7, #4]
  401c7e:	2250      	movs	r2, #80	; 0x50
  401c80:	601a      	str	r2, [r3, #0]

	return 0;
  401c82:	2300      	movs	r3, #0
}
  401c84:	4618      	mov	r0, r3
  401c86:	3714      	adds	r7, #20
  401c88:	46bd      	mov	sp, r7
  401c8a:	f85d 7b04 	ldr.w	r7, [sp], #4
  401c8e:	4770      	bx	lr

00401c90 <uart_write>:
 *
 * \retval 0 Success.
 * \retval 1 I/O Failure, UART is not ready.
 */
uint32_t uart_write(Uart *p_uart, const uint8_t uc_data)
{
  401c90:	b480      	push	{r7}
  401c92:	b083      	sub	sp, #12
  401c94:	af00      	add	r7, sp, #0
  401c96:	6078      	str	r0, [r7, #4]
  401c98:	460b      	mov	r3, r1
  401c9a:	70fb      	strb	r3, [r7, #3]
	/* Check if the transmitter is ready */
	if (!(p_uart->UART_SR & UART_SR_TXRDY))
  401c9c:	687b      	ldr	r3, [r7, #4]
  401c9e:	695b      	ldr	r3, [r3, #20]
  401ca0:	f003 0302 	and.w	r3, r3, #2
  401ca4:	2b00      	cmp	r3, #0
  401ca6:	d101      	bne.n	401cac <uart_write+0x1c>
		return 1;
  401ca8:	2301      	movs	r3, #1
  401caa:	e003      	b.n	401cb4 <uart_write+0x24>

	/* Send character */
	p_uart->UART_THR = uc_data;
  401cac:	78fa      	ldrb	r2, [r7, #3]
  401cae:	687b      	ldr	r3, [r7, #4]
  401cb0:	61da      	str	r2, [r3, #28]
	return 0;
  401cb2:	2300      	movs	r3, #0
}
  401cb4:	4618      	mov	r0, r3
  401cb6:	370c      	adds	r7, #12
  401cb8:	46bd      	mov	sp, r7
  401cba:	f85d 7b04 	ldr.w	r7, [sp], #4
  401cbe:	4770      	bx	lr

00401cc0 <uart_read>:
 *
 * \retval 0 Success.
 * \retval 1 I/O Failure, UART is not ready.
 */
uint32_t uart_read(Uart *p_uart, uint8_t *puc_data)
{
  401cc0:	b480      	push	{r7}
  401cc2:	b083      	sub	sp, #12
  401cc4:	af00      	add	r7, sp, #0
  401cc6:	6078      	str	r0, [r7, #4]
  401cc8:	6039      	str	r1, [r7, #0]
	/* Check if the receiver is ready */
	if ((p_uart->UART_SR & UART_SR_RXRDY) == 0)
  401cca:	687b      	ldr	r3, [r7, #4]
  401ccc:	695b      	ldr	r3, [r3, #20]
  401cce:	f003 0301 	and.w	r3, r3, #1
  401cd2:	2b00      	cmp	r3, #0
  401cd4:	d101      	bne.n	401cda <uart_read+0x1a>
		return 1;
  401cd6:	2301      	movs	r3, #1
  401cd8:	e005      	b.n	401ce6 <uart_read+0x26>

	/* Read character */
	*puc_data = (uint8_t) p_uart->UART_RHR;
  401cda:	687b      	ldr	r3, [r7, #4]
  401cdc:	699b      	ldr	r3, [r3, #24]
  401cde:	b2da      	uxtb	r2, r3
  401ce0:	683b      	ldr	r3, [r7, #0]
  401ce2:	701a      	strb	r2, [r3, #0]
	return 0;
  401ce4:	2300      	movs	r3, #0
}
  401ce6:	4618      	mov	r0, r3
  401ce8:	370c      	adds	r7, #12
  401cea:	46bd      	mov	sp, r7
  401cec:	f85d 7b04 	ldr.w	r7, [sp], #4
  401cf0:	4770      	bx	lr

00401cf2 <usart_set_async_baudrate>:
 * \retval 1 Baud rate set point is out of range for the given input clock
 * frequency.
 */
uint32_t usart_set_async_baudrate(Usart *p_usart,
		uint32_t baudrate, uint32_t ul_mck)
{
  401cf2:	b480      	push	{r7}
  401cf4:	b089      	sub	sp, #36	; 0x24
  401cf6:	af00      	add	r7, sp, #0
  401cf8:	60f8      	str	r0, [r7, #12]
  401cfa:	60b9      	str	r1, [r7, #8]
  401cfc:	607a      	str	r2, [r7, #4]
	uint32_t cd_fp;
	uint32_t cd;
	uint32_t fp;

	/* Calculate the receiver sampling divide of baudrate clock. */
	if (ul_mck >= HIGH_FRQ_SAMPLE_DIV * baudrate) {
  401cfe:	68bb      	ldr	r3, [r7, #8]
  401d00:	011a      	lsls	r2, r3, #4
  401d02:	687b      	ldr	r3, [r7, #4]
  401d04:	429a      	cmp	r2, r3
  401d06:	d802      	bhi.n	401d0e <usart_set_async_baudrate+0x1c>
		over = HIGH_FRQ_SAMPLE_DIV;
  401d08:	2310      	movs	r3, #16
  401d0a:	61fb      	str	r3, [r7, #28]
  401d0c:	e001      	b.n	401d12 <usart_set_async_baudrate+0x20>
	} else {
		over = LOW_FRQ_SAMPLE_DIV;
  401d0e:	2308      	movs	r3, #8
  401d10:	61fb      	str	r3, [r7, #28]
	}

	/* Calculate clock divider according to the fraction calculated formula. */
	cd_fp = (8 * ul_mck + (over * baudrate) / 2) / (over * baudrate);
  401d12:	687b      	ldr	r3, [r7, #4]
  401d14:	00da      	lsls	r2, r3, #3
  401d16:	69fb      	ldr	r3, [r7, #28]
  401d18:	68b9      	ldr	r1, [r7, #8]
  401d1a:	fb01 f303 	mul.w	r3, r1, r3
  401d1e:	085b      	lsrs	r3, r3, #1
  401d20:	441a      	add	r2, r3
  401d22:	69fb      	ldr	r3, [r7, #28]
  401d24:	68b9      	ldr	r1, [r7, #8]
  401d26:	fb01 f303 	mul.w	r3, r1, r3
  401d2a:	fbb2 f3f3 	udiv	r3, r2, r3
  401d2e:	61bb      	str	r3, [r7, #24]
	cd = cd_fp >> 3;
  401d30:	69bb      	ldr	r3, [r7, #24]
  401d32:	08db      	lsrs	r3, r3, #3
  401d34:	617b      	str	r3, [r7, #20]
	fp = cd_fp & 0x07;
  401d36:	69bb      	ldr	r3, [r7, #24]
  401d38:	f003 0307 	and.w	r3, r3, #7
  401d3c:	613b      	str	r3, [r7, #16]
	if (cd < MIN_CD_VALUE || cd > MAX_CD_VALUE) {
  401d3e:	697b      	ldr	r3, [r7, #20]
  401d40:	2b00      	cmp	r3, #0
  401d42:	d003      	beq.n	401d4c <usart_set_async_baudrate+0x5a>
  401d44:	697b      	ldr	r3, [r7, #20]
  401d46:	f5b3 3f80 	cmp.w	r3, #65536	; 0x10000
  401d4a:	d301      	bcc.n	401d50 <usart_set_async_baudrate+0x5e>
		return 1;
  401d4c:	2301      	movs	r3, #1
  401d4e:	e00f      	b.n	401d70 <usart_set_async_baudrate+0x7e>
	}

	/* Configure the OVER bit in MR register. */
	if (over == 8) {
  401d50:	69fb      	ldr	r3, [r7, #28]
  401d52:	2b08      	cmp	r3, #8
  401d54:	d105      	bne.n	401d62 <usart_set_async_baudrate+0x70>
		p_usart->US_MR |= US_MR_OVER;
  401d56:	68fb      	ldr	r3, [r7, #12]
  401d58:	685b      	ldr	r3, [r3, #4]
  401d5a:	f443 2200 	orr.w	r2, r3, #524288	; 0x80000
  401d5e:	68fb      	ldr	r3, [r7, #12]
  401d60:	605a      	str	r2, [r3, #4]
	}

	/* Configure the baudrate generate register. */
	p_usart->US_BRGR = (cd << US_BRGR_CD_Pos) | (fp << US_BRGR_FP_Pos);
  401d62:	693b      	ldr	r3, [r7, #16]
  401d64:	041a      	lsls	r2, r3, #16
  401d66:	697b      	ldr	r3, [r7, #20]
  401d68:	431a      	orrs	r2, r3
  401d6a:	68fb      	ldr	r3, [r7, #12]
  401d6c:	621a      	str	r2, [r3, #32]

	return 0;
  401d6e:	2300      	movs	r3, #0
}
  401d70:	4618      	mov	r0, r3
  401d72:	3724      	adds	r7, #36	; 0x24
  401d74:	46bd      	mov	sp, r7
  401d76:	f85d 7b04 	ldr.w	r7, [sp], #4
  401d7a:	4770      	bx	lr

00401d7c <usart_reset>:
 * \brief Reset the USART and disable TX and RX.
 *
 * \param p_usart Pointer to a USART instance.
 */
void usart_reset(Usart *p_usart)
{
  401d7c:	b580      	push	{r7, lr}
  401d7e:	b082      	sub	sp, #8
  401d80:	af00      	add	r7, sp, #0
  401d82:	6078      	str	r0, [r7, #4]
	/* Disable the Write Protect. */
	usart_disable_writeprotect(p_usart);
  401d84:	6878      	ldr	r0, [r7, #4]
  401d86:	4b0d      	ldr	r3, [pc, #52]	; (401dbc <usart_reset+0x40>)
  401d88:	4798      	blx	r3

	/* Reset registers that could cause unpredictable behavior after reset. */
	p_usart->US_MR = 0;
  401d8a:	687b      	ldr	r3, [r7, #4]
  401d8c:	2200      	movs	r2, #0
  401d8e:	605a      	str	r2, [r3, #4]
	p_usart->US_RTOR = 0;
  401d90:	687b      	ldr	r3, [r7, #4]
  401d92:	2200      	movs	r2, #0
  401d94:	625a      	str	r2, [r3, #36]	; 0x24
	p_usart->US_TTGR = 0;
  401d96:	687b      	ldr	r3, [r7, #4]
  401d98:	2200      	movs	r2, #0
  401d9a:	629a      	str	r2, [r3, #40]	; 0x28

	/* Disable TX and RX. */
	usart_reset_tx(p_usart);
  401d9c:	6878      	ldr	r0, [r7, #4]
  401d9e:	4b08      	ldr	r3, [pc, #32]	; (401dc0 <usart_reset+0x44>)
  401da0:	4798      	blx	r3
	usart_reset_rx(p_usart);
  401da2:	6878      	ldr	r0, [r7, #4]
  401da4:	4b07      	ldr	r3, [pc, #28]	; (401dc4 <usart_reset+0x48>)
  401da6:	4798      	blx	r3
	/* Reset status bits. */
	usart_reset_status(p_usart);
  401da8:	6878      	ldr	r0, [r7, #4]
  401daa:	4b07      	ldr	r3, [pc, #28]	; (401dc8 <usart_reset+0x4c>)
  401dac:	4798      	blx	r3
	/* Turn off RTS and DTR if exist. */
	usart_drive_RTS_pin_high(p_usart);
  401dae:	6878      	ldr	r0, [r7, #4]
  401db0:	4b06      	ldr	r3, [pc, #24]	; (401dcc <usart_reset+0x50>)
  401db2:	4798      	blx	r3
#if (SAM3S || SAM4S || SAM3U || SAM4L || SAM4E)
	usart_drive_DTR_pin_high(p_usart);
#endif
}
  401db4:	bf00      	nop
  401db6:	3708      	adds	r7, #8
  401db8:	46bd      	mov	sp, r7
  401dba:	bd80      	pop	{r7, pc}
  401dbc:	00401f75 	.word	0x00401f75
  401dc0:	00401e6f 	.word	0x00401e6f
  401dc4:	00401ea3 	.word	0x00401ea3
  401dc8:	00401ed5 	.word	0x00401ed5
  401dcc:	00401ef1 	.word	0x00401ef1

00401dd0 <usart_init_rs232>:
 * \retval 0 on success.
 * \retval 1 on failure.
 */
uint32_t usart_init_rs232(Usart *p_usart,
		const sam_usart_opt_t *p_usart_opt, uint32_t ul_mck)
{
  401dd0:	b580      	push	{r7, lr}
  401dd2:	b084      	sub	sp, #16
  401dd4:	af00      	add	r7, sp, #0
  401dd6:	60f8      	str	r0, [r7, #12]
  401dd8:	60b9      	str	r1, [r7, #8]
  401dda:	607a      	str	r2, [r7, #4]
	static uint32_t ul_reg_val;

	/* Reset the USART and shut down TX and RX. */
	usart_reset(p_usart);
  401ddc:	68f8      	ldr	r0, [r7, #12]
  401dde:	4b1a      	ldr	r3, [pc, #104]	; (401e48 <usart_init_rs232+0x78>)
  401de0:	4798      	blx	r3

	ul_reg_val = 0;
  401de2:	4b1a      	ldr	r3, [pc, #104]	; (401e4c <usart_init_rs232+0x7c>)
  401de4:	2200      	movs	r2, #0
  401de6:	601a      	str	r2, [r3, #0]
	/* Check whether the input values are legal. */
	if (!p_usart_opt || usart_set_async_baudrate(p_usart,
  401de8:	68bb      	ldr	r3, [r7, #8]
  401dea:	2b00      	cmp	r3, #0
  401dec:	d009      	beq.n	401e02 <usart_init_rs232+0x32>
  401dee:	68bb      	ldr	r3, [r7, #8]
  401df0:	681b      	ldr	r3, [r3, #0]
  401df2:	687a      	ldr	r2, [r7, #4]
  401df4:	4619      	mov	r1, r3
  401df6:	68f8      	ldr	r0, [r7, #12]
  401df8:	4b15      	ldr	r3, [pc, #84]	; (401e50 <usart_init_rs232+0x80>)
  401dfa:	4798      	blx	r3
  401dfc:	4603      	mov	r3, r0
  401dfe:	2b00      	cmp	r3, #0
  401e00:	d001      	beq.n	401e06 <usart_init_rs232+0x36>
			p_usart_opt->baudrate, ul_mck)) {
		return 1;
  401e02:	2301      	movs	r3, #1
  401e04:	e01b      	b.n	401e3e <usart_init_rs232+0x6e>
	}

	/* Configure the USART option. */
	ul_reg_val |= p_usart_opt->char_length | p_usart_opt->parity_type |
  401e06:	68bb      	ldr	r3, [r7, #8]
  401e08:	685a      	ldr	r2, [r3, #4]
  401e0a:	68bb      	ldr	r3, [r7, #8]
  401e0c:	689b      	ldr	r3, [r3, #8]
  401e0e:	431a      	orrs	r2, r3
			p_usart_opt->channel_mode | p_usart_opt->stop_bits;
  401e10:	68bb      	ldr	r3, [r7, #8]
  401e12:	691b      	ldr	r3, [r3, #16]
	ul_reg_val |= p_usart_opt->char_length | p_usart_opt->parity_type |
  401e14:	431a      	orrs	r2, r3
			p_usart_opt->channel_mode | p_usart_opt->stop_bits;
  401e16:	68bb      	ldr	r3, [r7, #8]
  401e18:	68db      	ldr	r3, [r3, #12]
  401e1a:	431a      	orrs	r2, r3
	ul_reg_val |= p_usart_opt->char_length | p_usart_opt->parity_type |
  401e1c:	4b0b      	ldr	r3, [pc, #44]	; (401e4c <usart_init_rs232+0x7c>)
  401e1e:	681b      	ldr	r3, [r3, #0]
  401e20:	4313      	orrs	r3, r2
  401e22:	4a0a      	ldr	r2, [pc, #40]	; (401e4c <usart_init_rs232+0x7c>)
  401e24:	6013      	str	r3, [r2, #0]

	/* Configure the USART mode as normal mode. */
	ul_reg_val |= US_MR_USART_MODE_NORMAL;
  401e26:	4b09      	ldr	r3, [pc, #36]	; (401e4c <usart_init_rs232+0x7c>)
  401e28:	681b      	ldr	r3, [r3, #0]
  401e2a:	4a08      	ldr	r2, [pc, #32]	; (401e4c <usart_init_rs232+0x7c>)
  401e2c:	6013      	str	r3, [r2, #0]

	p_usart->US_MR |= ul_reg_val;
  401e2e:	68fb      	ldr	r3, [r7, #12]
  401e30:	685a      	ldr	r2, [r3, #4]
  401e32:	4b06      	ldr	r3, [pc, #24]	; (401e4c <usart_init_rs232+0x7c>)
  401e34:	681b      	ldr	r3, [r3, #0]
  401e36:	431a      	orrs	r2, r3
  401e38:	68fb      	ldr	r3, [r7, #12]
  401e3a:	605a      	str	r2, [r3, #4]

	return 0;
  401e3c:	2300      	movs	r3, #0
}
  401e3e:	4618      	mov	r0, r3
  401e40:	3710      	adds	r7, #16
  401e42:	46bd      	mov	sp, r7
  401e44:	bd80      	pop	{r7, pc}
  401e46:	bf00      	nop
  401e48:	00401d7d 	.word	0x00401d7d
  401e4c:	204008e0 	.word	0x204008e0
  401e50:	00401cf3 	.word	0x00401cf3

00401e54 <usart_enable_tx>:
 * \brief Enable USART transmitter.
 *
 * \param p_usart Pointer to a USART instance.
 */
void usart_enable_tx(Usart *p_usart)
{
  401e54:	b480      	push	{r7}
  401e56:	b083      	sub	sp, #12
  401e58:	af00      	add	r7, sp, #0
  401e5a:	6078      	str	r0, [r7, #4]
	p_usart->US_CR = US_CR_TXEN;
  401e5c:	687b      	ldr	r3, [r7, #4]
  401e5e:	2240      	movs	r2, #64	; 0x40
  401e60:	601a      	str	r2, [r3, #0]
}
  401e62:	bf00      	nop
  401e64:	370c      	adds	r7, #12
  401e66:	46bd      	mov	sp, r7
  401e68:	f85d 7b04 	ldr.w	r7, [sp], #4
  401e6c:	4770      	bx	lr

00401e6e <usart_reset_tx>:
 * \brief Immediately stop and disable USART transmitter.
 *
 * \param p_usart Pointer to a USART instance.
 */
void usart_reset_tx(Usart *p_usart)
{
  401e6e:	b480      	push	{r7}
  401e70:	b083      	sub	sp, #12
  401e72:	af00      	add	r7, sp, #0
  401e74:	6078      	str	r0, [r7, #4]
	/* Reset transmitter */
	p_usart->US_CR = US_CR_RSTTX | US_CR_TXDIS;
  401e76:	687b      	ldr	r3, [r7, #4]
  401e78:	2288      	movs	r2, #136	; 0x88
  401e7a:	601a      	str	r2, [r3, #0]
}
  401e7c:	bf00      	nop
  401e7e:	370c      	adds	r7, #12
  401e80:	46bd      	mov	sp, r7
  401e82:	f85d 7b04 	ldr.w	r7, [sp], #4
  401e86:	4770      	bx	lr

00401e88 <usart_enable_rx>:
 * \brief Enable USART receiver.
 *
 * \param p_usart Pointer to a USART instance.
 */
void usart_enable_rx(Usart *p_usart)
{
  401e88:	b480      	push	{r7}
  401e8a:	b083      	sub	sp, #12
  401e8c:	af00      	add	r7, sp, #0
  401e8e:	6078      	str	r0, [r7, #4]
	p_usart->US_CR = US_CR_RXEN;
  401e90:	687b      	ldr	r3, [r7, #4]
  401e92:	2210      	movs	r2, #16
  401e94:	601a      	str	r2, [r3, #0]
}
  401e96:	bf00      	nop
  401e98:	370c      	adds	r7, #12
  401e9a:	46bd      	mov	sp, r7
  401e9c:	f85d 7b04 	ldr.w	r7, [sp], #4
  401ea0:	4770      	bx	lr

00401ea2 <usart_reset_rx>:
 * \brief Immediately stop and disable USART receiver.
 *
 * \param p_usart Pointer to a USART instance.
 */
void usart_reset_rx(Usart *p_usart)
{
  401ea2:	b480      	push	{r7}
  401ea4:	b083      	sub	sp, #12
  401ea6:	af00      	add	r7, sp, #0
  401ea8:	6078      	str	r0, [r7, #4]
	/* Reset Receiver */
	p_usart->US_CR = US_CR_RSTRX | US_CR_RXDIS;
  401eaa:	687b      	ldr	r3, [r7, #4]
  401eac:	2224      	movs	r2, #36	; 0x24
  401eae:	601a      	str	r2, [r3, #0]
}
  401eb0:	bf00      	nop
  401eb2:	370c      	adds	r7, #12
  401eb4:	46bd      	mov	sp, r7
  401eb6:	f85d 7b04 	ldr.w	r7, [sp], #4
  401eba:	4770      	bx	lr

00401ebc <usart_get_status>:
 * \param p_usart Pointer to a USART instance.
 *
 * \return The current USART status.
 */
uint32_t usart_get_status(Usart *p_usart)
{
  401ebc:	b480      	push	{r7}
  401ebe:	b083      	sub	sp, #12
  401ec0:	af00      	add	r7, sp, #0
  401ec2:	6078      	str	r0, [r7, #4]
	return p_usart->US_CSR;
  401ec4:	687b      	ldr	r3, [r7, #4]
  401ec6:	695b      	ldr	r3, [r3, #20]
}
  401ec8:	4618      	mov	r0, r3
  401eca:	370c      	adds	r7, #12
  401ecc:	46bd      	mov	sp, r7
  401ece:	f85d 7b04 	ldr.w	r7, [sp], #4
  401ed2:	4770      	bx	lr

00401ed4 <usart_reset_status>:
 * \brief Reset status bits (PARE, OVER, MANERR, UNRE and PXBRK in US_CSR).
 *
 * \param p_usart Pointer to a USART instance.
 */
void usart_reset_status(Usart *p_usart)
{
  401ed4:	b480      	push	{r7}
  401ed6:	b083      	sub	sp, #12
  401ed8:	af00      	add	r7, sp, #0
  401eda:	6078      	str	r0, [r7, #4]
	p_usart->US_CR = US_CR_RSTSTA;
  401edc:	687b      	ldr	r3, [r7, #4]
  401ede:	f44f 7280 	mov.w	r2, #256	; 0x100
  401ee2:	601a      	str	r2, [r3, #0]
}
  401ee4:	bf00      	nop
  401ee6:	370c      	adds	r7, #12
  401ee8:	46bd      	mov	sp, r7
  401eea:	f85d 7b04 	ldr.w	r7, [sp], #4
  401eee:	4770      	bx	lr

00401ef0 <usart_drive_RTS_pin_high>:
 * \brief Drive the pin RTS to 1.
 *
 * \param p_usart Pointer to a USART instance.
 */
void usart_drive_RTS_pin_high(Usart *p_usart)
{
  401ef0:	b480      	push	{r7}
  401ef2:	b083      	sub	sp, #12
  401ef4:	af00      	add	r7, sp, #0
  401ef6:	6078      	str	r0, [r7, #4]
	p_usart->US_CR = US_CR_RTSDIS;
  401ef8:	687b      	ldr	r3, [r7, #4]
  401efa:	f44f 2200 	mov.w	r2, #524288	; 0x80000
  401efe:	601a      	str	r2, [r3, #0]
}
  401f00:	bf00      	nop
  401f02:	370c      	adds	r7, #12
  401f04:	46bd      	mov	sp, r7
  401f06:	f85d 7b04 	ldr.w	r7, [sp], #4
  401f0a:	4770      	bx	lr

00401f0c <usart_write>:
 *
 * \retval 0 on success.
 * \retval 1 on failure.
 */
uint32_t usart_write(Usart *p_usart, uint32_t c)
{
  401f0c:	b480      	push	{r7}
  401f0e:	b083      	sub	sp, #12
  401f10:	af00      	add	r7, sp, #0
  401f12:	6078      	str	r0, [r7, #4]
  401f14:	6039      	str	r1, [r7, #0]
	if (!(p_usart->US_CSR & US_CSR_TXRDY)) {
  401f16:	687b      	ldr	r3, [r7, #4]
  401f18:	695b      	ldr	r3, [r3, #20]
  401f1a:	f003 0302 	and.w	r3, r3, #2
  401f1e:	2b00      	cmp	r3, #0
  401f20:	d101      	bne.n	401f26 <usart_write+0x1a>
		return 1;
  401f22:	2301      	movs	r3, #1
  401f24:	e005      	b.n	401f32 <usart_write+0x26>
	}

	p_usart->US_THR = US_THR_TXCHR(c);
  401f26:	683b      	ldr	r3, [r7, #0]
  401f28:	f3c3 0208 	ubfx	r2, r3, #0, #9
  401f2c:	687b      	ldr	r3, [r7, #4]
  401f2e:	61da      	str	r2, [r3, #28]
	return 0;
  401f30:	2300      	movs	r3, #0
}
  401f32:	4618      	mov	r0, r3
  401f34:	370c      	adds	r7, #12
  401f36:	46bd      	mov	sp, r7
  401f38:	f85d 7b04 	ldr.w	r7, [sp], #4
  401f3c:	4770      	bx	lr

00401f3e <usart_read>:
 *
 * \retval 0 on success.
 * \retval 1 if no data is available or errors.
 */
uint32_t usart_read(Usart *p_usart, uint32_t *c)
{
  401f3e:	b480      	push	{r7}
  401f40:	b083      	sub	sp, #12
  401f42:	af00      	add	r7, sp, #0
  401f44:	6078      	str	r0, [r7, #4]
  401f46:	6039      	str	r1, [r7, #0]
	if (!(p_usart->US_CSR & US_CSR_RXRDY)) {
  401f48:	687b      	ldr	r3, [r7, #4]
  401f4a:	695b      	ldr	r3, [r3, #20]
  401f4c:	f003 0301 	and.w	r3, r3, #1
  401f50:	2b00      	cmp	r3, #0
  401f52:	d101      	bne.n	401f58 <usart_read+0x1a>
		return 1;
  401f54:	2301      	movs	r3, #1
  401f56:	e006      	b.n	401f66 <usart_read+0x28>
	}

	/* Read character */
	*c = p_usart->US_RHR & US_RHR_RXCHR_Msk;
  401f58:	687b      	ldr	r3, [r7, #4]
  401f5a:	699b      	ldr	r3, [r3, #24]
  401f5c:	f3c3 0208 	ubfx	r2, r3, #0, #9
  401f60:	683b      	ldr	r3, [r7, #0]
  401f62:	601a      	str	r2, [r3, #0]

	return 0;
  401f64:	2300      	movs	r3, #0
}
  401f66:	4618      	mov	r0, r3
  401f68:	370c      	adds	r7, #12
  401f6a:	46bd      	mov	sp, r7
  401f6c:	f85d 7b04 	ldr.w	r7, [sp], #4
  401f70:	4770      	bx	lr
	...

00401f74 <usart_disable_writeprotect>:
 * \brief Disable write protect of USART registers.
 *
 * \param p_usart Pointer to a USART instance.
 */
void usart_disable_writeprotect(Usart *p_usart)
{
  401f74:	b480      	push	{r7}
  401f76:	b083      	sub	sp, #12
  401f78:	af00      	add	r7, sp, #0
  401f7a:	6078      	str	r0, [r7, #4]
	p_usart->US_WPMR = US_WPMR_WPKEY_PASSWD;
  401f7c:	687b      	ldr	r3, [r7, #4]
  401f7e:	4a04      	ldr	r2, [pc, #16]	; (401f90 <usart_disable_writeprotect+0x1c>)
  401f80:	f8c3 20e4 	str.w	r2, [r3, #228]	; 0xe4
}
  401f84:	bf00      	nop
  401f86:	370c      	adds	r7, #12
  401f88:	46bd      	mov	sp, r7
  401f8a:	f85d 7b04 	ldr.w	r7, [sp], #4
  401f8e:	4770      	bx	lr
  401f90:	55534100 	.word	0x55534100

00401f94 <cpu_irq_save>:

static volatile uint32_t cpu_irq_critical_section_counter;
static volatile bool     cpu_irq_prev_interrupt_state;

static inline irqflags_t cpu_irq_save(void)
{
  401f94:	b480      	push	{r7}
  401f96:	b083      	sub	sp, #12
  401f98:	af00      	add	r7, sp, #0
 */
__attribute__( ( always_inline ) ) __STATIC_INLINE uint32_t __get_PRIMASK(void)
{
  uint32_t result;

  __ASM volatile ("MRS %0, primask" : "=r" (result) );
  401f9a:	f3ef 8310 	mrs	r3, PRIMASK
  401f9e:	607b      	str	r3, [r7, #4]
  return(result);
  401fa0:	687b      	ldr	r3, [r7, #4]
	volatile irqflags_t flags = cpu_irq_is_enabled();
  401fa2:	2b00      	cmp	r3, #0
  401fa4:	bf0c      	ite	eq
  401fa6:	2301      	moveq	r3, #1
  401fa8:	2300      	movne	r3, #0
  401faa:	b2db      	uxtb	r3, r3
  401fac:	603b      	str	r3, [r7, #0]
  __ASM volatile ("cpsid i" : : : "memory");
  401fae:	b672      	cpsid	i
  __ASM volatile ("dmb");
  401fb0:	f3bf 8f5f 	dmb	sy
	cpu_irq_disable();
  401fb4:	4b04      	ldr	r3, [pc, #16]	; (401fc8 <cpu_irq_save+0x34>)
  401fb6:	2200      	movs	r2, #0
  401fb8:	701a      	strb	r2, [r3, #0]
	return flags;
  401fba:	683b      	ldr	r3, [r7, #0]
}
  401fbc:	4618      	mov	r0, r3
  401fbe:	370c      	adds	r7, #12
  401fc0:	46bd      	mov	sp, r7
  401fc2:	f85d 7b04 	ldr.w	r7, [sp], #4
  401fc6:	4770      	bx	lr
  401fc8:	20400000 	.word	0x20400000

00401fcc <cpu_irq_is_enabled_flags>:

static inline bool cpu_irq_is_enabled_flags(irqflags_t flags)
{
  401fcc:	b480      	push	{r7}
  401fce:	b083      	sub	sp, #12
  401fd0:	af00      	add	r7, sp, #0
  401fd2:	6078      	str	r0, [r7, #4]
	return (flags);
  401fd4:	687b      	ldr	r3, [r7, #4]
  401fd6:	2b00      	cmp	r3, #0
  401fd8:	bf14      	ite	ne
  401fda:	2301      	movne	r3, #1
  401fdc:	2300      	moveq	r3, #0
  401fde:	b2db      	uxtb	r3, r3
}
  401fe0:	4618      	mov	r0, r3
  401fe2:	370c      	adds	r7, #12
  401fe4:	46bd      	mov	sp, r7
  401fe6:	f85d 7b04 	ldr.w	r7, [sp], #4
  401fea:	4770      	bx	lr

00401fec <cpu_irq_restore>:

static inline void cpu_irq_restore(irqflags_t flags)
{
  401fec:	b580      	push	{r7, lr}
  401fee:	b082      	sub	sp, #8
  401ff0:	af00      	add	r7, sp, #0
  401ff2:	6078      	str	r0, [r7, #4]
	if (cpu_irq_is_enabled_flags(flags))
  401ff4:	6878      	ldr	r0, [r7, #4]
  401ff6:	4b07      	ldr	r3, [pc, #28]	; (402014 <cpu_irq_restore+0x28>)
  401ff8:	4798      	blx	r3
  401ffa:	4603      	mov	r3, r0
  401ffc:	2b00      	cmp	r3, #0
  401ffe:	d005      	beq.n	40200c <cpu_irq_restore+0x20>
		cpu_irq_enable();
  402000:	4b05      	ldr	r3, [pc, #20]	; (402018 <cpu_irq_restore+0x2c>)
  402002:	2201      	movs	r2, #1
  402004:	701a      	strb	r2, [r3, #0]
  402006:	f3bf 8f5f 	dmb	sy
  __ASM volatile ("cpsie i" : : : "memory");
  40200a:	b662      	cpsie	i
}
  40200c:	bf00      	nop
  40200e:	3708      	adds	r7, #8
  402010:	46bd      	mov	sp, r7
  402012:	bd80      	pop	{r7, pc}
  402014:	00401fcd 	.word	0x00401fcd
  402018:	20400000 	.word	0x20400000

0040201c <Reset_Handler>:
/**
 * \brief This is the code that gets called on processor reset.
 * To initialize the device, and call the main() routine.
 */
void Reset_Handler(void)
{
  40201c:	b580      	push	{r7, lr}
  40201e:	b084      	sub	sp, #16
  402020:	af00      	add	r7, sp, #0
        uint32_t *pSrc, *pDest;

        /* Initialize the relocate segment */
        pSrc = &_etext;
  402022:	4b1e      	ldr	r3, [pc, #120]	; (40209c <Reset_Handler+0x80>)
  402024:	60fb      	str	r3, [r7, #12]
        pDest = &_srelocate;
