:020000040040BA
:10000000503140202537400023374000233740003F
:100010002337400023374000233740000000000012
:100020000000000000000000000000002337400036
:1000300023374000000000002337400023374000F2
:100040002337400023374000233740002337400048
:100050002337400023374000233740002337400038
:1000600023374000000000003D3240005132400084
:1000700065324000233740002337400023374000DB
:10008000793240008D324000233740002337400052
:1000900023374000233740002337400023374000F8
:1000A00023374000233740002337400023374000E8
:1000B00023374000233740002337400023374000D8
:1000C00023374000233740002337400023374000C8
:1000D00000000000233740000000000023374000EC
:1000E00023374000233740002337400023374000A8
:1000F0002337400023374000233740002337400098
:100100002337400023374000233740002337400087
:100110002337400000000000000000000000000045
:100120002337400023374000233740002337400067
:1001300023374000000000002337400023374000F1
:1001400010B5054C237833B9044B13B10448AFF311
:1001500000800123237010BDD8094020000000005A
:10016000C4BB40000C4B43B10C480D4910B5AFF374
:1001700000800C48036823B910BD0A48036833B9EE
:100180007047094B002BF7D0BDE810401847064BCD
:10019000002BF5D0184700BF00000000C4BB400092
:1001A000DC094020C4BB400000000000102808D13A
:1001B000B1F1805F05D108B5024B1B6803B19847C8
:1001C00008BD7047F409402050B170B5441E054E7B
:1001D000054D3046A847013CB4F1FF3FF9D170BD51
:1001E000704700BF35160300010040202DE9F041A3
:1001F000094F4FF40038C7F83480084D08266E6365
:100200006420074CA047C7F830806420A0472E63C5
:100210006420A047BDE8F08100120E4000100E409F
:10022000C901400010B50022144B1A600A20144C7A
:10023000A0470B20A0470C20A0471020A04711206A
:10024000A047104B08221A61C3F8A0201A630E4A77
:100250004FF400311161C2F8A010116304221A6139
:10026000C3F8A0201A63094B1B6813F0010F01D0DB
:10027000064B1B68064B9847002010BDF409402030
:100280004534400000100E4000120E4010E000E027
:10029000ED01400030B583B0144B18601020144BB2
:1002A00098474FF020517C20124B9847124C012266
:1002B0004FF080512046114B9847114B009351232A
:1002C0004FF08052102120460E4DA8474FF080512C
:1002D00020460D4B98474FF480320C4B1A60002299
:1002E000102120460A4B984703B030BDF409402046
:1002F000453440004D30400000140E40112F4000A6
:10030000AD014000CD3140003D30400000E100E053
:10031000A132400008B528B94FF080510448054B80
:10032000984708BD4FF080510148034B984708BDDE
:1003300000140E40413040003D304000F8B5394CCB
:100340004FF480112166C4F8901061656162C4F8B1
:100350008010236F0B432367636F23F4801363675D
:100360004FF400122266C4F8902062656262C4F8FD
:100370008020236F13432367636F23F400136367A5
:100380004FF480032366C4F8903063656362C4F859
:100390008030206F18432067606F20F48000606712
:1003A0006160626063604FF000766660266026617F
:1003B00026631D4D28461D4B984702232B60802342
:1003C0002B606B6843F001036B606B6843F01003B4
:1003D0006B6001212846164B9847002201212846D0
:1003E000144B9847012211462846134B9847002288
:1003F00001212846114B984711491248124B984742
:10040000C2B201212846114B984700231A46012108
:1004100028460F4FB84701232B6026630D4B9847A2
:100420000020F8BD00140E400080004099344000C8
:10043000C53440003F3540005D3540007B3540000D
:1004400000A3E111006CDC028F354000A5354000AF
:10045000CD354000ED0140002DE9F04F83B0032879
:1004600044D10E684D680C8900238DF80430ADF836
:10047000063086B1002D36D14FF00108994601AD06
:100480004FF00072204B5A632CB3204FDFF894B02A
:10049000DFF894A006E04FF000084FF0010901AE2C
:1004A000EEE7C4B100231A4631783846D8470DF13B
:1004B00005020DF106013846D047BDF806302B7015
:1004C000013CA4B2B8F1000F00D10135B9F1000F21
:1004D000E7D10136E5E74FF000720B4B1A630020BD
:1004E00003B0BDE8F08F6FF00500F9E740F21F128E
:1004F00007490848084CA0470848A0470848A047B3
:100500004FF0FF30ECE700BF00140E4000800040C9
:1005100030AA400040AA40002140400054AA4000B8
:100520006CAA40000B354000DB34400002220E4B29
:100530001A6003F5592303F580634FF400125A61E2
:10054000C3F8A0204FF480125A61C3F8A0204FF4E2
:1005500080025A61C3F8A0204FF000725A61C3F8BC
:10056000A0200020704700BF008000403AB1013950
:10057000821811F8013F00F8013B9042F9D1704711
:1005800022B1821800F8011B9042FBD1704703781A
:1005900043B1002301339BB210F8012F002AF9D197
:1005A000184670470023FBE7024A13780133DBB299
:1005B00013707047FB0940207047000000B583B0FE
:1005C00001200B4B984701A941F27000094B984755
:1005D000034618B1184603B05DF804FB019941F0D9
:1005E0000201019141F27000034B98470346F1E785
:1005F00015034000A9184000B518400008B5124B7B
:100600001B784BB9114B1B78DBB2032B0CD00F4B73
:100610001B78DBB2042B07D00B4A13780133DBB213
:1006200013700023184608BD094B9847034600285D
:10063000F8D145F2786141F27400064B98470346C1
:100640000028E9D0EEE700BFF9094020F809402072
:1006500019144000B51840001E4B1B7823B11D4AE9
:100660001378013BDBB213701A4B1B78002B2ED191
:10067000194B1B78DBB2032B06D0174B1B78DBB270
:10068000042B01D0002323E000B583B000230193A5
:1006900044F2213141F27400104B9847034618B1DF
:1006A000184603B05DF804FB01A901200C4B9847E4
:1006B00003460028F4D1019911F0020FF0D021F087
:1006C000020101910120054B98470346E8E700230A
:1006D00018467047F9094020F8094020B518400035
:1006E000A91840002DE9F04F87B00746884692468A
:1006F0009946109CBDF84460BDF8485001F07F0356
:100700008DF815308DF814000823ADF81630002C44
:1007100000F09F80BDF8163016FA83F32B449BB28D
:10072000ADF816305C4B98478346002840F0A28015
:1007300000230393ADF806300293029B1F430297F8
:10074000029B43EA08230293BDF81620029B43EA6A
:1007500002430293029941F28C00504B9847834622
:10076000002840F0918000230293029B43F0020393
:100770000293029941F27800484B9847834600283B
:1007800040F0828000230393ADF80630BDF80630B8
:100790009BB2B3F57A7F16D241F27808404F02A996
:1007A0004046B84778B9029B13F0020F59D0BDF804
:1007B000063001339BB2ADF80630BDF806309BB26F
:1007C000B3F57A7FEBD3039B002B61D0039B04939B
:1007D000BDF816309BB2ADF816300498082205A972
:1007E000304B9847834600284ED1049B083304932E
:1007F000BAF1000F0AD004984A465146294B98474F
:100800008346002840D1049B4B4404937CB1049B55
:10081000A5EB09051D440495049832462146214B59
:100820009847834600282FD1049B1E440496039BBF
:100830009B000293029B43F002030293029941F250
:100840006C00164B98478346F0B9174B9847834680
:100850001AE0BDF8163019FA83F39BB2ADF81630E2
:1008600060E703A911480E4B98470028ABD000233E
:100870000393A8E740F29F120D490E480E4CA04783
:100880000E48A0470E48A047584607B0BDE8F08F75
:100890006FF0020BF8E700BFFD054000B5184000FF
:1008A000A91840001D194000590640000004150019
:1008B00070AA400040AA400021404000C4AC400063
:1008C0006CAA40002DE9F04387B0DFF8F892A24F00
:1008D000A24EDFF8F482D5E0042204A90598A04BCB
:1008E0009847BDF812309BB2ADF81230044600288C
:1008F00030D1BDF812309BB29D4205D0BDF8123008
:100900009BB2EB1A042B33DC9DF81030DBB2012BC9
:1009100047D09DF81030DBB2022B5FD09DF810302D
:10092000DBB2042B68D09DF81030DBB2062B71D0FF
:100930009DF81030DBB2072B7AD040F202224146FC
:100940003046884CA0478848A0478848A0476FF0A9
:10095000050496E04FF4EB7241463046814DA847BE
:100960008348A8478148A8470120824B984788E0E0
:1009700040F2DF12414630467A4CA047BDF81220C3
:100980009DF810309DF81110009192B229467A48D6
:10099000A0477648A0470120764B98476FF00504A2
:1009A0006FE0764B1B6843B19DF81100BDF8121043
:1009B0000839059A083289B29847714B1B78002B89
:1009C0005CD140F2092241463046664CA0476D4852
:1009D000A0476648A0476C4B98474FE06B4B1B689D
:1009E000002BEAD09DF81100BDF812100839059AC5
:1009F000083289B29847E0E7654B1B68002BDCD0D2
:100A00009DF81100BDF812100839059A083289B214
:100A10009847D2E75F4B1B68002BCED09DF81100A2
:100A2000BDF812100839059A083289B29847C4E710
:100A3000594B1B68002BC0D09DF81100BDF8121057
:100A40000839059A083289B29847B6E740F2112270
:100A500041463046434CA0475048A0474348A04732
:100A60006FF001042FE04FF40672414630463D4CD2
:100A7000A04703994A48A0473C48A047494B98479C
:100A8000044604BB99F80030002B00F09F8099F8D1
:100A90000030013BDBB289F800301FE040F21E223B
:100AA000414630462F4DA8473F48A8472F48A84702
:100AB00009E04FF40972414630462A4DA8473B48A9
:100AC000A8472A48A84740F2432239493046254DD5
:100AD000A84721463748A8472448A847B8470446AE
:100AE0000028E6D103A941F27000334B9847044631
:100AF0000028D3D1039B13F0010FB4D01D4B9847AE
:100B0000039921F00101039141F270002B4B9847AA
:100B100004460028D7D10022194B1A70039DC5F353
:100B20008B05002D92D006A941F8042D41F28400D6
:100B3000214B9847044600283FF4CEAE4FF4E772AD
:100B400041463046074DA8471D48A8470748A847D3
:100B50000120084B984794E7FD05400040AA40005B
:100B6000C11840002140400030AB40006CAA40005A
:100B7000D8AA400015034000F0AA4000100A402007
:100B8000FA09402048AB4000BD054000040A40205F
:100B9000080A4020FC0940200C0A40206CAB4000B1
:100BA00080AB4000590640009CAB4000C0AB400009
:100BB00084AA4000E0AB4000A9184000B5184000EE
:100BC000B0AA4000FB0940207CAA4000002007B0EA
:100BD000BDE8F0832DE9F04383B01C46002A18BF1E
:100BE000002903D005460F461646B8B94CB101227C
:100BF000324B1A70324B98470346184603B0BDE893
:100C0000F08340F269222F492F48304CA0473048EA
:100C1000A0473048A0476FF00B03EEE7694641F26A
:100C200070002D4B984703460028E6D1DDF8008080
:100C300001A941F28400284B984703460028DCD1E3
:100C4000C8F38B0846451CD8019B9D4228D305EB71
:100C500006094344994523D83246394628461F4B56
:100C6000984703460028C8D1019A9044C84501D04E
:100C7000002CC2D00122114B1A70114B9847034629
:100C8000BBE740F27A220F490F48104CA04742467A
:100C900031461348A0470F48A0476FF00B03ACE75D
:100CA0004FF4207207490848084CA0470D48A04758
:100CB0000848A0476FF00B039FE700BFFA094020E8
:100CC000BD05400094AA400040AA400021404000D9
:100CD00010AC40006CAA4000A9184000C1184000A8
:100CE00030AC400074AC400038B5431E062B1DD814
:100CF000DFE803F00804100C1C141800134B1960F3
:100D0000002038BD124B1960002038BD114B19600E
:100D1000002038BD104B1960002038BD0F4B196002
:100D2000002038BD0E4B1960002038BD044640F24B
:100D3000B9220C490C480D4DA84721460C48A8473C
:100D40000C48A8476FF00B0038BD00BF040A4020D4
:100D5000100A4020080A4020000A4020FC094020D8
:100D60000C0A4020A0AA400040AA400021404000B8
:100D7000B8AC40006CAA400010B50024094B1C60C0
:100D8000094B1C60094B1C70094B1C70094B1C70F3
:100D900009480A4B98470A4903200A4B98472046BE
:100DA00010BD00BF100A4020040A4020F90940206D
:100DB000F8094020FB094020A905400095024000A9
:100DC000B9054000E90C400030B59FB015462C280D
:100DD0002ED004461B283BD0062849D00E2825D00B
:100DE000322855D02F2863D0342876D0112800F02F
:100DF0009380132800F0A880042800F0B7806528AD
:100E000000F0C680092800F0D5802A2800F0E48090
:100E1000202800F0F3804FF4957286498648874D6C
:100E2000A84721468648A8478648A8471FB030BD36
:100E30000023042203A92846834CA0470028F5D1AB
:100E4000824B1B68002BF1D003A92C209847EDE7BB
:100E50000023082203A928467B4CA0470028E5D19F
:100E60007A4B1B68002BE1D003A91B209847DDE7D4
:100E70000123302203A92846734CA0470028D5D16E
:100E8000724B1B68002BD1D003A906209847CDE7F1
:100E90000023102203A928466B4CA0470028C5D187
:100EA0006A4B1B68002BC1D003A932209847BDE7CD
:100EB0006422002103A8664B98470023642203A9FB
:100EC0002846614CA0470028B0D1604B1B68002B1E
:100ED000ACD003A92F209847A8E70023042203A938
:100EE0002846594CA0470028A0D15A48534CA04747
:100EF0000399CBB20093C1F30723C1F30742090E54
:100F00005548A0474F48A047504B1B68002B8DD039
:100F100000213420984789E70023504A13700422A7
:100F200003A92846484CA04700287FF47FAF9DF8CE
:100F30000C204B4B1A70454B1B68002B3FF476AFCF
:100F400003A91120984771E700232C2203A9284602
:100F50003D4CA04700287FF469AF3C4B1B68002B39
:100F60003FF464AF03A9132098475FE700230422EE
:100F70001CA92846344CA04700287FF457AF334BB8
:100F80001B68002B3FF452AF1CA9042098474DE783
:100F9000002304221CA928462B4CA04700287FF4DC
:100FA00045AF2A4B1B68002B3FF440AF1CA96520BE
:100FB00098473BE70123642203A92846224CA04717
:100FC00000287FF433AF214B1B68002B3FF42EAF7A
:100FD00003A90920984729E70123042203A92846E9
:100FE000194CA04700287FF421AF184B1B68002B39
:100FF0003FF41CAF03A92A20984717E700230822D3
:1010000003A92846104CA04700287FF40FAF012306
:10101000BDF81020039905F10800A04700287FF4CF
:1010200005AF0A4B1B68002B3FF400AF03A920203B
:101030009847FBE6E4AC400040AA40002140400055
:1010400040AD40006CAA4000D50B4000140A40207F
:101050008105400014AD400020AD4000190A402039
:10106000180A4020F0B58BB001238DF80730002816
:1010700050D00268294B1A600022294B1A700DF1DA
:101080000700284B9847044610B120460BB0F0BD2E
:10109000254B98470446002838D124490120244B89
:1010A000984702A8234B98470446234F3846234DC0
:1010B000A8479DF80E309DF80D209DF80C10204893
:1010C000A847204E3046A8473846A8479DF811301B
:1010D0009DF810209DF80F101B48A8473046A847E0
:1010E0003846A8470023032213211848A847304652
:1010F000A84714F10D0FC8D140F2D5121449154874
:10110000A8471548A8473046A847BEE70020134B1C
:101110009847BAE76FF00B04B7E700BF140A402006
:10112000190A4020291A4000790D4000C90D4000DD
:10113000E90C40007919400014AD40002140400006
:1011400000AE40006CAA40001CAE400038AE40002B
:10115000F0AC400040AA400054AE4000F51A4000F8
:1011600008B5014B984708BDC50840002DE9F0417E
:10117000A0B080460D4614461E46BDF89870012A60
:1011800003D0002B37D0022A42D06B1EDBB21F2BBC
:1011900075D8FF2F01D00D2F7ED82A4641460DF17C
:1011A0005A00774B984720AB1D44002305F8263C96
:1011B000ADF858709DF89C30003318BF01238DF8AE
:1011C0007B308DF85540032C73D0022C00F0AA80A0
:1011D000042C00F0C180012C40F0C4800023029355
:1011E000019300936C2305AA28210120654CA04798
:1011F00020B0BDE8F08140F2032263496348644CAB
:10120000A0476448A0476448A0476FF00B00EFE791
:101210001846624B98474028B7D13378A3F13A0279
:10122000D2B2062A1ED9A3F13002D2B2362A19D878
:10123000473BDBB2192B15D9314606F13F0011F8B7
:10124000013FA3F13A02D2B2062A0BD9A3F1300230
:10125000D2B2362A06D8473BDBB2192B02D98842D4
:10126000EDD192E740F20F2247494848484CA04749
:101270004B48A0474848A0476FF00B00B8E740F242
:10128000192241494148424CA0474648A04742489C
:10129000A0476FF00B00ABE740F222223A493B48EF
:1012A0003B4CA0474048A0473B48A0476FF00B008D
:1012B0009EE73378013BDBB28DF81430032B13D853
:1012C0007278531E8DF8153002F0EF030B2B1AD1F4
:1012D000B11C0DF116002A4B9847737820AA1344CD
:1012E000002203F86A2C79E740F239222649274880
:1012F000274CA0479DF814102C48A0472648A0472B
:101300006FF00B0074E74FF410721F491F48204C18
:10131000A0479DF815102648A0471F48A0476FF02A
:101320000B0065E730461D4B9847431E9BB23F2B91
:1013300005D8421C314605A8114B98474EE740F2AC
:101340004F2211491148124CA0471A48A047124891
:10135000A0476FF00B004BE73E22314605A8084B33
:1013600098473BE740F25F2207490848084CA047EE
:101370001148A0470848A0476FF00B0038E700BFAE
:101380006D054000E506400000AD400040AA400069
:101390002140400054AD40006CAA40008F05400041
:1013A00068AD400078AD40008CAD400098AD400085
:1013B000B4AD4000D0AD4000ECAD400010B582B0FF
:1013C00000240194BDF810400094024CA04702B0E4
:1013D00010BD00BF6D11400000207047F0B583B014
:1013E00004464FF4A5550A4E0A4F21462846B047F9
:1013F00054B102A9002341F8043D2846B84700280B
:10140000F3D1019B9C42F0D1002003B0F0BD00BF9E
:10141000B5184000A91840002DE9F04F83B0012015
:101420003C4B984701A901203B4B9847824638B96D
:1014300000244FF00108DFF80891364D374F20E0C7
:10144000722237493748384CA0473848A0473848B7
:10145000A04709E0962232493248334CA04735482C
:10146000A0473348A047B246504603B0BDE8F08FCE
:10147000019941F002014046C847009B13F0040F58
:10148000F2D1019941F002014046C8474046A847C1
:101490006946294B1868204B984708B9009BBBB98F
:1014A000254E0E2333604046A847694630681A4BE4
:1014B000984708B9009B5BB91F4E13233360404621
:1014C000A84769463068144B984706460028C1D1A2
:1014D000194E009B13F0040FC6D10134A7FB04235F
:1014E0005B0803EB43039C42C2D10220A847694634
:1014F0003068094B9847009B13F0040FE9D1AA22EA
:1015000007490848DFF820B0D8470C48D8470848B2
:10151000D847DEE7C9014000A9184000ABAAAAAA33
:1015200070AE400040AA400021404000E0AE4000C4
:101530006CAA400000AF40001000402020AF4000E7
:10154000B518400000B583B001A941F20840154B21
:101550009847E8B9019941F48071019141F208403E
:10156000114B9847B8B901A94FF4D0500D4B98478B
:10157000A0B9019941F4803101914FF4D0500A4B48
:101580009847002818BF6FF0050003B05DF804FB12
:101590006FF00500F9E76FF00500F6E76FF0050062
:1015A000F3E700BFA9184000B518400010B582B09D
:1015B000254B1C6824B1244B1C68204602B010BD8A
:1015C00019464FF48050214B984718B100221E4B0A
:1015D0001A60F2E701A941F2F4301C4B984718B1A8
:1015E0000022194B1A60E8E7174B1B68184A934210
:1015F0000DD0184A934211D0174A934218D0124A7C
:10160000136823F4702343F4A0231360D3E7019BF2
:10161000012BF4D001320C4B1A60F0E7019B032B35
:10162000EDD0042B0CBF01320C4A074B1A60E6E7E1
:1016300005494FF46C10054B98470028DFD0002275
:10164000014B1A60B9E700BF1C0A4020A9184000EE
:10165000A0021000B0021000F0001000B202100052
:101660002DE9F041074641F21405284C284E284642
:10167000A047002802DB0120B047F8E72548234BAC
:10168000984710F0010F10D1DFF884801F4E224DD3
:101690000120C0474FF00C10B04704462A460146CF
:1016A0001E481F4B9847AC42F2D1022F19D0032F8E
:1016B00022D0042F14BF002480241A4B9847C0F373
:1016C0000B00B0F5687F0CBF44F002002046164BBB
:1016D000984716494FF00C10154B98470020BDE86D
:1016E000F08114491448124CA0474FF4801141F284
:1016F0008C00A0470024E0E70E490F480C4CA0479F
:10170000002141F28C00A0470024D6E79D1840003C
:10171000C9014000BC0702009ED0AD1044AF40009C
:1017200021404000AD154000DD134000612F52EF15
:10173000B51840007DD51C3CAC070200F0B583B065
:1017400041F28C030193184B00930238C0B2012878
:1017500011D94FF0FF3400200227144E144D009B86
:10176000984212D03846B0470198A847013CF6D1BC
:101770006FF004000EE00F4B0193A3F12253A3F589
:101780001113A3F2E9530093E3E7009A064B9A4240
:1017900002D0002003B0F0BD002141F28C00064BC6
:1017A00098470020F6E700BF36265302C9014000E3
:1017B0009D184000AC070200B5184000F0B583B09A
:1017C00002A9002341F8043D4FF4A050244B984750
:1017D00020BB019921F4806101914FF4A050214B6D
:1017E0009847054628BB0A241D4E1E4F01A94FF4F9
:1017F000A050B047054638BB019911F4806F0AD05C
:1018000021F4806101914FF4A050B8470546631E52
:1018100013F0FF04EAD1284603B0F0BD40F23122B4
:1018200011491248124CA0471248A0471248A0473D
:10183000CFE740F237220C490C480D4CA0470F4827
:10184000A0470D48A047E6E740F23E220649074878
:10185000074CA0470A48A0470748A047DBE700BF5E
:10186000A9184000B518400080AE400040AA4000D2
:10187000214040008CAE40006CAA4000A8AE400061
:10188000C4AE400008B5014B984708BD3D03400079
:1018900008B5014B984708BD2D05400008B5014B20
:1018A000984708BDF120400008B5014B984708BD96
:1018B0000921400008B5014B984708BD212140008F
:1018C0002DE9F047074689461546124BB3F80080CC
:1018D000A8F108081FFA88F8424519D9444600269D
:1018E000DFF834A0424609EB06013846D0470346EC
:1018F00058B92D1B26442744A542F3D8AAB209EBB8
:1019000006013846044B984703461846BDE8F08761
:101910000026F3E70C0040204D2240002DE9F0475F
:10192000074689461546124BB3F80080A8F108080F
:101930001FFA88F8424519D944460026DFF834A03A
:10194000424609EB06013846D047034658B92D1BDD
:1019500026442744A542F3D8AAB209EB060138462B
:10196000044B984703461846BDE8F0870026F3E786
:101970000C0040201523400030B583B0044602A976
:10198000002341F8043D2448244B98470546019A1A
:10199000234B9A4239D0019B1A0C91B2080AE0718C
:1019A000C1F30311217202F00F0262729AB2110A9E
:1019B0002171C2F30312627103F00F03A371194B7B
:1019C000984720602279A37903F00F0343EA0223AA
:1019D00062791201D2B21343E179627A02F00F0206
:1019E00042EA0122217A0901C9B20A4341F23031A7
:1019F0008A4288BF6FF00C0541F22F3293428CBFB0
:101A000028466FF00C0003B030BD01A941F2480038
:101A1000024B98470546BEE7AC070200A9184000F4
:101A2000C3C15DD7AD15400038B5002837D0047864
:101A3000631EDBB2042B28BF012400201E4B9847F5
:101A4000054600282DD11D481D4DA8471D4B984720
:101A500001461D48A8471D48A8471D4B98472046EA
:101A60001C4B98470546B0B920461B4B9847054686
:101A700088B9023CE4B2012C0FD9184B98470546AF
:101A800058B14FF4AE72164916480D4CA04716488F
:101A9000A0470E48A047154B9847284638BD01245B
:101AA000CBE74FF492720E490E48054CA047104800
:101AB000A0470648A047F0E78518400014AD400055
:101AC00021404000AD1540000CB040006CAA400021
:101AD00039214000611640003D1740004515400087
:101AE00054AF400040AA4000D0AF400091184000E1
:101AF000F0AF400038B5194B984758B90020184B43
:101B00009847044698B9174B98470446D0B9164BE6
:101B100098470AE004464FF4BA7214491448154D28
:101B2000A8471548A8471548A847204638BD40F2A1
:101B30007B120E490E480F4DA8471148A8470F4881
:101B4000A847F2E740F2811208490948094DA84721
:101B50000C48A8470948A847E7E700BFBD17400061
:101B6000992B400091184000E520400060AF4000F4
:101B700040AA40002140400070AF40006CAA4000E5
:101B800090AF4000B4AF400000B585B00023019392
:101B90000290ADF80C1001A90320024B984705B044
:101BA0005DF804FB590440002DE9F04182B0054680
:101BB00000F13B03DBB2012B27D9CF2825D00B2422
:101BC0004FF00108234F41460DF10700B847064684
:101BD00020BB9DF80730AB422CD0631E13F0FF04EE
:101BE000F1D10B2401271B4D39460DF10700A84701
:101BF00010BB9DF8073053B3631E13F0FF04F3D1FD
:101C00000126304602B0BDE8F08101210DF1070048
:101C1000104B98470028D2D00026F2E740F2271256
:101C20000D490E480E4CA0470E48A0470E48A0474D
:101C30000026E6E70B24D5E740F2351206490748AF
:101C4000074CA0470748A0470748A047D9E7012607
:101C5000D7E700BF891B400024B0400040AA4000E5
:101C60002140400064B440006CAA40002DE9F04FD0
:101C700085B083468A4617464FF00009374D27E066
:101C800040F2571236493748374CA0473748A047EB
:101C90003748A04700230193019805B0BDE8F08FB5
:101CA000002C2EDD41460BEB0900A8470446002816
:101CB00034D11FB92F4B1B78002B3AD0C1440FFAF7
:101CC00089F9AAEB080A1FFA8AFABAF1000F41D083
:101CD000D046BAF5005F28BF4FF400580A24012609
:101CE00031460DF10B00A84701900028C8D19DF89E
:101CF0000B301B090F2BD3D0013C24B2B4F1FF3FB2
:101D0000EED140F2631216491648174CA0479DF8D1
:101D10000B101948A0471648A047BDE74FF4B6720C
:101D20000F491048104CA0471448A0471048A0473E
:101D3000B2E7022103A8A8470028BFD040F27712DB
:101D400007490848084DA8470D48A8470848A8472C
:101D50000194A1E7012301939EE700BF891B400086
:101D600030B0400040AA40002140400098B44000FC
:101D70006CAA4000200A4020CCB44000FCB44000D3
:101D800030B5400000B585B0019000230293ADF856
:101D90000C1001A90320024B984705B05DF804FB25
:101DA0005904400070B584B09DF820408DF80400BF
:101DB000C1380E2800F2A280DFE800F04545661920
:101DC0002A3354547F08A0A0A0A03C000B0C8DF82F
:101DD00005300B0A8DF806308DF807100521554B9C
:101DE0001B78002B00F08C800139C9B29AE0C1F356
:101DF000072344B98DF805308DF8061000238DF8BF
:101E000007300521EBE763F07F038DF80530F3E73A
:101E100000238DF805308DF806308DF80730052148
:101E2000DDE700238DF805308DF806308DF807309A
:101E30000521D4E7FF238DF805308DF806308DF8A5
:101E400007300521CBE70A0C8DF805200A0A8DF82A
:101E500006208DF807101A0A8DF808208DF8093031
:101E60000721BCE70A0C8DF805200A0A8DF8062028
:101E70008DF807101A0C8DF808201A0A8DF8092021
:101E80008DF80A300821AAE7C1F3072384B98DF839
:101E900005308DF80610130E8DF80730130C8DF8F1
:101EA0000830130A8DF809308DF80A20082196E7CA
:101EB00063F07F038DF80530EBE70B0C8DF80530F0
:101EC0000B0A8DF806308DF80710130E8DF80830C8
:101ED000130C8DF80930130A8DF80A308DF80B2099
:101EE00009217CE74FF4847213491448144CA0472D
:101EF0001448A0471448A047002019E0002017E02C
:101F00004E1E01AB9D197F201A46104C12F8013B62
:101F100083EA4003E05C9542F8D104AB1E444300E1
:101F200006F80C3C01A80A4B98470028DAD101209A
:101F300004B070BD200A40201CB0400040AA400000
:101F40002140400038B440006CAA400098B04000E6
:101F5000851D400070B582B00446312835BF01238D
:101F60000023C325C925009304230A4601462846B9
:101F7000154EB04701280DD040F2EB12134914481A
:101F8000144DA84721461448A8471448A8470020E4
:101F900002B070BD2846124B98470128F8D040F295
:101FA000F1120A490A480B4DA84721460D48A84797
:101FB0000A48A84700240094234622462146CF2001
:101FC000014DA8472046E3E7A51D400050B0400062
:101FD00040AA400021404000E8B540006CAA400003
:101FE000A91B400014B640002DE9F04184B004461E
:101FF0008846B0F5807F35BF01260026C425CA2556
:10200000009604230022014628462C4FB847012899
:102010000ED040F245222A492A482B4DA847214696
:102020002A48A8472A48A847002004B0BDE8F08104
:102030002846284B9847012814D040F24B222049CB
:102040002048214DA84721462348A8472048A847B3
:1020500000240094234622462146CF20174DA8474E
:102060002046E2E73246042103A81C4B984701288A
:1020700010D19DF80D209DF80E301B0443EA022379
:102080009DF80C2013439DF80F2043EA0263C8F823
:102090000030CAE740F2532209490A480A4CA047D7
:1020A0000F48A0470A48A047002400942346224630
:1020B0002146CF20014DA8472046B6E7A51D400088
:1020C00070B0400040AA40002140400068B5400088
:1020D0006CAA4000A91B400094B540006D1C400054
:1020E000C8B540000020014B18707047200A4020FE
:1020F00000B583B001A9034B9847019803B05DF880
:1021000004FB00BFE91F400008B5044B98470128B5
:102110000CBF00206FF0050008BD00BFE91F4000A4
:1021200008B5044B984701280CBF00206FF005004C
:1021300008BD00BF551F400030B583B0002302A981
:1021400041F8083D344A13704EF62400334B98474B
:1021500048B3314B1B787BB9009921F07C0141F0E9
:10216000500100914EF624002D4B9847044600285C
:1021700039D00122284B1A7001A94FF48050274B07
:10218000984700283AD04EF62400264B984720F076
:10219000700141F050014EF62400234B9847002473
:1021A000204603B030BD01221B4B1A7040F2C522FD
:1021B0001E491F481F4CA0471F48A0471F48A04763
:1021C00069464EF62400154B984704460028C0D1B6
:1021D0004FF4327215491648164DA8471848A847BB
:1021E0001648A847DCE740F2D22210491048114DAA
:1021F000A8471448A8471148A847D1E74FF43772B9
:102200000A490B480B4CA0470F48A0470B48A04772
:102210006FF00504C4E700BF200A4020E91F40001A
:10222000551F4000F1204000212140008CB04000AB
:1022300040AA40002140400098B140006CAA4000F4
:10224000E8B1400018B240004CB24000F0B583B095
:1022500004460F461546002200922B460146C82030
:10226000224EB04701280ED04FF41D72204921485C
:10227000214DA84721462148A8472148A8476FF08B
:10228000050003B0F0BDC8201E4B9847012812D0AE
:1022900040F27A2216491748174DA84721461A4896
:1022A000A8471748A847002100910B460A46CF20AF
:1022B0000E4CA047E3E7002229463846134B9847C7
:1022C000012811D04FF4217209490A480A4CA0474D
:1022D0000F48A0470A48A047002100910B460A4634
:1022E000CF20024CA047CAE70020CAE7A51D400046
:1022F00080B0400040AA40002140400074B240003D
:102300006CAA4000A91B4000A4B240006D1C400014
:10231000DCB240002DE9F04385B0044688461546FE
:10232000002200922B460146C7204D4EB04701289F
:102330000FD040F20F224B494B484C4DA847214645
:102340004B48A8474B48A8476FF0050005B0BDE8CB
:10235000F083C720484B9847012812D040F215223D
:1023600040494148414DA84721464448A847414873
:10237000A847002100910B460A46CF20384CA047C1
:10238000E2E70024ADF80C403D4FDFF80C911DE072
:10239000B5F5005F94BF0323022363F00F038DF8AC
:1023A0000B3001210DF10B00B847E8B9314608EBBD
:1023B0000400B847002835D199F80030002B3CD0F4
:1023C000344424B2AD1BADB2002D46D02E46B5F537
:1023D000005F28BF4FF40056002CD9D1B5F5005F3F
:1023E00094BF03230123D8E74FF4D47225491E4834
:1023F0001E4CA0472448A0471E48A04740F2262272
:1024000018491948194CA0472048A0471948A04727
:1024100000240094234622462146CF20104DA84791
:10242000204693E740F2B11216490F480F4CA047DF
:102430001748A0470F48A047E0E7022103A8B84784
:102440000028BDD040F2BB120E490748074CA047F8
:102450001048A0470748A047D0E7002076E700BF14
:10246000A51D400060B0400040AA4000214040004F
:1024700004B340006CAA4000A91B400034B34000E4
:10248000851D400040B040006CB3400010B44000D7
:10249000A4B34000D8B34000200A40202DE9F84FF3
:1024A000BDF8284094B181460E46924698460301F5
:1024B0002249CB5853B101EB00139B889BB22BB13F
:1024C00001EB00139B7ADBB2012B01D0BDE8F88F42
:1024D000F48001EB0017DFF87CB006E0254601230D
:1024E0000BE0641BA4B2A844ECB1BB88E31A1BB296
:1024F000002BF3DDBD88ADB2002339682A46404683
:10250000D84790B93B683360B580F3885B1BF38094
:102510000B4B1B68002BE4D0094B1B68324651461D
:1025200048469847DDE7BDE8F88F0648064DA847BE
:1025300021460648A8470648A847C7E75C10402040
:102540000C11402014AD4000214040004CB640002A
:102550006CAA4000D50B4000F0B599B01446412854
:1025600049D00D4642285FD0432875D0442800F05A
:10257000B0804B2800F0AD804A2800F0CC80A0F15C
:102580004603DBB2072B00F2F480852222FA03F324
:1025900013F0010F00F0ED80482814BF062709272B
:1025A0000023102203A92046934EB047002840F094
:1025B000B0809DF91800BDF81A10904A02EB001285
:1025C00000231373BDF914E0BDF81630BDF80E609A
:1025D000ADF82660049E0A96D28892B2914200F02D
:1025E000AC80102D40F29580012300221146104648
:1025F000814CA0478DE00023042207A920467E4C91
:10260000A047002840F085809DF81D308DF80C30E3
:102610007B4B1B68002B7CD0794B1B6803AA0121E4
:102620009DF91C00984774E00023042207A9204666
:10263000714CA04700286CD19DF81D308DF80C30EE
:102640006F4B1B68002B64D06D4B1B6803AA0221E3
:102650009DF91C0098475CE000230C220DEB020161
:102660002046654CA047002853D19DF91530002B1A
:1026700019DB624A02EB03120021D172012191722F
:1026800060490A88013292B20A800A8892B21AB965
:102690000A88013292B20A805A4A118889B2574A8E
:1026A00002EB0312D1808DF81C300223ADF82030EC
:1026B000BDF80E30ADF82230049B0993504B1B68D7
:1026C0003BB34F4B1B6807AA04219DF914009847A0
:1026D0001FE00023042207A92046474CA047C0B9A9
:1026E0009DF91C008DF80C009DF91D308DF80D3002
:1026F0003BB9BDF81E30083B9BB2404A02EB0012CA
:1027000013813F4B1B6823B13D4B1B6803AA052176
:10271000984719B0F0BD0023442207A92046364C43
:10272000A0470028F5D1384B1B68002BF1D0364B61
:102730001B68179907A89847EBE7BEF1000F01DD6A
:10274000AE450DDBADF820E0002307932C4B1B6852
:10275000002BDED02A4B1B6807AA39469847D8E7DA
:102760001FFA8EF2009223443A4607A9274CA0474D
:10277000CFE700F0FD03452B19D04C2817D0522885
:10278000C7D10123142207A920461B4CA0470028CB
:10279000BFD11F4B089A1A601B68002BB9D01C4B85
:1027A0001B689DF82C20099907989847B1E747289E
:1027B00014BF072508250023082207A920460E4C30
:1027C000A0470028A5D19DF91C00BDF82020BDF828
:1027D0001E30ADF80C30094B03EB0013DB889BB2C5
:1027E0009A4296D1064B1B68002B92D0044B1B6873
:1027F00003AA294698478CE7D50B40005C1040207F
:102800000C114020220A4020141140209D24400039
:102810001011402008B50A4B1B7803B108BDB02247
:1028200000210848084B984708490220084B984760
:102830000122034B1A700022064B1A80EEE700BFFC
:10284000210A40205C1040208105400059254000AD
:10285000E90C4000220A4020024B1860024B19602C
:10286000704700BF0C11402014114020F0B587B014
:10287000022858D1012959D0022916D10B26072444
:1028800025462E4B03EB04139B7A002B51D0631C7F
:10289000DBB22A4FDCB2B44240D21D4607EB031133
:1028A000897A581C21B10346F4E74FF0FF3437E032
:1028B000224800EB0310164610220021204B9847B7
:1028C0001E4B03EB051301229A721E4A1388013333
:1028D0009BB2138013889BB21BB9138801339BB240
:1028E0001380184B1A8892B2144B03EB0513DA804D
:1028F00064B216F0010F13D006AA02F8044D0F4B74
:1029000003EB05152123EB7200230293019300933F
:102910000423502102200C4DA84701E04FF0FF3462
:10292000204607B0F0BD4FF0FF34F9E7072600243A
:10293000A6E7024800EB0410BDE700BF5C10402092
:1029400081054000220A4020E506400030B589B0EC
:10295000041E36DB002934D01D4B03EB04139B7A95
:10296000DBB2002A30D0012B2ED1194B03EB04131C
:10297000DB7A13F0010F22D0154B03EB0413DB7A43
:102980008DF81D304B258DF81C40082205A8114BF1
:1029900098470F4800EB0410C388ADF81E300023A1
:1029A0000293019300930C2305AA294602200A4CA6
:1029B000A047002818BF6FF0080009B030BD4425BB
:1029C000E1E76FF00500F8E76FF00500F5E700BFFD
:1029D0005C1040206D054000E506400030B589B030
:1029E0000C46003118BF0121B2F5AF6F88BF00213E
:1029F000002937D0002835DB1D4B03EB00139B7AF1
:102A0000DBB2012B31D18DF81000ADF81220184B3C
:102A100003EB0013DB88ADF81C300728B4BF50254A
:102A20004425134B03EB0013DB7A13F0010F17D08F
:102A30000F4B03EB00100589ADB24C2102950192BA
:102A4000009410230DEB030241F080010220094C99
:102A5000A04700280CBF00206FF00D0009B030BD6A
:102A60004521EBE76FF00500F8E76FF00500F5E7AB
:102A70005C104020E5064000002918BF002A44D021
:102A800070B586B00E461546002836DB204A02EBAC
:102A90000012927AD2B2012A32D11D4C0101621881
:102AA00066509580127B002A2DD104EB0012012183
:102AB0001173D27A0A40002A0CBF46214D21D3B9A6
:102AC0004FF0FF3304938DF81400114B03EB00100B
:102AD000C388ADF8163000230293019300930823B6
:102AE00004AA02200B4CA04700280CBF00206FF066
:102AF0000D0006B070BD0493E5E76FF00500F8E740
:102B00006FF00500F5E70020F3E76FF00500704770
:102B10005C104020E506400030B587B0041E2FDB76
:102B20001A4B03EB04139B7ADBB2012B2BD18DF8EC
:102B30001440164B03EB0413DA88ADF8162000227C
:102B40009A72DA80DB7A03F00103934202920192D7
:102B500000924FF0040305AA0CBF49214E21022028
:102B60000B4DA847051E18BF6FF008051022002165
:102B7000064800EB0410074B9847284607B030BDC5
:102B80006FF00505F9E76FF00505F6E75C104020EA
:102B9000E50640008105400070B582B005462B4B2C
:102BA0009847C0F30B00B0F5687F03D2002420469D
:102BB00002B070BD01A941F21040254B9847044670
:102BC0000028F4D1234B019A134023491943019162
:102BD00041F21040214B984705B3002120481F4D7A
:102BE000A847AB211F48A84701211F48A84700213B
:102BF0001E48A84781211E48A8471E4E1E4D30463C
:102C0000A8470128FBD11349019B194041F48031A9
:102C1000019141F21040114B9847C8E7002110483C
:102C20000E4DA847B9210F48A84701210E48A847D3
:102C300000210E48A84781210D48A8470D4E0E4D92
:102C40003046A8470128FBD1DDE700BFAD154000A5
:102C5000A9184000FF8F88F800101101B518400036
:102C6000080201000C020100140201001C02010014
:102C700004020100180201009D18400010B5104820
:102C8000104B98473E2100200F4B98470F4CA04710
:102C90000028FCD00E4B98470E4A0F4B9A620F4CFF
:102CA000A0470028FCD002200D4B984700200D4B78
:102CB00098470D4B98470248024B984710BD00BFFC
:102CC00000A3E111F9384000C13340001534400041
:102CD00025344000013F182000060E4035344000E6
:102CE000253340005D334000ED3740002DE9F041D1
:102CF00080B90C469046002A0FDD8F18084E094D0A
:102D0000306821462B6898470134BC42F8D14046D0
:102D1000BDE8F0814FF0FF38F9E78046F7E700BFE4
:102D200020114020181140200138022815D82DE923
:102D3000F0410E4614469AB10D46DFF838800C4F2C
:102D4000D8F8000015F8011B3B68984700280ADBFB
:102D5000A81B013CF4D1BDE8F0814FF0FF30704773
:102D60001046BDE8F0814FF0FF30BDE8F08100BFB4
:102D70001C11402020114020F8B54FF400425C4B5C
:102D80005A60BFF34F8FBFF36F8F5A4B0022C3F8C7
:102D900050225A6942F400325A61BFF34F8FBFF399
:102DA0006F8FD3F88070C7F34E3607F007000430FA
:102DB000C7F3C907B7FA87FE0EF01F0EBFF34F8F98
:102DC0004FF0FF3404FA00FC06FA00F004FA0EF4A7
:102DD00007FA0EFE1D463A46734640EA0301C5F85F
:102DE0006012013A2344B2F1FF3FF6D1013E604444
:102DF000B6F1FF3FEFD1BFF34F8F3E4B5A6942F41C
:102E000080325A61BFF34F8FBFF36F8F3A4A3B490D
:102E10005160A1F580715160BFF34F8FBFF36F8F89
:102E2000D3F8902222F00102C3F89022D3F8942222
:102E300022F00102C3F89422BFF34F8FBFF36F8FCC
:102E40000A202F4CA0470B20A0470C20A0471020A1
:102E5000A0471120A0472B4B4FF480721A61C3F892
:102E6000A0201A63A3F580634FF400625A61C3F88F
:102E7000A0205A66C3F890205A651A62C3F88420CD
:102E8000196F21F400611967596F21F400615967C6
:102E9000C3F8C020C3F8D420C3F8B0204FF4001208
:102EA0001A66C3F890205A655A62C3F88020196FD9
:102EB00021F400111967596F21F4001159675A6004
:102EC000114AD2F8143143F01003C2F814310F4BF9
:102ED00010221A66C3F890205A655A62C3F88020FF
:102EE000196F11431967596F114359675A60F8BD3B
:102EF00050180E4000ED00E0000C0E400C08005A87
:102F00004534400000120E400080084000100E4082
:102F10000AB901667047416670474264B1F1C05F0B
:102F20003AD013D8B1F1006F25D0B1F1805F0AD14A
:102F3000036F13430367436F416F0B4023EA0203A0
:102F40004367426070470029FBD17047B1F1205FB1
:102F500021D009D8B1F1005FF3D1036F13430367A8
:102F6000436F13434367ECE7B1F1405F13D0B1F116
:102F7000605F10D0E5E710B4016F046FD3432140C8
:102F80001C4619400167436F416F0B402340436764
:102F900042605DF8044B7047036F016F0B4023EAFA
:102FA00002030367436F13434367CAE7416412F0A8
:102FB000010F0DD1016612F00A0F0BD0016212F061
:102FC000020F09D112F0080F08D0C0F8841005E0F4
:102FD0004166F0E74162F2E7C0F8801041610160AC
:102FE000704710B4019C41644CB901664BB1016556
:102FF0004AB94163016101605DF8044B7047416665
:10300000F4E74165F4E70163F4E712F0100F12D022
:10301000C0F8B01012F0200F07D0C0F8D41012F092
:10302000400F05D0C0F8C0107047C0F8D010F6E7C8
:10303000C0F8C4107047C0F8B410704701647047FE
:1030400041647047C06C7047806C704770B582B047
:103050000D46464C04EB5014640201F0F043B3F10A
:10306000005F59D00AD8B3F1805F2FD0B3F1C05FB1
:103070003FD0B3F1006F16D0002012E0B3F1405FF3
:103080005DD0B3F1605F5AD0B3F1205FF4D100F0AE
:103090001F0101262A4606FA01F12046344B9847C3
:1030A000304602B070BD00F01F0001268640324657
:1030B0004FF0006120462F4B984715F0010F02D1C9
:1030C00026660120EDE766660120EAE700F01F00B2
:1030D0000126864032464FF080512046254B9847C6
:1030E00015F0010F02D126660120DAE7666601209D
:1030F000D7E700F01F000126864032464FF0C0514E
:1031000020461C4B984715F0010F02D1266601207E
:10311000C7E766660120C4E700F01F00012686406D
:1031200032464FF000512046124B984715F0010FE0
:1031300002D126660120B4E766660120B1E705F0FA
:10314000605200F01F01012605EA06030093C5F353
:103150008003B2F1605F14BF0022012206FA01F180
:103160002046054CA04730469BE700BF07072000DC
:10317000AD2F40001B2F4000E32F40002DE9F04110
:10318000044688460E4B9847054620460D4B984707
:10319000054013D00C4C04F1600603E0B4420DD09E
:1031A00010345DB120684045F8D161682942F5D0FE
:1031B000E3689847636825EA0305EFE7BDE8F08117
:1031C0004530400049304000240A4020F8B5184CF2
:1031D0002668062E2AD84FF0000C6446154F04E0EE
:1031E0000134E4B2A446A64209D3A64625017D597E
:1031F0008D42F5D107EB04156D689542F0D10D4D68
:103200004FEA0E1E05EB0E0445F80E106260A36037
:103210000699E1600136664505D011461A46064B0F
:1032200098470020F8BD02490E60F6E70120F8BD7E
:10323000940A4020240A40200B30400008B50A219F
:103240000148024B984708BD000E0E407D314000FA
:1032500008B50B210148024B984708BD00100E40ED
:103260007D31400008B50C210148024B984708BD4C
:1032700000120E407D31400008B510210148024B7C
:10328000984708BD00140E407D31400008B511215B
:103290000148024B984708BD00160E407D314000A2
:1032A000F8B506460D461446174B984707464FF0AB
:1032B000FF313046154B98473046154B98475FFA1B
:1032C00085FE0EF01F03012202FA03F3680911497B
:1032D00001EB8002C2F88030C2F88031002D0ADB99
:1032E0006401E4B20C4A545541F820303946304666
:1032F0000A4B9847F8BD0EF00F0E6401E4B2084A7D
:1033000002F80E40F0E700BF493040004130400075
:103310004530400000E100E000E400E03D304000C6
:1033200014ED00E0032811D0042812D002280CBFAD
:103330004FF480710021084A136B23F440730B4350
:103340001363936E13F0080FFBD070474FF4407176
:10335000F1E74FF40071EEE700060E40174A136BD9
:1033600023F0700318431063936E13F0080F0AD113
:103370004FF4805311498A6E12F0080F03D1013BBC
:10338000F9D1012070470D4A136B23F0030343F07A
:1033900002031363936E13F0080F0AD14FF48053A6
:1033A00006498A6E12F0080F05D1013BF9D10120C0
:1033B0007047002070470020704700BF00060E4095
:1033C000A0B90E48036A090289B20D4A1A400D4B92
:1033D0001343194301620246936E13F0010FFBD0B1
:1033E000064A116A084B0B431362704703490B6A84
:1033F000064A1A40064B13430B62704700060E4004
:10340000FCFFC8FF0100370000003701FCFFC8FEC9
:1034100002003701024B986E00F48030704700BF05
:1034200000060E404FF00052014B9A62704700BFF9
:1034300000060E40024B986E00F00200704700BF7D
:1034400000060E403F281ED81F280CD8114B9A6941
:1034500001238340934318D0012303FA00F00D4B5E
:1034600018610020704720380A4BD3F80821012347
:10347000834093430BD0012303FA00F0054BC3F8BC
:103480000001002070470120704700207047002095
:10349000704700BF00060E4008B5074B984203D0A6
:1034A000064B984204D008BD1520054B984708BD2F
:1034B0002A20034B9847F6E7008000400080054033
:1034C00045344000436823F4702343604368090493
:1034D00001F4702119434160704710B443F69923F9
:1034E000046914F0010F03D1013BF9D1012009E077
:1034F0008368406810F0020F02D0C3F303401070DD
:103500000B8000205DF8044B704730B443F69924DB
:10351000056915F0020F03D1013CF9D101200CE03F
:10352000446814F0020F06D0120402F47022114312
:103530000BB141F08071C160002030BC704732B9DE
:1035400000EB8100036B23F001030363704700EB82
:103550008100036B43F001030363704732B900EB52
:103560008100036B23F002030363704700EB8100CB
:10357000036B43F002030363704700EB81010B6BA5
:1035800023F0F0030B630B6B1A430A637047431E6F
:103590001944B1FBF0F0431EFE2B94BF00B24FF074
:1035A000FF3070477AB110B4144600EB81010B6B09
:1035B00023F47F430B630A6B42EA04220A63002070
:1035C0005DF8044B70474FF0FF30704710B400EBCC
:1035D0008101086B80B208630C6B44EA036343EA21
:1035E00002430B635DF8044B7047436913F0020F0D
:1035F00002D0C1610020704701207047436913F079
:10360000010F03D083690B700020704701207047C1
:1036100010B40B01934214D9C9004B0803EBC2024A
:10362000B2FBF1F2D3085C1E4FF6FE718C4201D959
:10363000012017E0416841F4002141600CE00120C5
:1036400010E0590801EBC202B2FBF3F2D3085C1E92
:103650004FF6FE718C42F2D8120402F4E0221A43B3
:10366000026200205DF8044B70470000084BC0F870
:10367000E430002343604362836288230360242391
:1036800003604FF4807303604FF4002303607047BE
:103690000041535570B505460C4616460F4B9847EA
:1036A00000220F4B1A60A4B13246216828460D4B08
:1036B0009847024678B96368A1680B4321690B43B8
:1036C000E1680B4306490B6069680B436B60104669
:1036D00070BD0122FBE70122F9E700BF6D36400013
:1036E000980A4020113640004023036070471023A1
:1036F00003607047436913F0020F04D0C1F308015F
:10370000C1610020704701207047436913F0010F29
:1037100005D08369C3F308030B60002070470120C4
:103720007047FEE700B583B0254B264A9A4210D079
:10373000254B234A9A420CD2013B9B1A23F00303E8
:10374000043313441F4951F8040B42F8040B9A4206
:10375000F9D11E4B1E4A9A420AD2013B9B1A23F012
:10376000030304331344002142F8041B9342FBD1AA
:10377000184A194B23F07F039360EFF31083B3FAD9
:1037800083F35B09019372B6BFF35F8F0022134B83
:103790001A700199124A136843F470031360BFF35F
:1037A0004F8FBFF36F8F29B101220C4B1A70BFF3FB
:1037B0005F8F62B60B4B98470B4B9847FEE700BFF5
:1037C00000004020C4BB4000D80940204C114020DC
:1037D000D809402000ED00E0000040001400402027
:1037E00088ED00E0D13F4000E93D40003B4B1B6BC2
:1037F00003F00303012B1DD083B1022B36D0374BCE
:103800001B6B03F07003702B5FD0344B1A6B344981
:10381000C2F302120B68D3400B607047314B5B69F7
:1038200013F0800F14BF4FF400424FF4FA422C4BB8
:103830001A60E4E7294B1B6A13F0807F03D02A4A01
:10384000274B1A60DBE7294A254B1A60234B1B6A7A
:1038500003F07003102B05D0202BD0D1224A204B2F
:103860001A60CCE7224A1E4B1A60C8E71B4B1B6A42
:1038700013F0807F16D01C4A194B1A60174B1B6B34
:1038800003F00303022BBAD1144A916A926A1448D6
:10389000C1F30A41036801FB0333D2B2B3FBF2F375
:1038A0000360ACE7114A0E4B1A600C4B1B6A03F025
:1038B0007003102B05D0202BE0D10B4A084B1A6067
:1038C000DCE70B4A064B1A60D8E7054A136809493A
:1038D000A1FB03135B081360704700BF00060E4096
:1038E0001800402010180E40001BB70000093D00D2
:1038F00000127A00ABAAAAAA124B984211D9124B15
:10390000984213D9114B984214D9114B984215D9AA
:10391000104B984294BF4FF004220F4A0F4B1A608D
:1039200070474FF080620D4B1A6070470C4A0B4B8A
:103930001A6070470B4A094B1A6070470A4A074BD6
:103940001A607047FF2C3101FF596202FF86930312
:10395000FFB3C404FFE0F50500050004000C0E40B1
:103960000001000400020004000300040A4B1B686D
:1039700053B1094B1B681A180849914208DB1046DD
:10398000054A106018467047054A034B1A60F0E775
:103990004FF0FF30704700BF9C0A4020FCFF4520DD
:1039A000503340204FF0FF3070474FF400534B60CE
:1039B00000207047012070470020704710B582B08A
:1039C000074B19600B0E0193C1F307430093C1F33A
:1039D0000723CAB201460348034CA04702B010BDFA
:1039E0001C1040209CB7400021404000F0B585B03D
:1039F00006460D461746434B6C460FCB07C424F8CA
:103A0000023B1B0C2370404B93F90030B34201D0B2
:103A100005B0F0BD052D11D0062DF9D11FB1B7F9B4
:103A20000430002B4DDC3948394B9847364C94F91B
:103A30000000384B9847FF232370E9E73648344BA2
:103A40009847364B1B78002BE2D0354C4FF4AF62D1
:103A500000212046334B98476A4633492046334B72
:103A6000984707B397F90130002B1CDB3048284BEF
:103A7000984720462F4B9847234D002382B221467A
:103A800095F900002C4EB0474FF4AF663246002146
:103A90002046244B984700233246214695F90000E2
:103AA000264CA047B4E72648194B984700221B4BE9
:103AB0001A70154C94F90000164B9847FF23237099
:103AC000A6E739681F48124CA04738681E491F4BAB
:103AD0009847817A312914BF002101211C48A04751
:103AE0000F4C4FF4AF652A46002120460D4B9847F6
:103AF00000232A462146044890F900000F4CA047B5
:103B000086E700BF70B840002B00402054B840004A
:103B100021404000192B4000CCB740001810402035
:103B2000A00A402049404000E0B7400085424000E4
:103B300008B8400001434000DD294000792A4000D8
:103B400010B840002CB840003CB840008D46400002
:103B500044B8400010B582B02C2803D0322813D0CE
:103B600002B010BD0B78012B08D0002BF8D10D4806
:103B70000D4B984700220D4B1A70F1E70C480A4B89
:103B800098470C4B9847EBE78B784A780878C978C8
:103B9000009101460848044CA0470122034B1A70CB
:103BA000DEE700BFA0B840002140400020104020C8
:103BB00080B84000D9134000C4B84000F0B583B0CD
:103BC00005460C46002301932A4B984213D02A4BFA
:103BD000984218D0294B98421DD0294B9D4222D0A3
:103BE000284B9D4227D0284B9D422ED0274B9D42EB
:103BF00035D003B0F0BD1F46254E21463846B047AC
:103C00000028FAD1E9E71F46214E21463846B04741
:103C10000028FAD1E4E71F461D4E21463846B0473A
:103C20000028FAD1DFE71F46194E21463846B04733
:103C30000028FAD1DAE71E46164D01A93046A847FA
:103C40000028FAD1019B2370D3E71E46114D01A92C
:103C50003046A8470028FAD1019B2370C9E71E46C9
:103C60000C4D01A93046A8470028FAD1019B2370CA
:103C7000BFE700BF00080E40000A0E40001A0E40C9
:103C8000001C0E40004002400080024000C0024084
:103C9000FD3540000B37400070B50C462A4B98426A
:103CA00013D02A4B984219D0294B98421FD0294B48
:103CB000984225D0284B98422BD0284B984231D09F
:103CC000274B984237D0002070BD1E46254D214617
:103CD0003046A8470028FAD1012070BD1E46214D6C
:103CE00021463046A8470028FAD1012070BD1E4663
:103CF0001C4D21463046A8470028FAD1012070BD4E
:103D00001E46184D21463046A8470028FAD101200A
:103D100070BD1E46144D21463046A8470028FAD1F2
:103D2000012070BD1E46104D21463046A847002890
:103D3000FAD1012070BD1E460B4D21463046A847E2
:103D40000028FAD1012070BD00080E40000A0E4084
:103D5000001A0E40001C0E4000400240008002404D
:103D600000C00240EB354000F5364000F0B40138A9
:103D7000002422462546264611E0A3F13007092FEC
:103D800014D802EB820207EB420207E00135032D53
:103D900024DCFF2A24D842EA042432464BB110F82E
:103DA000013F2E2BF2D0E8D8002BF2D00020F0BC3F
:103DB0007047022D03DCC5F10303DB009C4089B191
:103DC000230E43EA0463220202F47F021A43230A09
:103DD00003F47F4313430B600120E8E70020E6E78C
:103DE0000020E4E70120E2E770B592B04D4B984720
:103DF0004D4B98470E204D4EB0474D4D4D4B1D60DD
:103E00004D4A4E4B1A604E4A4E4B1A604FF4E13306
:103E10000293C02303934FF400630493002405949A
:103E200006940E20B047484A02A92846474B9847B7
:103E30002846474B98472846464B9847464E336896
:103E400021469868454DA847336821465868A847D9
:103E50004348444B9847444B98470D940E940F9415
:103E600010941194414B0C930CA8414B984720B1EE
:103E7000014640483B4B9847FEE73F4B98473F4938
:103E80003F48404B9847404D29464048354CA04755
:103E9000FF2300933E4B02220D2128463D4DA847AB
:103EA0000223ADF8203048F61303ADF8223009A9FB
:103EB00039483A4B984709993948A047394D3A4C07
:103EC0003A4E02E03A48274B98470020A84723780B
:103ED000012BFAD196F90030002BF6DA3548214B48
:103EE0009847002201210220334B98473070002868
:103EF000E8DB32481B4B9847102208A996F90000CE
:103F00002F4B984718B901222E4B1A70DDE796F90E
:103F100000002D4B9847FF2333702C48114B9847D6
:103F2000D3E700BF7D2C4000792D40004534400090
:103F30000080024020114020993C40001C1140208C
:103F4000BD3B40001811402080D1F008953640005C
:103F5000E9364000EF3640002C004020E5404000AC
:103F600060B640002140400025024000553B400023
:103F700065104000C4B6400015284000BD3940001F
:103F8000ED39400059284000ECB64000FCB6400036
:103F900020B74000BD1340001C0040206D3D400094
:103FA0002CB7400061114000201040202B00402021
:103FB0004CB740003CB740006D28400080B740003F
:103FC0004D29400018104020192B400094B74000A4
:103FD00070B50F4E0F4D761BB61018BF002405D0DC
:103FE000013455F8043B9847A642F9D10A4E0B4DCF
:103FF000761B07F0D1FDB61018BF002406D001349F
:1040000055F8043B9847A642F9D170BD70BD00BF7A
:10401000A4BB4000A4BB4000ACBB4000A4BB40001C
:104020000FB400B5074983B004AB086853F8042BFC
:104030008168019301F0A4FE03B05DF804EB04B0C5
:10404000704700BF2C00402070B4860746D0541E35
:10405000002A41D0CAB2034602E014F1FF343BD338
:1040600003F8012B9D07F8D1032C2ED9CDB245EAD8
:1040700005250F2C45EA054519D903F110022646FE
:10408000103E0F2E42F8105C42F80C5C42F8085CBF
:1040900042F8045C02F11002F2D8A4F1100222F0FE
:1040A0000F0204F00F041032032C13440DD91E46E6
:1040B0002246043A032A46F8045BFAD8221F22F06B
:1040C00003020432134404F003042CB1C9B21C44AB
:1040D00003F8011B9C42FBD170BC70471446034699
:1040E000C2E700BF00290CBF022200224FF4806308
:1040F00000F000B82DE9F043614C256883B0044618
:104100000F4690461E4615B1AB6B002B64D0B8F13C
:10411000020F06D0B8F1010F00F29F80002EC0F20E
:104120009C80636ED80734D52146284603F086FD6F
:10413000216B41B104F14003994202D0284603F0BB
:10414000FBFE00232363B4F90C300022A2616260FD
:104150001A063AD423F44A6323F00303B8F1020F9A
:10416000A3811DD001AB6A462146284604F090F990
:10417000A3891843A081002E32D1009E304604F05E
:10418000FFF9074600286BD0A38943F08003A38181
:1041900028E0A3899905C7D4A06D04F075F9C3E799
:1041A0000025616E002604F1430243F00203012062
:1041B000A660CE07A38122602261606101D49805C8
:1041C0003ED5284603B0BDE8F0832169284603F0B8
:1041D000B3FEB4F90C30BDE7284603F087FD96E73F
:1041E000002FCBD0AB6B002B33D0009BB4F90C204D
:1041F00027609E421CBF42F40062A281B8F1010F09
:1042000004BF42F00102A28192B212F008032761BA
:1042100066610ED0D1071AD5656E7642002315F07F
:104220000105A661A36009D00025284603B0BDE8BA
:10423000F083A360656E15F00105F5D19305C0D438
:10424000A06D04F023F9284603B0BDE8F083A66012
:10425000F0E7284603F04AFDC7E74FF0FF35B0E727
:10426000DDF80090B14504D0484604F089F90746CE
:1042700020B9B4F90C304FF0FF3592E74E4683E792
:104280002C0040200EB4F0B59CB021AB0F4953F880
:10429000042B019305466FF00044086802954FF423
:1042A00002774FF6FF7602A90695ADF814700494D4
:1042B0000794ADF8166000F0F5FA029B00221A7020
:1042C0001CB0BDE8F04003B0704700BF2C00402098
:1042D00000000000000000000000000000000000DE
:1042E00000000000000000000000000000000000CE
:1042F00000000000000000000000000000000000BE
:1043000090F800F06DE9024520F007016FF0000C15
:1043100010F0070491F820F040F049804FF00004BD
:104320006FF00700D1E9002391F840F000F1080098
:1043300082FA4CF2A4FA8CF283FA4CF3A2FA8CF3D0
:104340004BBBD1E9022382FA4CF200F10800A4FA37
:104350008CF283FA4CF3A2FA8CF3E3B9D1E904238B
:1043600082FA4CF200F10800A4FA8CF283FA4CF3C2
:10437000A2FA8CF37BB9D1E9062301F1200182FA7C
:104380004CF200F10800A4FA8CF283FA4CF3A2FA82
:104390008CF3002BC6D0002A04BF04301A4612BA90
:1043A000B2FA82F2FDE8024500EBD2007047D1E993
:1043B000002304F00305C4F100004FEAC50514F022
:1043C000040F91F840F00CFA05F562EA05021CBFF3
:1043D00063EA050362464FF00004A9E72DE9F041C6
:1043E0004FF0010E744600254FF0FF362B198B421B
:1043F00000EB06070DD23F5D10F803C0BC452DD27F
:104400001D460124A3EB060E2B198B4200EB060779
:10441000F1D34FF00108C2F800E0444600254FF008
:10442000FF372B19994200EB070E0ED91EF804E056
:1044300010F803C0F44518D91D460124A3EB070862
:104440002B19994200EB070EF0D80137701C8742F8
:1044500024BFC2F800803846BDE8F0810CD04FF090
:10446000010E2E4674467544C0E70BD04FF001088C
:104470002F4644464544D4E7744512BF01341D46D7
:104480000124B3E7444512BF01341D460124C8E7A7
:104490002DE9F04FADF2144D164605468B461046F9
:1044A000194603AA1C46FFF799FF03AB81460DF29C
:1044B0000C4243F8044F9342FBD14CB1631E721E71
:1044C00004A812F8011F40F8213013F1FF33F8D28D
:1044D00003994A463144304604F072FB00286FD1FC
:1044E00009F1FF330093F318824601932346804677
:1044F000544658469A4608EB0A073A1A00212844BF
:1045000004F00EFB002856D1002F54D0EB1904AA5A
:1045100013F8013C52F823304BB124B1039A934273
:1045200001D2AAEB0203984400243846E3E74C4545
:1045300023460AF1FF3E38BF4B46734513D208EBC2
:10454000030216F803C0A85C84452A4406EB030165
:1045500006D02CE011F801CF12F8010F844526D1C6
:1045600001337345F6D34C45009980F08980009B58
:1045700008EB0302019BA85C1B7898422A447FD178
:10458000019804F1FF3B06E010F801CD12F801EDAF
:10459000F44503D119464B1E9B45F5D101348C429D
:1045A00070D8039C3846A044AAEB0404A3E7C9F1E1
:1045B00001029044B7E700200DF2144DBDE8F08FE2
:1045C000A4EB09034B4538BF4B46013309F1FF38D3
:1045D000039306EB080358464FF0000ACB46994672
:1045E0000AEB04073A1A0021284404F099FA00283B
:1045F000E1D1002FDFD0EB1904AA13F8013C52F8E7
:104600002330A3BB611E8B4515D20AEB0B0216F8B3
:104610000B3015F802E09E452A4406EB0B005B4682
:1046200006D027E010F801CF12F801EFF44521D1B0
:1046300001338B42F6D3B8F1FF3F11D00AEB0802E9
:1046400099F80010AB5C99422A440FD14B4605E023
:1046500013F8010D12F8011D884207D1B342F7D1BA
:1046600005EB0A000DF2144DBDE8F08F039B9A4450
:104670003846B5E7CBF1010292449A443846AFE799
:1046800049468BE705EB080096E700BF0278002A51
:1046900000F001812DE9F04F91F8008085B044468B
:1046A000B8F1000F16D0864601F1010C012703E096
:1046B00013F8014B6CB19C46A24214BF002707F0CF
:1046C00001071EF8012F6346002AF1D19CF8003043
:1046D000FBB917B105B0BDE8F08F0E46054641465F
:1046E0000130ACEB060405F09BF8074688B1012CBD
:1046F000F0D02819874294BFC11B01211F2C8B4683
:104700000BD9234632463846FFF7C2FE05B0BDE856
:10471000F08F002005B0BDE8F08F03AA2146304697
:10472000FFF75CFE0399804602463144304604F0B0
:1047300047FA002857D108F1FF330093F318814658
:10474000054601935846B2466619321A002138448C
:1047500004F0E6F90028DCD1002EDAD0C845434643
:1047600038BF4B469C4212D95A191AF80310B85C4C
:1047700081423A440AEB030E06D02CE01EF8010FEA
:1047800012F8011F884226D101339C42F6D1C84558
:10479000009940F28380009BEA18019BB85C1B786B
:1047A00098423A447AD1019809F1FF3B06E010F8AB
:1047B00001CD12F801EDF44503D119464B1E5B45BE
:1047C000F5D109F10109894557D8039B30461D44AD
:1047D000A4EB0309B8E7C8F1010215441D444FF0EA
:1047E00000093046B0E7A4EB0803434538BF434611
:1047F000013308F1FF39039306EB090358460025FE
:10480000BB469A4667193A1A0021584404F088F9C1
:1048100000287FF47EAF002F3FF47BAF444515D9CD
:1048200008EB050216F808301BF8020098425A44BB
:1048300006EB0801434606D023E011F801EF12F819
:10484000010F86451DD101339C42F6D1B9F1FF3FDE
:1048500012D005EB09029AF800301BF802109942B9
:104860005A4414D1534605E013F8010D12F8011D06
:1048700088420CD1B342F7D15F46781905B0BDE844
:10488000F08FC8F1010215441D443846BAE7039B76
:1048900038461D44B6E70B7813B97047414690E798
:1048A000002070472DE9F04FC3B00C460B919246A3
:1048B0000F930C9003F0D6FD03681A931846FFF788
:1048C0001FFDA3891990190603D52369002B01F058
:1048D000038000230DF1C8091393159314932793B4
:1048E000269318931B930993CDF89490C84616937A
:1048F00017939AF800305446E3B1252B02D119E002
:10490000252B03D014F8013F002BF9D1A4EB0A05A5
:1049100085B1269B279AC8F800A001332A44072BAB
:10492000C8F80450279226937FDC08F10808099BF9
:104930002B4409932378002B7FD000231A468DF84F
:10494000773019460D939B464FF0FF3063780A90FD
:1049500004F1010A0AF1010AA3F12000582800F22B
:10496000C183DFE810F03802BF03BF034002BF037A
:10497000BF03BF03BF03BF03BF0345020302BF035F
:104980005D006B02BF0386029D039D039D039D0393
:104990009D039D039D039D039D03BF03BF03BF03B1
:1049A000BF03BF03BF03BF03BF03BF03BF0337037F
:1049B0005703BF035703BF03BF03BF03BF039803DE
:1049C000BF03BF03AD03BF03BF03BF03BF03BF03E9
:1049D0005902BF03BF031E03BF03BF03BF03BF03CF
:1049E000BF03BF03BF03BF03BF03BF03C602DB0296
:1049F0005703570357038B02DB02BF03BF03900229
:104A0000BF039D02CC01B4020802BF03E101BF0352
:104A10007E00BF03BF030D020D980F9340420D901F
:104A20004BF0040B9AF8003094E725AA0B990C98E8
:104A300004F06AFF40B9C84679E7279B23B10C9878
:104A40000B9925AA04F060FF0B9B9B8913F0400F84
:104A5000099B18BF4FF0FF330993099843B0BDE895
:104A6000F08F1BF0200F119340F0DD810F9A1BF0A7
:104A7000100F134640F06E851BF0400F00F06A8562
:104A800014880432002501230F9200278DF87770D7
:104A90000A994A1C00F065822BF08002079254EAC2
:104AA000050240F06482002940F03C84002B40F075
:104AB000D7841BF001030E9300F0048642AE30232E
:104AC00006F8413D0A9B0E9A9342B8BF13460893DD
:104AD0000023129317B1089B01330893079B13F02F
:104AE0000203109302D0089B02330893079B13F034
:104AF000840540F00E830D9B089AA3EB020BBBF1DB
:104B0000000F40F30683BBF1100F279C269A29DD86
:104B100043462146A84610270C9C0B9D06E0ABF1AE
:104B2000100BBBF1100F03F1080318DD0132B74879
:104B300026921031072A279183E88100EFDD25AA0C
:104B40002946204604F0E0FE00287FF47DAFABF15B
:104B5000100BBBF1100F2799269A4B46E6DC454611
:104B60000C4698460132A94B26925C44072A2794AA
:104B700088E8080800F398849DF8777008F1080821
:104B800077B1269B013301340DF177010122072B08
:104B90002794269388E8060000F3DB8308F10808D1
:104BA000109B6BB1269B013302341EA90222072BF6
:104BB0002794269388E8060000F3D68308F10808B6
:104BC000802D00F015830A9B0E9A9F1A002F36DD68
:104BD000102F269B8E4D27DD42462146B0464FF0D2
:104BE000100B2E460C9C0B9D04E0103F102F02F181
:104BF000080215DD01331031072B2791269382E837
:104C00004008F2DD25AA2946204604F07DFE002852
:104C10007FF41AAF103F102F2799269B4A46E9DCF4
:104C200035460C464646904601333C44072B2794B4
:104C3000269388E8A00000F3818308F10808079B09
:104C4000DF0500F16882269B0E99C8F800600133E9
:104C50000C44072B2794C8F80410269300F34D83C7
:104C600008F10808079B5B073AD50D9B089A9D1A27
:104C7000002D35DD102D269B20DD10260C9FDDF844
:104C80002CB004E0103D102D08F1080816DD0133AA
:104C90005E4A26931034072B279488E84400F1DD00
:104CA00025AA5946384604F02FFE00287FF4CCAEE2
:104CB000103D102D279C269BC846E8DC0133534A43
:104CC00026932C44072B279488E8240008DD25AA86
:104CD0000B990C9804F018FE00287FF4B5AE279CC1
:104CE000099B0D9A08998A42ACBF9B185B180993DF
:104CF000002C40F00D8300232693C846F9E511935C
:104D00001BF0200340F0E3811BF0100240F02E84E2
:104D10001BF0400300F02A840F9913460A46043220
:104D20000C880F920025B0E60F9A119316680024A4
:104D30008DF87740151D002E00F0A7860A9A531CA7
:104D400000F009862146304603F0EAFE002800F014
:104D5000E186831B0E930A940F95CDF81CB023EACD
:104D6000E373089312949DF87770B3E69AF80030D5
:104D700001222B21EEE54BF0200B9AF80030E9E5FB
:104D80001193002A40F09587224B18931BF0200FB7
:104D900040F011810F9A1BF0100F134640F0E18391
:104DA0001BF0400F00F0DD83043314880F930025BF
:104DB0001BF0010F00F00C8154EA050300F008819C
:104DC00030239DF844208DF878308DF879204BF011
:104DD000020B022359E69AF8003000297FF4BAAD9D
:104DE00001222021B6E54BF0010B9AF80030B1E525
:104DF0000F9C23680D9318460028234603F10403F3
:104E0000FFF60AAE0F939AF80030A3E534B94000DC
:104E100044B9400014B940004BF0100B1BF0200FB8
:104E200011933FF423AE0F9D073525F0070303F1DF
:104E30000802D3E900450F92012326E69AF80030D4
:104E40002A2B0AF1010400F02787A3F1300009287A
:104E5000A24600F2AD8600231C461AF8013B04EB83
:104E6000840400EB4404A3F130000928F5D90A9426
:104E700072E54BF0800B9AF800306BE54BF0400B7D
:104E80009AF8003066E59AF800306C2B03BF9AF868
:104E900001304BF0200B0AF1010A4BF0100B59E5E1
:104EA000002A40F011871BF0200F40F0F9841BF01E
:104EB000100F40F0AC841BF0400F00F0A8840F9A54
:104EC000136804320F92BDF824201A8011E50F995F
:104ED000B34B0C6818933022782304318DF8793065
:104EE00011934BF0020B0F9100258DF878200223CF
:104EF000CBE50F9911930A688DF8A02000230A468C
:104F00001F468DF87730043201230893CDF81CB08A
:104F10000A9712970F920E9328AEDFE51193002A9D
:104F200040F0EA861BF0200F5DD11BF0100F40F01F
:104F300008831BF0400F00F004830F99B1F9004083
:104F40000431E51722462B460F91002A73F1000326
:104F500058DB0A999DF877704A1C4FF001037FF4E3
:104F60009BAD54EA050200F0DF81CDF81CB0012BA7
:104F700000F07B82022B40F0068218984E462309EF
:104F800004F00F0143EA05732A091C461546435CE9
:104F900006F8013D54EA0503F1D1A9EB06030E938F
:104FA00090E51193002A40F0A3867E4B18931BF0E6
:104FB000200F3FF4EFAE0F9D073525F0070303F1F7
:104FC00008021BF0010F0F92D3E900457FF4F4AE05
:104FD00002235AE51193002A40F086864BF0100B0D
:104FE0001BF0200FA1D00F9D073525F00705D5E94F
:104FF0000023002A05F108011D4673F100030F91FB
:105000001446A6DA2D27644265EB45058DF87770C6
:1050100001233DE51193002A40F062860F9D07357C
:1050200025F0070303F108020F921A6815925B68D6
:105030001493149B159D23F00044284621464FF0FD
:10504000FF32594B05F02EFB002840F04A832846DA
:1050500021464FF0FF32544B05F006FB002840F08C
:10506000408315A80DC8149905F0F4FA002840F003
:1050700030859DF877704D4E4D4B2BF0800007909A
:1050800011980322002108920A914728D8BF1E4692
:105090000E9212911EE54BF0080B9AF8003059E47D
:1050A000A3F1300000231C461AF8013B04EB8404F2
:1050B00000EB4404A3F130000928F5D90D944BE42A
:1050C0004BF0100B11931BF020033FF41DAE0F9D0E
:1050D000073525F0070303F10802D3E900450F92D5
:1050E0000023D2E41193002A40F0E785119A002AA8
:1050F0003FF4A3AC002301211F4608918DF8A020A6
:10510000CDF81CB08DF877300A9312930E9128AE2B
:10511000E4E4279C34E5119B652B40F3A78015A898
:105120000DC8149905F08CFA002800F05081269BD8
:10513000204AC8F80020013301340122072B2794AC
:105140002693C8F8042000F36A8308F108081F9B1F
:10515000139A279C934203DB079BDD077FF582AD03
:10516000269B19991A9AC8F8002001330C44072B82
:10517000C8F804102794269300F39E8308F10808CA
:10518000139B5E1E002E7FF76DAD102E269B0A4DE1
:1051900040F3F58122461027DDF830B00B9C13E078
:1051A00014B9400000B94000FFFFEF7FF4B84000A1
:1051B000F0B8400030B9400044B9400008F1080898
:1051C000103E102E40F3DA8101331032072B279264
:1051D000269388E8A000F1DD25AA2146584604F070
:1051E00093FB00287FF430AC279A269BC846E7E75C
:1051F0000D9B089A9F1A002F7FF7E5AC102F269B76
:10520000B64D27DD42462146B0464FF0100B2E46E4
:105210000C9C0B9D04E0103F102F02F1080215DDDD
:1052200001331031072B2791269382E84008F2DDE5
:1052300025AA2946204604F067FB00287FF404AC29
:10524000103F102F2799269B4A46E9DC35460C462D
:105250004646904601333C44072B2794269388E822
:10526000A00000F3328208F10808ACE4139B269FEB
:10527000012B40F3FE81013701340123072F2794CE
:105280002697C8F80060C8F8043000F3038208F1DC
:105290000808199A1A9BC8F8003001371444072FE0
:1052A00027942697C8F8042000F3008208F1080824
:1052B00015A80DC8149905F0C3F9139B002840F0F8
:1052C0000181013B013701361C44072F26972794A3
:1052D000C8F80060C8F8043000F3278108F1080816
:1052E0001B9AC8F804200137144421AB072F2794D8
:1052F0002697C8F800307FF7B3AC25AA0B990C9815
:1053000004F002FB00287FF49FAB279CC846A9E469
:1053100025AA0B990C9804F0F7FA00283FF4EBAC9F
:10532000FFF792BBDDF81CB0012B00F03481022B9B
:1053300025D1CDF81CB0002400251EE625AA0B9926
:105340000C9804F0E1FA00287FF47EAB279CC84655
:1053500075E425AA0B990C9804F0D6FA00287FF47E
:1053600073AB279CC8461BE425AA0B990C9804F044
:10537000CBFA00287FF468AB279CC84620E4CDF820
:105380001CB000240025494600E03146E20842EA0C
:105390004572E80804F0070305461446303354EA22
:1053A000050201F8013C01F1FF36EED1079AD20760
:1053B0007FF5F3AD302B3FF4F0AD0239302306F822
:1053C000013CA9EB01030E930E46FFF77BBB1F992F
:1053D000002940F32E82129B139A9342A8BF1346D2
:1053E000002B1F460DDD269BC8F8006001333C44AE
:1053F000072B2794C8F80470269300F31F8308F145
:105400000808129B002FA8BFDB1B002B1F4640F390
:10541000D680102F269B314D40F3ED814246214628
:10542000B0464FF0100B2E460C9C0B9D04E008324A
:10543000103F102F40F3DB8101331031072B2791F0
:10544000269382E84008F2DD25AA2946204604F08A
:105450005BFA00287FF4F8AA2799269B4A46E7E7DB
:105460000A9B0E934E46FFF72DBB002D08BF0A2C5A
:10547000C0F08F804E46204629460A22002305F0C0
:105480004FF9303206F8012D2046294600230A2222
:1054900005F046F904460D4654EA0503EBD1A9EBA5
:1054A00006030E93FFF70EBB25AA0B990C9804F088
:1054B0002BFA00287FF4C8AA9DF87770279CC8466D
:1054C000FFF75EBB5E1E002E7FF70AAF102E034D66
:1054D00022DD22464FF0100B0C9C06E044B9400040
:1054E000103E102E08F1080815DD01371032072F85
:1054F0002792269788E82008F2DD25AA0B992046F6
:1055000004F002FA00287FF49FAA103E102E279A7A
:10551000269FC846E9DC144601373444072F2794F8
:10552000269788E860007FF7D9AE25AA0B990C98DA
:1055300004F0EAF900287FF487AA279C269FC84632
:10554000CEE60F9A146813460433E5170F932246EC
:105550002B46FAE404321C680F9201230025FFF762
:1055600094BA1C6804330F93002521E40F990A466E
:1055700004320C680F920025FFF787BA14460133F6
:105580003444072B2794269388E860007FF768ABA4
:10559000B3E6DDF81CB0CDF81CB042AE30340123C8
:1055A00006F8414D0E93FFF78DBA25AA0B990C987A
:1055B00004F0AAF900287FF447AA279CC8461F9A3E
:1055C000139B9A4244DB079BD90741D4139B129843
:1055D0009A1A1D1A9542A8BF1546002D0EDD269970
:1055E000C8F80450013106442C440729C8F800606B
:1055F0002794269100F33B8208F10808002DACBFE8
:10560000561B1646002E7FF72DAB102E269BB04D55
:10561000B5DD22461027DDF830B00B9C04E008F120
:105620000808103E102EA9DD01331032072B2792F7
:10563000269388E8A000F2DD25AA2146584604F00A
:1056400063F900287FF400AA279A269BC846E8E75A
:10565000269B19981A99C8F8001001330444072BA7
:105660002794C8F80400269300F3F58108F1080890
:10567000ACE7079BDA073FF5FEAD013701340123A4
:10568000072F27942697C8F80060C8F804307FF7E2
:1056900025AE4AE725AA0B990C9804F035F90028A5
:1056A0007FF4D2A9279C269FC846F2E525AA0B992C
:1056B0000C9804F029F900287FF4C6A9279C269F9E
:1056C000C846F5E54E46FFF7FDB925AA0B990C989B
:1056D00004F01AF900287FF4B7A9279CC846FFF701
:1056E00072BA159C22462046149C2346214604F09B
:1056F000D9FF002840F086820A9B0133119B23F0DA
:1057000020030E9300F0E281472B00F01E814BF442
:1057100080730793149B1F1E159B0893BBBF3B46CA
:1057200003F1004700232D231093119B662B00F0FB
:10573000BB81462B00F0DF800E9B089A452B0CBFE7
:105740000A9B0A9D23A820A908BF5D1C0490039111
:105750001FA802213B460290019500910C9801F090
:10576000A3FA119B672B064640F0E0811BF0010F66
:1057700000F046827419169A0898179B394604F06F
:105780005FFF002840F06581239BA34206D23021B1
:105790005A1C23921970239B9C42F9D89B1B13938C
:1057A0000E9B472B00F0E980119B652B40F3CD81C8
:1057B000119B662B1F9B129300F09E81139B129AE4
:1057C0001946914200F38A811BF0010F40F01382C9
:1057D00022EAE273089367230E921193109B002B29
:1057E00040F0C4800A939DF87770FFF773B935468F
:1057F0000C464646904601333C44072B279426939B
:1058000088E8A0003FF7D1AE08F10808D7E60F9A64
:10581000136804320F92099A1A60FFF76AB825AA32
:105820000B990C9804F070F800287FF40DA9C84675
:105830008DE4269B274AC8F8002001330134012259
:10584000072B27942693C8F8042072DC08F1080877
:1058500029B9139B1BB9079BD8077FF503AA269B81
:1058600019981A9AC8F80020013302462244072BDF
:105870002792C8F80400269300F38D8108F10808E8
:105880000029C0F265811399C8F8006001338C18B3
:10589000072B27942693C8F804107FF7E1A92CE57D
:1058A0000F9A09991368CD170846043229460F92BA
:1058B000C3E90001FFF71DB825AA0B990C9804F065
:1058C00023F800287FF4C0A8279CC84658E400BFEE
:1058D00044B9400030B9400040210C9802F058FE15
:1058E0000B9A10601061002800F0F2810B9A40239F
:1058F0005361FEF7EEBF23A820A90A9C04900391F0
:105900001FA803210290089A01943B4600910C982D
:1059100001F0CAF925460646119B462B06EB050405
:105920007FF429AF3378302B00F078811F9D2C4411
:1059300021E725AA0B990C9803F0E6FF00287FF4D5
:1059400083A81F99279CC84682E70A9B002B08BFA3
:1059500001230A93DBE630460A94FEF7D1FC0F954B
:105960000E90CDF81CB00346FFF7F9B92D270023A0
:105970008DF877700A93FFF7AEB81F9B12931A4603
:10598000033304DB0A9B19469142BFF617AF119B04
:10599000023B11939DF844308DF88430129B013BFB
:1059A000002B1F93BDBF129BC3F101032D222B229D
:1059B000092B8DF8852040F316810DF193042046C4
:1059C000AB4D00E0104685FB0312D917C1EBA201D5
:1059D00001EB8102A3EB42023032092900F8012CCD
:1059E0000B4600F1FF32EDDC30330238D9B284428D
:1059F00002F8011C40F265810DF18600134601E0BA
:105A000013F8011B00F8011BA342F9D101339B1AC3
:105A10000DF18602134421AA9B1A139A1B93012AA3
:105A200013440E9340F319810E9B199A13440E935D
:105A300023EAE373089300231293CFE625AA0B9978
:105A40000C9803F061FF00287EF4FEAF279CC84647
:105A5000D7E42346A2E625AA0B990C9803F054FF3D
:105A600000287EF4F1AF1F9A279CC846AEE525AA10
:105A70000B990C9803F048FF00287EF4E5AF1F9ABD
:105A8000139B279C9A1AC846B8E50A9B1296062BC8
:105A900028BF06230A96374608930F95CDF81CB009
:105AA0000E93744EFFF716B823A820A90A9D049000
:105AB00003911FA803210290089A01953B4600918B
:105AC0000C9801F0F1F8064644192BE706230A93D7
:105AD0001DE62D278DF87770FFF7CDBA199A139B25
:105AE0001344129A0E93002A40F3B08023EAE37322
:105AF00008936723119371E6002B40F3C3800A9A41
:105B0000002A40F099801BF0010F40F09580089327
:105B10000E9363E60A9B08930E930A900F95CDF8B7
:105B20001CB012909DF87770FEF7D4BF119B472BE5
:105B30007FF420AE1BF0010F7FF4EEAE239B9B1B86
:105B400013930E9B472B3FF418AF1F9B129321E733
:105B50004F421031484D2FDA1024DDF830B004E008
:105B600008F10808103F102F26DD01331032072BF3
:105B700027922693C8F80050C8F80440F0DD25AA03
:105B80000B99584603F0C0FE00287EF45DAF279ABB
:105B9000269BC846E6E725AA0B990C9803F0B4FEAD
:105BA00000287EF451AF1F99279A269BC84667E6C6
:105BB00000200A90FEF7D0BE01333A44072B88E854
:105BC000A0002792269308F108087FF75CAE25AA6B
:105BD0000B990C9803F098FE00287EF435AF279AB5
:105BE000269BC8464FE6303330228DF887308DF83B
:105BF000862022AB0FE7129B199A13440E9375E788
:105C0000239BCBE5149B1D4E002BB6BF2D279DF883
:105C100077708DF877701A4BFFF72FBA169A08989D
:105C2000179B394604F00CFD00287FF47FAEC5F1C8
:105C300001051F952C449EE5129B199A13440A9A5C
:105C40001A4422EAE2730E920893C7E5129B0E9A59
:105C5000C3F101031A441346D0E71BF0010312936A
:105C60007FF4E2AE0E9B23EAE3730893B6E500BF30
:105C70006766666628B9400044B94000FCB8400039
:105C8000F8B840000A9B13B91BF0010F02D0199B12
:105C90000133D4E701233AE70F9D9AF801302868D1
:105CA00040EAE0700A9028460430A2460F90FEF7C2
:105CB00051BE8DF87710FFF767B88DF87710FFF7B2
:105CC00015BA0DF18603A6E68DF87710FFF7EBB84D
:105CD0000C9A0C2313604FF0FF330993FEF7BDBEFF
:105CE0008DF87710FFF79AB98DF87710FFF776B92E
:105CF0008DF87710FFF759B98DF87710FFF712B9C3
:105D00002DE9F84F4B6E9C0493462FD5936812688B
:105D100053B30E46074602F1080919E920045FEA69
:105D20009A0817D0043D002401E0A04510D0324667
:105D300055F8041F384602F07BF8431C04F10104B7
:105D4000F3D10023CBF80830CBF80430BDE8F88F4E
:105D5000DBF808302AF0030AA3EB0A03CBF808307B
:105D600009F10809002BD8D10020EAE702F0CAF9AE
:105D70000023CBF80830CBF80430BDE8F88F00BF23
:105D80002DE9F04FADB01D468B4690460793069027
:105D900018B1836B002B00F0F380DBF86430BBF9A3
:105DA0000C00DF0781B202D48E0540F1FC808C0428
:105DB0000AD4DBF8643040F4005123F40053ABF80C
:105DC0000C10CBF8643089B2080740F1B380DBF8DF
:105DD0001030002B00F0AE8001F01A030A2B00F007
:105DE000B58000230DF170090B9311931093039369
:105DF000CDF83C90CA46CDF810B098F80030444633
:105E0000FBB1252B02D11CE0252B03D014F8013F58
:105E1000002BF9D1A4EB08059DB1109B119ACAF88B
:105E2000008001332A44072BCAF8045011921093C2
:105E30007ADD002A40F0B084039B10922B44CA46BE
:105E400003932378002B00F0E08300204FF0000341
:105E50008DF8373004F1010862780546064603469E
:105E60004FF0FF3408F10108A2F12001582900F297
:105E7000DE82DFE811F02102DC02DC022902DC0212
:105E8000DC02DC02DC02DC02DC0289029502DC02BC
:105E9000A200BD02DC029F01A401A401A401A4018F
:105EA000A401A401A401A401A401DC02DC02DC021F
:105EB000DC02DC02DC02DC02DC02DC02DC02B2011D
:105EC000DC02DC02DC02DC02DC02DC02DC02DC02E2
:105ED000DC02DC029701DC02DC02DC02DC02DC0218
:105EE0009B01DC02DC025302DC02DC02DC02DC028D
:105EF000DC02DC02DC02DC02DC02DC025A021B02F5
:105F0000DC02DC02DC026E021B02DC02DC02730239
:105F1000DC02F50182010902D702DC029A02DC02EE
:105F2000A700DC02DC022E020AF1080A039B2B44C4
:105F3000039386E75946069800F0ACFD18BBBBF802
:105F40000C1001F01A030A2B7FF44BAFBBF90E3093
:105F5000002BFFF646AFDBF86430DB0705D48F0576
:105F600003D4DBF8580002F091FA2B46424659461A
:105F7000069800F04DFD039003982DB0BDE8F08F1A
:105F800001F0B4FE09E7DBF86430D90704D4BBF8AC
:105F90000C309A0540F1AA844FF0FF330393039825
:105FA0002DB0BDE8F08FDBF8580002F06DFABBF9B8
:105FB0000C0081B2FBE67642079243F0040398F8A6
:105FC00000204FE708969E0600F150840799DD06F1
:105FD0000A4600F1EF83580640F1EC830E88043145
:105FE0000027012207914FF000018DF8371000259E
:105FF000611C00F0168123F08001029156EA07012E
:1060000040F01481002C40F05C83002A40F0B783FC
:1060100013F00103059300F057840DF1B00B30230A
:106020000BF8413D059BA342B8BF234601930DB138
:1060300001330193029B13F00203099302D0019BE9
:1060400002330193029B13F084030A9340F01782FA
:10605000089B019A9D1A002D40F31182102D40F3E8
:106060009084109B119AC44ED6461027A24619461A
:10607000069C07E001F1020C0EF1080E0146103DEE
:10608000102D11DD481C1032072811928EE8C00037
:106090001090EFDD002A40F0E481103D102D1146F4
:1060A0004FF0010CCE46EDDC54466146F2462A44E0
:1060B00007291192CAF80060CAF80450109100F341
:1060C000EC829DF837500AF1080A481C002D40F078
:1060D000DE81099B002B00F0F88102320EA9022319
:1060E0000728119210908AE80A0040F3EA81002AFA
:1060F00040F08C830A9B802B4FF001001146CA466A
:1061000040F0E781089B019D5E1B002E40F3E1817A
:10611000102E9A4D40F35084D4461027A246069C78
:1061200007E001F1020E0CF1080C0146103E102EA2
:1061300011DD481C1032072811928CE8A000109045
:10614000EFDD002A40F09D82103E102E4FF0010E30
:106150001146CC46EDDC5446E2463244BEF1070F10
:1061600011928AE86000CDF840E000F369830AF1FB
:10617000080A0EF101007146ABE1089613F0200207
:1061800040F08C8313F0100140F01A8313F04002AA
:1061900000F0168307980A460146043106880791E5
:1061A000002720E7089643F01003E7E7089643F03E
:1061B000100308E743F0800398F8002052E6A2F1AC
:1061C0003001002618F8012B06EB860601EB460687
:1061D000A2F130010929F5D946E60896002840F0D9
:1061E000088443F010039E0600F14C83DD0600F1A5
:1061F000F382580640F1F082079DB5F900602A4607
:10620000F7170432304639460792002871F1000230
:10621000C0F25D83611C9DF837504FF001027FF49E
:10622000EAAE56EA070100F04D820293012A00F01F
:106230008C82022A40F05C820B98CB46330906F030
:106240000F0143EA07733A091E461746435C0BF8F1
:10625000013D56EA0703F1D1A9EB0B030593E1E6F3
:10626000002840F0C083990600F16783DA0600F148
:10627000F1805B0640F1EE80079A136804320792C2
:10628000BDF80C201A80B8E507983D4A08960B9295
:1062900006687822302104308DF8392043F002035B
:1062A000079000278DF8381002229CE608960028F7
:1062B00099D08DF8375096E798F80020002D7FF49C
:1062C000D1AD01202025CDE543F0010398F8002051
:1062D000C8E50896002840F0938329490B919F0652
:1062E00000F1E8820798DE06014600F170825D0643
:1062F00040F16D820431068807910027D80740F1EC
:10630000228256EA070100F01E8230218DF83920E2
:1063100043F002038DF83810022264E60896002844
:1063200040F06B8317490B91D9E7079908960A68E3
:106330008DF848204FF000000A468DF837000432EF
:1063400001200190079205900DF1480B0293002463
:1063500070E643F0400398F8002083E598F80020A9
:106360006C2A03BF98F8012043F0200308F10108CC
:1063700043F0100376E500BF54B9400064B9400013
:1063800014B9400000B9400007990E680A46002E73
:1063900002F10402FFF60FAE079298F8002061E5C3
:1063A00098F8002001202B255CE507990896D1F884
:1063B00000B04FF000028DF837200E1DBBF1000F2A
:1063C00000F0E582671C00F0C48222460021584696
:1063D000019302F0A5FB019B002800F0E582A0EBF1
:1063E0000B020592079602939DF83750002419E698
:1063F00098F800202A2A08F1010700F0E982A2F1AA
:1064000030010929B8464FF000043FF62DAD18F8C9
:10641000012B04EB840401EB4404A2F130010929AF
:10642000F5D921E543F0200398F800201AE50896F5
:10643000002840F0DB82002A00F0E78001218DF87F
:1064400048204FF0000201918DF8372005910DF1A1
:10645000480B7BE7079A136804320792039A1A6085
:10646000CBE40FAA04992046FFF74AFC002840F02D
:1064700039811099119A01F1010CCE46FFE510996E
:10648000119A481C9DF83750002D3FF422AE01327E
:106490000DF137050121072811921090CAF800501C
:1064A000CAF8041040F30881002A40F0BC81099B1F
:1064B000002B3FF41FAE0EAB022208461C931D9228
:1064C000CA4601460AF1080A01300A9B802B3FF4B4
:1064D00019AE059BE41A002C2EDD102CB34D1EDDE9
:1064E000D6461026069FDDF810A006E0881C0EF1A7
:1064F000080E1946103C102C10DD4B1C1032072BD7
:1065000011928EE860001093F0DD002A65D1103CF6
:10651000102C4FF001001146CE46EEDCF24622442C
:1065200007281192CAF80050CAF80440109000F3EE
:1065300085800AF1080A01300599CAF800B00A44BA
:1065400007281192CAF80410109040F38280002AA4
:1065500040F01881029B1092580735D5089B01998D
:106560005C1A002C40F3E780CA46102C40F31882D6
:1065700010998F4E069FDDF810B0102506E0881C9C
:106580000AF1080A1946103C102C11DD4B1C103280
:10659000072B1192CAF80060CAF804501093EEDD80
:1065A00042BB103C102C4FF001001146CA46EDDCF6
:1065B000224407281192CAF80060CAF804401090DB
:1065C00051DD002A40F09B81039B089A01998A4281
:1065D000ACBF9B185B1803934EE00FAA5146384698
:1065E000FFF78EFB002840F03F811099119A481C5C
:1065F000CE467FE70FAA59463846FFF781FB60B9C0
:106600001099119A481CCA46BDE7119BDDF810B0DD
:10661000002B40F0D48100231093DBF8643013F09A
:10662000010FBBF80C3002D19A0540F1DE805B0609
:106630003FF5B2AC03982DB0BDE8F08F002A40F0D2
:106640000681059A1D9201231192CDF870B0109326
:10665000CA460AF1080A029B590704D5089B01990A
:106660005C1A002C81DC039B089901988142ACBF25
:106670005B181B18039372BB00231093CA46FFF7E5
:10668000BCBB0FAA04992046FFF73AFB50BB1099F8
:10669000119A01F1010ECC4648E5002A40F04081F4
:1066A0009DF83710002900F01B8101220DF1370100
:1066B00010461D921C91CA4601460AF1080A013093
:1066C00007E5029B012A00F09880022A0DD102936F
:1066D00000260027B0E50FAA04990698FFF710FBE3
:1066E0000028C9D0DDF810B097E7029300260027F4
:1066F000494600E05946F20842EA4772F80806F0B7
:10670000070307461646303356EA070201F8013CF4
:1067100001F1FF3BEED1029AD6077FF59DAD302BFC
:106720003FF49AAD023930230BF8013CA9EB010389
:1067300005938B4676E4039B089A8A42ACBF9B186C
:106740005B18039398E702224DE4002F08BF0A2E3E
:1067500052D3CB46304639460A22002303F0E0FFED
:1067600030320BF8012D3046394600230A2203F05F
:10677000D7FF06460F4656EA0703EBD16CE50594B2
:10678000CB464FE40FAA04990698FFF7B9FA002800
:10679000A8D1119ACA465EE70FAA04990698FFF796
:1067A000AFFA00289ED1CA46FFF7C0BB64B94000CB
:1067B00054B940000431166807910122002712E401
:1067C0000798014604310668079100270BE40E681C
:1067D00004310791002791E507990E680A46F717DB
:1067E00004320792304639460FE5DBF8580001F0D5
:1067F0004DFEBBF80C301AE7029B02930DF1B00B73
:10680000303601230BF8416D05930BE40FAA049970
:106810000698FFF775FA00287FF464AF1099119A73
:10682000481CCA4651E60FAA04990698FFF768FA71
:1068300000287FF457AF1099119A481CCA4648E4C3
:10684000002A40F0918001201146CA4641E60FAA75
:1068500004990698FFF754FA00287FF443AF109884
:10686000119A0130CA4667E6D346D6E6079E073638
:1068700026F0070202F10801D2E900670791012220
:10688000FFF7B1BB079E073626F00706D6E90001E1
:1068900006F10802079206460F46B6E4079E073641
:1068A00026F0070202F10801D2E9006707910022F1
:1068B000FFF799BB079E073626F0070101F1080094
:1068C0000790D1E9006719E5CB46FFF7ABBB2D2553
:1068D000764267EB47078DF837500122FFF788BBF8
:1068E000099BB3B911460120CA46F2E5DBF858000E
:1068F00001F0CCFD4FF0FF330393FFF750BB0FAA1D
:1069000004990698FFF7FCF900287FF4EBAE119A82
:10691000A9E60EAB02221C931D920120CA46D0E5C7
:106920000FAA04990698FFF7EBF900287FF4DAAE76
:106930001099119A481CCA46A4E5079A039913684E
:10694000CD170846043229460792C3E90001FFF734
:1069500054BA584607960293FDF7D2FC00240590DE
:106960009DF83750FFF75EBB0FAA04990698FFF712
:10697000C7F900287FF4B6AE1099119A481CCA4690
:10698000A7E51099119A204E0131FFF790BB062C14
:1069900028BF0624059407960194DFF870B0D5E46B
:1069A0001098194E013003E605949DF8375007966C
:1069B00002930446FFF736BB8646FFF7CEBB069828
:1069C0000FAA5946FFF79CF900283FF424AE24E6AD
:1069D000079998F801200C68043144EAE474B84639
:1069E0000791FFF73FBA8DF837503CE48DF83750E8
:1069F00021E58DF83750FFF7F4BB8DF8375091E45F
:106A00008DF8375069E400BF54B9400028B9400000
:106A10002DE9F0410C46ADF58D6D8989666EE589ED
:106A2000199621F002010646E069ADF80C101746F0
:106A30004FF48061626AADF80E5098461AAD00239B
:106A4000079016A809920693009504950291059166
:106A500001F016FD43463A4669463046FFF790F985
:106A6000051E07DB3046694601F0E8F8002818BF2C
:106A70004FF0FF35BDF80C305B0603D5A38943F01A
:106A80004003A381169801F0FDFC28460DF58D6D9D
:106A9000BDE8F08138B5304B1B6805460C4613B194
:106AA0009A6B002A38D0B4F90C2093B218070CD591
:106AB0002069A8B113F001021ED0636900225B4275
:106AC000A361A260F0B1002038BDD9063CD55807BB
:106AD00026D4206942F00803A3819BB20028E9D1A3
:106AE00003F42072B2F5007FE4D02846214601F07D
:106AF000FDFCA3892069DDE7990758BF6269A260A0
:106B00000028E0D1B4F90C301A06DDD543F040037B
:106B1000A3814FF0FF3038BD184601F0E7F8C2E717
:106B2000216B51B104F14003994204D0284601F091
:106B300003FAB4F90C200023236300232069636067
:106B400022F024022060C5E742F0400209232B60B6
:106B50004FF0FF30A28138BD2C004020024B13B112
:106B6000024800F005B87047000000005D7D40005D
:106B7000002301461A46184602F0EABF02690B6973
:106B8000934200F38D802DE9F04F03F1FF3801F1BE
:106B9000140700F1140B57F828205BF828304FEA4F
:106BA000880483B00132B3FBF2F90BEB04030094C9
:106BB00007EB040A0193B9F1000F39D000252E46E6
:106BC000BC46DE465CF8044BDEF80030A2B209FB9E
:106BD0000255220C2C0C09FB0242ADB2751B96B279
:106BE000C6EB134615FA83F306EB23469BB243EA42
:106BF0000643E2454FEA12454EF8043B4FEA26466B
:106C0000E0D2009B5BF8033093B9019C231F9B45A6
:106C10000CD254F8043C4BB9A4F1080302E01A6802
:106C2000043B1AB99B4508F1FF38F8D3C0F810802F
:106C3000044602F0FDFA00282EDB09F101095D4649
:106C4000002357F8041B28688AB29A1A0B0C12FA10
:106C500080F2C3EB104303EB224392B242EA0342B9
:106C6000BA4545F8042B4FEA2343EAD25BF82820C3
:106C70000BEB880382B91A1F93450BD253F8042CEF
:106C800042B9083B02E01A68043B1AB99B4508F177
:106C9000FF38F8D3C4F81080484603B0BDE8F08F41
:106CA00000207047000000002DE9F04F016C9BB000
:106CB0000446279E92469B4641B1426C4A6001239E
:106CC00093408B6002F0DCF800232364BBF1000FDB
:106CD0005D4635DB002333609D4BAB4315D05046FA
:106CE00059460022002303F0ABFC804600282DD03B
:106CF000269A01231360289B002B00F0BD80954845
:106D0000186001381BB0BDE8F08F269A42F20F736D
:106D10001360BAF1000F0DD1C5F3130555B9289BC7
:106D20008D48002BEED000F10803289A13601BB0A9
:106D3000BDE8F08F289B8948002BE3D0C31CF4E703
:106D400001232BF000453360AB46C5E718AA19AB09
:106D50000192009352465B46204602F009FB2B0D40
:106D6000814671D0CBF3130242F07F51189FCDF8CA
:106D700050805046A3F2FF3641F440110022784B78
:106D800003F042F86CA3D3E9002303F0F1F96CA3FC
:106D9000D3E9002303F03AF8CDE90201304603F0CD
:106DA00081F969A3D3E9002303F0E2F902460B4617
:106DB000DDE9020103F02AF8CDE9040103F088FCC3
:106DC000002202900023DDE9040103F043FC0028C7
:106DD00040F07381029D162D00F25D81614B03EB43
:106DE000C503D3E9000152465B4603F051FC00287D
:106DF00000F0C5816B1E029300230E93BF1B7B1E08
:106E0000069300F1548100230893029B002BC0F2EB
:106E10004581069A0D9311461944002306910C935F
:106E2000249B092B2AD8052B40F35B86043B249333
:106E30000025249B023B032B00F24286DFE813F07F
:106E4000D403C902DF036104189F199E3E4406F271
:106E50003243202B40F38E81C3F1400306F21240EF
:106E60009D402AFA00F0284303F00CF90123013E6B
:106E7000A1F1F871149381E73B4843E70021616475
:106E80002046259101F0D6FF4FF0FF330A93259A53
:106E90000F9301230490206424920B93199B002BE1
:106EA000C0F2D980029A0E2A00F3D5802D4B03EB55
:106EB000C203D3E90023CDE90823259B002BC0F2B0
:106EC000BA83DDE9085650462A463346594603F050
:106ED00079FA03F0FDFB804603F0E4F82A463346D6
:106EE00003F046F90B4602465946504602F08CFF25
:106EF000049D08F130032B700A9B012B06460F46B8
:106F000005F1010568D00022184B03F031F9002289
:106F1000002306460F4603F093FB002840F08880CC
:106F2000CDF82C904FF0000ADFF840B00C94DDE96A
:106F3000088928E0AFF3008061436F63A787D23FE1
:106F4000B3C8608B288AC63FFB799F501344D33F58
:106F50000000F07F31B9400074B9400080B94000B2
:106F60000000F83FC0B9400030B9400000002440A4
:106F700003F0FEF80022002306460F4603F060FBF4
:106F8000002840F0C18342464B463046394603F064
:106F900019FA03F09DFB044603F084F842464B4681
:106FA00003F0E6F802460B463046394602F02CFF65
:106FB00004F1300E049E05F801EBA5EB060E0A9EC7
:106FC000B645CDE9060152465B46D1D1A046DDF873
:106FD0002C900C9C06460F4632463B4630463946BE
:106FE00002F014FF06460F4602460B46DDE9080193
:106FF00003F030FB48B932463B46DDE9080103F0B7
:107000001FFBA8B118F0010F12D015F8018C049ADB
:107010006B1E04E09A4200F0018413F8018DB8F170
:10702000390F03F10105F5D008F1010883F800805C
:107030004946204601F024FF0022029B2A70269A2E
:1070400001331360289B002B00F09E8304981D6081
:107050001BB0BDE8F08F0B9A002A3ED0249A012A7B
:1070600040F311830A9B0C9A5F1EBA42C0F28F83D1
:10707000D71B0A9B002BC0F28B84089D0A9B089AA1
:107080001A440892069A01211A442046069201F0F9
:1070900091FF064624E001230E93AFE6089A029B77
:1070A000D21A5B420C93002308920D93B8E6C7F105
:1070B0000103089300230693A7E6029D284602F0E9
:1070C000F1FF02460B46DDE9040103F0B9FA00289E
:1070D0007FF480AE6B1E02937CE60C9F089D0B9E96
:1070E000002D0CDD069900290B4608DDA942089AFF
:1070F000A8BF2B46D21AED1ACB1A089206930C9B06
:10710000D3B10B9B002B00F0B782002F10DD31466E
:107110003A46204601F0EAFF4A4601460646204626
:1071200001F052FF49468046204601F0A9FEC146C3
:107130000C9BDA1B40F0A1820121204601F03AFFAE
:107140000D9B002B80461CDD01461A46204601F0AF
:10715000CDFF249B012B804640F3548200230C93E7
:10716000D8F8103008EB8303186901F0D3FEC0F1A2
:10717000200010E0C3F120050AFA05F074E60E9035
:107180003CE6249B012B40F3878200230C930D9B4C
:107190000120002BE4D1069A104410F01F0000F0EB
:1071A000A180C0F12003042B40F39E84089BC0F112
:1071B0001C00034408931346034405440693089BAC
:1071C000002B05DD49461A46204601F0DFFF8146C7
:1071D000069B002B05DD41461A46204601F0D6FFEE
:1071E00080460E9B002B40F086800A9B002B40F3CC
:1071F00066820B9B002B00F09880002D05DD314648
:107200002A46204601F0C2FF06460C9B002B40F0A8
:10721000378306960A9B049ADDF818B0013BD31811
:107220000B930AF001030C931746C2465146484699
:10723000FFF7A4FC31460546484601F0F9FF5A46DF
:107240000A905146204602F00FF8C268804605F1C8
:107250003003002A40F02B8201464846089301F093
:10726000E7FF41460690204601F00AFE069A089B79
:1072700032B9249921B90C9A002A00F0EF83249A9C
:107280000A990029C0F29F8205D1249919B90C9955
:10729000002900F09882002A00F306830B9A3B70C5
:1072A00007F101089742454600F00C834946002348
:1072B0000A22204601F0EEFD5E45814631464FF040
:1072C00000034FF00A02204600F0EB8101F0E2FDDE
:1072D0005946064600230A22204601F0DBFD4746B8
:1072E0008346A3E71C20089B03440893069B0344A2
:1072F0000544069363E74146484601F099FF00289C
:10730000BFF673AF029F494600230A222046013F81
:10731000029701F0BFFD0B9B8146002B40F0B68326
:107320000F9B002B40F3BF830A93DDF810B00A9F38
:107330005D4602E001F0AEFD814641464846FFF75A
:107340001DFC00F1300A05F801ABA5EB0B03BB42B5
:107350004FF00A024FF0000349462046EADB049B47
:107360000A9A012AACBF9B1801331D464FF0000B4F
:1073700049460122204601F009FF4146814601F0BD
:1073800057FF002840F33D8215F8012C04996B1E2D
:1073900004E08B4200F0AE8113F8012D392A03F18D
:1073A0000105F6D001321A704146204601F068FD11
:1073B000002E3FF43DAEBBF1000F05D0B34503D026
:1073C0005946204601F05CFD3146204601F058FD4B
:1073D0002EE600230B93029B259A13440F9301334F
:1073E000012B1F461E460A93B8BF01270021172F05
:1073F00061640AD9012204235B0003F1140087426F
:10740000114602F10102F7D26164204601F012FD3B
:107410000E2E049020643FF641AD002D3FF43EADAA
:1074200002990029CDE910AB40F30282B84B01F07C
:107430000F020D1103EBC203E906D3E9006740F127
:10744000AE81B44B50465946D3E9082302F0BAFF47
:10745000CDE9120105F00F054FF0030A8DB1DFF8F9
:10746000B482EA0709D530463946D8E9002302F04C
:107470007FFE0AF1010A06460F466D1008F1080862
:10748000EFD13B463246DDE9120102F09BFF074691
:1074900088460E9B43B100229F4B3846414603F07D
:1074A000D9F8002840F08682504602F0FBFD3A46AB
:1074B000434602F05DFE994B002202F0A7FC0A9BB6
:1074C0000546A1F15076002B00F03E81029B1593FA
:1074D0000A9B12930B9B002B00F0FA81129A8C4BA3
:1074E0008F4903EBC20353E90223002002F06AFF35
:1074F0002A46334602F088FC82468B46384641468F
:1075000003F0E6F8054602F0CDFD02460B4638468C
:10751000414602F079FC30355FFA85F8049D064655
:107520000F4685F8008002460B4650465946013505
:1075300003F0AEF8002854D132463B46002076498D
:1075400002F062FC02460B465046594603F0A0F892
:10755000002840F07082129A012A00F01181129BDB
:10756000049ACDF84890134499460DE000206A49EA
:1075700002F04AFC52465B4603F06CF8002840F0EB
:1075800058824D4500F0FA80504659460022654B1E
:1075900002F0EEFD0022634B82468B4630463946B0
:1075A00002F0E6FD0F46064603F092F8804602F030
:1075B00079FD02460B463046394602F025FC08F1BB
:1075C00030085FFA88F852465B4605F8018B06469C
:1075D0000F4603F03FF832463B460028C6D0DDF8A0
:1075E0004890159B029323E500230B93259B002BCA
:1075F00040F3DC801F461E460F930A93F6E60123F4
:107600000B93F3E7BAF1000F7FF4A8ADCBF31303AC
:10761000002B7FF4BAAD2BF000473F0D3F05002F44
:1076200000F00D82089B01330893069B01330693FB
:1076300001230C93ABE50A9B002B3FF742AC40F0D3
:1076400021820022384BDDE9080102F091FD52460B
:107650005B4603F013F8DDF828804646002841D049
:10766000259B049DDB4302934146204601F008FC24
:10767000002E3FF4DDACA7E60C9A4946204601F007
:1076800035FD814658E5149A002A00F0878103F2FF
:1076900033430C9F089DF2E4BAF1000F7FF475ADFF
:1076A000B4E701F0F7FB474606468346BEE50146D0
:1076B0002046069301F0E4FB0122069BE0E5249BB3
:1076C000022B7FF796AD0A9B002BC9D141460522BC
:1076D000204601F0DFFB01468046484601F0A8FD48
:1076E0000028BDDD029A04993123013202920B7009
:1076F0004D1CB9E7029A01320292049A31231370A9
:1077000052E601230B9366E6DDF82C900C9C8FE487
:10771000C0B9400098B940000000F03F00001C4094
:107720000000E03F0000244000001440504602F0FA
:10773000B9FC3A46434602F01BFD0022C14B02F061
:1077400065FB0546A1F1507641460022BE4B384606
:1077500002F05AFB2A46334682468B4602F098FFD7
:107760008046002840F010812A4606F1004350462A
:10777000594602F06FFF18B1464671E7DDF84890B0
:10778000DDE910ABFFF78ABB0498FFF7BBBA0C9B8F
:107790000D9A0C97FB1A1A440D92002769E4DDE953
:1077A00010234FF0020ACDE9122357E600210123EE
:1077B00061642046259301F03DFB259B04902064E5
:1077C0000A930F9329E6002AD046CDF818B09A46BE
:1077D00011DD49460122204601F0D8FC4146814690
:1077E00001F026FD002840F34681BAF1390F00F080
:1077F000068105F1310AB34687F800A07D1C069E7C
:10780000D2E504D11AF0010F01D0BDE5154615F8F7
:10781000013C302B05F1FF32F8D0C5E50499302248
:107820000A70029A15F8018C01320292FFF7FCBB34
:1078300000F0BB80029B5D42844B05F00F0203EB1E
:10784000C203D3E90023DDE9100102F091FC2D1100
:107850000746884600F02C817D4E4FF0020AEB0768
:1078600009D538464146D6E9002302F081FC0AF1E9
:10787000010A074688466D1006F10806EFD108E6B2
:107880007168204601F0D6FA336902339A00054642
:1078900006F10C010C3001F0C3F929460122204603
:1078A00001F074FC0690B5E4392BCDF818B0D04641
:1078B00000F0A58003F1010AB34687F800A07D1C03
:1078C000069E71E55A46D046B3469A4616464FE59F
:1078D000129B5E4901EBC3012A46334651E902017E
:1078E00002F046FCCDE916013846414602F0F0FEB2
:1078F000054602F0D7FB0B4602464146384602F0E9
:1079000083FA129B0F4604993035012B0D70064601
:1079100001F1010526D0129B049ADFF83CB1CDF8A5
:10792000489013444FF0000A994652465B46304651
:10793000394602F01DFC0F46064602F0C9FE80469D
:1079400002F0B0FB08F1300802460B4630463946DB
:1079500002F05AFA05F8018B4D4506460F46E4D170
:10796000DDF848903B4B0022DDE9160102F04EFAAB
:1079700032463B4602F06EFE002846D0159B02932D
:1079800015F8018CFFF743BB4FF000084646A9E607
:10799000089B0A9A9D1A0023FFF771BB189B0C9F46
:1079A000089DC3F13603FFF76ABBDDE910784FF09D
:1079B000020A6EE50A9B002B3FF4B8AE0F9B002B2A
:1079C0007FF7DEAE0022244B3846414602F0D0FB62
:1079D000074688460AF1010002F064FB3A46434636
:1079E00002F0C6FB0022174B02F010FA029A0F9B1E
:1079F0001293013A0546A1F1507615926AE53922B3
:107A0000B3463A70069E7D1CC0E4DDE916230020D3
:107A1000104902F0F9F932463B4602F039FE08B946
:107A2000AEE6154615F8013C302B05F1FF32F8D0D3
:107A3000D7E5DDF84890159B0293FFF7E8BA0C975D
:107A4000FFF7A5BB00001C4000001440C0B9400077
:107A500098B940000000E03F00002440392BCDF8E9
:107A600018B0D046DDF828B09A46C8D0BBF1000F58
:107A70003FF7BFAEBFE67FF4BEAE1AF0010F3FF492
:107A8000BAAEB2E64FF000084646E9E531460023BB
:107A90000A22204601F0FEF90F9B002B06460ADD64
:107AA0000A93FFF7AABB249B022B23DC0F9B3BE42A
:107AB0004FF0020AEDE4249B022B1BDC0F9BEFE747
:107AC000002565642946204601F0B4F94FF0FF33E4
:107AD0000A930F9301230490259520640B93FFF7DD
:107AE000DDB90125FFF7A5B93FF469ABC0F13C0052
:107AF000FFF7F9BB0F9B0A93E5E500BFB1F90C3026
:107B00009AB22DE9F0410D46110780463AD46A68D1
:107B100043F40063002AAB816FDDAC6A002C49D0CE
:107B200000229BB2D8F80060C8F8002013F48052FD
:107B300067D02A6D5F0705D569682B6B521A0BB1A8
:107B4000EB6BD21A0023E9694046A047441C3CD0A5
:107B5000B5F90C302A692A6023F400630022AB8156
:107B6000DB046A6047D4296BC8F8006011B305F1E3
:107B70004003994202D0404600F0DEF9002028631D
:107B8000BDE8F0812E69AEB12C682E6091070CBF64
:107B90006B690023A41BAB600AE0234632466F6A80
:107BA000E9694046B8470028A4EB0004064404DD18
:107BB000002CF2DC0020BDE8F081AB8943F04003EB
:107BC000AB814FF0FF30BDE8F081D8F800401D2CAC
:107BD000F3D8194BE340DB4313F00103EDD1B5F9C2
:107BE0000C206B6022F400632969AB81DA04296000
:107BF000B9D5002CB7D12865B5E7EA6B002A8CDC33
:107C0000D8E70123E9694046A047431C024602D059
:107C1000AB89AC6A8EE7D8F80030002BF8D01D2B6A
:107C200001D0162B02D1C8F80060C3E7AB8943F03E
:107C30004003AB81BDE8F0810100402038B50D461E
:107C4000044608B1836BBBB1B5F90C0088B16B6E0B
:107C5000DB0701D4810517D520462946FFF74EFFE3
:107C60006B6EDA07044602D4AB899B0507D5204624
:107C700038BD0446204638BD00F038F8E4E7A86D6A
:107C800000F004FC204638BDA86D00F0FDFBE3E7E2
:107C9000014900F0AFBB00BF999C400010B5002324
:107CA00004468181C281036043608360436603614F
:107CB00043618361194608225C30FCF7C5F9074827
:107CC0000749084A084B2062E4616162A262E362EC
:107CD00004F15800BDE8104000F0D2BB9997400075
:107CE000BD974000F99740001998400010B5044630
:107CF000124800F0C9FBA26BD2B904F53B731048DF
:107D0000C4F8E8320321C4F8E022E063C4F8E412C6
:107D100060680421FFF7C2FF01220921A068FFF774
:107D2000BDFF02221221E068FFF7B8FF0123A36321
:107D30000248BDE8104000F0A9BB00BF3011402050
:107D4000917C4000014800F09FBB00BF44114020DF
:107D5000014800F09BBB00BF4411402038B50A4CDD
:107D60000A4D641BA4100AD004F18043013B05EBCB
:107D70008305013C55F804399847002CF9D1BDE83A
:107D8000384003F013BF00BFBCBB4000B8BB40008D
:107D90002DE9F04782B080468946144600F054FB36
:107DA000012836D04A4604F15C0301A9404601F09F
:107DB00081FE421C064625D0A8B39DF804E00025AC
:107DC0000DF1040A09E023685A1C226083F800E0E0
:107DD0000135B54227D215F80AE0A368013B002B14
:107DE000A360F0DAA769BB4271462246404602DB37
:107DF000BEF10A0FE7D101F005FE431CE8D102B045
:107E0000BDE8F087A38943F04003A38102B0BDE839
:107E1000F08709F1FF33FE2BC4D85FFA89FE0646CE
:107E20008DF804E0CBE7484602B0BDE8F08700BF1C
:107E300030B5536E13F0010FB2F90C30144683B015
:107E400005469AB201D190051CD5900406D4626E05
:107E500043F4005342F40052A3816266284622464E
:107E6000FFF796FF636EDA07054602D4A3899B05E8
:107E700002D5284603B030BDA06D00F007FB2846B0
:107E800003B030BDA06D019100F0FEFAB4F90C30E2
:107E900001999AB2D9E700BFF8B5244F0C460646BF
:107EA00000F0BCFFBB685D68C4F57E610F3125F052
:107EB0000305294421F47F6121F00F01A1F58054CD
:107EC000B4F5805F07DB0021304601F053FCBB684E
:107ED0002B44984204D0304600F0A6FF0020F8BDA5
:107EE0006142304601F046FC01300DD0104BBA68BB
:107EF00019682D1B45F001053046091B55601960B6
:107F000000F092FF0120F8BD0021304601F032FC64
:107F1000BA68831A0F2BDEDD064C0549246843F04E
:107F20000103001B53600860D5E700BFC80540206F
:107F300024104020D0094020002944D02DE9F041F0
:107F40000D46804600F06AFF55F8047C694927F029
:107F50000103A5F10804E2188E685068B24220F0CF
:107F600003005ED0FE0750600BD455F8087CE41B7C
:107F700001F1080EA56875453B446DD0E768EF60D8
:107F8000BD6015186D68ED073ED543F001026260D3
:107F9000E350B3F5007F17D2DB08581C9A104D68E8
:107FA00051F83070A7600123934001EBC0022B43CE
:107FB000083AE2604B6041F83040FC604046BDE862
:107FC000F04100F031BF70475A0A042A52D89A098A
:107FD00002F13907FF0002F13805C819CA590838FB
:107FE00090424FD0516821F003018B4232D2926807
:107FF0009042F7D1C368A060E3609C60C4604046D3
:10800000BDE8F04100F010BF95683B4FBD4203440E
:1080100040D0D068E86043F0010285606260E350C0
:10802000B7E7FF07034407D455F8082CA41A1344F4
:10803000A068E268C2609060304A126843F00100B4
:10804000934260608C60B9D32D4B40461968FFF7AE
:1080500023FFB3E71046CDE711184968C90744D498
:108060009168D268CA60034443F001009160606087
:10807000E350A3E7142A16D802F15C07FF0002F1CF
:108080005B05AAE7AA1001234D6893402B434B6080
:108090000346B0E743F001024C610C61E560A56066
:1080A0006260E3508AE7542A06D81A0B02F16F0780
:1080B000FF0002F16E0590E7B2F5AA7F06D8DA0B51
:1080C00002F17807FF0002F1770586E740F254508D
:1080D000824206D89A0C02F17D07FF0002F17C056E
:1080E0007BE74FF47E777E2577E743F001016160FF
:1080F000136063E7C8054020D0054020D409402024
:10810000541040209368002B73D02DE9F04F8B89D9
:1081100083B00C4619070090164626D5226922B373
:1081200013F0020035682CD04FF00009B04FC8465C
:10813000B246B84543464A4628BF3B460098B8F188
:10814000000F50D0E169666AB047002858DDDAF8C0
:1081500008301B1A8144A8EB0008CAF80830002B2D
:10816000E7D1002003B0BDE8F08F21460098FEF76C
:1081700091FC002840F03381A389356813F0020098
:10818000D2D113F0010945D14F46019637B39A0574
:10819000D4F8088040F183804745C346C0F0AB80E7
:1081A00013F4906F40F0AC802068BA465A464946B6
:1081B00000F0D0FDA2682368A2EB08025B44A26035
:1081C0002360019A9368A3EB0A03D144A7EB0A0743
:1081D0009360002BC5D0A389002FD8D1D5F800908B
:1081E0006F680835D2E7D5F80090D5F804800835D7
:1081F0009FE70020704721460098FFF71FFD70B3EE
:10820000B4F90C3043F040034FF0FF30A38103B0CA
:10821000BDE8F08F814633464E46A8469A464D4605
:108220004EB380B3206823696269B145CB4628BF4D
:10823000B34698425F4604D9A36813449B4500F3B4
:10824000A68093454BDB1346676AE16900982A468E
:10825000B847071ED4DDB9EB0709CCD00120DAF806
:108260000830DB1B3D44F61BCAF80830002B3FF4F6
:1082700078AF002ED5D108F1080313E960009846C5
:108280000833002EF9D032460A21284600F048FC77
:10829000002800F0A1800130A0EB0509C2E72068AA
:1082A0002369984202D863699F425DD2B84528BFCE
:1082B000B8464246494600F04DFDA3682268A3EB4C
:1082C00008034244A36022600BB1C24679E721460D
:1082D0000098FFF7B3FC002892D1C24671E75A46D6
:1082E000294600F037FDA2682368A2EB0B025B442D
:1082F000A2602360AFE72068B846BA46BB4655E7A0
:1083000062692068216902EB4208A0EB010A08EBD0
:10831000D8780AF101004FEA6808384440454246DF
:1083200084BF804642465B0544D51146009800F064
:108330002FF98346002855D05246216900F070FC81
:10834000A38923F4906343F08003A3810BEB0A001D
:10835000A8EB0A03C4F810B0C4F814802060A3602E
:10836000B846BA46BB4621E76FF00041B94228BF84
:1083700039464A4691FBF3F10098666A03FB01F324
:10838000E169B047B0F1000A3FF71BAF38E71A4682
:108390002946019300F0DEFC2268019B00981A44F4
:1083A00022602146FFF74AFC019B00287FF428AF9A
:1083B0001F4650E7009801F037F883460028C5D1E2
:1083C000009D21692846FFF7B7FDB4F90C300C2257
:1083D00023F080032A6015E706F1010922E74FF038
:1083E000FF30BFE6009A0C231360B4F90C3009E7A4
:1083F00000FCFF7F2DE9F84310F538771FD0884641
:1084000006464FF000097D68BC68013D11D4A38980
:10841000012B05F1FF3508D9B4F90E30013321469F
:10842000304602D0C04749EA00096B1C04F16804D9
:10843000EDD13F68002FE6D14846BDE8F883B94644
:108440004846BDE8F88300BF044B054A1B685B6BD8
:10845000002B08BF134693F8280170472C004020DA
:108460005C044020044A054B1268506B002808BF8A
:108470001846F030704700BF2C0040205C044020BC
:10848000704700BF704700BF704700BF704700BF14
:1084900070B50C46B1F90E10002990B015461E4675
:1084A00014DB01AA01F05AFC00280FDB029A02F447
:1084B0007042A2F50052B2FA82F252094FF4806380
:1084C0004FF4006032602B6010B070BDA2890023B1
:1084D00012F08000336004D0402218462A6010B0A9
:1084E00070BD4FF480632B6010B070BD8A89920715
:1084F0000B4606D501F1430201211A601A61596148
:108500007047F0B583B001AB6A460C460646FFF7EC
:10851000BFFF00990546304600F03AF8B4F90C3038
:10852000D8B1019A154F0099F76343F08003A381F6
:108530002060206161611AB92B43A38103B0F0BDB3
:108540003046B4F90E1001F01DFCA0B1A38923F050
:10855000030343F001031BB2EEE79A05EED423F0C8
:10856000030304F1430243F002030121A3812260CB
:1085700022616161E2E7B4F90C30DDE7917C4000F3
:10858000024B0146186800F003B800BF2C004020E1
:108590002DE9F04F01F10B06162E83B0054640F28F
:1085A0009E8036F0070600F1BD80B14200F2BA802D
:1085B00000F034FCB6F5FC7FC0F09382730A00F043
:1085C000B880042B00F27981B30903F1390003F17B
:1085D000380EC300BF4F3B44A3F108015C68A142C1
:1085E00006D10CE0002A80F2AA80E468A14206D0FD
:1085F000636823F003039A1B0F2AF3DD70463C697E
:10860000DFF8E4E2744500F0AB81636823F0030314
:108610009A1B0F2A00F39081002AC7F814E0C7F8CC
:1086200010E080F29D80B3F5007F80F06181DB086F
:1086300003F1010C99107A6857F83C80C4F808805F
:1086400001238B4007EBCC0113430839E1607B60C9
:1086500047F83C40C8F80C408210012494409C42EA
:1086600000F28B801C4206D120F0030064001C4203
:1086700000F10400FAD007EBC009CC468046DCF8D4
:108680000C309C4507D16DE1002A80F27B81DB68CC
:108690009C4500F06781596821F003018A1B0F2A6D
:1086A000F2DDD3F80CC0D3F8088000939C1928465B
:1086B00046F0010642F001055E60C8F80CC0CCF837
:1086C00008807C613C61C4F80CE0C4F808E0656097
:1086D0005A5000F0A9FB009B03F108041EE010298A
:1086E00020D800F09BFB102618230220794F3B4432
:1086F000A3F108025C68944200F03D816368E16880
:10870000A66823F00303234428465A68F16042F028
:1087100001028E605A6000F087FB0834204603B0E7
:10872000BDE8F08F00240C2320462B6003B0BDE889
:10873000F08F40204FF400734FF03F0E4AE7234480
:10874000E1685A68A66842F00102F16028468E602E
:108750005A6000F069FB0834204603B0BDE8F08F92
:10876000234428465A6842F001025A6000F05CFB3C
:108770000834204603B0BDE8F08FBC68636823F07E
:108780000308B04504D3A8EB06030F2B00F3858044
:10879000DFF85891504BD9F800201B680132334460
:1087A00004EB080A00F0558103F580530F3323F4DE
:1087B0007F6B2BF00F0B5946284600F0DBFF411C66
:1087C000024600F0FC80824500F2F780434B1968B6
:1087D0005944196000F04D81D9F8000001301BBFE9
:1087E000A2EB0A0A5144C9F80020196012F00701EF
:1087F00000F01581C1F10800C1F580510244083133
:1088000002EB0B09C9F30B09A1EB090949462846FC
:108810000193009200F0AEFF431C9DE80C0000F0B5
:108820004381801A484440F001001968BA60494405
:10883000BC425060196017D0B8F10F0F40F2FB80B6
:108840006068A8F10C0222F0070204EB020E00F0AF
:1088500001004FF0050C10430F2A6060CEF804C0F1
:10886000CEF808C000F217811D4BBC681A6891420F
:1088700088BF19601B4B1A689142626888BF1960F3
:1088800022F003029642A2EB060301D80F2B04DC70
:10889000284600F0C9FA002440E7A21943F001037A
:1088A00046F0010666602846BA60536000F0BCFAE4
:1088B0000834204603B0BDE8F08F142B71D9542B37
:1088C00000F2A380330B03F16F0003F16E0EC300BF
:1088D00080E600BFC80540205410402024104020EE
:1088E0004C10402050104020D0054020D00940209E
:1088F0005A0A042A5BD9142A00F2AE8002F15C0104
:10890000C9005B3207EB010C7958ACF1080C8C45BF
:1089100000F088804A6822F00302934273D289688B
:108920008C45F7D1DCF80C207B68E260C4F808C005
:108930009460CCF80C408FE6A11946F0010C42F08F
:108940000106C4F804C0284679613961C1F80CE019
:10895000C1F808E04E60E25000F066FA0834DDE647
:108960007B6879E608F1010818F0030F0CF1080C98
:108970007FF485AE2DE0DC68A34208BF02303FF4EF
:108980003EAEBBE619441C464A68DB6854F8086FE3
:1089900042F001024A602846F3609E6000F044FA0B
:1089A000BCE603F15C0003F15B0EC30012E69A091A
:1089B00002F13901C9003832A4E7BC4254D0BC6886
:1089C000626822F003025DE759F80839994540F0E2
:1089D000868010F0030F00F1FF30F5D17B6823EAA9
:1089E00004037B6064009C423FF6C7AE002C3FF45A
:1089F000C4AE1C4240467FF43EAE64001C4200F10F
:108A00000400FAD037E68C468CE7B3F5AA7F15D878
:108A1000F30B03F1780003F1770EC300DAE54FF4AE
:108A20008051EDE67B689210012101FA02F21343B6
:108A30007B60624679E70123536029E740F2545294
:108A4000934222D8B30C03F17D0003F17C0EC300E6
:108A5000C0E503F1100BAEE6542A29D81A0B02F137
:108A60006F01C9006E324DE7204B196859441960F7
:108A7000B2E6CAF30B0000287FF4AEAE08EB0B039E
:108A8000BA6843F001035360EEE67F204FF47E7333
:108A90004FF07E0E9EE504F1080128460093FFF793
:108AA0004BFA009B1968DFE601204FF00009BCE695
:108AB000B2F5AA7F05D8DA0B02F17801C900773246
:108AC00020E740F254518A4205D89A0C02F17D0108
:108AD000C9007C3216E74FF47E717E2212E77B6874
:108AE00080E7F00806F1080300E600BF24104020EC
:108AF00082B049B15AB16BB113780B601278101C77
:108B000018BF012002B0704701A9002AF3D1104616
:108B100002B070476FF00100F4E700BF00000000F2
:108B200001F0FF01102A2BDB10F0070F08D010F81E
:108B3000013B013A8B422DD010F0070F42B3F6D122
:108B4000F0B441EA012141EA014122F007047FF03B
:108B500000070023F0E80256083C85EA010586EA92
:108B6000010685FA47F5A3FA87F586FA47F6A5FACE
:108B700087F68EB9EED1F0BC01F0FF0102F00702DA
:108B800032B110F8013B013A83EA010313B1F8D185
:108B90000020704701387047002D06BF3546033866
:108BA000073815F0010F07D1013015F4807F02BF9F
:108BB000013015F4C03F0130F0BC0138704700BFF0
:108BC000032A70B422D940EA01039B0711D003782D
:108BD0000C78A3421DD10A44013105E010F8013F91
:108BE00011F8014BA34214D19142F7D1002070BC7F
:108BF00070470D680668AE420C46034601F1040159
:108C000000F1040008D1043A032AF2D8002ADED188
:108C1000ECE7181B70BC704721461846D7E700BF29
:108C2000844641EA000313F003036DD1403A41D377
:108C300051F8043B40F8043B51F8043B40F8043B36
:108C400051F8043B40F8043B51F8043B40F8043B26
:108C500051F8043B40F8043B51F8043B40F8043B16
:108C600051F8043B40F8043B51F8043B40F8043B06
:108C700051F8043B40F8043B51F8043B40F8043BF6
:108C800051F8043B40F8043B51F8043B40F8043BE6
:108C900051F8043B40F8043B51F8043B40F8043BD6
:108CA00051F8043B40F8043B51F8043B40F8043BC6
:108CB000403ABDD2303211D351F8043B40F8043B66
:108CC00051F8043B40F8043B51F8043B40F8043BA6
:108CD00051F8043B40F8043B103AEDD20C3205D376
:108CE00051F8043B40F8043B043AF9D2043208D06E
:108CF000D2071CBF11F8013B00F8013B01D30B88E0
:108D000003806046704700BF082A13D38B078DD0BD
:108D100010F003038AD0C3F10403D21ADB071CBF8F
:108D200011F8013B00F8013B80D331F8023B20F8F9
:108D3000023B7BE7043AD9D3013A11F8013B00F832
:108D4000013BF9D20B7803704B7843708B788370BA
:108D5000604670478842F0B50DD98B1898420AD208
:108D60008418002A51D0224613F8014D02F8014D13
:108D70009942F9D1F0BD0F2A48D941EA00039B0777
:108D800046D100F1100401F11003154653F8106CA0
:108D900044F8106C53F80C6C44F80C6C53F8086CE5
:108DA00044F8086C103D53F8046C44F8046C0F2D23
:108DB00003F1100304F11004E8D8A2F1100323F02A
:108DC0000F0302F00F0E1033BEF1030F19440344DA
:108DD00021D91E1F0D467446043C55F8047B46F805
:108DE000047F032CF8D8AEF1040424F00304043407
:108DF0002144234402F0030262B1013B0A4411F80A
:108E0000014B03F8014F8A42F9D1F0BD0346F3E765
:108E10000346F2E7F0BD7246EEE700BF0148FFF7F8
:108E200033BB00BF341140200148FFF72FBB00BF08
:108E300034114020C36C70B505460C464BB153F855
:108E4000240080B1026843F8242000230361C3603A
:108E500070BD2122042100F0DDFEE86403460028F5
:108E6000EDD1002070BD012101FA04F6721D2846E3
:108E7000920000F0CFFE0028F3D044608660E4E763
:108E800031B1C36C4A6853F82200086043F82210DD
:108E9000704700BFF0B50C6983B00D46064601F17E
:108EA000140E0027DEF8000081B202FB0133010C32
:108EB000180C02FB01019BB2013703EB0143BC42DA
:108EC0004EF8043B4FEA1143ECDC3BB1AA689442F4
:108ED00007DA05EB8402013453612C61284603B0A4
:108EE000F0BD6968019301313046FFF7A3FF2A699D
:108EF000023205F10C01074692000C30FFF790FE9C
:108F0000F26C6968019B52F82100286042F82150F8
:108F10003D46DEE7020C12040346B2B903041020FA
:108F200013F07F4F04BF1B02083013F0704F04BFD3
:108F30001B01043013F0404F04BF9B000230002B94
:108F400002DB5B0003D4202070470020E8E70130FB
:108F5000704700BF036813F00702014607D0DA0725
:108F600021D4980721D49B080B600220704798B247
:108F700098B1104613F0FF0F04BF1B0A08301A0700
:108F800004BF1B0904309A0704BF9B080230DA07AC
:108F900007D45B0804D1202070471B0C1020E9E7A0
:108FA00001300B607047002070475B080B600120A8
:108FB000704700BF10B50C460121FFF73BFF0122AF
:108FC0004461026110BD00BF2DE9F04F0C691569C5
:108FD000AC4283B08B46164604DA2246B3462C4692
:108FE0000E461546DBF80830DBF8041004EB0508E4
:108FF0009845C8BF0131FFF71DFF00F1140909EBC7
:10900000880AD145009005D24B46002143F8041B45
:109010009A45FBD806F1140C0CEB85030BF1140BED
:109020009C450BEB840E4CD2CDF804A09A46DCF89C
:109030000050AFB2EFB100214D465E460C4656F8E7
:10904000042B286893B281B207FB0313120C010CA6
:10905000234407FB021101EB13419BB243EA014396
:10906000B64545F8043B4FEA1144E8D82C60DCF8DB
:1090700000502D0C1DD0D9F8003048461C465946EA
:1090800000220E88240C05FB064422449BB243EACE
:10909000024340F8043B51F8043B04681B0CA6B2A1
:1090A00005FB036303EB12438E454FEA1342E8D8F6
:1090B00003600CF1040CE24509F10409B7D8DDF8AE
:1090C00004A0B8F1000F0BDD5AF8043CAAF1040A21
:1090D0001BB105E05AF8043D13B9B8F10108F9D104
:1090E0000098C0F8108003B0BDE8F08F12F00303C1
:1090F0002DE9F041144607462ED10D46A4101CD090
:10910000BE6C96B3E3074FF0000806D4641014D089
:109110003068A8B10646E307F8D5324629463846F6
:10912000FFF752FFB5B16A68FB6C641053F8221068
:10913000296043F822500546EAD12846BDE8F0816F
:10914000324631463846FFF73FFF3060C0F80080B6
:109150000646E0E70546D9E75A1E0B4D002355F8B1
:109160002220FFF797FE0546C8E701213846FFF7A2
:1091700061FE40F271210122002341610261064635
:10918000B8640360BEE700BF88BA40002DE9F84329
:1091900091460A698B684FEA691404EB020808F1EA
:1091A00001059D420E460746496804DD5B009D426D
:1091B00001F10101FADC3846FFF73CFE002C00F11A
:1091C000140306DD03EB8402002143F8041B9A42DA
:1091D000FBD1346906F1140119F01F0901EB840E6B
:1091E0001DD0C9F1200C00220C6804FA09F41443C4
:1091F00043F8044B51F8042B8E4522FA0CF2F3D8B5
:109200001A600AB108F10205FB6C7268013D53F85F
:1092100022100561316043F82260BDE8F883043B09
:1092200051F8042B43F8042F8E45F9D8ECE700BF22
:1092300030B40B6905460069C01A0FD19B00143584
:10924000143119442B4401E09D4207D253F8044DD8
:1092500051F8042D9442F7D002D3012030BC70475E
:109260004FF0FF30FAE700BF2DE9F0410F690E46DD
:1092700011697F1A002F904617D1890006F1140555
:1092800002F1140E6B18714401E09D425CD253F858
:10929000042D51F8044DA242F7D05ED233462C463D
:1092A000464675469846012705E058DB06F1140549
:1092B00008F1140400277168FFF7BCFDD8F81030DE
:1092C0003669C76004EB830CA64605EB860700F100
:1092D000140400235EF8041B55F8048B8AB213FAB9
:1092E00088F3090C9A1AC1EB184303EB224392B29C
:1092F00042EA0342F44544F8042B4FEA2343E9D8F9
:10930000AF4217D9A446AE465EF8042B13FA82F397
:10931000191401EB12419BB243EA014277454CF824
:10932000042B4FEA2143EFD8ED432F4427F00307E6
:1093300004373C44043C22B954F8043D013E002B60
:10934000FAD00661BDE8F0810021FFF773FD01222C
:10935000002302614361BDE8F0817446ABE7334608
:1093600006F1140402F11405164601279846A2E7F7
:109370002DE9F04182B001211C46C3F30A5715467E
:10938000089EFFF757FDC4F3130480460FB144F461
:10939000801401941DB302A840F8085DFFF7DAFDC0
:1093A000002834D19DE80C00C8F81420002B0CBF15
:1093B00001210221C8F81830C8F81010DFB908EBF5
:1093C0008103A0F2324030601869FFF7A3FD099BCA
:1093D000C0EB41101860404602B0BDE8F08101A822
:1093E000FFF7B8FD019BC8F8143001212030C8F800
:1093F0001010002FE3D0099BA7F233470744C0F1B8
:10940000350037601860404602B0BDE8F0819DE845
:109410000A00C0F1200203FA02F20A43C34001939A
:10942000C8F81420C2E700BF002900F095802DE99C
:10943000F04F0D46164683B0804606F10B07FFF746
:10944000EDFC55F804EC162F2EF00304A5F10809E5
:109450003CD810221746BE423DD8944243DAC44B52
:10946000996809EB0400884200F0B480436823F057
:10947000010101444968C9074CD51EF0010F00F0F5
:109480009B8031464046FFF783F8064600283AD0D5
:1094900055F8043C23F001034B44A0F108029A4222
:1094A00000F02181221F242A00F20781132A00F2F2
:1094B000DB8003462A46116819605168596092683A
:1094C0009A6029464046FEF737FD1CE027F0070763
:1094D000002F3A46BFDA00260C233046C8F8003089
:1094E00003B0BDE8F08F2E46E31B0F2B1ED8D9F832
:1094F000043003F0010323434C44C9F8043063688B
:1095000043F0010363604046FFF78EFC304603B032
:10951000BDE8F08F23F00303E11891421FDBC3681D
:1095200082682E46D3600C469A60DDE7D9F80420A5
:1095300009EB070102F001024C4443F00103174319
:10954000C9F804704B60636843F00103083163603D
:109550004046FEF7F1FCD6E71146FFF719B81EF0BA
:10956000010F8ED155F8081CA9EB010ADAF8041096
:1095700021F003010B442344934225DBC268816838
:109580005646CA609160DAF80C1056F8080F221F90
:10959000242AC160886000F29480132A6FD9296858
:1095A000CAF808106968CAF80C101B2A00F2A280D9
:1095B00008350AF1100263E055F8083CA9EB030AEC
:1095C000DAF8041021F0030163189342FFF659AF53
:1095D0005646D8E7416821F0030BA34407F1100079
:1095E000834556DA1EF0010F7FF44BAF55F8081C87
:1095F000A9EB010ADAF8041021F003018B44584565
:10960000E2DC5646DAF80C1056F8080F221F242A1E
:10961000C160886000F28F80132A40F28A80296836
:10962000CAF808106968CAF80C101B2A00F28A8070
:1096300008350AF110022968116069685160A9684B
:1096400091600AEB0701ABEB070242F0010299605F
:109650004A60DAF8043003F001031F434046CAF8B9
:109660000470FFF7E1FB51E72B6803606B68436010
:109670001B2A2DD800F1080305F108021BE732462A
:109680002968116069685160A96891601C46D146DB
:109690002AE709EB0701ABEB070B4BF001029960DE
:1096A0004A6055F8043C03F001031F43404645F867
:1096B000047CFFF7B9FB2E4628E72946FFF74AFB53
:1096C000FFE6294630461C46D146FFF743FB0BE731
:1096D000AB688360EB68C360242A17D000F11003E5
:1096E00005F11002E7E650F8043C23F003031C44A4
:1096F0002E46F9E6A968CAF81010E968CAF81410ED
:10970000242A0CD010350AF11802B9E72B6903613D
:109710006B69436105F1180200F11803CBE62A6971
:10972000CAF818206A69CAF81C2018350AF1200204
:10973000A6E732467FE7294630460193FFF70AFB4A
:10974000019B7EE7A968CAF81010E968CAF81410EE
:10975000242A03D010350AF118026CE72A69CAF8E6
:1097600018206A69CAF81C2018350AF1200262E73D
:10977000C805402038B5074C00230546084623603D
:10978000FAF7F4F8431C00D038BD2368002BFBD057
:109790002B6038BD4811402010B50C46B1F90E10B1
:1097A00000F018FB002803DB236D0344236510BD84
:1097B000A38923F48053A38110BD00BF2DE9F0419C
:1097C0001646B1F90C201F46D3050C46054607D5B1
:1097D00000220223B1F90E1000F0E6FAB4F90C20D1
:1097E000B4F90E1022F48052A2813B46324628463C
:1097F000BDE8F04100F096B910B50C46B1F90E1075
:1098000000F0D2FAA389421C0EBF23F4805343F424
:1098100080532065A38110BDB1F90E1000F02ABA63
:10982000C9B2002941D08207F0B467D00378002B79
:1098300068D0994237D0431C04E013F8010B90B371
:1098400081422FD09A071C46F7D1256841EA0123AF
:1098500043EA034383EA0506A6F10130A5F101328C
:1098600020EA060022EA0502024312F0803F11D1ED
:10987000204650F8046F83EA0607A7F10135A6F1E8
:10988000013225EA070522EA06022A4312F0803F48
:10989000EFD00446207818B905E014F8010F10B194
:1098A0008142FAD12046F0BC7047830724D0037868
:1098B000002BF9D0431C03E002780133002AF3D0D7
:1098C00099071846F8D11968A1F1013222EA01027C
:1098D00012F0803F08D153F8041FA1F1013222EAAF
:1098E000010212F0803FF6D01A78184642B110F803
:1098F000013F002BFBD170470346E4E70446A4E791
:10990000184670471846CEE72DE9F04F936883B0AC
:109910009046002B70D082460C4617688D68086808
:1099200042E0A38913F4906F2ED06569216905EB9D
:109930004505A0EB010B05EBD5750BF101006D1092
:109940003044A8422A4684BF05462A465B0538D5DE
:1099500011465046FEF71CFE00283CD05A462169AD
:109960000190FFF75DF9A289019B22F4906242F019
:109970008002A281A5EB0B0203EB0B006561236162
:109980002060A2603546B3465A464946FFF7E2F9E1
:10999000D8F80830A2682068551B58449E1BA56063
:1099A0002060C8F808603EB37E683B460837002E4A
:1099B000FAD0AE42D3F80090AB46B2D23546B346A9
:1099C000E2E75046FFF730FD03460028D2D1216977
:1099D0005046FEF7B1FA0C23CAF80030A3890022E2
:1099E00043F040034FF0FF30A381C8F80820C8F8C7
:1099F000042003B0BDE8F08F0020C8F8040003B0D5
:109A0000BDE8F08FF8B50D461446064610B1836BDD
:109A1000002B4BD0B4F90C20A369A36091B20807C6
:109A200039D52369002B36D0EDB289042F4615D5E0
:109A300022686169D31A8B421CDA0133A168501C79
:109A40000139A1602060157062699A421AD0A38919
:109A5000DB0701D50A2D15D03846F8BD616E42F4FA
:109A6000005221F40051A281226861666169D31A13
:109A70008B42E2DB21463046FEF7E0F840B922682F
:109A80000123DBE721463046FEF7D8F80028E3D073
:109A90004FF0FF37E0E721463046FCF7FBFF002898
:109AA000F6D1B4F90C20236991B2BDE7FEF71EF997
:109AB000B0E700BFF0B5064685B01F4689B1104C2F
:109AC000104D2468646B002C08BF2C46D4F8E0408D
:109AD000A047431C03D100228A233A60336005B0BB
:109AE000F0BD0C460649074A0968496B002908BFC2
:109AF00011462246D1F8E04001A9A047E9E700BF9E
:109B00002C0040205C04402021B1FF2A04D80A70B8
:109B100001207047084670478A2303604FF0FF30EA
:109B2000704700BF70B50D46084C114606461A46F0
:109B3000284600232360F9F7F7F8431C00D070BDD6
:109B40002368002BFBD0336070BD00BF481140205C
:109B50002DE9F8432C4D0646286898460F46914655
:109B6000FEF792FC294B1C68D4F84831002B3ED0FC
:109B70005A681F2A1CDC02F1010E76B103EB820148
:109B80000124C1F88890D3F8880194402043022E24
:109B9000C3F88801C1F8088123D00232C3F804E079
:109BA000286843F82270FEF771FC0020BDE8F883B6
:109BB000174B0BB34FF4C870FEF7E2FC0346D8B165
:109BC000D4F848210260002141600A46C4F84801E7
:109BD0004FF0010EC0F88811C0F88C11002EDCD0B7
:109BE000CCE7D3F88C110C43C3F88C41D5E704F5CE
:109BF000A673C4F84831BBE72868FEF747FC4FF06E
:109C0000FF30BDE8F88300BF58044020ECB84000A6
:109C10008185400010B502FB01F1FEF7B9FC044656
:109C2000D8B150F8042C22F00302043A242A18D8A0
:109C3000132A14D900231B2A0360436016D9242A4F
:109C40008360C36011BF00F110020361436100F142
:109C500018020023136053609360204610BD024633
:109C6000F7E70021FAF7F0F9204610BD00F10802ED
:109C7000EFE700BF38B5074C0023054608462360D0
:109C8000F9F790FE431C00D038BD2368002BFBD0B1
:109C90002B6038BD4811402070B559B105460C46BF
:109CA00010B1836B002B3CD0636ED80705D5B4F997
:109CB0000C302BB90026304670BDA38999053CD5E0
:109CC00021462846FDF71AFFE36A064633B1E169EB
:109CD000284698470028B8BF4FF0FF36A3891A06D8
:109CE00022D4216B41B104F14003994202D02846AD
:109CF000FEF722F900232363616C21B12846FEF7A9
:109D00001BF900236364FEF71DF8636E0022DB0776
:109D1000A2810ED5A06DFEF7B5FBFEF719F830460F
:109D200070BDFDF7E3FFBFE721692846FEF704F9A0
:109D3000D7E7A06DFEF7AAFBECE7A06DFEF7A4FB4A
:109D4000B4F90C30002BBBD1666E16F00106B1D110
:109D5000A06DFEF79BFB304670BD00BF38B50B46CB
:109D6000074C05461146184600232360F9F71DFEEF
:109D7000431C00D038BD2368002BFBD02B6038BDBE
:109D80004811402038B5074C00230546084623609B
:109D9000F9F710FE431C00D038BD2368002BFBD020
:109DA0002B6038BD4811402070B50D46084C114657
:109DB00006461A46284600232360F9F7FDFD431C9A
:109DC00000D070BD2368002BFBD0336070BD00BF96
:109DD0004811402070B50D46084C114606461A46FB
:109DE000284600232360F8F781FF431C00D070BD94
:109DF0002368002BFBD0336070BD00BF48114020AA
:109E000081F0004102E000BF83F0004330B54FEA2B
:109E100041044FEA430594EA050F08BF90EA020F98
:109E20001FBF54EA000C55EA020C7FEA645C7FEA2B
:109E3000655C00F0E2804FEA5454D4EB5555B8BF4E
:109E40006D420CDD2C4480EA020281EA030382EABF
:109E5000000083EA010180EA020281EA0303362D51
:109E600088BF30BD11F0004F4FEA01314FF4801C24
:109E70004CEA113102D0404261EB410113F0004F36
:109E80004FEA03334CEA133302D0524263EB4303ED
:109E900094EA050F00F0A780A4F10104D5F1200E8B
:109EA0000DDB02FA0EFC22FA05F2801841F10001E6
:109EB00003FA0EF2801843FA05F359410EE0A5F1BA
:109EC00020050EF1200E012A03FA0EFC28BF4CF0EB
:109ED000020C43FA05F3C01851EBE37101F00045A1
:109EE00007D54FF0000EDCF1000C7EEB00006EEBAE
:109EF0000101B1F5801F1BD3B1F5001F0CD3490838
:109F00005FEA30004FEA3C0C04F101044FEA44528E
:109F100012F5800F80F09A80BCF1004F08BF5FEA15
:109F2000500C50F1000041EB045141EA050130BDF5
:109F30005FEA4C0C404141EB010111F4801FA4F198
:109F40000104E9D191F0000F04BF01460020B1FAED
:109F500081F308BF2033A3F10B03B3F120020CDA25
:109F60000C3208DD02F1140CC2F10C0201FA0CF003
:109F700021FA02F10CE002F11402D8BFC2F1200C68
:109F800001FA02F120FA0CFCDCBF41EA0C0190401E
:109F9000E41AA2BF01EB0451294330BD6FEA040467
:109FA0001F3C1CDA0C340EDC04F11404C4F1200252
:109FB00020FA04F001FA02F340EA030021FA04F364
:109FC00045EA030130BDC4F10C04C4F1200220FABB
:109FD00002F001FA04F340EA0300294630BD21FAF9
:109FE00004F0294630BD94F0000F83F4801306BFBF
:109FF00081F480110134013D4EE77FEA645C18BFB3
:10A000007FEA655C29D094EA050F08BF90EA020F49
:10A0100005D054EA000C04BF1946104630BD91EA41
:10A02000030F1EBF0021002030BD5FEA545C05D144
:10A030004000494128BF41F0004130BD14F5800483
:10A040003CBF01F5801130BD01F0004545F0FE41F7
:10A0500041F470014FF0000030BD7FEA645C1ABF2C
:10A06000194610467FEA655C1CBF0B46024650EA63
:10A07000013406BF52EA033591EA030F41F400218F
:10A0800030BD00BF90F0000F04BF0021704730B515
:10A090004FF4806404F132044FF000054FF00001EA
:10A0A00050E700BF90F0000F04BF0021704730B5AB
:10A0B0004FF4806404F1320410F0004548BF404280
:10A0C0004FF000013EE700BF42004FEAE2014FEAD5
:10A0D00031014FEA02701FBF12F07F4393F07F4FB0
:10A0E00081F06051704792F0000F14BF93F07F4FE2
:10A0F000704730B54FF4607401F0004521F0004125
:10A1000020E700BF50EA010208BF704730B54FF0AA
:10A1100000050AE050EA010208BF704730B511F0AF
:10A12000004502D5404261EB41014FF4806404F1E7
:10A1300032045FEA915C3FF4DCAE4FF003025FEA69
:10A14000DC0C18BF03325FEADC0C18BF033202EBF1
:10A15000DC02C2F1200300FA03FC20FA02F001FA4B
:10A1600003FE40EA0E0021FA02F11444C1E600BFEA
:10A1700070B54FF0FF0C4CF4E06C1CEA11541DBF9D
:10A180001CEA135594EA0C0F95EA0C0F00F0DEF868
:10A190002C4481EA030621EA4C5123EA4C5350EA4D
:10A1A000013518BF52EA033541F4801143F480139E
:10A1B00038D0A0FB02CE4FF00005E1FB02E506F02F
:10A1C0000042E0FB03E54FF00006E1FB03569CF084
:10A1D000000F18BF4EF0010EA4F1FF04B6F5007F8A
:10A1E00064F5407404D25FEA4E0E6D4146EB0606FC
:10A1F00042EAC62141EA55514FEAC52040EA5E5085
:10A200004FEACE2EB4F1FD0C88BFBCF5E06F1ED82E
:10A21000BEF1004F08BF5FEA500E50F1000041EB65
:10A22000045170BD06F0004646EA010140EA020012
:10A2300081EA0301B4EB5C04C2BFD4EB0C0541EA34
:10A24000045170BD41F480114FF0000E013C00F349
:10A25000AB8014F1360FDEBF002001F0004170BD6D
:10A26000C4F10004203C35DA0C341BDC04F1140486
:10A27000C4F1200500FA05F320FA04F001FA05F212
:10A2800040EA020001F0004221F0004110EBD370DF
:10A2900021FA04F642EB06015EEA430E08BF20EA0B
:10A2A000D37070BDC4F10C04C4F1200500FA04F3AE
:10A2B00020FA05F001FA04F240EA020001F0004140
:10A2C00010EBD37041F100015EEA430E08BF20EAB3
:10A2D000D37070BDC4F1200500FA05F24EEA020EFB
:10A2E00020FA04F301FA05F243EA020321FA04F02A
:10A2F00001F0004121FA04F220EA020000EBD370E1
:10A300005EEA430E08BF20EAD37070BD94F0000FE0
:10A310000FD101F00046400041EB010111F4801F14
:10A3200008BF013CF7D041EA060195F0000F18BFC5
:10A33000704703F00046520043EB030313F4801F01
:10A3400008BF013DF7D043EA0603704794EA0C0FBB
:10A350000CEA135518BF95EA0C0F0CD050EA4106D1
:10A3600018BF52EA4306D1D181EA030101F000414E
:10A370004FF0000070BD50EA410606BF1046194676
:10A3800052EA430619D094EA0C0F02D150EA013682
:10A3900013D195EA0C0F05D152EA03361CBF1046C3
:10A3A00019460AD181EA030101F0004141F0FE4162
:10A3B00041F470014FF0000070BD41F0FE4141F4E6
:10A3C000780170BD70B54FF0FF0C4CF4E06C1CEAE6
:10A3D00011541DBF1CEA135594EA0C0F95EA0C0F9B
:10A3E00000F0A7F8A4EB050481EA030E52EA033556
:10A3F0004FEA013100F088804FEA03334FF0805577
:10A4000045EA131343EA12634FEA022245EA1115A3
:10A4100045EA10654FEA00260EF000419D4208BF54
:10A42000964244F1FD0404F5407402D25B084FEA01
:10A430003202B61A65EB03055B084FEA32024FF4AD
:10A4400080104FF4002CB6EB020E75EB030E22BF0A
:10A45000B61A754640EA0C005B084FEA3202B6EBCA
:10A46000020E75EB030E22BFB61A754640EA5C0079
:10A470005B084FEA3202B6EB020E75EB030E22BF09
:10A48000B61A754640EA9C005B084FEA3202B6EB0A
:10A49000020E75EB030E22BFB61A754640EADC00C9
:10A4A00055EA060E18D04FEA051545EA16754FEA2B
:10A4B00006164FEAC30343EA52734FEAC2025FEA49
:10A4C0001C1CC0D111F4801F0BD141EA00014FF0D8
:10A4D00000004FF0004CB6E711F4801F04BF0143A9
:10A4E0000020B4F1FD0C88BFBCF5E06F3FF6AFAEC5
:10A4F000B5EB030C04BFB6EB020C5FEA500C50F155
:10A50000000041EB045170BD0EF0004E4EEA1131D7
:10A5100014EB5C04C2BFD4EB0C0541EA045170BDDE
:10A5200041F480114FF0000E013C90E645EA060E22
:10A530008DE60CEA135594EA0C0F08BF95EA0C0F50
:10A540003FF43BAF94EA0C0F0AD150EA01347FF498
:10A5500034AF95EA0C0F7FF425AF104619462CE76F
:10A5600095EA0C0F06D152EA03353FF4FDAE1046D2
:10A57000194622E750EA410618BF52EA43067FF423
:10A58000C5AE50EA41047FF40DAF52EA43057FF4B3
:10A59000EBAE12E74FF0FF3C06E000BF4FF0010CBE
:10A5A00002E000BF4FF0010C4DF804CD4FEA410C22
:10A5B0007FEA6C5C4FEA430C18BF7FEA6C5C1BD0EF
:10A5C00001B050EA410C0CBF52EA430C91EA030F70
:10A5D00002BF90EA020F0020704710F1000F91EACD
:10A5E000030F58BF994208BF90422CBFD8176FEA9B
:10A5F000E37040F0010070474FEA410C7FEA6C5C69
:10A6000002D150EA013C07D14FEA430C7FEA6C5C6F
:10A61000D6D152EA033CD3D05DF8040B704700BF9B
:10A620008446104662468C461946634600E000BFE9
:10A6300001B5FFF7B7FF002848BF10F1000F01BDBB
:10A640004DF808EDFFF7F4FF0CBF012000205DF886
:10A6500008FB00BF4DF808EDFFF7EAFF34BF01200B
:10A6600000205DF808FB00BF4DF808EDFFF7E0FFA4
:10A6700094BF012000205DF808FB00BF4DF808EDF5
:10A68000FFF7CEFF94BF012000205DF808FB00BF5C
:10A690004DF808EDFFF7C4FF34BF012000205DF83E
:10A6A00008FB00BF4FEA410C7FEA6C5C02D150EA24
:10A6B000013C0AD14FEA430C7FEA6C5C02D152EABA
:10A6C000033C02D14FF0000070474FF0010070478B
:10A6D0004FEA410212F5001215D211D56FF47873CA
:10A6E000B3EB625212D94FEAC12343F0004343EA6D
:10A6F000505311F0004F23FA02F018BF4042704748
:10A700004FF00000704750EA013005D111F00040D1
:10A7100008BF6FF0004070474FF00000704700BF67
:10A7200053B94AB9002908BF00281CBF4FF0FF31B8
:10A730004FF0FF3000F07AB9ADF1080C6DE904CEAE
:10A7400000F006F8DDF804E0DDE9022304B070470C
:10A750002DE9F0478C460D460446089E002B51D14A
:10A760008A4217466DD9B2FA82FEBEF1000F0BD0B5
:10A77000CEF1200C01FA0EF520FA0CFC02FA0EF7CD
:10A780004CEA050C00FA0EF44FEA174A250CBCFB04
:10A79000FAF81FFA87F90AFB18CC45EA0C4508FBC2
:10A7A00009F3AB420AD9ED1908F1FF3280F0238199
:10A7B000AB4240F22081A8F102083D44ED1AA4B258
:10A7C000B5FBFAF00AFB105544EA054400FB09F911
:10A7D000A14509D9E41900F1FF3380F00A81A145B0
:10A7E00040F2078102383C44A4EB090440EA0840E7
:10A7F0000021002E61D024FA0EF40023346073602F
:10A80000BDE8F0878B4207D9002E54D0002186E89E
:10A8100021000846BDE8F087B3FA83F1002940F033
:10A820008E80AB4202D3824200F2FA80841A65EB3A
:10A8300003050120AC46002E3FD086E81010BDE88D
:10A84000F08712B90127B7FBF2F7B7FA87FEBEF11E
:10A85000000F34D1EB1B3A0C1FFA87FC0121B3FB2C
:10A86000F2F8250C02FB183345EA03450CFB08F30C
:10A87000AB4207D9ED1908F1FF3002D2AB4200F22A
:10A88000D1808046ED1AA3B2B5FBF2F002FB105561
:10A8900043EA05440CFB00FCA44507D9E41900F188
:10A8A000FF3302D2A44500F2B8801846A4EB0C0492
:10A8B00040EA08409DE731463046BDE8F087CEF1DA
:10A8C000200405FA0EF307FA0EF720FA04F83A0C02
:10A8D00025FA04F448EA0308B4FBF2F14FEA1845FC
:10A8E00002FB11441FFA87FC45EA044501FB0CF307
:10A8F000AB4200FA0EF409D9ED1901F1FF3080F0F6
:10A900008A80AB4240F2878002393D44EB1A1FFA3D
:10A9100088F5B3FBF2F002FB103345EA034500FB78
:10A920000CF3AB4207D9ED1900F1FF386FD2AB42FF
:10A930006DD902383D44EB1A40EA01418FE7C1F17D
:10A94000200722FA07F88B4005FA01F448EA0303CE
:10A9500020FA07FE4FEA134CFD404EEA040EB5FB09
:10A96000FCF94FEA1E440CFB19551FFA83F844EA20
:10A97000054509FB08F4AC4202FA01F200FA01FABB
:10A9800008D9ED1809F1FF3043D2AC4241D9A9F101
:10A9900002091D442D1B1FFA8EFEB5FBFCF00CFBBB
:10A9A00010554EEA054400FB08F8A04507D9E41805
:10A9B00000F1FF3529D2A04527D902381C4440EACE
:10A9C0000940A4EB0804A0FB02894C45C6464D464D
:10A9D00015D312D056B1BAEB0E0364EB050404FA9A
:10A9E00007F7CB401F43CC40376074600021BDE8BF
:10A9F000F0871846F8E69046E0E6C245EAD2B8EBA2
:10AA0000020E69EB03050138E4E72846D7E7404624
:10AA100091E78146BEE7014678E702383C4445E7C6
:10AA2000084608E7A8F102083D442BE7704700BF3D
:10AA30006E6D5F6275735F696F63746C0000000018
:10AA4000284150502928455252295B25735D5B25CA
:10AA5000645D0000496E76616C696420494F43541F
:10AA60004C20636F6D6D616E64210A000D00000063
:10AA70006869665F73656E64000000006869665F00
:10AA8000697372006869665F68616E646C655F69AE
:10AA9000737200006869665F726563656976650058
:10AAA0006869665F72656769737465725F63620087
:10AAB000286869662920574946495F484F53545FC3
:10AAC0005243565F4354524C5F3120627573206687
:10AAD00061696C0A000000002868696629206164C9
:10AAE000647265737320627573206661696C0A0015
:10AAF000286869662920436F7272757074656420D6
:10AB00007061636B65742053697A65203D202575FB
:10AB1000203C4C203D2025752C2047203D202575CC
:10AB20002C204F50203D20253032583E0A00000096
:10AB3000286869662920696E76616C69642067728D
:10AB40006F75702049440A00286869662920686F7B
:10AB5000737420617070206469646E27742073655B
:10AB60007420525820446F6E650A00002868696698
:10AB7000292057726F6E672053697A650A000000BA
:10AB800028686966292046616C736520696E746562
:10AB9000727275707420256C7800000028686966F0
:10ABA00029204661696C20746F20526561642069B8
:10ABB0006E74657272757074207265670A000000A9
:10ABC0002868696629204641494C20746F207761C6
:10ABD0006B6575702074686520636869700A000091
:10ABE0002848494629204661696C20746F206861B5
:10ABF0006E646C6520696E74657272757074202560
:10AC0000642074727920416761696E2E2E0A0000FB
:10AC1000206869665F726563656976653A20496E8A
:10AC200076616C696420617267756D656E740A0087
:10AC30004150502052657175657374656420536985
:10AC40007A65206973206C6172676572207468612F
:10AC50006E2074686520726563697665642062752C
:10AC6000666665722073697A65203C25643E3C25E2
:10AC7000643E0A00415050205265717565737465D9
:10AC8000642041646472657373206265796F6E64D9
:10AC900020746865207265636976656420627566F4
:10ACA000666572206164647265737320616E6420EE
:10ACB0006C656E6774680A00475270203F202564F7
:10ACC0000A00000028484946294661696C20746FD3
:10ACD0002077616B75702074686520636869700AFD
:10ACE000000000006D326D5F776966695F63620026
:10ACF0006D326D5F776966695F696E697400000027
:10AD00006D326D5F776966695F636F6E6E656374E0
:10AD10005F736300284150502928494E464F29004F
:10AD2000436F6E666C69637465642049502022200D
:10AD300025752E25752E25752E25752022200A00B5
:10AD4000524551204E6F7420646566696E656420BB
:10AD500025640A004B6579206973206E6F74207634
:10AD6000616C69640A000000496E76616C69642058
:10AD70004B65790A0000000053534944204C454E6E
:10AD800020494E56414C49440A000000434820499E
:10AD90004E56414C49440A00496E76616C69642004
:10ADA000576570206B657920696E6465782025642D
:10ADB0000A000000496E76616C6964205765702056
:10ADC0006B6579206C656E6774682025640A0000E5
:10ADD000496E636F72726563742050534B206B65CC
:10ADE00079206C656E6774680A000000756E646592
:10ADF00066696E65642073656320747970650A0006
:10AE00004669726D77617265207665722020203AFE
:10AE10002025752E25752E25750A00004D696E209A
:10AE200064726976657220766572203A2025752EE7
:10AE300025752E25750A00004375727220647269AB
:10AE4000766572207665723A2025752E25752E2539
:10AE5000750A00004D69736D6174636820466972FC
:10AE60006D617772652056657273696F6E0A0000B6
:10AE70006E6D5F636C6B6C6573735F77616B6500A0
:10AE8000636869705F6465696E6974006661696CA6
:10AE9000656420746F2064652D696E697469616CE6
:10AEA000697A650A000000004572726F7220776847
:10AEB000696C652077726974696E67207265670ACC
:10AEC000000000004572726F72207768696C65201F
:10AED00072656164696E67207265670A0000000030
:10AEE000427573206572726F72202831292E2057A7
:10AEF000616B65207570206661696C65640A00008D
:10AF0000427573206572726F72202832292E205785
:10AF1000616B65207570206661696C65640A00006C
:10AF2000636C6F636B73207374696C6C204F46465F
:10AF30002E2057616B65207570206661696C6564B1
:10AF40000A0000007265673A2578202F20257820B6
:10AF50000A0000006E6D5F6472765F696E6974004E
:10AF60006E6D5F6472765F6465696E69740000007F
:10AF70005B6E6D692073746F705D3A2063686970F1
:10AF80005F6465696E6974206661696C0A0000001F
:10AF90005B6E6D692073746F705D3A205350492069
:10AFA000666C6173682064697361626C65206661B8
:10AFB000696C0A005B6E6D692073746F705D3A2076
:10AFC0006661696C20696E6974206275730A00009D
:10AFD0006661696C656420746F20656E61626C6582
:10AFE00020696E74657272757074732E2E0A00007B
:10AFF0005B6E6D692073746172745D3A206661697D
:10B000006C20696E6974206275730A004368697008
:10B0100020494420256C780A000000007370695FA5
:10B02000636D64007370695F636D645F7273700059
:10B030007370695F646174615F72656164000000D0
:10B040007370695F646174615F7772697465000031
:10B050007370695F77726974655F7265670000007D
:10B060006E6D5F7370695F777269746500000000D0
:10B070007370695F726561645F72656700000000EC
:10B080006E6D5F7370695F72656164006E6D5F7392
:10B0900070695F696E6974000009121B242D363FC8
:10B0A00048415A536C657E7719100B023D342F26A8
:10B0B0005158434A757C676E323B2029161F040D98
:10B0C0007A7368615E574C452B2239300F061D1488
:10B0D000636A7178474E555C646D767F4049525B78
:10B0E0002C253E3708011A137D746F6659504B4268
:10B0F000353C272E1118030A565F444D727B606958
:10B100001E170C053A3328214F465D546B62797047
:10B11000070E151C232A31384148535A656C777E37
:10B1200009001B122D243F3658514A437C756E6727
:10B130001019020B343D262F737A6168575E454C17
:10B140003B3229201F160D046A6378714E475C5507
:10B15000222B3039060F141D252C373E0108131AF7
:10B160006D647F7649405B523C352E2718110A03E7
:10B17000747D666F5059424B171E050C333A2128D7
:10B180005F564D447B7269600E071C152A233831C7
:10B19000464F545D626B70795B6E6D6920737069A8
:10B1A0005D3A204661696C656420696E7465726EF3
:10B1B000616C20726561642070726F746F636F6C74
:10B1C000207769746820435243206F6E2C2072658B
:10B1D000747972696E6720776974682043524320DE
:10B1E0006F66662E2E2E0A005B6E6D692073706985
:10B1F0005D3A204661696C656420696E7465726EA3
:10B20000616C20726561642070726F746F636F6C23
:10B210002E2E2E0A000000005B6E6D69207370698F
:10B220005D3A204661696C656420696E7465726E72
:10B23000616C2077726974652070726F746F636FD0
:10B240006C207265672E2E2E0A0000005B6E6D6901
:10B25000207370695D3A204661696C20636D6420DB
:10B260007265616420636869702069642E2E2E0AFD
:10B27000000000005B6E6D69207370695D3A2046C6
:10B2800061696C656420636D642C20726561642063
:10B29000626C6F636B202825303878292E2E2E0A99
:10B2A000000000005B6E6D69207370695D3A204696
:10B2B00061696C656420636D6420726573706F6E84
:10B2C00073652C207265616420626C6F636B20284B
:10B2D00025303878292E2E2E0A0000005B6E6D690D
:10B2E000207370695D3A204661696C656420626C08
:10B2F0006F636B206461746120726561642E2E2E11
:10B300000A0000005B6E6D69207370695D3A20462B
:10B3100061696C656420636D642C20777269746563
:10B3200020626C6F636B202825303878292E2E2EF2
:10B330000A0000005B6E6D6920737069205D3A2021
:10B340004661696C656420636D6420726573706F1B
:10B350006E73652C20777269746520626C6F636B05
:10B36000202825303878292E2E2E0A005B6E6D6934
:10B37000207370695D3A204661696C656420646180
:10B38000746120626C6F636B20636D6420777269F7
:10B3900074652C20627573206572726F722E2E2E6A
:10B3A0000A0000005B6E6D69207370695D3A20468B
:10B3B00061696C6564206461746120626C6F636BA9
:10B3C0002077726974652C20627573206572726FC4
:10B3D000722E2E2E0A0000005B6E6D69207370695C
:10B3E0005D3A204661696C65642064617461206225
:10B3F0006C6F636B206372632077726974652C20B5
:10B40000627573206572726F722E2E2E0A00000014
:10B410005B6E6D69207370695D3A204661696C6589
:10B420006420626C6F636B20646174612077726961
:10B4300074652E2E2E0A00005B6E6D692073706994
:10B440005D3A204661696C656420636D64207772A3
:10B450006974652C20627573206572726F722E2E6E
:10B460002E0A00005B6E6D69207370695D3A20469C
:10B4700061696C656420636D6420726573706F6EC2
:10B48000736520726561642C206275732065727229
:10B490006F722E2E2E0A00005B6E6D69207370692C
:10B4A0005D3A204661696C65642064617461207254
:10B4B0006573706F6E736520726561642C206275B0
:10B4C00073206572726F722E2E2E0A005B6E6D698C
:10B4D000207370695D3A204661696C65642064611F
:10B4E000746120726573706F6E736520726561643C
:10B4F0002E2E2E2825303278290A00005B6E6D69C9
:10B50000207370695D3A204661696C6564206461EE
:10B51000746120626C6F636B20726561642C2062C1
:10B520007573206572726F722E2E2E0A0000000055
:10B530005B6E6D69207370695D3A204661696C6568
:10B5400064206461746120626C6F636B206372635A
:10B5500020726561642C20627573206572726F724F
:10B560002E2E2E0A000000005B6E6D69207370693C
:10B570005D3A204661696C656420636D642C2072BD
:10B5800065616420726567202825303878292E2E61
:10B590002E0A00005B6E6D69207370695D3A20466B
:10B5A00061696C656420636D6420726573706F6E91
:10B5B00073652C20726561642072656720282530D0
:10B5C0003878292E2E2E0A005B6E6D692073706903
:10B5D0005D3A204661696C65642064617461207223
:10B5E0006561642E2E2E0A005B6E6D692073706992
:10B5F0005D3A204661696C656420636D642C207738
:10B600007269746520726567202825303878292E84
:10B610002E2E0A005B6E6D69207370695D3A2046BC
:10B6200061696C656420636D6420726573706F6E10
:10B6300073652C20777269746520726567202825F0
:10B64000303878292E2E2E0A00000000284552524C
:10B65000522943757272656E74203C25643E0A005F
:10B660002D2D2057494E4331353030207765617498
:10B6700068657220636C69656E74206578616D70B1
:10B680006C65202D2D0D0A2D2D2053414D45373051
:10B690002D58504C44202D2D0D0A2D2D20436F6D1B
:10B6A00070696C65643A204D617920203220323017
:10B6B00031382031353A30343A3136202D2D0D0ACB
:10B6C000000000006D61696E3A206D326D5F776930
:10B6D00066695F696E69742063616C6C2065727263
:10B6E0006F7221282564290D0A00000066656972C1
:10B6F0006164616672757461000000006D61696E5D
:10B700003A20636F6E6E656374696E6720746F2094
:10B71000576946692041502025732E2E2E0D0A00B0
:10B72000667265647769666900000000496E657439
:10B730002061746F6E203A2025640000736F636B84
:10B74000657420696E6974200A0000006D61696E7D
:10B750003A206661696C656420746F20637265616C
:10B7600074652054435020636C69656E7420736F58
:10B77000636B6574206572726F72210D0A000000A0
:10B78000736F636B657420636F6E6E656374696E4F
:10B79000670A00006572726F720A00007265736F4B
:10B7A0006C76655F63623A2025732049502061649E
:10B7B00064726573732069732025642E25642E25B9
:10B7C000642E25640D0A0D0A00000000736F636B80
:10B7D00065745F6D73675F636F6E6E6563740A0097
:10B7E000474554202F3F69643D25732048545450E9
:10B7F0002F312E310D0A204163636570743A202A7F
:10B800002F2A0D0A0D0A000073656E64200A0000DD
:10B81000736F636B65745F63623A20636F6E6E650E
:10B820006374206572726F72210D0A002D2D2D2D0B
:10B830002D2D2D2D2D2D200A20257300737461745C
:10B8400075730000524553504F4E534520256420D8
:10B850000A000000736F636B65745F63623A207265
:10B86000656376206572726F72210D0A0000000018
:10B8700032313431323367333831393233380000C2
:10B88000776966695F63623A204D324D5F5749467A
:10B89000495F434F4E4E45435445440D0A00000056
:10B8A000776966695F63623A204D324D5F5749465A
:10B8B000495F444953434F4E4E45435445440D0A56
:10B8C00000000000776966695F63623A2049502092
:10B8D000616464726573732069732025752E257504
:10B8E0002E25752E25750D0A000000003000402021
:10B8F000494E4600696E66004E414E006E616E0014
:10B900003031323334353637383941424344454695
:10B910000000000030313233343536373839616257
:10B920006364656600000000286E756C6C29000079
:10B930003000000020202020202020202020202057
:10B940002020202030303030303030303030303037
:10B9500030303030202020202020202020202020A7
:10B960002020202030303030303030303030303017
:10B9700030303030496E66696E69747900000000BD
:10B980004E614E0043000000504F534958000000E4
:10B990002E000000000000000080E03779C3414322
:10B9A000176E05B5B5B89346F5F93FE9034F384D25
:10B9B000321D30F94877825A3CBF737FDD4F1575D1
:10B9C000000000000000F03F0000000000002440E4
:10B9D00000000000000059400000000000408F40BF
:10B9E000000000000088C34000000000006AF8402A
:10B9F0000000000080842E4100000000D01263414E
:10BA00000000000084D797410000000065CDCD41C3
:10BA1000000000205FA00242000000E876483742A4
:10BA2000000000A2941A6D42000040E59C30A24242
:10BA30000000901EC4BCD64200003426F56B0C43B7
:10BA40000080E03779C3414300A0D885573476435E
:10BA500000C84E676DC1AB43003D9160E458E143BF
:10BA6000408CB5781DAF154450EFE2D6E41A4B4434
:10BA700092D54D06CFF08044F64AE1C7022DB54479
:10BA8000B49DD9794378EA4405000000190000000C
:10BA90007D000000002020202020202020202828B9
:10BAA000282828202020202020202020202020207E
:10BAB00020202020208810101010101010101010BE
:10BAC00010101010100404040404040404040410EE
:10BAD000101010101010414141414141010101017C
:10BAE0000101010101010101010101010101010146
:10BAF0001010101010104242424242420202020252
:10BB00000202020202020202020202020202020215
:10BB100010101010200000000000000000000000C5
:10BB20000000000000000000000000000000000015
:10BB30000000000000000000000000000000000005
:10BB400000000000000000000000000000000000F5
:10BB500000000000000000000000000000000000E5
:10BB600000000000000000000000000000000000D5
:10BB700000000000000000000000000000000000C5
:10BB800000000000000000000000000000000000B5
:10BB90000000000000000000F8B500BFF8BC08BCC1
:10BBA0009E4670475D6B400065014000F8B500BFE0
:0CBBB000F8BC08BC9E46704741014000F4
:08BBBC0094EBFF7F0100000083
:10BBC400BFF35F8F0138FBD1704700000010000005
:10BBD4000F0000000100000000093D003139322E41
:10BBE4003136382E34332E31313200FF30004020CC
:10BBF400000000001C03402084034020EC0340208C
:10BC04000000000000000000000000000000000030
:10BC14000000000000000000000000000000000020
:10BC24000000000000000000000000000000000010
:10BC34000000000000000000000000000000000000
:10BC440000000000000000000000000000000000F0
:10BC540000000000000000000000000000000000E0
:10BC640000000000000000000000000000000000D0
:10BC740000000000000000000000000000000000C0
:10BC840000000000000000000000000000000000B0
:10BC9400000000000000000001000000000000009F
:10BCA4000E33CDAB34126DE6ECDE05000B00000064
:10BCB4000000000000000000000000000000000080
:10BCC4000000000000000000000000000000000070
:10BCD4000000000000000000000000000000000060
:10BCE4000000000000000000000000000000000050
:10C014000000000000000000241140204300000044
:10C02400000000000000000000000000000000000C
:10C0340000000000000000000000000043000000B9
:10C0440000000000000000000000000000000000EC
:10C054000000000000000000000000004300000099
:10C0640000000000000000000000000000000000CC
:10C074000000000000000000000000004300000079
:10C0840000000000000000000000000000000000AC
:10C094000000000000000000000000004300000059
:10C0A400000000000000000000000000000000008C
:10C0B4000000000000000000000000004300000039
:10C0C400000000000000000000000000000000006C
:10C0D4000000000000000000000000004300000019
:10C0E400000000000000000000000000000000004C
:10C0F400000000000000000000000000099B400058
:10C10400F18A40000000000094BA400090B9400059
:10C11400C8B74000C8B74000C8B74000C8B740001F
:10C12400C8B74000C8B74000C8B74000C8B740000F
:10C13400C8B74000FFFFFFFFFFFFFFFFFFFFFFFF48
:10C14400FFFF000001004153434949000000000083
:10C1540000000000000000000000000000000000DB
:10C164000000000000004153434949000000000062
:10C1740000000000000000000000000000000000BB
:10C1840000000000000000000000000000000000AB
:10C19400C8054020C8054020D0054020D0054020D7
:10C1A400D8054020D8054020E0054020E005402087
:10C1B400E8054020E8054020F0054020F005402037
:10C1C400F8054020F80540200006402000064020E5
:10C1D4000806402008064020100640201006402093
:10C1E4001806402018064020200640202006402043
:10C1F40028064020280640203006402030064020F3
:10C2040038064020380640204006402040064020A2
:10C214004806402048064020500640205006402052
:10C224005806402058064020600640206006402002
:10C2340068064020680640207006402070064020B2
:10C244007806402078064020800640208006402062
:10C254008806402088064020900640209006402012
:10C264009806402098064020A0064020A0064020C2
:10C27400A8064020A8064020B0064020B006402072
:10C28400B8064020B8064020C0064020C006402022
:10C29400C8064020C8064020D0064020D0064020D2
:10C2A400D8064020D8064020E0064020E006402082
:10C2B400E8064020E8064020F0064020F006402032
:10C2C400F8064020F80640200007402000074020E0
:10C2D400080740200807402010074020100740208E
:10C2E400180740201807402020074020200740203E
:10C2F40028074020280740203007402030074020EE
:10C30400380740203807402040074020400740209D
:10C31400480740204807402050074020500740204D
:10C3240058074020580740206007402060074020FD
:10C3340068074020680740207007402070074020AD
:10C34400780740207807402080074020800740205D
:10C35400880740208807402090074020900740200D
:10C364009807402098074020A0074020A0074020BD
:10C37400A8074020A8074020B0074020B00740206D
:10C38400B8074020B8074020C0074020C00740201D
:10C39400C8074020C8074020D0074020D0074020CD
:10C3A400D8074020D8074020E0074020E00740207D
:10C3B400E8074020E8074020F0074020F00740202D
:10C3C400F8074020F80740200008402000084020DB
:10C3D4000808402008084020100840201008402089
:10C3E4001808402018084020200840202008402039
:10C3F40028084020280840203008402030084020E9
:10C404003808402038084020400840204008402098
:10C414004808402048084020500840205008402048
:10C4240058084020580840206008402060084020F8
:10C4340068084020680840207008402070084020A8
:10C444007808402078084020800840208008402058
:10C454008808402088084020900840209008402008
:10C464009808402098084020A0084020A0084020B8
:10C47400A8084020A8084020B0084020B008402068
:10C48400B8084020B8084020C0084020C008402018
:10C49400C8084020C8084020D0084020D0084020C8
:10C4A400D8084020D8084020E0084020E008402078
:10C4B400E8084020E8084020F0084020F008402028
:10C4C400F8084020F80840200009402000094020D6
:10C4D4000809402008094020100940201009402084
:10C4E4001809402018094020200940202009402034
:10C4F40028094020280940203009402030094020E4
:10C504003809402038094020400940204009402093
:10C514004809402048094020500940205009402043
:10C5240058094020580940206009402060094020F3
:10C5340068094020680940207009402070094020A3
:10C544007809402078094020800940208009402053
:10C554008809402088094020900940209009402003
:10C564009809402098094020A0094020A0094020B3
:10C57400A8094020A8094020B0094020B009402063
:10C58400B8094020B8094020C0094020C009402013
:08C59400FFFFFFFF00000200A1
:04000005004037255B
:00000001FF
